{
	"data": {
		"bytecode": {
			"linkReferences": {},
			"object": "60a06040526000600360006101000a81548163ffffffff021916908363ffffffff1602179055506000600360046101000a81548163ffffffff021916908363ffffffff1602179055503480156200005557600080fd5b50604051620044d1380380620044d1833981810160405260808110156200007b57600080fd5b810190808051906020019092919080519060200190929190805190602001909291908051906020019092919050505082848383600080848484808260008263ffffffff161162000117576040517f08c379a0000000000000000000000000000000000000000000000000000000008152600401808060200182810382526023815260200180620044ae6023913960400191505060405180910390fd5b60208263ffffffff161062000194576040517f08c379a000000000000000000000000000000000000000000000000000000000815260040180806020018281038252601e8152602001807f5f6c6576656c732073686f756c64206265206c657373207468616e203332000081525060200191505060405180910390fd5b816000806101000a81548163ffffffff021916908363ffffffff1602179055508073ffffffffffffffffffffffffffffffffffffffff1660808173ffffffffffffffffffffffffffffffffffffffff1660601b8152505060008090505b8263ffffffff168163ffffffff16101562000248576200021d8163ffffffff166200040660201b60201c565b600160008363ffffffff168152602001908152602001600020819055508080600101915050620001f1565b50620002636001830363ffffffff166200040660201b60201c565b60026000808152602001908152602001600020819055505050600160048190555084600a60006101000a81548173ffffffffffffffffffffffffffffffffffffffff021916908373ffffffffffffffffffffffffffffffffffffffff16021790555083600a60146101000a81548167ffffffffffffffff021916908367ffffffffffffffff16021790555082600560006101000a81548173ffffffffffffffffffffffffffffffffffffffff021916908373ffffffffffffffffffffffffffffffffffffffff16021790555033600960006101000a81548173ffffffffffffffffffffffffffffffffffffffff021916908373ffffffffffffffffffffffffffffffffffffffff1602179055506000600b60006101000a81548173ffffffffffffffffffffffffffffffffffffffff021916908373ffffffffffffffffffffffffffffffffffffffff160217905550505050505050505080600c60006101000a81548173ffffffffffffffffffffffffffffffffffffffff021916908373ffffffffffffffffffffffffffffffffffffffff160217905550505050505062000b38565b6000808214156200043d577f09f658457775074ff4c842032a5ec2f1134c32784cca59d594caac8c503b792360001b905062000b33565b600182141562000473577f1a77569b79cb7c2eaf9368de9e3b1efc0a606561e5ab299c2337340f3cdd576a60001b905062000b33565b6002821415620004a9577f111bd0002b1e3b8f1978c932b5ccb2fab87fdb0acab2ddb266f9a346dcb11ee160001b905062000b33565b6003821415620004df577f040868ea2a363e05d7ae44280f69b49e429ab096ca2844efe91f8d6b3dad57dd60001b905062000b33565b600482141562000514577ef8f605c92c8502c8fe83be1b83b24e3f67312a388f30cbadb5dee8974137c360001b905062000b33565b60058214156200054a577f1adc043c99adbc0c86a60a36db0f661e2dd96f36ede322f954386d8935a0c5d960001b905062000b33565b600682141562000580577f2a1fedfa71da723ac3e9b35cef752fa1b647b2b737a23e91241cb7bdc419e3f460001b905062000b33565b6007821415620005b6577f17fe1974543c4c4b228e1292f7e3200d31435fc910ee5a8c5cafd329cc4b256b60001b905062000b33565b6008821415620005ec577f0e84a586eb63a0eec0f1fe5785022441f0e29e4ae859c7ce1f5fc88a42ad2e6b60001b905062000b33565b600982141562000622577f193deb901f6eeb032e02e093280db17e373d4ff52bafda9215b46bb9b0a86f3e60001b905062000b33565b600a82141562000658577f1d10ca7b985697cb519565a5006c3f44b020b2edab9b7422ed15dc34532f940660001b905062000b33565b600b8214156200068e577f1dc200763555467a4e583e00badfdc1fb4d3d3f8f1cc81f31fd2f8b38777608160001b905062000b33565b600c821415620006c4577f203dd11fdba0ed13b20ca2d6952f3feb7461836a03512e0cccce8467b320b2f660001b905062000b33565b600d821415620006fa577f0591af64e64a3e69caf23eee2bdea90885343a49f547ee9464e95d8d6267e4f760001b905062000b33565b600e82141562000730577f2af572f1077a32f46dc8e307d43c0fa6753b400b2107325976b8df7380545ff660001b905062000b33565b600f82141562000766577f043227ae4b70b1aacd04e35e6aaed7b56d91220c31e97aaf52e12a6a56984e5260001b905062000b33565b60108214156200079c577f2976f1f6a91d83d4c528dad69ece6d3d91934b0e5657e915b360c8c4c2fb54e660001b905062000b33565b6011821415620007d1577ee5c251c9e093658be0cd1b0df55b6f70f3d09146c1c8b4212a4ddcde700dbc60001b905062000b33565b601282141562000807577f0267cbbc1bc2f1c3e3073d2ee60df8cc0bfef39fe3cee735c9ad5c8ad30064d260001b905062000b33565b60138214156200083d577f2f356057bc56f67dbf159a0e8935022acd5e982dce9f4071adc43e4d57ce27e660001b905062000b33565b601482141562000873577f273db68f52f12a9d8022ae524050064e42d4d1661c9bcce958acf89b5e8b127b60001b905062000b33565b6015821415620008a9577f0496a18ad4cca81b7c98ceb197439ad925e0f7f62d69dfa42cf9574be77fe30f60001b905062000b33565b6016821415620008df577f24f89a3f943d421b2f3a554b65459f42b820ac09d6fd9d693df5f8ba732ab59660001b905062000b33565b601782141562000915577f1b55bfd751c6807df36876cdce68034ab43210be2bc8afa8043c7f428604e7a760001b905062000b33565b60188214156200094b577f16d6595a398cf20f2489b90e958166f1e19c537c0c46e9b8ea5462391ee8f14360001b905062000b33565b601982141562000981577f0f01447ef8f621592474b678ed2fc404ebaf22a6fce15364bb4152a88c11361360001b905062000b33565b601a821415620009b7577f026c2dffee48bacbc9d21cf90aa7c6e525ab01db6966a9e7e53b3d3f4d1f5a4d60001b905062000b33565b601b821415620009ed577f234fe90732795745b2c504c791242a2bb193baa1cbeab57db9324b6bb913481760001b905062000b33565b601c82141562000a23577f23a8e0a7e60981c52ebb498c260d5bef4d7c65145d17128996a77c33a3262a7e60001b905062000b33565b601d82141562000a59577f24ee69d2565210c7027ff6fc2657ed029278bc79f41077fe3281ea5d5d8e80f960001b905062000b33565b601e82141562000a8f577f1de402fa32463bb2917b733aeef0197a49cacacd1fe860c3acc8cd3b65a30a6860001b905062000b33565b601f82141562000ac5577f1d3015a0f6a7b3f754171d0540628107e50e25debceb16e0e33ae4205501896d60001b905062000b33565b6040517f08c379a00000000000000000000000000000000000000000000000000000000081526004018080602001828103825260138152602001807f496e646578206f7574206f6620626f756e64730000000000000000000000000081525060200191505060405180910390fd5b919050565b60805160601c61394e62000b606000398061278e5280612ec55280613394525061394e6000f3fe6080604052600436106102465760003560e01c80638981d4c611610139578063c5707c86116100b6578063cdfceeba1161007a578063cdfceeba14610f00578063e829558814610f3f578063ed33639f14610f8e578063ed6ea33a14610fe5578063f178e47c14611014578063fc7e9c6f1461106357610246565b8063c5707c8614610c9b578063c6bbbeba14610d91578063c9230c5d14610de2578063ca49c6f814610e72578063cd87a3b414610ec957610246565b80639bce0920116100fd5780639bce092014610b46578063a4401dcb14610b9d578063ba70f75714610bf0578063c2b40ae414610c1b578063c2d4160114610c6a57610246565b80638981d4c6146109b15780638ea3099e14610a0857806390eeb02b14610a8157806397fc007c14610ab857806399383f7814610b0957610246565b80633fe3347a116101c757806353ae87171161018b57806353ae87171461080c578063570ca735146108635780635a129efe146108ba57806368733d511461090d5780636d9833e31461095e57610246565b80633fe3347a14610698578063414a37ba146107285780634752f3c2146107535780634eb069f7146107a65780634ecf518b146107d557610246565b80632421e1551161020e5780632421e155146103cd578063261e55cc1461045d5780632b7ac3f3146105bb5780633505c6c11461061257806338d52e0f1461064157610246565b806306394c9b1461024b5780630c394a601461029c578063176de7a8146102d35780631eb00e691461036357806320a7d092146103b6575b600080fd5b34801561025757600080fd5b5061029a6004803603602081101561026e57600080fd5b81019080803573ffffffffffffffffffffffffffffffffffffffff16906020019092919050505061109a565b005b3480156102a857600080fd5b506102b1611184565b604051808263ffffffff1663ffffffff16815260200191505060405180910390f35b3480156102df57600080fd5b506102e861119d565b6040518080602001828103825283818151815260200191508051906020019080838360005b8381101561032857808201518184015260208101905061030d565b50505050905090810190601f1680156103555780820380516001836020036101000a031916815260200191505b509250505060405180910390f35b34801561036f57600080fd5b5061039c6004803603602081101561038657600080fd5b8101908080359060200190929190505050611305565b604051808215151515815260200191505060405180910390f35b3480156103c257600080fd5b506103cb611325565b005b3480156103d957600080fd5b506103e26113e8565b6040518080602001828103825283818151815260200191508051906020019080838360005b83811015610422578082015181840152602081019050610407565b50505050905090810190601f16801561044f5780820380516001836020036101000a031916815260200191505b509250505060405180910390f35b6105b9600480360361018081101561047457600080fd5b8101908080604001906002806020026040519081016040528092919082600260200280828437600081840152601f19601f82011690508083019250505050505091929192908060800190600280602002604051908101604052809291906000905b82821015610529578382604002016002806020026040519081016040528092919082600260200280828437600081840152601f19601f820116905080830192505050505050815260200190600101906104d5565b50505050919291929080604001906002806020026040519081016040528092919082600260200280828437600081840152601f19601f8201169050808301925050505050509192919290803590602001909291908035906020019092919080359060200190929190803573ffffffffffffffffffffffffffffffffffffffff169060200190929190505050611425565b005b3480156105c757600080fd5b506105d061189d565b604051808273ffffffffffffffffffffffffffffffffffffffff1673ffffffffffffffffffffffffffffffffffffffff16815260200191505060405180910390f35b34801561061e57600080fd5b506106276118c3565b604051808215151515815260200191505060405180910390f35b34801561064d57600080fd5b506106566118da565b604051808273ffffffffffffffffffffffffffffffffffffffff1673ffffffffffffffffffffffffffffffffffffffff16815260200191505060405180910390f35b3480156106a457600080fd5b506106ad611900565b6040518080602001828103825283818151815260200191508051906020019080838360005b838110156106ed5780820151818401526020810190506106d2565b50505050905090810190601f16801561071a5780820380516001836020036101000a031916815260200191505b509250505060405180910390f35b34801561073457600080fd5b5061073d61193d565b6040518082815260200191505060405180910390f35b34801561075f57600080fd5b5061078c6004803603602081101561077657600080fd5b8101908080359060200190929190505050611961565b604051808215151515815260200191505060405180910390f35b3480156107b257600080fd5b506107bb611981565b604051808215151515815260200191505060405180910390f35b3480156107e157600080fd5b506107ea611994565b604051808263ffffffff1663ffffffff16815260200191505060405180910390f35b34801561081857600080fd5b506108216119a9565b604051808273ffffffffffffffffffffffffffffffffffffffff1673ffffffffffffffffffffffffffffffffffffffff16815260200191505060405180910390f35b34801561086f57600080fd5b506108786119d3565b604051808273ffffffffffffffffffffffffffffffffffffffff1673ffffffffffffffffffffffffffffffffffffffff16815260200191505060405180910390f35b3480156108c657600080fd5b506108f3600480360360208110156108dd57600080fd5b81019080803590602001909291905050506119f9565b604051808215151515815260200191505060405180910390f35b34801561091957600080fd5b5061095c6004803603602081101561093057600080fd5b81019080803573ffffffffffffffffffffffffffffffffffffffff169060200190929190505050611a23565b005b34801561096a57600080fd5b506109976004803603602081101561098157600080fd5b8101908080359060200190929190505050611b0d565b604051808215151515815260200191505060405180910390f35b3480156109bd57600080fd5b506109c6611ba9565b604051808273ffffffffffffffffffffffffffffffffffffffff1673ffffffffffffffffffffffffffffffffffffffff16815260200191505060405180910390f35b348015610a1457600080fd5b50610a6b60048036036060811015610a2b57600080fd5b81019080803573ffffffffffffffffffffffffffffffffffffffff1690602001909291908035906020019092919080359060200190929190505050611bcf565b6040518082815260200191505060405180910390f35b348015610a8d57600080fd5b50610a96611e53565b604051808263ffffffff1663ffffffff16815260200191505060405180910390f35b348015610ac457600080fd5b50610b0760048036036020811015610adb57600080fd5b81019080803573ffffffffffffffffffffffffffffffffffffffff169060200190929190505050611e69565b005b348015610b1557600080fd5b50610b4460048036036020811015610b2c57600080fd5b81019080803515159060200190929190505050611fb9565b005b348015610b5257600080fd5b50610b5b61207c565b604051808273ffffffffffffffffffffffffffffffffffffffff1673ffffffffffffffffffffffffffffffffffffffff16815260200191505060405180910390f35b348015610ba957600080fd5b50610bd660048036036020811015610bc057600080fd5b81019080803590602001909291905050506120a2565b604051808215151515815260200191505060405180910390f35b348015610bfc57600080fd5b50610c056120c2565b6040518082815260200191505060405180910390f35b348015610c2757600080fd5b50610c5460048036036020811015610c3e57600080fd5b81019080803590602001909291905050506120f5565b6040518082815260200191505060405180910390f35b348015610c7657600080fd5b50610c7f61210d565b604051808260ff1660ff16815260200191505060405180910390f35b610d8f600480360360a0811015610cb157600080fd5b8101908080359060200190929190803590602001909291908035906020019092919080356fffffffffffffffffffffffffffffffff1916906020019092919080359060200190640100000000811115610d0957600080fd5b820183602082011115610d1b57600080fd5b80359060200191846001830284011164010000000083111715610d3d57600080fd5b91908080601f016020809104026020016040519081016040528093929190818152602001838380828437600081840152601f19601f8201169050808301925050505050505091929192905050506121b7565b005b348015610d9d57600080fd5b50610de060048036036020811015610db457600080fd5b81019080803573ffffffffffffffffffffffffffffffffffffffff169060200190929190505050612538565b005b348015610dee57600080fd5b50610df7612622565b6040518080602001828103825283818151815260200191508051906020019080838360005b83811015610e37578082015181840152602081019050610e1c565b50505050905090810190601f168015610e645780820380516001836020036101000a031916815260200191505b509250505060405180910390f35b348015610e7e57600080fd5b50610e8761278a565b604051808273ffffffffffffffffffffffffffffffffffffffff1673ffffffffffffffffffffffffffffffffffffffff16815260200191505060405180910390f35b348015610ed557600080fd5b50610ede6127b2565b604051808263ffffffff1663ffffffff16815260200191505060405180910390f35b348015610f0c57600080fd5b50610f156127b7565b604051808267ffffffffffffffff1667ffffffffffffffff16815260200191505060405180910390f35b348015610f4b57600080fd5b50610f7860048036036020811015610f6257600080fd5b81019080803590602001909291905050506127d1565b6040518082815260200191505060405180910390f35b348015610f9a57600080fd5b50610fa3612ec3565b604051808273ffffffffffffffffffffffffffffffffffffffff1673ffffffffffffffffffffffffffffffffffffffff16815260200191505060405180910390f35b348015610ff157600080fd5b50610ffa612ee7565b604051808215151515815260200191505060405180910390f35b34801561102057600080fd5b5061104d6004803603602081101561103757600080fd5b8101908080359060200190929190505050612efa565b6040518082815260200191505060405180910390f35b34801561106f57600080fd5b50611078612f12565b604051808263ffffffff1663ffffffff16815260200191505060405180910390f35b600960009054906101000a900473ffffffffffffffffffffffffffffffffffffffff1673ffffffffffffffffffffffffffffffffffffffff163373ffffffffffffffffffffffffffffffffffffffff1614611140576040517f08c379a00000000000000000000000000000000000000000000000000000000081526004018080602001828103825260258152602001806138f46025913960400191505060405180910390fd5b80600960006101000a81548173ffffffffffffffffffffffffffffffffffffffff021916908373ffffffffffffffffffffffffffffffffffffffff16021790555050565b60008060009054906101000a900463ffffffff16905090565b6060600c60009054906101000a900473ffffffffffffffffffffffffffffffffffffffff1673ffffffffffffffffffffffffffffffffffffffff166395d89b416040518163ffffffff1660e01b815260040160006040518083038186803b15801561120757600080fd5b505afa15801561121b573d6000803e3d6000fd5b505050506040513d6000823e3d601f19601f82011682018060405250602081101561124557600080fd5b810190808051604051939291908464010000000082111561126557600080fd5b8382019150602082018581111561127b57600080fd5b825186600182028301116401000000008211171561129857600080fd5b8083526020830192505050908051906020019080838360005b838110156112cc5780820151818401526020810190506112b1565b50505050905090810190601f1680156112f95780820380516001836020036101000a031916815260200191505b50604052505050905090565b60076020528060005260406000206000915054906101000a900460ff1681565b600960009054906101000a900473ffffffffffffffffffffffffffffffffffffffff1673ffffffffffffffffffffffffffffffffffffffff163373ffffffffffffffffffffffffffffffffffffffff16146113cb576040517f08c379a00000000000000000000000000000000000000000000000000000000081526004018080602001828103825260258152602001806138f46025913960400191505060405180910390fd5b6001600b60156101000a81548160ff021916908315150217905550565b60606040518060400160405280600481526020017f6c6f6f7000000000000000000000000000000000000000000000000000000000815250905090565b6002600454141561149e576040517f08c379a000000000000000000000000000000000000000000000000000000000815260040180806020018281038252601f8152602001807f5265656e7472616e637947756172643a207265656e7472616e742063616c6c0081525060200191505060405180910390fd5b60026004819055506008600084815260200190815260200160002060009054906101000a900460ff161561153a576040517f08c379a000000000000000000000000000000000000000000000000000000000815260040180806020018281038252601f8152602001807f546865206e6f746520686173206265656e20616c7265616479207370656e740081525060200191505060405180910390fd5b6115468460001b611b0d565b6115b8576040517f08c379a000000000000000000000000000000000000000000000000000000000815260040180806020018281038252601c8152602001807f43616e6e6f742066696e6420796f7572206d65726b6c6520726f6f740000000081525060200191505060405180910390fd5b60008173ffffffffffffffffffffffffffffffffffffffff169050600560009054906101000a900473ffffffffffffffffffffffffffffffffffffffff1673ffffffffffffffffffffffffffffffffffffffff16635fe8c13b89898960405180608001604052808b81526020018a8152602001898152602001878152506040518563ffffffff1660e01b81526004018085600260200280838360005b8381101561166f578082015181840152602081019050611654565b505050509050018460026000925b818410156116c35782846020020151600260200280838360005b838110156116b2578082015181840152602081019050611697565b50505050905001926001019261167d565b9250505083600260200280838360005b838110156116ee5780820151818401526020810190506116d3565b5050505090500182600460200280838360005b8381101561171c578082015181840152602081019050611701565b50505050905001945050505050602060405180830381600087803b15801561174357600080fd5b505af1158015611757573d6000803e3d6000fd5b505050506040513d602081101561176d57600080fd5b81019080805190602001909291905050506117f0576040517f08c379a00000000000000000000000000000000000000000000000000000000081526004018080602001828103825260168152602001807f496e76616c69642077697468647261772070726f6f660000000000000000000081525060200191505060405180910390fd5b60016008600086815260200190815260200160002060006101000a81548160ff0219169083151502179055506118268284612f28565b83857ff279e6a1f5e320cca91135676d9cb6e44ca8a08c0b88342bcdb1144f6511b56884604051808273ffffffffffffffffffffffffffffffffffffffff1673ffffffffffffffffffffffffffffffffffffffff16815260200191505060405180910390a350600160048190555050505050505050565b600560009054906101000a900473ffffffffffffffffffffffffffffffffffffffff1681565b6000600b60149054906101000a900460ff16905090565b600c60009054906101000a900473ffffffffffffffffffffffffffffffffffffffff1681565b60606040518060400160405280600581526020017f6572633230000000000000000000000000000000000000000000000000000000815250905090565b7f30644e72e131a029b85045b68181585d2833e84879b9709143e1f593f000000181565b60066020528060005260406000206000915054906101000a900460ff1681565b600b60159054906101000a900460ff1681565b6000809054906101000a900463ffffffff1681565b6000600560009054906101000a900473ffffffffffffffffffffffffffffffffffffffff16905090565b600960009054906101000a900473ffffffffffffffffffffffffffffffffffffffff1681565b60006008600083815260200190815260200160002060009054906101000a900460ff169050919050565b600960009054906101000a900473ffffffffffffffffffffffffffffffffffffffff1673ffffffffffffffffffffffffffffffffffffffff163373ffffffffffffffffffffffffffffffffffffffff1614611ac9576040517f08c379a00000000000000000000000000000000000000000000000000000000081526004018080602001828103825260258152602001806138f46025913960400191505060405180910390fd5b80600a60006101000a81548173ffffffffffffffffffffffffffffffffffffffff021916908373ffffffffffffffffffffffffffffffffffffffff16021790555050565b60008060001b821415611b235760009050611ba4565b6000600360009054906101000a900463ffffffff16905060008190505b600260008263ffffffff16815260200190815260200160002054841415611b6c57600192505050611ba4565b60008163ffffffff161415611b8057601e90505b8080600190039150508163ffffffff168163ffffffff161415611b40576000925050505b919050565b600a60009054906101000a900473ffffffffffffffffffffffffffffffffffffffff1681565b60007f30644e72e131a029b85045b68181585d2833e84879b9709143e1f593f00000018360001c10611c69576040517f08c379a00000000000000000000000000000000000000000000000000000000081526004018080602001828103825260208152602001807f5f6c6566742073686f756c6420626520696e7369646520746865206669656c6481525060200191505060405180910390fd5b7f30644e72e131a029b85045b68181585d2833e84879b9709143e1f593f00000018260001c10611ce4576040517f08c379a00000000000000000000000000000000000000000000000000000000081526004018080602001828103825260218152602001806138586021913960400191505060405180910390fd5b60008473ffffffffffffffffffffffffffffffffffffffff1663299e56606040518060400160405280878152602001868152506040518263ffffffff1660e01b81526004018082600260200280838360005b83811015611d51578082015181840152602081019050611d36565b5050505090500191505060206040518083038186803b158015611d7357600080fd5b505afa158015611d87573d6000803e3d6000fd5b505050506040513d6020811015611d9d57600080fd5b810190808051906020019092919050505090507f30644e72e131a029b85045b68181585d2833e84879b9709143e1f593f00000018160001c10611e48576040517f08c379a000000000000000000000000000000000000000000000000000000000815260040180806020018281038252601f8152602001807f686173682073686f756c6420626520696e7369646520746865206669656c640081525060200191505060405180910390fd5b809150509392505050565b600360009054906101000a900463ffffffff1681565b600960009054906101000a900473ffffffffffffffffffffffffffffffffffffffff1673ffffffffffffffffffffffffffffffffffffffff163373ffffffffffffffffffffffffffffffffffffffff1614611f0f576040517f08c379a00000000000000000000000000000000000000000000000000000000081526004018080602001828103825260258152602001806138f46025913960400191505060405180910390fd5b600b60159054906101000a900460ff1615611f75576040517f08c379a000000000000000000000000000000000000000000000000000000000815260040180806020018281038252602481526020018061380e6024913960400191505060405180910390fd5b80600560006101000a81548173ffffffffffffffffffffffffffffffffffffffff021916908373ffffffffffffffffffffffffffffffffffffffff16021790555050565b600960009054906101000a900473ffffffffffffffffffffffffffffffffffffffff1673ffffffffffffffffffffffffffffffffffffffff163373ffffffffffffffffffffffffffffffffffffffff161461205f576040517f08c379a00000000000000000000000000000000000000000000000000000000081526004018080602001828103825260258152602001806138f46025913960400191505060405180910390fd5b80600b60146101000a81548160ff02191690831515021790555050565b600b60009054906101000a900473ffffffffffffffffffffffffffffffffffffffff1681565b60086020528060005260406000206000915054906101000a900460ff1681565b600060026000600360009054906101000a900463ffffffff1663ffffffff16815260200190815260200160002054905090565b60026020528060005260406000206000915090505481565b6000600c60009054906101000a900473ffffffffffffffffffffffffffffffffffffffff1673ffffffffffffffffffffffffffffffffffffffff1663313ce5676040518163ffffffff1660e01b815260040160206040518083038186803b15801561217757600080fd5b505afa15801561218b573d6000803e3d6000fd5b505050506040513d60208110156121a157600080fd5b8101908080519060200190929190505050905090565b600b60149054906101000a900460ff161561223a576040517f08c379a00000000000000000000000000000000000000000000000000000000081526004018080602001828103825260158152602001807f6465706f73697473206172652064697361626c6564000000000000000000000081525060200191505060405180910390fd5b6006600085815260200190815260200160002060009054906101000a900460ff16156122b1576040517f08c379a00000000000000000000000000000000000000000000000000000000081526004018080602001828103825260218152602001806138796021913960400191505060405180910390fd5b60007f30644e72e131a029b85045b68181585d2833e84879b9709143e1f593f0000001600285888660405160200180848152602001838152602001826fffffffffffffffffffffffffffffffff19166fffffffffffffffffffffffffffffffff1916815260100193505050506040516020818303038152906040526040518082805190602001908083835b6020831061235f578051825260208201915060208101905060208303925061233c565b6001836020036101000a038019825116818451168082178552505050505050905001915050602060405180830381855afa1580156123a1573d6000803e3d6000fd5b5050506040513d60208110156123b657600080fd5b810190808051906020019092919050505060001c816123d157fe5b069050848160001b1461244c576040517f08c379a00000000000000000000000000000000000000000000000000000000081526004018080602001828103825260198152602001807f636f6d6d69746d656e74206861736820696e636f72726563740000000000000081525060200191505060405180910390fd5b61245586612f79565b60016006600087815260200190815260200160002060006101000a81548160ff02191690831515021790555061248b8686613041565b847f8be9fb2d2379ca5ff2892836f8f65e1258c42e93faec42dada72226dd0ab63fa87846040518083815260200180602001828103825283818151815260200191508051906020019080838360005b838110156124f55780820151818401526020810190506124da565b50505050905090810190601f1680156125225780820380516001836020036101000a031916815260200191505b50935050505060405180910390a2505050505050565b600960009054906101000a900473ffffffffffffffffffffffffffffffffffffffff1673ffffffffffffffffffffffffffffffffffffffff163373ffffffffffffffffffffffffffffffffffffffff16146125de576040517f08c379a00000000000000000000000000000000000000000000000000000000081526004018080602001828103825260258152602001806138f46025913960400191505060405180910390fd5b80600b60006101000a81548173ffffffffffffffffffffffffffffffffffffffff021916908373ffffffffffffffffffffffffffffffffffffffff16021790555050565b6060600c60009054906101000a900473ffffffffffffffffffffffffffffffffffffffff1673ffffffffffffffffffffffffffffffffffffffff166306fdde036040518163ffffffff1660e01b815260040160006040518083038186803b15801561268c57600080fd5b505afa1580156126a0573d6000803e3d6000fd5b505050506040513d6000823e3d601f19601f8201168201806040525060208110156126ca57600080fd5b81019080805160405193929190846401000000008211156126ea57600080fd5b8382019150602082018581111561270057600080fd5b825186600182028301116401000000008211171561271d57600080fd5b8083526020830192505050908051906020019080838360005b83811015612751578082015181840152602081019050612736565b50505050905090810190601f16801561277e5780820380516001836020036101000a031916815260200191505b50604052505050905090565b60007f0000000000000000000000000000000000000000000000000000000000000000905090565b601e81565b600a60149054906101000a900467ffffffffffffffff1681565b600080821415612806577f09f658457775074ff4c842032a5ec2f1134c32784cca59d594caac8c503b792360001b9050612ebe565b600182141561283a577f1a77569b79cb7c2eaf9368de9e3b1efc0a606561e5ab299c2337340f3cdd576a60001b9050612ebe565b600282141561286e577f111bd0002b1e3b8f1978c932b5ccb2fab87fdb0acab2ddb266f9a346dcb11ee160001b9050612ebe565b60038214156128a2577f040868ea2a363e05d7ae44280f69b49e429ab096ca2844efe91f8d6b3dad57dd60001b9050612ebe565b60048214156128d5577ef8f605c92c8502c8fe83be1b83b24e3f67312a388f30cbadb5dee8974137c360001b9050612ebe565b6005821415612909577f1adc043c99adbc0c86a60a36db0f661e2dd96f36ede322f954386d8935a0c5d960001b9050612ebe565b600682141561293d577f2a1fedfa71da723ac3e9b35cef752fa1b647b2b737a23e91241cb7bdc419e3f460001b9050612ebe565b6007821415612971577f17fe1974543c4c4b228e1292f7e3200d31435fc910ee5a8c5cafd329cc4b256b60001b9050612ebe565b60088214156129a5577f0e84a586eb63a0eec0f1fe5785022441f0e29e4ae859c7ce1f5fc88a42ad2e6b60001b9050612ebe565b60098214156129d9577f193deb901f6eeb032e02e093280db17e373d4ff52bafda9215b46bb9b0a86f3e60001b9050612ebe565b600a821415612a0d577f1d10ca7b985697cb519565a5006c3f44b020b2edab9b7422ed15dc34532f940660001b9050612ebe565b600b821415612a41577f1dc200763555467a4e583e00badfdc1fb4d3d3f8f1cc81f31fd2f8b38777608160001b9050612ebe565b600c821415612a75577f203dd11fdba0ed13b20ca2d6952f3feb7461836a03512e0cccce8467b320b2f660001b9050612ebe565b600d821415612aa9577f0591af64e64a3e69caf23eee2bdea90885343a49f547ee9464e95d8d6267e4f760001b9050612ebe565b600e821415612add577f2af572f1077a32f46dc8e307d43c0fa6753b400b2107325976b8df7380545ff660001b9050612ebe565b600f821415612b11577f043227ae4b70b1aacd04e35e6aaed7b56d91220c31e97aaf52e12a6a56984e5260001b9050612ebe565b6010821415612b45577f2976f1f6a91d83d4c528dad69ece6d3d91934b0e5657e915b360c8c4c2fb54e660001b9050612ebe565b6011821415612b78577ee5c251c9e093658be0cd1b0df55b6f70f3d09146c1c8b4212a4ddcde700dbc60001b9050612ebe565b6012821415612bac577f0267cbbc1bc2f1c3e3073d2ee60df8cc0bfef39fe3cee735c9ad5c8ad30064d260001b9050612ebe565b6013821415612be0577f2f356057bc56f67dbf159a0e8935022acd5e982dce9f4071adc43e4d57ce27e660001b9050612ebe565b6014821415612c14577f273db68f52f12a9d8022ae524050064e42d4d1661c9bcce958acf89b5e8b127b60001b9050612ebe565b6015821415612c48577f0496a18ad4cca81b7c98ceb197439ad925e0f7f62d69dfa42cf9574be77fe30f60001b9050612ebe565b6016821415612c7c577f24f89a3f943d421b2f3a554b65459f42b820ac09d6fd9d693df5f8ba732ab59660001b9050612ebe565b6017821415612cb0577f1b55bfd751c6807df36876cdce68034ab43210be2bc8afa8043c7f428604e7a760001b9050612ebe565b6018821415612ce4577f16d6595a398cf20f2489b90e958166f1e19c537c0c46e9b8ea5462391ee8f14360001b9050612ebe565b6019821415612d18577f0f01447ef8f621592474b678ed2fc404ebaf22a6fce15364bb4152a88c11361360001b9050612ebe565b601a821415612d4c577f026c2dffee48bacbc9d21cf90aa7c6e525ab01db6966a9e7e53b3d3f4d1f5a4d60001b9050612ebe565b601b821415612d80577f234fe90732795745b2c504c791242a2bb193baa1cbeab57db9324b6bb913481760001b9050612ebe565b601c821415612db4577f23a8e0a7e60981c52ebb498c260d5bef4d7c65145d17128996a77c33a3262a7e60001b9050612ebe565b601d821415612de8577f24ee69d2565210c7027ff6fc2657ed029278bc79f41077fe3281ea5d5d8e80f960001b9050612ebe565b601e821415612e1c577f1de402fa32463bb2917b733aeef0197a49cacacd1fe860c3acc8cd3b65a30a6860001b9050612ebe565b601f821415612e50577f1d3015a0f6a7b3f754171d0540628107e50e25debceb16e0e33ae4205501896d60001b9050612ebe565b6040517f08c379a00000000000000000000000000000000000000000000000000000000081526004018080602001828103825260138152602001807f496e646578206f7574206f6620626f756e64730000000000000000000000000081525060200191505060405180910390fd5b919050565b7f000000000000000000000000000000000000000000000000000000000000000081565b600b60149054906101000a900460ff1681565b60016020528060005260406000206000915090505481565b600360049054906101000a900463ffffffff1681565b612f758282600c60009054906101000a900473ffffffffffffffffffffffffffffffffffffffff1673ffffffffffffffffffffffffffffffffffffffff1661309f9092919063ffffffff16565b5050565b60003414612fef576040517f08c379a00000000000000000000000000000000000000000000000000000000081526004018080602001828103825260188152602001807f6e6f206d61696e6e657420746f6b656e20616c6c6f776564000000000000000081525060200191505060405180910390fd5b61303e333083600c60009054906101000a900473ffffffffffffffffffffffffffffffffffffffff1673ffffffffffffffffffffffffffffffffffffffff16613157909392919063ffffffff16565b50565b600061304c82613244565b9050817fcadb6698453d5f5e042459c94d05683072821ca73d684f6c1c0af896eb3f40518285604051808363ffffffff1663ffffffff1681526020018281526020019250505060405180910390a2505050565b6131528363a9059cbb60e01b8484604051602401808373ffffffffffffffffffffffffffffffffffffffff1673ffffffffffffffffffffffffffffffffffffffff16815260200182815260200192505050604051602081830303815290604052907bffffffffffffffffffffffffffffffffffffffffffffffffffffffff19166020820180517bffffffffffffffffffffffffffffffffffffffffffffffffffffffff838183161783525050505061347e565b505050565b61323e846323b872dd60e01b858585604051602401808473ffffffffffffffffffffffffffffffffffffffff1673ffffffffffffffffffffffffffffffffffffffff1681526020018373ffffffffffffffffffffffffffffffffffffffff1673ffffffffffffffffffffffffffffffffffffffff1681526020018281526020019350505050604051602081830303815290604052907bffffffffffffffffffffffffffffffffffffffffffffffffffffffff19166020820180517bffffffffffffffffffffffffffffffffffffffffffffffffffffffff838183161783525050505061347e565b50505050565b600080600360049054906101000a900463ffffffff1690506000809054906101000a900463ffffffff1663ffffffff16600263ffffffff160a63ffffffff168163ffffffff1614156132e1576040517f08c379a00000000000000000000000000000000000000000000000000000000081526004018080602001828103825260308152602001806138c46030913960400191505060405180910390fd5b6000819050600084905060008060008090505b6000809054906101000a900463ffffffff1663ffffffff168163ffffffff1610156133dc57600060028663ffffffff168161332b57fe5b0663ffffffff16141561336f5783925061334a8163ffffffff166127d1565b915083600160008363ffffffff1681526020019081526020016000208190555061338f565b600160008263ffffffff1681526020019081526020016000205492508391505b6133ba7f00000000000000000000000000000000000000000000000000000000000000008484611bcf565b935060028563ffffffff16816133cc57fe5b04945080806001019150506132f4565b506000601e63ffffffff166001600360009054906101000a900463ffffffff160163ffffffff168161340a57fe5b06905080600360006101000a81548163ffffffff021916908363ffffffff16021790555083600260008363ffffffff1681526020019081526020016000208190555060018601600360046101000a81548163ffffffff021916908363ffffffff160217905550859650505050505050919050565b60606134e0826040518060400160405280602081526020017f5361666545524332303a206c6f772d6c6576656c2063616c6c206661696c65648152508573ffffffffffffffffffffffffffffffffffffffff1661356d9092919063ffffffff16565b90506000815111156135685780806020019051602081101561350157600080fd5b8101908080519060200190929190505050613567576040517f08c379a000000000000000000000000000000000000000000000000000000000815260040180806020018281038252602a81526020018061389a602a913960400191505060405180910390fd5b5b505050565b606061357c8484600085613585565b90509392505050565b6060824710156135e0576040517f08c379a00000000000000000000000000000000000000000000000000000000081526004018080602001828103825260268152602001806138326026913960400191505060405180910390fd5b6135e98561372e565b61365b576040517f08c379a000000000000000000000000000000000000000000000000000000000815260040180806020018281038252601d8152602001807f416464726573733a2063616c6c20746f206e6f6e2d636f6e747261637400000081525060200191505060405180910390fd5b600060608673ffffffffffffffffffffffffffffffffffffffff1685876040518082805190602001908083835b602083106136ab5780518252602082019150602081019050602083039250613688565b6001836020036101000a03801982511681845116808217855250505050505090500191505060006040518083038185875af1925050503d806000811461370d576040519150601f19603f3d011682016040523d82523d6000602084013e613712565b606091505b5091509150613722828286613741565b92505050949350505050565b600080823b905060008111915050919050565b6060831561375157829050613806565b6000835111156137645782518084602001fd5b816040517f08c379a00000000000000000000000000000000000000000000000000000000081526004018080602001828103825283818151815260200191508051906020019080838360005b838110156137cb5780820151818401526020810190506137b0565b50505050905090810190601f1680156137f85780820380516001836020036101000a031916815260200191505b509250505060405180910390fd5b939250505056fe566572696669657220757064617465732068617665206265656e2064697361626c65642e416464726573733a20696e73756666696369656e742062616c616e636520666f722063616c6c5f72696768742073686f756c6420626520696e7369646520746865206669656c6454686520636f6d6d69746d656e7420686173206265656e207375626d69747465645361666545524332303a204552433230206f7065726174696f6e20646964206e6f7420737563636565644d65726b6c6520747265652069732066756c6c2e204e6f206d6f7265206c65617665732063616e2062652061646465644f6e6c79206f70657261746f722063616e2063616c6c20746869732066756e6374696f6e2ea264697066735822122057a3018542d0597e61677616fdfac1294e71f52a0607a861486ceba273501d3f64736f6c634300060b00335f6c6576656c732073686f756c642062652067726561746572207468616e207a65726f",
			"opcodes": "PUSH1 0xA0 PUSH1 0x40 MSTORE PUSH1 0x0 PUSH1 0x3 PUSH1 0x0 PUSH2 0x100 EXP DUP2 SLOAD DUP2 PUSH4 0xFFFFFFFF MUL NOT AND SWAP1 DUP4 PUSH4 0xFFFFFFFF AND MUL OR SWAP1 SSTORE POP PUSH1 0x0 PUSH1 0x3 PUSH1 0x4 PUSH2 0x100 EXP DUP2 SLOAD DUP2 PUSH4 0xFFFFFFFF MUL NOT AND SWAP1 DUP4 PUSH4 0xFFFFFFFF AND MUL OR SWAP1 SSTORE POP CALLVALUE DUP1 ISZERO PUSH3 0x55 JUMPI PUSH1 0x0 DUP1 REVERT JUMPDEST POP PUSH1 0x40 MLOAD PUSH3 0x44D1 CODESIZE SUB DUP1 PUSH3 0x44D1 DUP4 CODECOPY DUP2 DUP2 ADD PUSH1 0x40 MSTORE PUSH1 0x80 DUP2 LT ISZERO PUSH3 0x7B JUMPI PUSH1 0x0 DUP1 REVERT JUMPDEST DUP2 ADD SWAP1 DUP1 DUP1 MLOAD SWAP1 PUSH1 0x20 ADD SWAP1 SWAP3 SWAP2 SWAP1 DUP1 MLOAD SWAP1 PUSH1 0x20 ADD SWAP1 SWAP3 SWAP2 SWAP1 DUP1 MLOAD SWAP1 PUSH1 0x20 ADD SWAP1 SWAP3 SWAP2 SWAP1 DUP1 MLOAD SWAP1 PUSH1 0x20 ADD SWAP1 SWAP3 SWAP2 SWAP1 POP POP POP DUP3 DUP5 DUP4 DUP4 PUSH1 0x0 DUP1 DUP5 DUP5 DUP5 DUP1 DUP3 PUSH1 0x0 DUP3 PUSH4 0xFFFFFFFF AND GT PUSH3 0x117 JUMPI PUSH1 0x40 MLOAD PUSH32 0x8C379A000000000000000000000000000000000000000000000000000000000 DUP2 MSTORE PUSH1 0x4 ADD DUP1 DUP1 PUSH1 0x20 ADD DUP3 DUP2 SUB DUP3 MSTORE PUSH1 0x23 DUP2 MSTORE PUSH1 0x20 ADD DUP1 PUSH3 0x44AE PUSH1 0x23 SWAP2 CODECOPY PUSH1 0x40 ADD SWAP2 POP POP PUSH1 0x40 MLOAD DUP1 SWAP2 SUB SWAP1 REVERT JUMPDEST PUSH1 0x20 DUP3 PUSH4 0xFFFFFFFF AND LT PUSH3 0x194 JUMPI PUSH1 0x40 MLOAD PUSH32 0x8C379A000000000000000000000000000000000000000000000000000000000 DUP2 MSTORE PUSH1 0x4 ADD DUP1 DUP1 PUSH1 0x20 ADD DUP3 DUP2 SUB DUP3 MSTORE PUSH1 0x1E DUP2 MSTORE PUSH1 0x20 ADD DUP1 PUSH32 0x5F6C6576656C732073686F756C64206265206C657373207468616E2033320000 DUP2 MSTORE POP PUSH1 0x20 ADD SWAP2 POP POP PUSH1 0x40 MLOAD DUP1 SWAP2 SUB SWAP1 REVERT JUMPDEST DUP2 PUSH1 0x0 DUP1 PUSH2 0x100 EXP DUP2 SLOAD DUP2 PUSH4 0xFFFFFFFF MUL NOT AND SWAP1 DUP4 PUSH4 0xFFFFFFFF AND MUL OR SWAP1 SSTORE POP DUP1 PUSH20 0xFFFFFFFFFFFFFFFFFFFFFFFFFFFFFFFFFFFFFFFF AND PUSH1 0x80 DUP2 PUSH20 0xFFFFFFFFFFFFFFFFFFFFFFFFFFFFFFFFFFFFFFFF AND PUSH1 0x60 SHL DUP2 MSTORE POP POP PUSH1 0x0 DUP1 SWAP1 POP JUMPDEST DUP3 PUSH4 0xFFFFFFFF AND DUP2 PUSH4 0xFFFFFFFF AND LT ISZERO PUSH3 0x248 JUMPI PUSH3 0x21D DUP2 PUSH4 0xFFFFFFFF AND PUSH3 0x406 PUSH1 0x20 SHL PUSH1 0x20 SHR JUMP JUMPDEST PUSH1 0x1 PUSH1 0x0 DUP4 PUSH4 0xFFFFFFFF AND DUP2 MSTORE PUSH1 0x20 ADD SWAP1 DUP2 MSTORE PUSH1 0x20 ADD PUSH1 0x0 KECCAK256 DUP2 SWAP1 SSTORE POP DUP1 DUP1 PUSH1 0x1 ADD SWAP2 POP POP PUSH3 0x1F1 JUMP JUMPDEST POP PUSH3 0x263 PUSH1 0x1 DUP4 SUB PUSH4 0xFFFFFFFF AND PUSH3 0x406 PUSH1 0x20 SHL PUSH1 0x20 SHR JUMP JUMPDEST PUSH1 0x2 PUSH1 0x0 DUP1 DUP2 MSTORE PUSH1 0x20 ADD SWAP1 DUP2 MSTORE PUSH1 0x20 ADD PUSH1 0x0 KECCAK256 DUP2 SWAP1 SSTORE POP POP POP PUSH1 0x1 PUSH1 0x4 DUP2 SWAP1 SSTORE POP DUP5 PUSH1 0xA PUSH1 0x0 PUSH2 0x100 EXP DUP2 SLOAD DUP2 PUSH20 0xFFFFFFFFFFFFFFFFFFFFFFFFFFFFFFFFFFFFFFFF MUL NOT AND SWAP1 DUP4 PUSH20 0xFFFFFFFFFFFFFFFFFFFFFFFFFFFFFFFFFFFFFFFF AND MUL OR SWAP1 SSTORE POP DUP4 PUSH1 0xA PUSH1 0x14 PUSH2 0x100 EXP DUP2 SLOAD DUP2 PUSH8 0xFFFFFFFFFFFFFFFF MUL NOT AND SWAP1 DUP4 PUSH8 0xFFFFFFFFFFFFFFFF AND MUL OR SWAP1 SSTORE POP DUP3 PUSH1 0x5 PUSH1 0x0 PUSH2 0x100 EXP DUP2 SLOAD DUP2 PUSH20 0xFFFFFFFFFFFFFFFFFFFFFFFFFFFFFFFFFFFFFFFF MUL NOT AND SWAP1 DUP4 PUSH20 0xFFFFFFFFFFFFFFFFFFFFFFFFFFFFFFFFFFFFFFFF AND MUL OR SWAP1 SSTORE POP CALLER PUSH1 0x9 PUSH1 0x0 PUSH2 0x100 EXP DUP2 SLOAD DUP2 PUSH20 0xFFFFFFFFFFFFFFFFFFFFFFFFFFFFFFFFFFFFFFFF MUL NOT AND SWAP1 DUP4 PUSH20 0xFFFFFFFFFFFFFFFFFFFFFFFFFFFFFFFFFFFFFFFF AND MUL OR SWAP1 SSTORE POP PUSH1 0x0 PUSH1 0xB PUSH1 0x0 PUSH2 0x100 EXP DUP2 SLOAD DUP2 PUSH20 0xFFFFFFFFFFFFFFFFFFFFFFFFFFFFFFFFFFFFFFFF MUL NOT AND SWAP1 DUP4 PUSH20 0xFFFFFFFFFFFFFFFFFFFFFFFFFFFFFFFFFFFFFFFF AND MUL OR SWAP1 SSTORE POP POP POP POP POP POP POP POP POP DUP1 PUSH1 0xC PUSH1 0x0 PUSH2 0x100 EXP DUP2 SLOAD DUP2 PUSH20 0xFFFFFFFFFFFFFFFFFFFFFFFFFFFFFFFFFFFFFFFF MUL NOT AND SWAP1 DUP4 PUSH20 0xFFFFFFFFFFFFFFFFFFFFFFFFFFFFFFFFFFFFFFFF AND MUL OR SWAP1 SSTORE POP POP POP POP POP POP PUSH3 0xB38 JUMP JUMPDEST PUSH1 0x0 DUP1 DUP3 EQ ISZERO PUSH3 0x43D JUMPI PUSH32 0x9F658457775074FF4C842032A5EC2F1134C32784CCA59D594CAAC8C503B7923 PUSH1 0x0 SHL SWAP1 POP PUSH3 0xB33 JUMP JUMPDEST PUSH1 0x1 DUP3 EQ ISZERO PUSH3 0x473 JUMPI PUSH32 0x1A77569B79CB7C2EAF9368DE9E3B1EFC0A606561E5AB299C2337340F3CDD576A PUSH1 0x0 SHL SWAP1 POP PUSH3 0xB33 JUMP JUMPDEST PUSH1 0x2 DUP3 EQ ISZERO PUSH3 0x4A9 JUMPI PUSH32 0x111BD0002B1E3B8F1978C932B5CCB2FAB87FDB0ACAB2DDB266F9A346DCB11EE1 PUSH1 0x0 SHL SWAP1 POP PUSH3 0xB33 JUMP JUMPDEST PUSH1 0x3 DUP3 EQ ISZERO PUSH3 0x4DF JUMPI PUSH32 0x40868EA2A363E05D7AE44280F69B49E429AB096CA2844EFE91F8D6B3DAD57DD PUSH1 0x0 SHL SWAP1 POP PUSH3 0xB33 JUMP JUMPDEST PUSH1 0x4 DUP3 EQ ISZERO PUSH3 0x514 JUMPI PUSH31 0xF8F605C92C8502C8FE83BE1B83B24E3F67312A388F30CBADB5DEE8974137C3 PUSH1 0x0 SHL SWAP1 POP PUSH3 0xB33 JUMP JUMPDEST PUSH1 0x5 DUP3 EQ ISZERO PUSH3 0x54A JUMPI PUSH32 0x1ADC043C99ADBC0C86A60A36DB0F661E2DD96F36EDE322F954386D8935A0C5D9 PUSH1 0x0 SHL SWAP1 POP PUSH3 0xB33 JUMP JUMPDEST PUSH1 0x6 DUP3 EQ ISZERO PUSH3 0x580 JUMPI PUSH32 0x2A1FEDFA71DA723AC3E9B35CEF752FA1B647B2B737A23E91241CB7BDC419E3F4 PUSH1 0x0 SHL SWAP1 POP PUSH3 0xB33 JUMP JUMPDEST PUSH1 0x7 DUP3 EQ ISZERO PUSH3 0x5B6 JUMPI PUSH32 0x17FE1974543C4C4B228E1292F7E3200D31435FC910EE5A8C5CAFD329CC4B256B PUSH1 0x0 SHL SWAP1 POP PUSH3 0xB33 JUMP JUMPDEST PUSH1 0x8 DUP3 EQ ISZERO PUSH3 0x5EC JUMPI PUSH32 0xE84A586EB63A0EEC0F1FE5785022441F0E29E4AE859C7CE1F5FC88A42AD2E6B PUSH1 0x0 SHL SWAP1 POP PUSH3 0xB33 JUMP JUMPDEST PUSH1 0x9 DUP3 EQ ISZERO PUSH3 0x622 JUMPI PUSH32 0x193DEB901F6EEB032E02E093280DB17E373D4FF52BAFDA9215B46BB9B0A86F3E PUSH1 0x0 SHL SWAP1 POP PUSH3 0xB33 JUMP JUMPDEST PUSH1 0xA DUP3 EQ ISZERO PUSH3 0x658 JUMPI PUSH32 0x1D10CA7B985697CB519565A5006C3F44B020B2EDAB9B7422ED15DC34532F9406 PUSH1 0x0 SHL SWAP1 POP PUSH3 0xB33 JUMP JUMPDEST PUSH1 0xB DUP3 EQ ISZERO PUSH3 0x68E JUMPI PUSH32 0x1DC200763555467A4E583E00BADFDC1FB4D3D3F8F1CC81F31FD2F8B387776081 PUSH1 0x0 SHL SWAP1 POP PUSH3 0xB33 JUMP JUMPDEST PUSH1 0xC DUP3 EQ ISZERO PUSH3 0x6C4 JUMPI PUSH32 0x203DD11FDBA0ED13B20CA2D6952F3FEB7461836A03512E0CCCCE8467B320B2F6 PUSH1 0x0 SHL SWAP1 POP PUSH3 0xB33 JUMP JUMPDEST PUSH1 0xD DUP3 EQ ISZERO PUSH3 0x6FA JUMPI PUSH32 0x591AF64E64A3E69CAF23EEE2BDEA90885343A49F547EE9464E95D8D6267E4F7 PUSH1 0x0 SHL SWAP1 POP PUSH3 0xB33 JUMP JUMPDEST PUSH1 0xE DUP3 EQ ISZERO PUSH3 0x730 JUMPI PUSH32 0x2AF572F1077A32F46DC8E307D43C0FA6753B400B2107325976B8DF7380545FF6 PUSH1 0x0 SHL SWAP1 POP PUSH3 0xB33 JUMP JUMPDEST PUSH1 0xF DUP3 EQ ISZERO PUSH3 0x766 JUMPI PUSH32 0x43227AE4B70B1AACD04E35E6AAED7B56D91220C31E97AAF52E12A6A56984E52 PUSH1 0x0 SHL SWAP1 POP PUSH3 0xB33 JUMP JUMPDEST PUSH1 0x10 DUP3 EQ ISZERO PUSH3 0x79C JUMPI PUSH32 0x2976F1F6A91D83D4C528DAD69ECE6D3D91934B0E5657E915B360C8C4C2FB54E6 PUSH1 0x0 SHL SWAP1 POP PUSH3 0xB33 JUMP JUMPDEST PUSH1 0x11 DUP3 EQ ISZERO PUSH3 0x7D1 JUMPI PUSH31 0xE5C251C9E093658BE0CD1B0DF55B6F70F3D09146C1C8B4212A4DDCDE700DBC PUSH1 0x0 SHL SWAP1 POP PUSH3 0xB33 JUMP JUMPDEST PUSH1 0x12 DUP3 EQ ISZERO PUSH3 0x807 JUMPI PUSH32 0x267CBBC1BC2F1C3E3073D2EE60DF8CC0BFEF39FE3CEE735C9AD5C8AD30064D2 PUSH1 0x0 SHL SWAP1 POP PUSH3 0xB33 JUMP JUMPDEST PUSH1 0x13 DUP3 EQ ISZERO PUSH3 0x83D JUMPI PUSH32 0x2F356057BC56F67DBF159A0E8935022ACD5E982DCE9F4071ADC43E4D57CE27E6 PUSH1 0x0 SHL SWAP1 POP PUSH3 0xB33 JUMP JUMPDEST PUSH1 0x14 DUP3 EQ ISZERO PUSH3 0x873 JUMPI PUSH32 0x273DB68F52F12A9D8022AE524050064E42D4D1661C9BCCE958ACF89B5E8B127B PUSH1 0x0 SHL SWAP1 POP PUSH3 0xB33 JUMP JUMPDEST PUSH1 0x15 DUP3 EQ ISZERO PUSH3 0x8A9 JUMPI PUSH32 0x496A18AD4CCA81B7C98CEB197439AD925E0F7F62D69DFA42CF9574BE77FE30F PUSH1 0x0 SHL SWAP1 POP PUSH3 0xB33 JUMP JUMPDEST PUSH1 0x16 DUP3 EQ ISZERO PUSH3 0x8DF JUMPI PUSH32 0x24F89A3F943D421B2F3A554B65459F42B820AC09D6FD9D693DF5F8BA732AB596 PUSH1 0x0 SHL SWAP1 POP PUSH3 0xB33 JUMP JUMPDEST PUSH1 0x17 DUP3 EQ ISZERO PUSH3 0x915 JUMPI PUSH32 0x1B55BFD751C6807DF36876CDCE68034AB43210BE2BC8AFA8043C7F428604E7A7 PUSH1 0x0 SHL SWAP1 POP PUSH3 0xB33 JUMP JUMPDEST PUSH1 0x18 DUP3 EQ ISZERO PUSH3 0x94B JUMPI PUSH32 0x16D6595A398CF20F2489B90E958166F1E19C537C0C46E9B8EA5462391EE8F143 PUSH1 0x0 SHL SWAP1 POP PUSH3 0xB33 JUMP JUMPDEST PUSH1 0x19 DUP3 EQ ISZERO PUSH3 0x981 JUMPI PUSH32 0xF01447EF8F621592474B678ED2FC404EBAF22A6FCE15364BB4152A88C113613 PUSH1 0x0 SHL SWAP1 POP PUSH3 0xB33 JUMP JUMPDEST PUSH1 0x1A DUP3 EQ ISZERO PUSH3 0x9B7 JUMPI PUSH32 0x26C2DFFEE48BACBC9D21CF90AA7C6E525AB01DB6966A9E7E53B3D3F4D1F5A4D PUSH1 0x0 SHL SWAP1 POP PUSH3 0xB33 JUMP JUMPDEST PUSH1 0x1B DUP3 EQ ISZERO PUSH3 0x9ED JUMPI PUSH32 0x234FE90732795745B2C504C791242A2BB193BAA1CBEAB57DB9324B6BB9134817 PUSH1 0x0 SHL SWAP1 POP PUSH3 0xB33 JUMP JUMPDEST PUSH1 0x1C DUP3 EQ ISZERO PUSH3 0xA23 JUMPI PUSH32 0x23A8E0A7E60981C52EBB498C260D5BEF4D7C65145D17128996A77C33A3262A7E PUSH1 0x0 SHL SWAP1 POP PUSH3 0xB33 JUMP JUMPDEST PUSH1 0x1D DUP3 EQ ISZERO PUSH3 0xA59 JUMPI PUSH32 0x24EE69D2565210C7027FF6FC2657ED029278BC79F41077FE3281EA5D5D8E80F9 PUSH1 0x0 SHL SWAP1 POP PUSH3 0xB33 JUMP JUMPDEST PUSH1 0x1E DUP3 EQ ISZERO PUSH3 0xA8F JUMPI PUSH32 0x1DE402FA32463BB2917B733AEEF0197A49CACACD1FE860C3ACC8CD3B65A30A68 PUSH1 0x0 SHL SWAP1 POP PUSH3 0xB33 JUMP JUMPDEST PUSH1 0x1F DUP3 EQ ISZERO PUSH3 0xAC5 JUMPI PUSH32 0x1D3015A0F6A7B3F754171D0540628107E50E25DEBCEB16E0E33AE4205501896D PUSH1 0x0 SHL SWAP1 POP PUSH3 0xB33 JUMP JUMPDEST PUSH1 0x40 MLOAD PUSH32 0x8C379A000000000000000000000000000000000000000000000000000000000 DUP2 MSTORE PUSH1 0x4 ADD DUP1 DUP1 PUSH1 0x20 ADD DUP3 DUP2 SUB DUP3 MSTORE PUSH1 0x13 DUP2 MSTORE PUSH1 0x20 ADD DUP1 PUSH32 0x496E646578206F7574206F6620626F756E647300000000000000000000000000 DUP2 MSTORE POP PUSH1 0x20 ADD SWAP2 POP POP PUSH1 0x40 MLOAD DUP1 SWAP2 SUB SWAP1 REVERT JUMPDEST SWAP2 SWAP1 POP JUMP JUMPDEST PUSH1 0x80 MLOAD PUSH1 0x60 SHR PUSH2 0x394E PUSH3 0xB60 PUSH1 0x0 CODECOPY DUP1 PUSH2 0x278E MSTORE DUP1 PUSH2 0x2EC5 MSTORE DUP1 PUSH2 0x3394 MSTORE POP PUSH2 0x394E PUSH1 0x0 RETURN INVALID PUSH1 0x80 PUSH1 0x40 MSTORE PUSH1 0x4 CALLDATASIZE LT PUSH2 0x246 JUMPI PUSH1 0x0 CALLDATALOAD PUSH1 0xE0 SHR DUP1 PUSH4 0x8981D4C6 GT PUSH2 0x139 JUMPI DUP1 PUSH4 0xC5707C86 GT PUSH2 0xB6 JUMPI DUP1 PUSH4 0xCDFCEEBA GT PUSH2 0x7A JUMPI DUP1 PUSH4 0xCDFCEEBA EQ PUSH2 0xF00 JUMPI DUP1 PUSH4 0xE8295588 EQ PUSH2 0xF3F JUMPI DUP1 PUSH4 0xED33639F EQ PUSH2 0xF8E JUMPI DUP1 PUSH4 0xED6EA33A EQ PUSH2 0xFE5 JUMPI DUP1 PUSH4 0xF178E47C EQ PUSH2 0x1014 JUMPI DUP1 PUSH4 0xFC7E9C6F EQ PUSH2 0x1063 JUMPI PUSH2 0x246 JUMP JUMPDEST DUP1 PUSH4 0xC5707C86 EQ PUSH2 0xC9B JUMPI DUP1 PUSH4 0xC6BBBEBA EQ PUSH2 0xD91 JUMPI DUP1 PUSH4 0xC9230C5D EQ PUSH2 0xDE2 JUMPI DUP1 PUSH4 0xCA49C6F8 EQ PUSH2 0xE72 JUMPI DUP1 PUSH4 0xCD87A3B4 EQ PUSH2 0xEC9 JUMPI PUSH2 0x246 JUMP JUMPDEST DUP1 PUSH4 0x9BCE0920 GT PUSH2 0xFD JUMPI DUP1 PUSH4 0x9BCE0920 EQ PUSH2 0xB46 JUMPI DUP1 PUSH4 0xA4401DCB EQ PUSH2 0xB9D JUMPI DUP1 PUSH4 0xBA70F757 EQ PUSH2 0xBF0 JUMPI DUP1 PUSH4 0xC2B40AE4 EQ PUSH2 0xC1B JUMPI DUP1 PUSH4 0xC2D41601 EQ PUSH2 0xC6A JUMPI PUSH2 0x246 JUMP JUMPDEST DUP1 PUSH4 0x8981D4C6 EQ PUSH2 0x9B1 JUMPI DUP1 PUSH4 0x8EA3099E EQ PUSH2 0xA08 JUMPI DUP1 PUSH4 0x90EEB02B EQ PUSH2 0xA81 JUMPI DUP1 PUSH4 0x97FC007C EQ PUSH2 0xAB8 JUMPI DUP1 PUSH4 0x99383F78 EQ PUSH2 0xB09 JUMPI PUSH2 0x246 JUMP JUMPDEST DUP1 PUSH4 0x3FE3347A GT PUSH2 0x1C7 JUMPI DUP1 PUSH4 0x53AE8717 GT PUSH2 0x18B JUMPI DUP1 PUSH4 0x53AE8717 EQ PUSH2 0x80C JUMPI DUP1 PUSH4 0x570CA735 EQ PUSH2 0x863 JUMPI DUP1 PUSH4 0x5A129EFE EQ PUSH2 0x8BA JUMPI DUP1 PUSH4 0x68733D51 EQ PUSH2 0x90D JUMPI DUP1 PUSH4 0x6D9833E3 EQ PUSH2 0x95E JUMPI PUSH2 0x246 JUMP JUMPDEST DUP1 PUSH4 0x3FE3347A EQ PUSH2 0x698 JUMPI DUP1 PUSH4 0x414A37BA EQ PUSH2 0x728 JUMPI DUP1 PUSH4 0x4752F3C2 EQ PUSH2 0x753 JUMPI DUP1 PUSH4 0x4EB069F7 EQ PUSH2 0x7A6 JUMPI DUP1 PUSH4 0x4ECF518B EQ PUSH2 0x7D5 JUMPI PUSH2 0x246 JUMP JUMPDEST DUP1 PUSH4 0x2421E155 GT PUSH2 0x20E JUMPI DUP1 PUSH4 0x2421E155 EQ PUSH2 0x3CD JUMPI DUP1 PUSH4 0x261E55CC EQ PUSH2 0x45D JUMPI DUP1 PUSH4 0x2B7AC3F3 EQ PUSH2 0x5BB JUMPI DUP1 PUSH4 0x3505C6C1 EQ PUSH2 0x612 JUMPI DUP1 PUSH4 0x38D52E0F EQ PUSH2 0x641 JUMPI PUSH2 0x246 JUMP JUMPDEST DUP1 PUSH4 0x6394C9B EQ PUSH2 0x24B JUMPI DUP1 PUSH4 0xC394A60 EQ PUSH2 0x29C JUMPI DUP1 PUSH4 0x176DE7A8 EQ PUSH2 0x2D3 JUMPI DUP1 PUSH4 0x1EB00E69 EQ PUSH2 0x363 JUMPI DUP1 PUSH4 0x20A7D092 EQ PUSH2 0x3B6 JUMPI JUMPDEST PUSH1 0x0 DUP1 REVERT JUMPDEST CALLVALUE DUP1 ISZERO PUSH2 0x257 JUMPI PUSH1 0x0 DUP1 REVERT JUMPDEST POP PUSH2 0x29A PUSH1 0x4 DUP1 CALLDATASIZE SUB PUSH1 0x20 DUP2 LT ISZERO PUSH2 0x26E JUMPI PUSH1 0x0 DUP1 REVERT JUMPDEST DUP2 ADD SWAP1 DUP1 DUP1 CALLDATALOAD PUSH20 0xFFFFFFFFFFFFFFFFFFFFFFFFFFFFFFFFFFFFFFFF AND SWAP1 PUSH1 0x20 ADD SWAP1 SWAP3 SWAP2 SWAP1 POP POP POP PUSH2 0x109A JUMP JUMPDEST STOP JUMPDEST CALLVALUE DUP1 ISZERO PUSH2 0x2A8 JUMPI PUSH1 0x0 DUP1 REVERT JUMPDEST POP PUSH2 0x2B1 PUSH2 0x1184 JUMP JUMPDEST PUSH1 0x40 MLOAD DUP1 DUP3 PUSH4 0xFFFFFFFF AND PUSH4 0xFFFFFFFF AND DUP2 MSTORE PUSH1 0x20 ADD SWAP2 POP POP PUSH1 0x40 MLOAD DUP1 SWAP2 SUB SWAP1 RETURN JUMPDEST CALLVALUE DUP1 ISZERO PUSH2 0x2DF JUMPI PUSH1 0x0 DUP1 REVERT JUMPDEST POP PUSH2 0x2E8 PUSH2 0x119D JUMP JUMPDEST PUSH1 0x40 MLOAD DUP1 DUP1 PUSH1 0x20 ADD DUP3 DUP2 SUB DUP3 MSTORE DUP4 DUP2 DUP2 MLOAD DUP2 MSTORE PUSH1 0x20 ADD SWAP2 POP DUP1 MLOAD SWAP1 PUSH1 0x20 ADD SWAP1 DUP1 DUP4 DUP4 PUSH1 0x0 JUMPDEST DUP4 DUP2 LT ISZERO PUSH2 0x328 JUMPI DUP1 DUP3 ADD MLOAD DUP2 DUP5 ADD MSTORE PUSH1 0x20 DUP2 ADD SWAP1 POP PUSH2 0x30D JUMP JUMPDEST POP POP POP POP SWAP1 POP SWAP1 DUP2 ADD SWAP1 PUSH1 0x1F AND DUP1 ISZERO PUSH2 0x355 JUMPI DUP1 DUP3 SUB DUP1 MLOAD PUSH1 0x1 DUP4 PUSH1 0x20 SUB PUSH2 0x100 EXP SUB NOT AND DUP2 MSTORE PUSH1 0x20 ADD SWAP2 POP JUMPDEST POP SWAP3 POP POP POP PUSH1 0x40 MLOAD DUP1 SWAP2 SUB SWAP1 RETURN JUMPDEST CALLVALUE DUP1 ISZERO PUSH2 0x36F JUMPI PUSH1 0x0 DUP1 REVERT JUMPDEST POP PUSH2 0x39C PUSH1 0x4 DUP1 CALLDATASIZE SUB PUSH1 0x20 DUP2 LT ISZERO PUSH2 0x386 JUMPI PUSH1 0x0 DUP1 REVERT JUMPDEST DUP2 ADD SWAP1 DUP1 DUP1 CALLDATALOAD SWAP1 PUSH1 0x20 ADD SWAP1 SWAP3 SWAP2 SWAP1 POP POP POP PUSH2 0x1305 JUMP JUMPDEST PUSH1 0x40 MLOAD DUP1 DUP3 ISZERO ISZERO ISZERO ISZERO DUP2 MSTORE PUSH1 0x20 ADD SWAP2 POP POP PUSH1 0x40 MLOAD DUP1 SWAP2 SUB SWAP1 RETURN JUMPDEST CALLVALUE DUP1 ISZERO PUSH2 0x3C2 JUMPI PUSH1 0x0 DUP1 REVERT JUMPDEST POP PUSH2 0x3CB PUSH2 0x1325 JUMP JUMPDEST STOP JUMPDEST CALLVALUE DUP1 ISZERO PUSH2 0x3D9 JUMPI PUSH1 0x0 DUP1 REVERT JUMPDEST POP PUSH2 0x3E2 PUSH2 0x13E8 JUMP JUMPDEST PUSH1 0x40 MLOAD DUP1 DUP1 PUSH1 0x20 ADD DUP3 DUP2 SUB DUP3 MSTORE DUP4 DUP2 DUP2 MLOAD DUP2 MSTORE PUSH1 0x20 ADD SWAP2 POP DUP1 MLOAD SWAP1 PUSH1 0x20 ADD SWAP1 DUP1 DUP4 DUP4 PUSH1 0x0 JUMPDEST DUP4 DUP2 LT ISZERO PUSH2 0x422 JUMPI DUP1 DUP3 ADD MLOAD DUP2 DUP5 ADD MSTORE PUSH1 0x20 DUP2 ADD SWAP1 POP PUSH2 0x407 JUMP JUMPDEST POP POP POP POP SWAP1 POP SWAP1 DUP2 ADD SWAP1 PUSH1 0x1F AND DUP1 ISZERO PUSH2 0x44F JUMPI DUP1 DUP3 SUB DUP1 MLOAD PUSH1 0x1 DUP4 PUSH1 0x20 SUB PUSH2 0x100 EXP SUB NOT AND DUP2 MSTORE PUSH1 0x20 ADD SWAP2 POP JUMPDEST POP SWAP3 POP POP POP PUSH1 0x40 MLOAD DUP1 SWAP2 SUB SWAP1 RETURN JUMPDEST PUSH2 0x5B9 PUSH1 0x4 DUP1 CALLDATASIZE SUB PUSH2 0x180 DUP2 LT ISZERO PUSH2 0x474 JUMPI PUSH1 0x0 DUP1 REVERT JUMPDEST DUP2 ADD SWAP1 DUP1 DUP1 PUSH1 0x40 ADD SWAP1 PUSH1 0x2 DUP1 PUSH1 0x20 MUL PUSH1 0x40 MLOAD SWAP1 DUP2 ADD PUSH1 0x40 MSTORE DUP1 SWAP3 SWAP2 SWAP1 DUP3 PUSH1 0x2 PUSH1 0x20 MUL DUP1 DUP3 DUP5 CALLDATACOPY PUSH1 0x0 DUP2 DUP5 ADD MSTORE PUSH1 0x1F NOT PUSH1 0x1F DUP3 ADD AND SWAP1 POP DUP1 DUP4 ADD SWAP3 POP POP POP POP POP POP SWAP2 SWAP3 SWAP2 SWAP3 SWAP1 DUP1 PUSH1 0x80 ADD SWAP1 PUSH1 0x2 DUP1 PUSH1 0x20 MUL PUSH1 0x40 MLOAD SWAP1 DUP2 ADD PUSH1 0x40 MSTORE DUP1 SWAP3 SWAP2 SWAP1 PUSH1 0x0 SWAP1 JUMPDEST DUP3 DUP3 LT ISZERO PUSH2 0x529 JUMPI DUP4 DUP3 PUSH1 0x40 MUL ADD PUSH1 0x2 DUP1 PUSH1 0x20 MUL PUSH1 0x40 MLOAD SWAP1 DUP2 ADD PUSH1 0x40 MSTORE DUP1 SWAP3 SWAP2 SWAP1 DUP3 PUSH1 0x2 PUSH1 0x20 MUL DUP1 DUP3 DUP5 CALLDATACOPY PUSH1 0x0 DUP2 DUP5 ADD MSTORE PUSH1 0x1F NOT PUSH1 0x1F DUP3 ADD AND SWAP1 POP DUP1 DUP4 ADD SWAP3 POP POP POP POP POP POP DUP2 MSTORE PUSH1 0x20 ADD SWAP1 PUSH1 0x1 ADD SWAP1 PUSH2 0x4D5 JUMP JUMPDEST POP POP POP POP SWAP2 SWAP3 SWAP2 SWAP3 SWAP1 DUP1 PUSH1 0x40 ADD SWAP1 PUSH1 0x2 DUP1 PUSH1 0x20 MUL PUSH1 0x40 MLOAD SWAP1 DUP2 ADD PUSH1 0x40 MSTORE DUP1 SWAP3 SWAP2 SWAP1 DUP3 PUSH1 0x2 PUSH1 0x20 MUL DUP1 DUP3 DUP5 CALLDATACOPY PUSH1 0x0 DUP2 DUP5 ADD MSTORE PUSH1 0x1F NOT PUSH1 0x1F DUP3 ADD AND SWAP1 POP DUP1 DUP4 ADD SWAP3 POP POP POP POP POP POP SWAP2 SWAP3 SWAP2 SWAP3 SWAP1 DUP1 CALLDATALOAD SWAP1 PUSH1 0x20 ADD SWAP1 SWAP3 SWAP2 SWAP1 DUP1 CALLDATALOAD SWAP1 PUSH1 0x20 ADD SWAP1 SWAP3 SWAP2 SWAP1 DUP1 CALLDATALOAD SWAP1 PUSH1 0x20 ADD SWAP1 SWAP3 SWAP2 SWAP1 DUP1 CALLDATALOAD PUSH20 0xFFFFFFFFFFFFFFFFFFFFFFFFFFFFFFFFFFFFFFFF AND SWAP1 PUSH1 0x20 ADD SWAP1 SWAP3 SWAP2 SWAP1 POP POP POP PUSH2 0x1425 JUMP JUMPDEST STOP JUMPDEST CALLVALUE DUP1 ISZERO PUSH2 0x5C7 JUMPI PUSH1 0x0 DUP1 REVERT JUMPDEST POP PUSH2 0x5D0 PUSH2 0x189D JUMP JUMPDEST PUSH1 0x40 MLOAD DUP1 DUP3 PUSH20 0xFFFFFFFFFFFFFFFFFFFFFFFFFFFFFFFFFFFFFFFF AND PUSH20 0xFFFFFFFFFFFFFFFFFFFFFFFFFFFFFFFFFFFFFFFF AND DUP2 MSTORE PUSH1 0x20 ADD SWAP2 POP POP PUSH1 0x40 MLOAD DUP1 SWAP2 SUB SWAP1 RETURN JUMPDEST CALLVALUE DUP1 ISZERO PUSH2 0x61E JUMPI PUSH1 0x0 DUP1 REVERT JUMPDEST POP PUSH2 0x627 PUSH2 0x18C3 JUMP JUMPDEST PUSH1 0x40 MLOAD DUP1 DUP3 ISZERO ISZERO ISZERO ISZERO DUP2 MSTORE PUSH1 0x20 ADD SWAP2 POP POP PUSH1 0x40 MLOAD DUP1 SWAP2 SUB SWAP1 RETURN JUMPDEST CALLVALUE DUP1 ISZERO PUSH2 0x64D JUMPI PUSH1 0x0 DUP1 REVERT JUMPDEST POP PUSH2 0x656 PUSH2 0x18DA JUMP JUMPDEST PUSH1 0x40 MLOAD DUP1 DUP3 PUSH20 0xFFFFFFFFFFFFFFFFFFFFFFFFFFFFFFFFFFFFFFFF AND PUSH20 0xFFFFFFFFFFFFFFFFFFFFFFFFFFFFFFFFFFFFFFFF AND DUP2 MSTORE PUSH1 0x20 ADD SWAP2 POP POP PUSH1 0x40 MLOAD DUP1 SWAP2 SUB SWAP1 RETURN JUMPDEST CALLVALUE DUP1 ISZERO PUSH2 0x6A4 JUMPI PUSH1 0x0 DUP1 REVERT JUMPDEST POP PUSH2 0x6AD PUSH2 0x1900 JUMP JUMPDEST PUSH1 0x40 MLOAD DUP1 DUP1 PUSH1 0x20 ADD DUP3 DUP2 SUB DUP3 MSTORE DUP4 DUP2 DUP2 MLOAD DUP2 MSTORE PUSH1 0x20 ADD SWAP2 POP DUP1 MLOAD SWAP1 PUSH1 0x20 ADD SWAP1 DUP1 DUP4 DUP4 PUSH1 0x0 JUMPDEST DUP4 DUP2 LT ISZERO PUSH2 0x6ED JUMPI DUP1 DUP3 ADD MLOAD DUP2 DUP5 ADD MSTORE PUSH1 0x20 DUP2 ADD SWAP1 POP PUSH2 0x6D2 JUMP JUMPDEST POP POP POP POP SWAP1 POP SWAP1 DUP2 ADD SWAP1 PUSH1 0x1F AND DUP1 ISZERO PUSH2 0x71A JUMPI DUP1 DUP3 SUB DUP1 MLOAD PUSH1 0x1 DUP4 PUSH1 0x20 SUB PUSH2 0x100 EXP SUB NOT AND DUP2 MSTORE PUSH1 0x20 ADD SWAP2 POP JUMPDEST POP SWAP3 POP POP POP PUSH1 0x40 MLOAD DUP1 SWAP2 SUB SWAP1 RETURN JUMPDEST CALLVALUE DUP1 ISZERO PUSH2 0x734 JUMPI PUSH1 0x0 DUP1 REVERT JUMPDEST POP PUSH2 0x73D PUSH2 0x193D JUMP JUMPDEST PUSH1 0x40 MLOAD DUP1 DUP3 DUP2 MSTORE PUSH1 0x20 ADD SWAP2 POP POP PUSH1 0x40 MLOAD DUP1 SWAP2 SUB SWAP1 RETURN JUMPDEST CALLVALUE DUP1 ISZERO PUSH2 0x75F JUMPI PUSH1 0x0 DUP1 REVERT JUMPDEST POP PUSH2 0x78C PUSH1 0x4 DUP1 CALLDATASIZE SUB PUSH1 0x20 DUP2 LT ISZERO PUSH2 0x776 JUMPI PUSH1 0x0 DUP1 REVERT JUMPDEST DUP2 ADD SWAP1 DUP1 DUP1 CALLDATALOAD SWAP1 PUSH1 0x20 ADD SWAP1 SWAP3 SWAP2 SWAP1 POP POP POP PUSH2 0x1961 JUMP JUMPDEST PUSH1 0x40 MLOAD DUP1 DUP3 ISZERO ISZERO ISZERO ISZERO DUP2 MSTORE PUSH1 0x20 ADD SWAP2 POP POP PUSH1 0x40 MLOAD DUP1 SWAP2 SUB SWAP1 RETURN JUMPDEST CALLVALUE DUP1 ISZERO PUSH2 0x7B2 JUMPI PUSH1 0x0 DUP1 REVERT JUMPDEST POP PUSH2 0x7BB PUSH2 0x1981 JUMP JUMPDEST PUSH1 0x40 MLOAD DUP1 DUP3 ISZERO ISZERO ISZERO ISZERO DUP2 MSTORE PUSH1 0x20 ADD SWAP2 POP POP PUSH1 0x40 MLOAD DUP1 SWAP2 SUB SWAP1 RETURN JUMPDEST CALLVALUE DUP1 ISZERO PUSH2 0x7E1 JUMPI PUSH1 0x0 DUP1 REVERT JUMPDEST POP PUSH2 0x7EA PUSH2 0x1994 JUMP JUMPDEST PUSH1 0x40 MLOAD DUP1 DUP3 PUSH4 0xFFFFFFFF AND PUSH4 0xFFFFFFFF AND DUP2 MSTORE PUSH1 0x20 ADD SWAP2 POP POP PUSH1 0x40 MLOAD DUP1 SWAP2 SUB SWAP1 RETURN JUMPDEST CALLVALUE DUP1 ISZERO PUSH2 0x818 JUMPI PUSH1 0x0 DUP1 REVERT JUMPDEST POP PUSH2 0x821 PUSH2 0x19A9 JUMP JUMPDEST PUSH1 0x40 MLOAD DUP1 DUP3 PUSH20 0xFFFFFFFFFFFFFFFFFFFFFFFFFFFFFFFFFFFFFFFF AND PUSH20 0xFFFFFFFFFFFFFFFFFFFFFFFFFFFFFFFFFFFFFFFF AND DUP2 MSTORE PUSH1 0x20 ADD SWAP2 POP POP PUSH1 0x40 MLOAD DUP1 SWAP2 SUB SWAP1 RETURN JUMPDEST CALLVALUE DUP1 ISZERO PUSH2 0x86F JUMPI PUSH1 0x0 DUP1 REVERT JUMPDEST POP PUSH2 0x878 PUSH2 0x19D3 JUMP JUMPDEST PUSH1 0x40 MLOAD DUP1 DUP3 PUSH20 0xFFFFFFFFFFFFFFFFFFFFFFFFFFFFFFFFFFFFFFFF AND PUSH20 0xFFFFFFFFFFFFFFFFFFFFFFFFFFFFFFFFFFFFFFFF AND DUP2 MSTORE PUSH1 0x20 ADD SWAP2 POP POP PUSH1 0x40 MLOAD DUP1 SWAP2 SUB SWAP1 RETURN JUMPDEST CALLVALUE DUP1 ISZERO PUSH2 0x8C6 JUMPI PUSH1 0x0 DUP1 REVERT JUMPDEST POP PUSH2 0x8F3 PUSH1 0x4 DUP1 CALLDATASIZE SUB PUSH1 0x20 DUP2 LT ISZERO PUSH2 0x8DD JUMPI PUSH1 0x0 DUP1 REVERT JUMPDEST DUP2 ADD SWAP1 DUP1 DUP1 CALLDATALOAD SWAP1 PUSH1 0x20 ADD SWAP1 SWAP3 SWAP2 SWAP1 POP POP POP PUSH2 0x19F9 JUMP JUMPDEST PUSH1 0x40 MLOAD DUP1 DUP3 ISZERO ISZERO ISZERO ISZERO DUP2 MSTORE PUSH1 0x20 ADD SWAP2 POP POP PUSH1 0x40 MLOAD DUP1 SWAP2 SUB SWAP1 RETURN JUMPDEST CALLVALUE DUP1 ISZERO PUSH2 0x919 JUMPI PUSH1 0x0 DUP1 REVERT JUMPDEST POP PUSH2 0x95C PUSH1 0x4 DUP1 CALLDATASIZE SUB PUSH1 0x20 DUP2 LT ISZERO PUSH2 0x930 JUMPI PUSH1 0x0 DUP1 REVERT JUMPDEST DUP2 ADD SWAP1 DUP1 DUP1 CALLDATALOAD PUSH20 0xFFFFFFFFFFFFFFFFFFFFFFFFFFFFFFFFFFFFFFFF AND SWAP1 PUSH1 0x20 ADD SWAP1 SWAP3 SWAP2 SWAP1 POP POP POP PUSH2 0x1A23 JUMP JUMPDEST STOP JUMPDEST CALLVALUE DUP1 ISZERO PUSH2 0x96A JUMPI PUSH1 0x0 DUP1 REVERT JUMPDEST POP PUSH2 0x997 PUSH1 0x4 DUP1 CALLDATASIZE SUB PUSH1 0x20 DUP2 LT ISZERO PUSH2 0x981 JUMPI PUSH1 0x0 DUP1 REVERT JUMPDEST DUP2 ADD SWAP1 DUP1 DUP1 CALLDATALOAD SWAP1 PUSH1 0x20 ADD SWAP1 SWAP3 SWAP2 SWAP1 POP POP POP PUSH2 0x1B0D JUMP JUMPDEST PUSH1 0x40 MLOAD DUP1 DUP3 ISZERO ISZERO ISZERO ISZERO DUP2 MSTORE PUSH1 0x20 ADD SWAP2 POP POP PUSH1 0x40 MLOAD DUP1 SWAP2 SUB SWAP1 RETURN JUMPDEST CALLVALUE DUP1 ISZERO PUSH2 0x9BD JUMPI PUSH1 0x0 DUP1 REVERT JUMPDEST POP PUSH2 0x9C6 PUSH2 0x1BA9 JUMP JUMPDEST PUSH1 0x40 MLOAD DUP1 DUP3 PUSH20 0xFFFFFFFFFFFFFFFFFFFFFFFFFFFFFFFFFFFFFFFF AND PUSH20 0xFFFFFFFFFFFFFFFFFFFFFFFFFFFFFFFFFFFFFFFF AND DUP2 MSTORE PUSH1 0x20 ADD SWAP2 POP POP PUSH1 0x40 MLOAD DUP1 SWAP2 SUB SWAP1 RETURN JUMPDEST CALLVALUE DUP1 ISZERO PUSH2 0xA14 JUMPI PUSH1 0x0 DUP1 REVERT JUMPDEST POP PUSH2 0xA6B PUSH1 0x4 DUP1 CALLDATASIZE SUB PUSH1 0x60 DUP2 LT ISZERO PUSH2 0xA2B JUMPI PUSH1 0x0 DUP1 REVERT JUMPDEST DUP2 ADD SWAP1 DUP1 DUP1 CALLDATALOAD PUSH20 0xFFFFFFFFFFFFFFFFFFFFFFFFFFFFFFFFFFFFFFFF AND SWAP1 PUSH1 0x20 ADD SWAP1 SWAP3 SWAP2 SWAP1 DUP1 CALLDATALOAD SWAP1 PUSH1 0x20 ADD SWAP1 SWAP3 SWAP2 SWAP1 DUP1 CALLDATALOAD SWAP1 PUSH1 0x20 ADD SWAP1 SWAP3 SWAP2 SWAP1 POP POP POP PUSH2 0x1BCF JUMP JUMPDEST PUSH1 0x40 MLOAD DUP1 DUP3 DUP2 MSTORE PUSH1 0x20 ADD SWAP2 POP POP PUSH1 0x40 MLOAD DUP1 SWAP2 SUB SWAP1 RETURN JUMPDEST CALLVALUE DUP1 ISZERO PUSH2 0xA8D JUMPI PUSH1 0x0 DUP1 REVERT JUMPDEST POP PUSH2 0xA96 PUSH2 0x1E53 JUMP JUMPDEST PUSH1 0x40 MLOAD DUP1 DUP3 PUSH4 0xFFFFFFFF AND PUSH4 0xFFFFFFFF AND DUP2 MSTORE PUSH1 0x20 ADD SWAP2 POP POP PUSH1 0x40 MLOAD DUP1 SWAP2 SUB SWAP1 RETURN JUMPDEST CALLVALUE DUP1 ISZERO PUSH2 0xAC4 JUMPI PUSH1 0x0 DUP1 REVERT JUMPDEST POP PUSH2 0xB07 PUSH1 0x4 DUP1 CALLDATASIZE SUB PUSH1 0x20 DUP2 LT ISZERO PUSH2 0xADB JUMPI PUSH1 0x0 DUP1 REVERT JUMPDEST DUP2 ADD SWAP1 DUP1 DUP1 CALLDATALOAD PUSH20 0xFFFFFFFFFFFFFFFFFFFFFFFFFFFFFFFFFFFFFFFF AND SWAP1 PUSH1 0x20 ADD SWAP1 SWAP3 SWAP2 SWAP1 POP POP POP PUSH2 0x1E69 JUMP JUMPDEST STOP JUMPDEST CALLVALUE DUP1 ISZERO PUSH2 0xB15 JUMPI PUSH1 0x0 DUP1 REVERT JUMPDEST POP PUSH2 0xB44 PUSH1 0x4 DUP1 CALLDATASIZE SUB PUSH1 0x20 DUP2 LT ISZERO PUSH2 0xB2C JUMPI PUSH1 0x0 DUP1 REVERT JUMPDEST DUP2 ADD SWAP1 DUP1 DUP1 CALLDATALOAD ISZERO ISZERO SWAP1 PUSH1 0x20 ADD SWAP1 SWAP3 SWAP2 SWAP1 POP POP POP PUSH2 0x1FB9 JUMP JUMPDEST STOP JUMPDEST CALLVALUE DUP1 ISZERO PUSH2 0xB52 JUMPI PUSH1 0x0 DUP1 REVERT JUMPDEST POP PUSH2 0xB5B PUSH2 0x207C JUMP JUMPDEST PUSH1 0x40 MLOAD DUP1 DUP3 PUSH20 0xFFFFFFFFFFFFFFFFFFFFFFFFFFFFFFFFFFFFFFFF AND PUSH20 0xFFFFFFFFFFFFFFFFFFFFFFFFFFFFFFFFFFFFFFFF AND DUP2 MSTORE PUSH1 0x20 ADD SWAP2 POP POP PUSH1 0x40 MLOAD DUP1 SWAP2 SUB SWAP1 RETURN JUMPDEST CALLVALUE DUP1 ISZERO PUSH2 0xBA9 JUMPI PUSH1 0x0 DUP1 REVERT JUMPDEST POP PUSH2 0xBD6 PUSH1 0x4 DUP1 CALLDATASIZE SUB PUSH1 0x20 DUP2 LT ISZERO PUSH2 0xBC0 JUMPI PUSH1 0x0 DUP1 REVERT JUMPDEST DUP2 ADD SWAP1 DUP1 DUP1 CALLDATALOAD SWAP1 PUSH1 0x20 ADD SWAP1 SWAP3 SWAP2 SWAP1 POP POP POP PUSH2 0x20A2 JUMP JUMPDEST PUSH1 0x40 MLOAD DUP1 DUP3 ISZERO ISZERO ISZERO ISZERO DUP2 MSTORE PUSH1 0x20 ADD SWAP2 POP POP PUSH1 0x40 MLOAD DUP1 SWAP2 SUB SWAP1 RETURN JUMPDEST CALLVALUE DUP1 ISZERO PUSH2 0xBFC JUMPI PUSH1 0x0 DUP1 REVERT JUMPDEST POP PUSH2 0xC05 PUSH2 0x20C2 JUMP JUMPDEST PUSH1 0x40 MLOAD DUP1 DUP3 DUP2 MSTORE PUSH1 0x20 ADD SWAP2 POP POP PUSH1 0x40 MLOAD DUP1 SWAP2 SUB SWAP1 RETURN JUMPDEST CALLVALUE DUP1 ISZERO PUSH2 0xC27 JUMPI PUSH1 0x0 DUP1 REVERT JUMPDEST POP PUSH2 0xC54 PUSH1 0x4 DUP1 CALLDATASIZE SUB PUSH1 0x20 DUP2 LT ISZERO PUSH2 0xC3E JUMPI PUSH1 0x0 DUP1 REVERT JUMPDEST DUP2 ADD SWAP1 DUP1 DUP1 CALLDATALOAD SWAP1 PUSH1 0x20 ADD SWAP1 SWAP3 SWAP2 SWAP1 POP POP POP PUSH2 0x20F5 JUMP JUMPDEST PUSH1 0x40 MLOAD DUP1 DUP3 DUP2 MSTORE PUSH1 0x20 ADD SWAP2 POP POP PUSH1 0x40 MLOAD DUP1 SWAP2 SUB SWAP1 RETURN JUMPDEST CALLVALUE DUP1 ISZERO PUSH2 0xC76 JUMPI PUSH1 0x0 DUP1 REVERT JUMPDEST POP PUSH2 0xC7F PUSH2 0x210D JUMP JUMPDEST PUSH1 0x40 MLOAD DUP1 DUP3 PUSH1 0xFF AND PUSH1 0xFF AND DUP2 MSTORE PUSH1 0x20 ADD SWAP2 POP POP PUSH1 0x40 MLOAD DUP1 SWAP2 SUB SWAP1 RETURN JUMPDEST PUSH2 0xD8F PUSH1 0x4 DUP1 CALLDATASIZE SUB PUSH1 0xA0 DUP2 LT ISZERO PUSH2 0xCB1 JUMPI PUSH1 0x0 DUP1 REVERT JUMPDEST DUP2 ADD SWAP1 DUP1 DUP1 CALLDATALOAD SWAP1 PUSH1 0x20 ADD SWAP1 SWAP3 SWAP2 SWAP1 DUP1 CALLDATALOAD SWAP1 PUSH1 0x20 ADD SWAP1 SWAP3 SWAP2 SWAP1 DUP1 CALLDATALOAD SWAP1 PUSH1 0x20 ADD SWAP1 SWAP3 SWAP2 SWAP1 DUP1 CALLDATALOAD PUSH16 0xFFFFFFFFFFFFFFFFFFFFFFFFFFFFFFFF NOT AND SWAP1 PUSH1 0x20 ADD SWAP1 SWAP3 SWAP2 SWAP1 DUP1 CALLDATALOAD SWAP1 PUSH1 0x20 ADD SWAP1 PUSH5 0x100000000 DUP2 GT ISZERO PUSH2 0xD09 JUMPI PUSH1 0x0 DUP1 REVERT JUMPDEST DUP3 ADD DUP4 PUSH1 0x20 DUP3 ADD GT ISZERO PUSH2 0xD1B JUMPI PUSH1 0x0 DUP1 REVERT JUMPDEST DUP1 CALLDATALOAD SWAP1 PUSH1 0x20 ADD SWAP2 DUP5 PUSH1 0x1 DUP4 MUL DUP5 ADD GT PUSH5 0x100000000 DUP4 GT OR ISZERO PUSH2 0xD3D JUMPI PUSH1 0x0 DUP1 REVERT JUMPDEST SWAP2 SWAP1 DUP1 DUP1 PUSH1 0x1F ADD PUSH1 0x20 DUP1 SWAP2 DIV MUL PUSH1 0x20 ADD PUSH1 0x40 MLOAD SWAP1 DUP2 ADD PUSH1 0x40 MSTORE DUP1 SWAP4 SWAP3 SWAP2 SWAP1 DUP2 DUP2 MSTORE PUSH1 0x20 ADD DUP4 DUP4 DUP1 DUP3 DUP5 CALLDATACOPY PUSH1 0x0 DUP2 DUP5 ADD MSTORE PUSH1 0x1F NOT PUSH1 0x1F DUP3 ADD AND SWAP1 POP DUP1 DUP4 ADD SWAP3 POP POP POP POP POP POP POP SWAP2 SWAP3 SWAP2 SWAP3 SWAP1 POP POP POP PUSH2 0x21B7 JUMP JUMPDEST STOP JUMPDEST CALLVALUE DUP1 ISZERO PUSH2 0xD9D JUMPI PUSH1 0x0 DUP1 REVERT JUMPDEST POP PUSH2 0xDE0 PUSH1 0x4 DUP1 CALLDATASIZE SUB PUSH1 0x20 DUP2 LT ISZERO PUSH2 0xDB4 JUMPI PUSH1 0x0 DUP1 REVERT JUMPDEST DUP2 ADD SWAP1 DUP1 DUP1 CALLDATALOAD PUSH20 0xFFFFFFFFFFFFFFFFFFFFFFFFFFFFFFFFFFFFFFFF AND SWAP1 PUSH1 0x20 ADD SWAP1 SWAP3 SWAP2 SWAP1 POP POP POP PUSH2 0x2538 JUMP JUMPDEST STOP JUMPDEST CALLVALUE DUP1 ISZERO PUSH2 0xDEE JUMPI PUSH1 0x0 DUP1 REVERT JUMPDEST POP PUSH2 0xDF7 PUSH2 0x2622 JUMP JUMPDEST PUSH1 0x40 MLOAD DUP1 DUP1 PUSH1 0x20 ADD DUP3 DUP2 SUB DUP3 MSTORE DUP4 DUP2 DUP2 MLOAD DUP2 MSTORE PUSH1 0x20 ADD SWAP2 POP DUP1 MLOAD SWAP1 PUSH1 0x20 ADD SWAP1 DUP1 DUP4 DUP4 PUSH1 0x0 JUMPDEST DUP4 DUP2 LT ISZERO PUSH2 0xE37 JUMPI DUP1 DUP3 ADD MLOAD DUP2 DUP5 ADD MSTORE PUSH1 0x20 DUP2 ADD SWAP1 POP PUSH2 0xE1C JUMP JUMPDEST POP POP POP POP SWAP1 POP SWAP1 DUP2 ADD SWAP1 PUSH1 0x1F AND DUP1 ISZERO PUSH2 0xE64 JUMPI DUP1 DUP3 SUB DUP1 MLOAD PUSH1 0x1 DUP4 PUSH1 0x20 SUB PUSH2 0x100 EXP SUB NOT AND DUP2 MSTORE PUSH1 0x20 ADD SWAP2 POP JUMPDEST POP SWAP3 POP POP POP PUSH1 0x40 MLOAD DUP1 SWAP2 SUB SWAP1 RETURN JUMPDEST CALLVALUE DUP1 ISZERO PUSH2 0xE7E JUMPI PUSH1 0x0 DUP1 REVERT JUMPDEST POP PUSH2 0xE87 PUSH2 0x278A JUMP JUMPDEST PUSH1 0x40 MLOAD DUP1 DUP3 PUSH20 0xFFFFFFFFFFFFFFFFFFFFFFFFFFFFFFFFFFFFFFFF AND PUSH20 0xFFFFFFFFFFFFFFFFFFFFFFFFFFFFFFFFFFFFFFFF AND DUP2 MSTORE PUSH1 0x20 ADD SWAP2 POP POP PUSH1 0x40 MLOAD DUP1 SWAP2 SUB SWAP1 RETURN JUMPDEST CALLVALUE DUP1 ISZERO PUSH2 0xED5 JUMPI PUSH1 0x0 DUP1 REVERT JUMPDEST POP PUSH2 0xEDE PUSH2 0x27B2 JUMP JUMPDEST PUSH1 0x40 MLOAD DUP1 DUP3 PUSH4 0xFFFFFFFF AND PUSH4 0xFFFFFFFF AND DUP2 MSTORE PUSH1 0x20 ADD SWAP2 POP POP PUSH1 0x40 MLOAD DUP1 SWAP2 SUB SWAP1 RETURN JUMPDEST CALLVALUE DUP1 ISZERO PUSH2 0xF0C JUMPI PUSH1 0x0 DUP1 REVERT JUMPDEST POP PUSH2 0xF15 PUSH2 0x27B7 JUMP JUMPDEST PUSH1 0x40 MLOAD DUP1 DUP3 PUSH8 0xFFFFFFFFFFFFFFFF AND PUSH8 0xFFFFFFFFFFFFFFFF AND DUP2 MSTORE PUSH1 0x20 ADD SWAP2 POP POP PUSH1 0x40 MLOAD DUP1 SWAP2 SUB SWAP1 RETURN JUMPDEST CALLVALUE DUP1 ISZERO PUSH2 0xF4B JUMPI PUSH1 0x0 DUP1 REVERT JUMPDEST POP PUSH2 0xF78 PUSH1 0x4 DUP1 CALLDATASIZE SUB PUSH1 0x20 DUP2 LT ISZERO PUSH2 0xF62 JUMPI PUSH1 0x0 DUP1 REVERT JUMPDEST DUP2 ADD SWAP1 DUP1 DUP1 CALLDATALOAD SWAP1 PUSH1 0x20 ADD SWAP1 SWAP3 SWAP2 SWAP1 POP POP POP PUSH2 0x27D1 JUMP JUMPDEST PUSH1 0x40 MLOAD DUP1 DUP3 DUP2 MSTORE PUSH1 0x20 ADD SWAP2 POP POP PUSH1 0x40 MLOAD DUP1 SWAP2 SUB SWAP1 RETURN JUMPDEST CALLVALUE DUP1 ISZERO PUSH2 0xF9A JUMPI PUSH1 0x0 DUP1 REVERT JUMPDEST POP PUSH2 0xFA3 PUSH2 0x2EC3 JUMP JUMPDEST PUSH1 0x40 MLOAD DUP1 DUP3 PUSH20 0xFFFFFFFFFFFFFFFFFFFFFFFFFFFFFFFFFFFFFFFF AND PUSH20 0xFFFFFFFFFFFFFFFFFFFFFFFFFFFFFFFFFFFFFFFF AND DUP2 MSTORE PUSH1 0x20 ADD SWAP2 POP POP PUSH1 0x40 MLOAD DUP1 SWAP2 SUB SWAP1 RETURN JUMPDEST CALLVALUE DUP1 ISZERO PUSH2 0xFF1 JUMPI PUSH1 0x0 DUP1 REVERT JUMPDEST POP PUSH2 0xFFA PUSH2 0x2EE7 JUMP JUMPDEST PUSH1 0x40 MLOAD DUP1 DUP3 ISZERO ISZERO ISZERO ISZERO DUP2 MSTORE PUSH1 0x20 ADD SWAP2 POP POP PUSH1 0x40 MLOAD DUP1 SWAP2 SUB SWAP1 RETURN JUMPDEST CALLVALUE DUP1 ISZERO PUSH2 0x1020 JUMPI PUSH1 0x0 DUP1 REVERT JUMPDEST POP PUSH2 0x104D PUSH1 0x4 DUP1 CALLDATASIZE SUB PUSH1 0x20 DUP2 LT ISZERO PUSH2 0x1037 JUMPI PUSH1 0x0 DUP1 REVERT JUMPDEST DUP2 ADD SWAP1 DUP1 DUP1 CALLDATALOAD SWAP1 PUSH1 0x20 ADD SWAP1 SWAP3 SWAP2 SWAP1 POP POP POP PUSH2 0x2EFA JUMP JUMPDEST PUSH1 0x40 MLOAD DUP1 DUP3 DUP2 MSTORE PUSH1 0x20 ADD SWAP2 POP POP PUSH1 0x40 MLOAD DUP1 SWAP2 SUB SWAP1 RETURN JUMPDEST CALLVALUE DUP1 ISZERO PUSH2 0x106F JUMPI PUSH1 0x0 DUP1 REVERT JUMPDEST POP PUSH2 0x1078 PUSH2 0x2F12 JUMP JUMPDEST PUSH1 0x40 MLOAD DUP1 DUP3 PUSH4 0xFFFFFFFF AND PUSH4 0xFFFFFFFF AND DUP2 MSTORE PUSH1 0x20 ADD SWAP2 POP POP PUSH1 0x40 MLOAD DUP1 SWAP2 SUB SWAP1 RETURN JUMPDEST PUSH1 0x9 PUSH1 0x0 SWAP1 SLOAD SWAP1 PUSH2 0x100 EXP SWAP1 DIV PUSH20 0xFFFFFFFFFFFFFFFFFFFFFFFFFFFFFFFFFFFFFFFF AND PUSH20 0xFFFFFFFFFFFFFFFFFFFFFFFFFFFFFFFFFFFFFFFF AND CALLER PUSH20 0xFFFFFFFFFFFFFFFFFFFFFFFFFFFFFFFFFFFFFFFF AND EQ PUSH2 0x1140 JUMPI PUSH1 0x40 MLOAD PUSH32 0x8C379A000000000000000000000000000000000000000000000000000000000 DUP2 MSTORE PUSH1 0x4 ADD DUP1 DUP1 PUSH1 0x20 ADD DUP3 DUP2 SUB DUP3 MSTORE PUSH1 0x25 DUP2 MSTORE PUSH1 0x20 ADD DUP1 PUSH2 0x38F4 PUSH1 0x25 SWAP2 CODECOPY PUSH1 0x40 ADD SWAP2 POP POP PUSH1 0x40 MLOAD DUP1 SWAP2 SUB SWAP1 REVERT JUMPDEST DUP1 PUSH1 0x9 PUSH1 0x0 PUSH2 0x100 EXP DUP2 SLOAD DUP2 PUSH20 0xFFFFFFFFFFFFFFFFFFFFFFFFFFFFFFFFFFFFFFFF MUL NOT AND SWAP1 DUP4 PUSH20 0xFFFFFFFFFFFFFFFFFFFFFFFFFFFFFFFFFFFFFFFF AND MUL OR SWAP1 SSTORE POP POP JUMP JUMPDEST PUSH1 0x0 DUP1 PUSH1 0x0 SWAP1 SLOAD SWAP1 PUSH2 0x100 EXP SWAP1 DIV PUSH4 0xFFFFFFFF AND SWAP1 POP SWAP1 JUMP JUMPDEST PUSH1 0x60 PUSH1 0xC PUSH1 0x0 SWAP1 SLOAD SWAP1 PUSH2 0x100 EXP SWAP1 DIV PUSH20 0xFFFFFFFFFFFFFFFFFFFFFFFFFFFFFFFFFFFFFFFF AND PUSH20 0xFFFFFFFFFFFFFFFFFFFFFFFFFFFFFFFFFFFFFFFF AND PUSH4 0x95D89B41 PUSH1 0x40 MLOAD DUP2 PUSH4 0xFFFFFFFF AND PUSH1 0xE0 SHL DUP2 MSTORE PUSH1 0x4 ADD PUSH1 0x0 PUSH1 0x40 MLOAD DUP1 DUP4 SUB DUP2 DUP7 DUP1 EXTCODESIZE ISZERO DUP1 ISZERO PUSH2 0x1207 JUMPI PUSH1 0x0 DUP1 REVERT JUMPDEST POP GAS STATICCALL ISZERO DUP1 ISZERO PUSH2 0x121B JUMPI RETURNDATASIZE PUSH1 0x0 DUP1 RETURNDATACOPY RETURNDATASIZE PUSH1 0x0 REVERT JUMPDEST POP POP POP POP PUSH1 0x40 MLOAD RETURNDATASIZE PUSH1 0x0 DUP3 RETURNDATACOPY RETURNDATASIZE PUSH1 0x1F NOT PUSH1 0x1F DUP3 ADD AND DUP3 ADD DUP1 PUSH1 0x40 MSTORE POP PUSH1 0x20 DUP2 LT ISZERO PUSH2 0x1245 JUMPI PUSH1 0x0 DUP1 REVERT JUMPDEST DUP2 ADD SWAP1 DUP1 DUP1 MLOAD PUSH1 0x40 MLOAD SWAP4 SWAP3 SWAP2 SWAP1 DUP5 PUSH5 0x100000000 DUP3 GT ISZERO PUSH2 0x1265 JUMPI PUSH1 0x0 DUP1 REVERT JUMPDEST DUP4 DUP3 ADD SWAP2 POP PUSH1 0x20 DUP3 ADD DUP6 DUP2 GT ISZERO PUSH2 0x127B JUMPI PUSH1 0x0 DUP1 REVERT JUMPDEST DUP3 MLOAD DUP7 PUSH1 0x1 DUP3 MUL DUP4 ADD GT PUSH5 0x100000000 DUP3 GT OR ISZERO PUSH2 0x1298 JUMPI PUSH1 0x0 DUP1 REVERT JUMPDEST DUP1 DUP4 MSTORE PUSH1 0x20 DUP4 ADD SWAP3 POP POP POP SWAP1 DUP1 MLOAD SWAP1 PUSH1 0x20 ADD SWAP1 DUP1 DUP4 DUP4 PUSH1 0x0 JUMPDEST DUP4 DUP2 LT ISZERO PUSH2 0x12CC JUMPI DUP1 DUP3 ADD MLOAD DUP2 DUP5 ADD MSTORE PUSH1 0x20 DUP2 ADD SWAP1 POP PUSH2 0x12B1 JUMP JUMPDEST POP POP POP POP SWAP1 POP SWAP1 DUP2 ADD SWAP1 PUSH1 0x1F AND DUP1 ISZERO PUSH2 0x12F9 JUMPI DUP1 DUP3 SUB DUP1 MLOAD PUSH1 0x1 DUP4 PUSH1 0x20 SUB PUSH2 0x100 EXP SUB NOT AND DUP2 MSTORE PUSH1 0x20 ADD SWAP2 POP JUMPDEST POP PUSH1 0x40 MSTORE POP POP POP SWAP1 POP SWAP1 JUMP JUMPDEST PUSH1 0x7 PUSH1 0x20 MSTORE DUP1 PUSH1 0x0 MSTORE PUSH1 0x40 PUSH1 0x0 KECCAK256 PUSH1 0x0 SWAP2 POP SLOAD SWAP1 PUSH2 0x100 EXP SWAP1 DIV PUSH1 0xFF AND DUP2 JUMP JUMPDEST PUSH1 0x9 PUSH1 0x0 SWAP1 SLOAD SWAP1 PUSH2 0x100 EXP SWAP1 DIV PUSH20 0xFFFFFFFFFFFFFFFFFFFFFFFFFFFFFFFFFFFFFFFF AND PUSH20 0xFFFFFFFFFFFFFFFFFFFFFFFFFFFFFFFFFFFFFFFF AND CALLER PUSH20 0xFFFFFFFFFFFFFFFFFFFFFFFFFFFFFFFFFFFFFFFF AND EQ PUSH2 0x13CB JUMPI PUSH1 0x40 MLOAD PUSH32 0x8C379A000000000000000000000000000000000000000000000000000000000 DUP2 MSTORE PUSH1 0x4 ADD DUP1 DUP1 PUSH1 0x20 ADD DUP3 DUP2 SUB DUP3 MSTORE PUSH1 0x25 DUP2 MSTORE PUSH1 0x20 ADD DUP1 PUSH2 0x38F4 PUSH1 0x25 SWAP2 CODECOPY PUSH1 0x40 ADD SWAP2 POP POP PUSH1 0x40 MLOAD DUP1 SWAP2 SUB SWAP1 REVERT JUMPDEST PUSH1 0x1 PUSH1 0xB PUSH1 0x15 PUSH2 0x100 EXP DUP2 SLOAD DUP2 PUSH1 0xFF MUL NOT AND SWAP1 DUP4 ISZERO ISZERO MUL OR SWAP1 SSTORE POP JUMP JUMPDEST PUSH1 0x60 PUSH1 0x40 MLOAD DUP1 PUSH1 0x40 ADD PUSH1 0x40 MSTORE DUP1 PUSH1 0x4 DUP2 MSTORE PUSH1 0x20 ADD PUSH32 0x6C6F6F7000000000000000000000000000000000000000000000000000000000 DUP2 MSTORE POP SWAP1 POP SWAP1 JUMP JUMPDEST PUSH1 0x2 PUSH1 0x4 SLOAD EQ ISZERO PUSH2 0x149E JUMPI PUSH1 0x40 MLOAD PUSH32 0x8C379A000000000000000000000000000000000000000000000000000000000 DUP2 MSTORE PUSH1 0x4 ADD DUP1 DUP1 PUSH1 0x20 ADD DUP3 DUP2 SUB DUP3 MSTORE PUSH1 0x1F DUP2 MSTORE PUSH1 0x20 ADD DUP1 PUSH32 0x5265656E7472616E637947756172643A207265656E7472616E742063616C6C00 DUP2 MSTORE POP PUSH1 0x20 ADD SWAP2 POP POP PUSH1 0x40 MLOAD DUP1 SWAP2 SUB SWAP1 REVERT JUMPDEST PUSH1 0x2 PUSH1 0x4 DUP2 SWAP1 SSTORE POP PUSH1 0x8 PUSH1 0x0 DUP5 DUP2 MSTORE PUSH1 0x20 ADD SWAP1 DUP2 MSTORE PUSH1 0x20 ADD PUSH1 0x0 KECCAK256 PUSH1 0x0 SWAP1 SLOAD SWAP1 PUSH2 0x100 EXP SWAP1 DIV PUSH1 0xFF AND ISZERO PUSH2 0x153A JUMPI PUSH1 0x40 MLOAD PUSH32 0x8C379A000000000000000000000000000000000000000000000000000000000 DUP2 MSTORE PUSH1 0x4 ADD DUP1 DUP1 PUSH1 0x20 ADD DUP3 DUP2 SUB DUP3 MSTORE PUSH1 0x1F DUP2 MSTORE PUSH1 0x20 ADD DUP1 PUSH32 0x546865206E6F746520686173206265656E20616C7265616479207370656E7400 DUP2 MSTORE POP PUSH1 0x20 ADD SWAP2 POP POP PUSH1 0x40 MLOAD DUP1 SWAP2 SUB SWAP1 REVERT JUMPDEST PUSH2 0x1546 DUP5 PUSH1 0x0 SHL PUSH2 0x1B0D JUMP JUMPDEST PUSH2 0x15B8 JUMPI PUSH1 0x40 MLOAD PUSH32 0x8C379A000000000000000000000000000000000000000000000000000000000 DUP2 MSTORE PUSH1 0x4 ADD DUP1 DUP1 PUSH1 0x20 ADD DUP3 DUP2 SUB DUP3 MSTORE PUSH1 0x1C DUP2 MSTORE PUSH1 0x20 ADD DUP1 PUSH32 0x43616E6E6F742066696E6420796F7572206D65726B6C6520726F6F7400000000 DUP2 MSTORE POP PUSH1 0x20 ADD SWAP2 POP POP PUSH1 0x40 MLOAD DUP1 SWAP2 SUB SWAP1 REVERT JUMPDEST PUSH1 0x0 DUP2 PUSH20 0xFFFFFFFFFFFFFFFFFFFFFFFFFFFFFFFFFFFFFFFF AND SWAP1 POP PUSH1 0x5 PUSH1 0x0 SWAP1 SLOAD SWAP1 PUSH2 0x100 EXP SWAP1 DIV PUSH20 0xFFFFFFFFFFFFFFFFFFFFFFFFFFFFFFFFFFFFFFFF AND PUSH20 0xFFFFFFFFFFFFFFFFFFFFFFFFFFFFFFFFFFFFFFFF AND PUSH4 0x5FE8C13B DUP10 DUP10 DUP10 PUSH1 0x40 MLOAD DUP1 PUSH1 0x80 ADD PUSH1 0x40 MSTORE DUP1 DUP12 DUP2 MSTORE PUSH1 0x20 ADD DUP11 DUP2 MSTORE PUSH1 0x20 ADD DUP10 DUP2 MSTORE PUSH1 0x20 ADD DUP8 DUP2 MSTORE POP PUSH1 0x40 MLOAD DUP6 PUSH4 0xFFFFFFFF AND PUSH1 0xE0 SHL DUP2 MSTORE PUSH1 0x4 ADD DUP1 DUP6 PUSH1 0x2 PUSH1 0x20 MUL DUP1 DUP4 DUP4 PUSH1 0x0 JUMPDEST DUP4 DUP2 LT ISZERO PUSH2 0x166F JUMPI DUP1 DUP3 ADD MLOAD DUP2 DUP5 ADD MSTORE PUSH1 0x20 DUP2 ADD SWAP1 POP PUSH2 0x1654 JUMP JUMPDEST POP POP POP POP SWAP1 POP ADD DUP5 PUSH1 0x2 PUSH1 0x0 SWAP3 JUMPDEST DUP2 DUP5 LT ISZERO PUSH2 0x16C3 JUMPI DUP3 DUP5 PUSH1 0x20 MUL ADD MLOAD PUSH1 0x2 PUSH1 0x20 MUL DUP1 DUP4 DUP4 PUSH1 0x0 JUMPDEST DUP4 DUP2 LT ISZERO PUSH2 0x16B2 JUMPI DUP1 DUP3 ADD MLOAD DUP2 DUP5 ADD MSTORE PUSH1 0x20 DUP2 ADD SWAP1 POP PUSH2 0x1697 JUMP JUMPDEST POP POP POP POP SWAP1 POP ADD SWAP3 PUSH1 0x1 ADD SWAP3 PUSH2 0x167D JUMP JUMPDEST SWAP3 POP POP POP DUP4 PUSH1 0x2 PUSH1 0x20 MUL DUP1 DUP4 DUP4 PUSH1 0x0 JUMPDEST DUP4 DUP2 LT ISZERO PUSH2 0x16EE JUMPI DUP1 DUP3 ADD MLOAD DUP2 DUP5 ADD MSTORE PUSH1 0x20 DUP2 ADD SWAP1 POP PUSH2 0x16D3 JUMP JUMPDEST POP POP POP POP SWAP1 POP ADD DUP3 PUSH1 0x4 PUSH1 0x20 MUL DUP1 DUP4 DUP4 PUSH1 0x0 JUMPDEST DUP4 DUP2 LT ISZERO PUSH2 0x171C JUMPI DUP1 DUP3 ADD MLOAD DUP2 DUP5 ADD MSTORE PUSH1 0x20 DUP2 ADD SWAP1 POP PUSH2 0x1701 JUMP JUMPDEST POP POP POP POP SWAP1 POP ADD SWAP5 POP POP POP POP POP PUSH1 0x20 PUSH1 0x40 MLOAD DUP1 DUP4 SUB DUP2 PUSH1 0x0 DUP8 DUP1 EXTCODESIZE ISZERO DUP1 ISZERO PUSH2 0x1743 JUMPI PUSH1 0x0 DUP1 REVERT JUMPDEST POP GAS CALL ISZERO DUP1 ISZERO PUSH2 0x1757 JUMPI RETURNDATASIZE PUSH1 0x0 DUP1 RETURNDATACOPY RETURNDATASIZE PUSH1 0x0 REVERT JUMPDEST POP POP POP POP PUSH1 0x40 MLOAD RETURNDATASIZE PUSH1 0x20 DUP2 LT ISZERO PUSH2 0x176D JUMPI PUSH1 0x0 DUP1 REVERT JUMPDEST DUP2 ADD SWAP1 DUP1 DUP1 MLOAD SWAP1 PUSH1 0x20 ADD SWAP1 SWAP3 SWAP2 SWAP1 POP POP POP PUSH2 0x17F0 JUMPI PUSH1 0x40 MLOAD PUSH32 0x8C379A000000000000000000000000000000000000000000000000000000000 DUP2 MSTORE PUSH1 0x4 ADD DUP1 DUP1 PUSH1 0x20 ADD DUP3 DUP2 SUB DUP3 MSTORE PUSH1 0x16 DUP2 MSTORE PUSH1 0x20 ADD DUP1 PUSH32 0x496E76616C69642077697468647261772070726F6F6600000000000000000000 DUP2 MSTORE POP PUSH1 0x20 ADD SWAP2 POP POP PUSH1 0x40 MLOAD DUP1 SWAP2 SUB SWAP1 REVERT JUMPDEST PUSH1 0x1 PUSH1 0x8 PUSH1 0x0 DUP7 DUP2 MSTORE PUSH1 0x20 ADD SWAP1 DUP2 MSTORE PUSH1 0x20 ADD PUSH1 0x0 KECCAK256 PUSH1 0x0 PUSH2 0x100 EXP DUP2 SLOAD DUP2 PUSH1 0xFF MUL NOT AND SWAP1 DUP4 ISZERO ISZERO MUL OR SWAP1 SSTORE POP PUSH2 0x1826 DUP3 DUP5 PUSH2 0x2F28 JUMP JUMPDEST DUP4 DUP6 PUSH32 0xF279E6A1F5E320CCA91135676D9CB6E44CA8A08C0B88342BCDB1144F6511B568 DUP5 PUSH1 0x40 MLOAD DUP1 DUP3 PUSH20 0xFFFFFFFFFFFFFFFFFFFFFFFFFFFFFFFFFFFFFFFF AND PUSH20 0xFFFFFFFFFFFFFFFFFFFFFFFFFFFFFFFFFFFFFFFF AND DUP2 MSTORE PUSH1 0x20 ADD SWAP2 POP POP PUSH1 0x40 MLOAD DUP1 SWAP2 SUB SWAP1 LOG3 POP PUSH1 0x1 PUSH1 0x4 DUP2 SWAP1 SSTORE POP POP POP POP POP POP POP POP JUMP JUMPDEST PUSH1 0x5 PUSH1 0x0 SWAP1 SLOAD SWAP1 PUSH2 0x100 EXP SWAP1 DIV PUSH20 0xFFFFFFFFFFFFFFFFFFFFFFFFFFFFFFFFFFFFFFFF AND DUP2 JUMP JUMPDEST PUSH1 0x0 PUSH1 0xB PUSH1 0x14 SWAP1 SLOAD SWAP1 PUSH2 0x100 EXP SWAP1 DIV PUSH1 0xFF AND SWAP1 POP SWAP1 JUMP JUMPDEST PUSH1 0xC PUSH1 0x0 SWAP1 SLOAD SWAP1 PUSH2 0x100 EXP SWAP1 DIV PUSH20 0xFFFFFFFFFFFFFFFFFFFFFFFFFFFFFFFFFFFFFFFF AND DUP2 JUMP JUMPDEST PUSH1 0x60 PUSH1 0x40 MLOAD DUP1 PUSH1 0x40 ADD PUSH1 0x40 MSTORE DUP1 PUSH1 0x5 DUP2 MSTORE PUSH1 0x20 ADD PUSH32 0x6572633230000000000000000000000000000000000000000000000000000000 DUP2 MSTORE POP SWAP1 POP SWAP1 JUMP JUMPDEST PUSH32 0x30644E72E131A029B85045B68181585D2833E84879B9709143E1F593F0000001 DUP2 JUMP JUMPDEST PUSH1 0x6 PUSH1 0x20 MSTORE DUP1 PUSH1 0x0 MSTORE PUSH1 0x40 PUSH1 0x0 KECCAK256 PUSH1 0x0 SWAP2 POP SLOAD SWAP1 PUSH2 0x100 EXP SWAP1 DIV PUSH1 0xFF AND DUP2 JUMP JUMPDEST PUSH1 0xB PUSH1 0x15 SWAP1 SLOAD SWAP1 PUSH2 0x100 EXP SWAP1 DIV PUSH1 0xFF AND DUP2 JUMP JUMPDEST PUSH1 0x0 DUP1 SWAP1 SLOAD SWAP1 PUSH2 0x100 EXP SWAP1 DIV PUSH4 0xFFFFFFFF AND DUP2 JUMP JUMPDEST PUSH1 0x0 PUSH1 0x5 PUSH1 0x0 SWAP1 SLOAD SWAP1 PUSH2 0x100 EXP SWAP1 DIV PUSH20 0xFFFFFFFFFFFFFFFFFFFFFFFFFFFFFFFFFFFFFFFF AND SWAP1 POP SWAP1 JUMP JUMPDEST PUSH1 0x9 PUSH1 0x0 SWAP1 SLOAD SWAP1 PUSH2 0x100 EXP SWAP1 DIV PUSH20 0xFFFFFFFFFFFFFFFFFFFFFFFFFFFFFFFFFFFFFFFF AND DUP2 JUMP JUMPDEST PUSH1 0x0 PUSH1 0x8 PUSH1 0x0 DUP4 DUP2 MSTORE PUSH1 0x20 ADD SWAP1 DUP2 MSTORE PUSH1 0x20 ADD PUSH1 0x0 KECCAK256 PUSH1 0x0 SWAP1 SLOAD SWAP1 PUSH2 0x100 EXP SWAP1 DIV PUSH1 0xFF AND SWAP1 POP SWAP2 SWAP1 POP JUMP JUMPDEST PUSH1 0x9 PUSH1 0x0 SWAP1 SLOAD SWAP1 PUSH2 0x100 EXP SWAP1 DIV PUSH20 0xFFFFFFFFFFFFFFFFFFFFFFFFFFFFFFFFFFFFFFFF AND PUSH20 0xFFFFFFFFFFFFFFFFFFFFFFFFFFFFFFFFFFFFFFFF AND CALLER PUSH20 0xFFFFFFFFFFFFFFFFFFFFFFFFFFFFFFFFFFFFFFFF AND EQ PUSH2 0x1AC9 JUMPI PUSH1 0x40 MLOAD PUSH32 0x8C379A000000000000000000000000000000000000000000000000000000000 DUP2 MSTORE PUSH1 0x4 ADD DUP1 DUP1 PUSH1 0x20 ADD DUP3 DUP2 SUB DUP3 MSTORE PUSH1 0x25 DUP2 MSTORE PUSH1 0x20 ADD DUP1 PUSH2 0x38F4 PUSH1 0x25 SWAP2 CODECOPY PUSH1 0x40 ADD SWAP2 POP POP PUSH1 0x40 MLOAD DUP1 SWAP2 SUB SWAP1 REVERT JUMPDEST DUP1 PUSH1 0xA PUSH1 0x0 PUSH2 0x100 EXP DUP2 SLOAD DUP2 PUSH20 0xFFFFFFFFFFFFFFFFFFFFFFFFFFFFFFFFFFFFFFFF MUL NOT AND SWAP1 DUP4 PUSH20 0xFFFFFFFFFFFFFFFFFFFFFFFFFFFFFFFFFFFFFFFF AND MUL OR SWAP1 SSTORE POP POP JUMP JUMPDEST PUSH1 0x0 DUP1 PUSH1 0x0 SHL DUP3 EQ ISZERO PUSH2 0x1B23 JUMPI PUSH1 0x0 SWAP1 POP PUSH2 0x1BA4 JUMP JUMPDEST PUSH1 0x0 PUSH1 0x3 PUSH1 0x0 SWAP1 SLOAD SWAP1 PUSH2 0x100 EXP SWAP1 DIV PUSH4 0xFFFFFFFF AND SWAP1 POP PUSH1 0x0 DUP2 SWAP1 POP JUMPDEST PUSH1 0x2 PUSH1 0x0 DUP3 PUSH4 0xFFFFFFFF AND DUP2 MSTORE PUSH1 0x20 ADD SWAP1 DUP2 MSTORE PUSH1 0x20 ADD PUSH1 0x0 KECCAK256 SLOAD DUP5 EQ ISZERO PUSH2 0x1B6C JUMPI PUSH1 0x1 SWAP3 POP POP POP PUSH2 0x1BA4 JUMP JUMPDEST PUSH1 0x0 DUP2 PUSH4 0xFFFFFFFF AND EQ ISZERO PUSH2 0x1B80 JUMPI PUSH1 0x1E SWAP1 POP JUMPDEST DUP1 DUP1 PUSH1 0x1 SWAP1 SUB SWAP2 POP POP DUP2 PUSH4 0xFFFFFFFF AND DUP2 PUSH4 0xFFFFFFFF AND EQ ISZERO PUSH2 0x1B40 JUMPI PUSH1 0x0 SWAP3 POP POP POP JUMPDEST SWAP2 SWAP1 POP JUMP JUMPDEST PUSH1 0xA PUSH1 0x0 SWAP1 SLOAD SWAP1 PUSH2 0x100 EXP SWAP1 DIV PUSH20 0xFFFFFFFFFFFFFFFFFFFFFFFFFFFFFFFFFFFFFFFF AND DUP2 JUMP JUMPDEST PUSH1 0x0 PUSH32 0x30644E72E131A029B85045B68181585D2833E84879B9709143E1F593F0000001 DUP4 PUSH1 0x0 SHR LT PUSH2 0x1C69 JUMPI PUSH1 0x40 MLOAD PUSH32 0x8C379A000000000000000000000000000000000000000000000000000000000 DUP2 MSTORE PUSH1 0x4 ADD DUP1 DUP1 PUSH1 0x20 ADD DUP3 DUP2 SUB DUP3 MSTORE PUSH1 0x20 DUP2 MSTORE PUSH1 0x20 ADD DUP1 PUSH32 0x5F6C6566742073686F756C6420626520696E7369646520746865206669656C64 DUP2 MSTORE POP PUSH1 0x20 ADD SWAP2 POP POP PUSH1 0x40 MLOAD DUP1 SWAP2 SUB SWAP1 REVERT JUMPDEST PUSH32 0x30644E72E131A029B85045B68181585D2833E84879B9709143E1F593F0000001 DUP3 PUSH1 0x0 SHR LT PUSH2 0x1CE4 JUMPI PUSH1 0x40 MLOAD PUSH32 0x8C379A000000000000000000000000000000000000000000000000000000000 DUP2 MSTORE PUSH1 0x4 ADD DUP1 DUP1 PUSH1 0x20 ADD DUP3 DUP2 SUB DUP3 MSTORE PUSH1 0x21 DUP2 MSTORE PUSH1 0x20 ADD DUP1 PUSH2 0x3858 PUSH1 0x21 SWAP2 CODECOPY PUSH1 0x40 ADD SWAP2 POP POP PUSH1 0x40 MLOAD DUP1 SWAP2 SUB SWAP1 REVERT JUMPDEST PUSH1 0x0 DUP5 PUSH20 0xFFFFFFFFFFFFFFFFFFFFFFFFFFFFFFFFFFFFFFFF AND PUSH4 0x299E5660 PUSH1 0x40 MLOAD DUP1 PUSH1 0x40 ADD PUSH1 0x40 MSTORE DUP1 DUP8 DUP2 MSTORE PUSH1 0x20 ADD DUP7 DUP2 MSTORE POP PUSH1 0x40 MLOAD DUP3 PUSH4 0xFFFFFFFF AND PUSH1 0xE0 SHL DUP2 MSTORE PUSH1 0x4 ADD DUP1 DUP3 PUSH1 0x2 PUSH1 0x20 MUL DUP1 DUP4 DUP4 PUSH1 0x0 JUMPDEST DUP4 DUP2 LT ISZERO PUSH2 0x1D51 JUMPI DUP1 DUP3 ADD MLOAD DUP2 DUP5 ADD MSTORE PUSH1 0x20 DUP2 ADD SWAP1 POP PUSH2 0x1D36 JUMP JUMPDEST POP POP POP POP SWAP1 POP ADD SWAP2 POP POP PUSH1 0x20 PUSH1 0x40 MLOAD DUP1 DUP4 SUB DUP2 DUP7 DUP1 EXTCODESIZE ISZERO DUP1 ISZERO PUSH2 0x1D73 JUMPI PUSH1 0x0 DUP1 REVERT JUMPDEST POP GAS STATICCALL ISZERO DUP1 ISZERO PUSH2 0x1D87 JUMPI RETURNDATASIZE PUSH1 0x0 DUP1 RETURNDATACOPY RETURNDATASIZE PUSH1 0x0 REVERT JUMPDEST POP POP POP POP PUSH1 0x40 MLOAD RETURNDATASIZE PUSH1 0x20 DUP2 LT ISZERO PUSH2 0x1D9D JUMPI PUSH1 0x0 DUP1 REVERT JUMPDEST DUP2 ADD SWAP1 DUP1 DUP1 MLOAD SWAP1 PUSH1 0x20 ADD SWAP1 SWAP3 SWAP2 SWAP1 POP POP POP SWAP1 POP PUSH32 0x30644E72E131A029B85045B68181585D2833E84879B9709143E1F593F0000001 DUP2 PUSH1 0x0 SHR LT PUSH2 0x1E48 JUMPI PUSH1 0x40 MLOAD PUSH32 0x8C379A000000000000000000000000000000000000000000000000000000000 DUP2 MSTORE PUSH1 0x4 ADD DUP1 DUP1 PUSH1 0x20 ADD DUP3 DUP2 SUB DUP3 MSTORE PUSH1 0x1F DUP2 MSTORE PUSH1 0x20 ADD DUP1 PUSH32 0x686173682073686F756C6420626520696E7369646520746865206669656C6400 DUP2 MSTORE POP PUSH1 0x20 ADD SWAP2 POP POP PUSH1 0x40 MLOAD DUP1 SWAP2 SUB SWAP1 REVERT JUMPDEST DUP1 SWAP2 POP POP SWAP4 SWAP3 POP POP POP JUMP JUMPDEST PUSH1 0x3 PUSH1 0x0 SWAP1 SLOAD SWAP1 PUSH2 0x100 EXP SWAP1 DIV PUSH4 0xFFFFFFFF AND DUP2 JUMP JUMPDEST PUSH1 0x9 PUSH1 0x0 SWAP1 SLOAD SWAP1 PUSH2 0x100 EXP SWAP1 DIV PUSH20 0xFFFFFFFFFFFFFFFFFFFFFFFFFFFFFFFFFFFFFFFF AND PUSH20 0xFFFFFFFFFFFFFFFFFFFFFFFFFFFFFFFFFFFFFFFF AND CALLER PUSH20 0xFFFFFFFFFFFFFFFFFFFFFFFFFFFFFFFFFFFFFFFF AND EQ PUSH2 0x1F0F JUMPI PUSH1 0x40 MLOAD PUSH32 0x8C379A000000000000000000000000000000000000000000000000000000000 DUP2 MSTORE PUSH1 0x4 ADD DUP1 DUP1 PUSH1 0x20 ADD DUP3 DUP2 SUB DUP3 MSTORE PUSH1 0x25 DUP2 MSTORE PUSH1 0x20 ADD DUP1 PUSH2 0x38F4 PUSH1 0x25 SWAP2 CODECOPY PUSH1 0x40 ADD SWAP2 POP POP PUSH1 0x40 MLOAD DUP1 SWAP2 SUB SWAP1 REVERT JUMPDEST PUSH1 0xB PUSH1 0x15 SWAP1 SLOAD SWAP1 PUSH2 0x100 EXP SWAP1 DIV PUSH1 0xFF AND ISZERO PUSH2 0x1F75 JUMPI PUSH1 0x40 MLOAD PUSH32 0x8C379A000000000000000000000000000000000000000000000000000000000 DUP2 MSTORE PUSH1 0x4 ADD DUP1 DUP1 PUSH1 0x20 ADD DUP3 DUP2 SUB DUP3 MSTORE PUSH1 0x24 DUP2 MSTORE PUSH1 0x20 ADD DUP1 PUSH2 0x380E PUSH1 0x24 SWAP2 CODECOPY PUSH1 0x40 ADD SWAP2 POP POP PUSH1 0x40 MLOAD DUP1 SWAP2 SUB SWAP1 REVERT JUMPDEST DUP1 PUSH1 0x5 PUSH1 0x0 PUSH2 0x100 EXP DUP2 SLOAD DUP2 PUSH20 0xFFFFFFFFFFFFFFFFFFFFFFFFFFFFFFFFFFFFFFFF MUL NOT AND SWAP1 DUP4 PUSH20 0xFFFFFFFFFFFFFFFFFFFFFFFFFFFFFFFFFFFFFFFF AND MUL OR SWAP1 SSTORE POP POP JUMP JUMPDEST PUSH1 0x9 PUSH1 0x0 SWAP1 SLOAD SWAP1 PUSH2 0x100 EXP SWAP1 DIV PUSH20 0xFFFFFFFFFFFFFFFFFFFFFFFFFFFFFFFFFFFFFFFF AND PUSH20 0xFFFFFFFFFFFFFFFFFFFFFFFFFFFFFFFFFFFFFFFF AND CALLER PUSH20 0xFFFFFFFFFFFFFFFFFFFFFFFFFFFFFFFFFFFFFFFF AND EQ PUSH2 0x205F JUMPI PUSH1 0x40 MLOAD PUSH32 0x8C379A000000000000000000000000000000000000000000000000000000000 DUP2 MSTORE PUSH1 0x4 ADD DUP1 DUP1 PUSH1 0x20 ADD DUP3 DUP2 SUB DUP3 MSTORE PUSH1 0x25 DUP2 MSTORE PUSH1 0x20 ADD DUP1 PUSH2 0x38F4 PUSH1 0x25 SWAP2 CODECOPY PUSH1 0x40 ADD SWAP2 POP POP PUSH1 0x40 MLOAD DUP1 SWAP2 SUB SWAP1 REVERT JUMPDEST DUP1 PUSH1 0xB PUSH1 0x14 PUSH2 0x100 EXP DUP2 SLOAD DUP2 PUSH1 0xFF MUL NOT AND SWAP1 DUP4 ISZERO ISZERO MUL OR SWAP1 SSTORE POP POP JUMP JUMPDEST PUSH1 0xB PUSH1 0x0 SWAP1 SLOAD SWAP1 PUSH2 0x100 EXP SWAP1 DIV PUSH20 0xFFFFFFFFFFFFFFFFFFFFFFFFFFFFFFFFFFFFFFFF AND DUP2 JUMP JUMPDEST PUSH1 0x8 PUSH1 0x20 MSTORE DUP1 PUSH1 0x0 MSTORE PUSH1 0x40 PUSH1 0x0 KECCAK256 PUSH1 0x0 SWAP2 POP SLOAD SWAP1 PUSH2 0x100 EXP SWAP1 DIV PUSH1 0xFF AND DUP2 JUMP JUMPDEST PUSH1 0x0 PUSH1 0x2 PUSH1 0x0 PUSH1 0x3 PUSH1 0x0 SWAP1 SLOAD SWAP1 PUSH2 0x100 EXP SWAP1 DIV PUSH4 0xFFFFFFFF AND PUSH4 0xFFFFFFFF AND DUP2 MSTORE PUSH1 0x20 ADD SWAP1 DUP2 MSTORE PUSH1 0x20 ADD PUSH1 0x0 KECCAK256 SLOAD SWAP1 POP SWAP1 JUMP JUMPDEST PUSH1 0x2 PUSH1 0x20 MSTORE DUP1 PUSH1 0x0 MSTORE PUSH1 0x40 PUSH1 0x0 KECCAK256 PUSH1 0x0 SWAP2 POP SWAP1 POP SLOAD DUP2 JUMP JUMPDEST PUSH1 0x0 PUSH1 0xC PUSH1 0x0 SWAP1 SLOAD SWAP1 PUSH2 0x100 EXP SWAP1 DIV PUSH20 0xFFFFFFFFFFFFFFFFFFFFFFFFFFFFFFFFFFFFFFFF AND PUSH20 0xFFFFFFFFFFFFFFFFFFFFFFFFFFFFFFFFFFFFFFFF AND PUSH4 0x313CE567 PUSH1 0x40 MLOAD DUP2 PUSH4 0xFFFFFFFF AND PUSH1 0xE0 SHL DUP2 MSTORE PUSH1 0x4 ADD PUSH1 0x20 PUSH1 0x40 MLOAD DUP1 DUP4 SUB DUP2 DUP7 DUP1 EXTCODESIZE ISZERO DUP1 ISZERO PUSH2 0x2177 JUMPI PUSH1 0x0 DUP1 REVERT JUMPDEST POP GAS STATICCALL ISZERO DUP1 ISZERO PUSH2 0x218B JUMPI RETURNDATASIZE PUSH1 0x0 DUP1 RETURNDATACOPY RETURNDATASIZE PUSH1 0x0 REVERT JUMPDEST POP POP POP POP PUSH1 0x40 MLOAD RETURNDATASIZE PUSH1 0x20 DUP2 LT ISZERO PUSH2 0x21A1 JUMPI PUSH1 0x0 DUP1 REVERT JUMPDEST DUP2 ADD SWAP1 DUP1 DUP1 MLOAD SWAP1 PUSH1 0x20 ADD SWAP1 SWAP3 SWAP2 SWAP1 POP POP POP SWAP1 POP SWAP1 JUMP JUMPDEST PUSH1 0xB PUSH1 0x14 SWAP1 SLOAD SWAP1 PUSH2 0x100 EXP SWAP1 DIV PUSH1 0xFF AND ISZERO PUSH2 0x223A JUMPI PUSH1 0x40 MLOAD PUSH32 0x8C379A000000000000000000000000000000000000000000000000000000000 DUP2 MSTORE PUSH1 0x4 ADD DUP1 DUP1 PUSH1 0x20 ADD DUP3 DUP2 SUB DUP3 MSTORE PUSH1 0x15 DUP2 MSTORE PUSH1 0x20 ADD DUP1 PUSH32 0x6465706F73697473206172652064697361626C65640000000000000000000000 DUP2 MSTORE POP PUSH1 0x20 ADD SWAP2 POP POP PUSH1 0x40 MLOAD DUP1 SWAP2 SUB SWAP1 REVERT JUMPDEST PUSH1 0x6 PUSH1 0x0 DUP6 DUP2 MSTORE PUSH1 0x20 ADD SWAP1 DUP2 MSTORE PUSH1 0x20 ADD PUSH1 0x0 KECCAK256 PUSH1 0x0 SWAP1 SLOAD SWAP1 PUSH2 0x100 EXP SWAP1 DIV PUSH1 0xFF AND ISZERO PUSH2 0x22B1 JUMPI PUSH1 0x40 MLOAD PUSH32 0x8C379A000000000000000000000000000000000000000000000000000000000 DUP2 MSTORE PUSH1 0x4 ADD DUP1 DUP1 PUSH1 0x20 ADD DUP3 DUP2 SUB DUP3 MSTORE PUSH1 0x21 DUP2 MSTORE PUSH1 0x20 ADD DUP1 PUSH2 0x3879 PUSH1 0x21 SWAP2 CODECOPY PUSH1 0x40 ADD SWAP2 POP POP PUSH1 0x40 MLOAD DUP1 SWAP2 SUB SWAP1 REVERT JUMPDEST PUSH1 0x0 PUSH32 0x30644E72E131A029B85045B68181585D2833E84879B9709143E1F593F0000001 PUSH1 0x2 DUP6 DUP9 DUP7 PUSH1 0x40 MLOAD PUSH1 0x20 ADD DUP1 DUP5 DUP2 MSTORE PUSH1 0x20 ADD DUP4 DUP2 MSTORE PUSH1 0x20 ADD DUP3 PUSH16 0xFFFFFFFFFFFFFFFFFFFFFFFFFFFFFFFF NOT AND PUSH16 0xFFFFFFFFFFFFFFFFFFFFFFFFFFFFFFFF NOT AND DUP2 MSTORE PUSH1 0x10 ADD SWAP4 POP POP POP POP PUSH1 0x40 MLOAD PUSH1 0x20 DUP2 DUP4 SUB SUB DUP2 MSTORE SWAP1 PUSH1 0x40 MSTORE PUSH1 0x40 MLOAD DUP1 DUP3 DUP1 MLOAD SWAP1 PUSH1 0x20 ADD SWAP1 DUP1 DUP4 DUP4 JUMPDEST PUSH1 0x20 DUP4 LT PUSH2 0x235F JUMPI DUP1 MLOAD DUP3 MSTORE PUSH1 0x20 DUP3 ADD SWAP2 POP PUSH1 0x20 DUP2 ADD SWAP1 POP PUSH1 0x20 DUP4 SUB SWAP3 POP PUSH2 0x233C JUMP JUMPDEST PUSH1 0x1 DUP4 PUSH1 0x20 SUB PUSH2 0x100 EXP SUB DUP1 NOT DUP3 MLOAD AND DUP2 DUP5 MLOAD AND DUP1 DUP3 OR DUP6 MSTORE POP POP POP POP POP POP SWAP1 POP ADD SWAP2 POP POP PUSH1 0x20 PUSH1 0x40 MLOAD DUP1 DUP4 SUB DUP2 DUP6 GAS STATICCALL ISZERO DUP1 ISZERO PUSH2 0x23A1 JUMPI RETURNDATASIZE PUSH1 0x0 DUP1 RETURNDATACOPY RETURNDATASIZE PUSH1 0x0 REVERT JUMPDEST POP POP POP PUSH1 0x40 MLOAD RETURNDATASIZE PUSH1 0x20 DUP2 LT ISZERO PUSH2 0x23B6 JUMPI PUSH1 0x0 DUP1 REVERT JUMPDEST DUP2 ADD SWAP1 DUP1 DUP1 MLOAD SWAP1 PUSH1 0x20 ADD SWAP1 SWAP3 SWAP2 SWAP1 POP POP POP PUSH1 0x0 SHR DUP2 PUSH2 0x23D1 JUMPI INVALID JUMPDEST MOD SWAP1 POP DUP5 DUP2 PUSH1 0x0 SHL EQ PUSH2 0x244C JUMPI PUSH1 0x40 MLOAD PUSH32 0x8C379A000000000000000000000000000000000000000000000000000000000 DUP2 MSTORE PUSH1 0x4 ADD DUP1 DUP1 PUSH1 0x20 ADD DUP3 DUP2 SUB DUP3 MSTORE PUSH1 0x19 DUP2 MSTORE PUSH1 0x20 ADD DUP1 PUSH32 0x636F6D6D69746D656E74206861736820696E636F727265637400000000000000 DUP2 MSTORE POP PUSH1 0x20 ADD SWAP2 POP POP PUSH1 0x40 MLOAD DUP1 SWAP2 SUB SWAP1 REVERT JUMPDEST PUSH2 0x2455 DUP7 PUSH2 0x2F79 JUMP JUMPDEST PUSH1 0x1 PUSH1 0x6 PUSH1 0x0 DUP8 DUP2 MSTORE PUSH1 0x20 ADD SWAP1 DUP2 MSTORE PUSH1 0x20 ADD PUSH1 0x0 KECCAK256 PUSH1 0x0 PUSH2 0x100 EXP DUP2 SLOAD DUP2 PUSH1 0xFF MUL NOT AND SWAP1 DUP4 ISZERO ISZERO MUL OR SWAP1 SSTORE POP PUSH2 0x248B DUP7 DUP7 PUSH2 0x3041 JUMP JUMPDEST DUP5 PUSH32 0x8BE9FB2D2379CA5FF2892836F8F65E1258C42E93FAEC42DADA72226DD0AB63FA DUP8 DUP5 PUSH1 0x40 MLOAD DUP1 DUP4 DUP2 MSTORE PUSH1 0x20 ADD DUP1 PUSH1 0x20 ADD DUP3 DUP2 SUB DUP3 MSTORE DUP4 DUP2 DUP2 MLOAD DUP2 MSTORE PUSH1 0x20 ADD SWAP2 POP DUP1 MLOAD SWAP1 PUSH1 0x20 ADD SWAP1 DUP1 DUP4 DUP4 PUSH1 0x0 JUMPDEST DUP4 DUP2 LT ISZERO PUSH2 0x24F5 JUMPI DUP1 DUP3 ADD MLOAD DUP2 DUP5 ADD MSTORE PUSH1 0x20 DUP2 ADD SWAP1 POP PUSH2 0x24DA JUMP JUMPDEST POP POP POP POP SWAP1 POP SWAP1 DUP2 ADD SWAP1 PUSH1 0x1F AND DUP1 ISZERO PUSH2 0x2522 JUMPI DUP1 DUP3 SUB DUP1 MLOAD PUSH1 0x1 DUP4 PUSH1 0x20 SUB PUSH2 0x100 EXP SUB NOT AND DUP2 MSTORE PUSH1 0x20 ADD SWAP2 POP JUMPDEST POP SWAP4 POP POP POP POP PUSH1 0x40 MLOAD DUP1 SWAP2 SUB SWAP1 LOG2 POP POP POP POP POP POP JUMP JUMPDEST PUSH1 0x9 PUSH1 0x0 SWAP1 SLOAD SWAP1 PUSH2 0x100 EXP SWAP1 DIV PUSH20 0xFFFFFFFFFFFFFFFFFFFFFFFFFFFFFFFFFFFFFFFF AND PUSH20 0xFFFFFFFFFFFFFFFFFFFFFFFFFFFFFFFFFFFFFFFF AND CALLER PUSH20 0xFFFFFFFFFFFFFFFFFFFFFFFFFFFFFFFFFFFFFFFF AND EQ PUSH2 0x25DE JUMPI PUSH1 0x40 MLOAD PUSH32 0x8C379A000000000000000000000000000000000000000000000000000000000 DUP2 MSTORE PUSH1 0x4 ADD DUP1 DUP1 PUSH1 0x20 ADD DUP3 DUP2 SUB DUP3 MSTORE PUSH1 0x25 DUP2 MSTORE PUSH1 0x20 ADD DUP1 PUSH2 0x38F4 PUSH1 0x25 SWAP2 CODECOPY PUSH1 0x40 ADD SWAP2 POP POP PUSH1 0x40 MLOAD DUP1 SWAP2 SUB SWAP1 REVERT JUMPDEST DUP1 PUSH1 0xB PUSH1 0x0 PUSH2 0x100 EXP DUP2 SLOAD DUP2 PUSH20 0xFFFFFFFFFFFFFFFFFFFFFFFFFFFFFFFFFFFFFFFF MUL NOT AND SWAP1 DUP4 PUSH20 0xFFFFFFFFFFFFFFFFFFFFFFFFFFFFFFFFFFFFFFFF AND MUL OR SWAP1 SSTORE POP POP JUMP JUMPDEST PUSH1 0x60 PUSH1 0xC PUSH1 0x0 SWAP1 SLOAD SWAP1 PUSH2 0x100 EXP SWAP1 DIV PUSH20 0xFFFFFFFFFFFFFFFFFFFFFFFFFFFFFFFFFFFFFFFF AND PUSH20 0xFFFFFFFFFFFFFFFFFFFFFFFFFFFFFFFFFFFFFFFF AND PUSH4 0x6FDDE03 PUSH1 0x40 MLOAD DUP2 PUSH4 0xFFFFFFFF AND PUSH1 0xE0 SHL DUP2 MSTORE PUSH1 0x4 ADD PUSH1 0x0 PUSH1 0x40 MLOAD DUP1 DUP4 SUB DUP2 DUP7 DUP1 EXTCODESIZE ISZERO DUP1 ISZERO PUSH2 0x268C JUMPI PUSH1 0x0 DUP1 REVERT JUMPDEST POP GAS STATICCALL ISZERO DUP1 ISZERO PUSH2 0x26A0 JUMPI RETURNDATASIZE PUSH1 0x0 DUP1 RETURNDATACOPY RETURNDATASIZE PUSH1 0x0 REVERT JUMPDEST POP POP POP POP PUSH1 0x40 MLOAD RETURNDATASIZE PUSH1 0x0 DUP3 RETURNDATACOPY RETURNDATASIZE PUSH1 0x1F NOT PUSH1 0x1F DUP3 ADD AND DUP3 ADD DUP1 PUSH1 0x40 MSTORE POP PUSH1 0x20 DUP2 LT ISZERO PUSH2 0x26CA JUMPI PUSH1 0x0 DUP1 REVERT JUMPDEST DUP2 ADD SWAP1 DUP1 DUP1 MLOAD PUSH1 0x40 MLOAD SWAP4 SWAP3 SWAP2 SWAP1 DUP5 PUSH5 0x100000000 DUP3 GT ISZERO PUSH2 0x26EA JUMPI PUSH1 0x0 DUP1 REVERT JUMPDEST DUP4 DUP3 ADD SWAP2 POP PUSH1 0x20 DUP3 ADD DUP6 DUP2 GT ISZERO PUSH2 0x2700 JUMPI PUSH1 0x0 DUP1 REVERT JUMPDEST DUP3 MLOAD DUP7 PUSH1 0x1 DUP3 MUL DUP4 ADD GT PUSH5 0x100000000 DUP3 GT OR ISZERO PUSH2 0x271D JUMPI PUSH1 0x0 DUP1 REVERT JUMPDEST DUP1 DUP4 MSTORE PUSH1 0x20 DUP4 ADD SWAP3 POP POP POP SWAP1 DUP1 MLOAD SWAP1 PUSH1 0x20 ADD SWAP1 DUP1 DUP4 DUP4 PUSH1 0x0 JUMPDEST DUP4 DUP2 LT ISZERO PUSH2 0x2751 JUMPI DUP1 DUP3 ADD MLOAD DUP2 DUP5 ADD MSTORE PUSH1 0x20 DUP2 ADD SWAP1 POP PUSH2 0x2736 JUMP JUMPDEST POP POP POP POP SWAP1 POP SWAP1 DUP2 ADD SWAP1 PUSH1 0x1F AND DUP1 ISZERO PUSH2 0x277E JUMPI DUP1 DUP3 SUB DUP1 MLOAD PUSH1 0x1 DUP4 PUSH1 0x20 SUB PUSH2 0x100 EXP SUB NOT AND DUP2 MSTORE PUSH1 0x20 ADD SWAP2 POP JUMPDEST POP PUSH1 0x40 MSTORE POP POP POP SWAP1 POP SWAP1 JUMP JUMPDEST PUSH1 0x0 PUSH32 0x0 SWAP1 POP SWAP1 JUMP JUMPDEST PUSH1 0x1E DUP2 JUMP JUMPDEST PUSH1 0xA PUSH1 0x14 SWAP1 SLOAD SWAP1 PUSH2 0x100 EXP SWAP1 DIV PUSH8 0xFFFFFFFFFFFFFFFF AND DUP2 JUMP JUMPDEST PUSH1 0x0 DUP1 DUP3 EQ ISZERO PUSH2 0x2806 JUMPI PUSH32 0x9F658457775074FF4C842032A5EC2F1134C32784CCA59D594CAAC8C503B7923 PUSH1 0x0 SHL SWAP1 POP PUSH2 0x2EBE JUMP JUMPDEST PUSH1 0x1 DUP3 EQ ISZERO PUSH2 0x283A JUMPI PUSH32 0x1A77569B79CB7C2EAF9368DE9E3B1EFC0A606561E5AB299C2337340F3CDD576A PUSH1 0x0 SHL SWAP1 POP PUSH2 0x2EBE JUMP JUMPDEST PUSH1 0x2 DUP3 EQ ISZERO PUSH2 0x286E JUMPI PUSH32 0x111BD0002B1E3B8F1978C932B5CCB2FAB87FDB0ACAB2DDB266F9A346DCB11EE1 PUSH1 0x0 SHL SWAP1 POP PUSH2 0x2EBE JUMP JUMPDEST PUSH1 0x3 DUP3 EQ ISZERO PUSH2 0x28A2 JUMPI PUSH32 0x40868EA2A363E05D7AE44280F69B49E429AB096CA2844EFE91F8D6B3DAD57DD PUSH1 0x0 SHL SWAP1 POP PUSH2 0x2EBE JUMP JUMPDEST PUSH1 0x4 DUP3 EQ ISZERO PUSH2 0x28D5 JUMPI PUSH31 0xF8F605C92C8502C8FE83BE1B83B24E3F67312A388F30CBADB5DEE8974137C3 PUSH1 0x0 SHL SWAP1 POP PUSH2 0x2EBE JUMP JUMPDEST PUSH1 0x5 DUP3 EQ ISZERO PUSH2 0x2909 JUMPI PUSH32 0x1ADC043C99ADBC0C86A60A36DB0F661E2DD96F36EDE322F954386D8935A0C5D9 PUSH1 0x0 SHL SWAP1 POP PUSH2 0x2EBE JUMP JUMPDEST PUSH1 0x6 DUP3 EQ ISZERO PUSH2 0x293D JUMPI PUSH32 0x2A1FEDFA71DA723AC3E9B35CEF752FA1B647B2B737A23E91241CB7BDC419E3F4 PUSH1 0x0 SHL SWAP1 POP PUSH2 0x2EBE JUMP JUMPDEST PUSH1 0x7 DUP3 EQ ISZERO PUSH2 0x2971 JUMPI PUSH32 0x17FE1974543C4C4B228E1292F7E3200D31435FC910EE5A8C5CAFD329CC4B256B PUSH1 0x0 SHL SWAP1 POP PUSH2 0x2EBE JUMP JUMPDEST PUSH1 0x8 DUP3 EQ ISZERO PUSH2 0x29A5 JUMPI PUSH32 0xE84A586EB63A0EEC0F1FE5785022441F0E29E4AE859C7CE1F5FC88A42AD2E6B PUSH1 0x0 SHL SWAP1 POP PUSH2 0x2EBE JUMP JUMPDEST PUSH1 0x9 DUP3 EQ ISZERO PUSH2 0x29D9 JUMPI PUSH32 0x193DEB901F6EEB032E02E093280DB17E373D4FF52BAFDA9215B46BB9B0A86F3E PUSH1 0x0 SHL SWAP1 POP PUSH2 0x2EBE JUMP JUMPDEST PUSH1 0xA DUP3 EQ ISZERO PUSH2 0x2A0D JUMPI PUSH32 0x1D10CA7B985697CB519565A5006C3F44B020B2EDAB9B7422ED15DC34532F9406 PUSH1 0x0 SHL SWAP1 POP PUSH2 0x2EBE JUMP JUMPDEST PUSH1 0xB DUP3 EQ ISZERO PUSH2 0x2A41 JUMPI PUSH32 0x1DC200763555467A4E583E00BADFDC1FB4D3D3F8F1CC81F31FD2F8B387776081 PUSH1 0x0 SHL SWAP1 POP PUSH2 0x2EBE JUMP JUMPDEST PUSH1 0xC DUP3 EQ ISZERO PUSH2 0x2A75 JUMPI PUSH32 0x203DD11FDBA0ED13B20CA2D6952F3FEB7461836A03512E0CCCCE8467B320B2F6 PUSH1 0x0 SHL SWAP1 POP PUSH2 0x2EBE JUMP JUMPDEST PUSH1 0xD DUP3 EQ ISZERO PUSH2 0x2AA9 JUMPI PUSH32 0x591AF64E64A3E69CAF23EEE2BDEA90885343A49F547EE9464E95D8D6267E4F7 PUSH1 0x0 SHL SWAP1 POP PUSH2 0x2EBE JUMP JUMPDEST PUSH1 0xE DUP3 EQ ISZERO PUSH2 0x2ADD JUMPI PUSH32 0x2AF572F1077A32F46DC8E307D43C0FA6753B400B2107325976B8DF7380545FF6 PUSH1 0x0 SHL SWAP1 POP PUSH2 0x2EBE JUMP JUMPDEST PUSH1 0xF DUP3 EQ ISZERO PUSH2 0x2B11 JUMPI PUSH32 0x43227AE4B70B1AACD04E35E6AAED7B56D91220C31E97AAF52E12A6A56984E52 PUSH1 0x0 SHL SWAP1 POP PUSH2 0x2EBE JUMP JUMPDEST PUSH1 0x10 DUP3 EQ ISZERO PUSH2 0x2B45 JUMPI PUSH32 0x2976F1F6A91D83D4C528DAD69ECE6D3D91934B0E5657E915B360C8C4C2FB54E6 PUSH1 0x0 SHL SWAP1 POP PUSH2 0x2EBE JUMP JUMPDEST PUSH1 0x11 DUP3 EQ ISZERO PUSH2 0x2B78 JUMPI PUSH31 0xE5C251C9E093658BE0CD1B0DF55B6F70F3D09146C1C8B4212A4DDCDE700DBC PUSH1 0x0 SHL SWAP1 POP PUSH2 0x2EBE JUMP JUMPDEST PUSH1 0x12 DUP3 EQ ISZERO PUSH2 0x2BAC JUMPI PUSH32 0x267CBBC1BC2F1C3E3073D2EE60DF8CC0BFEF39FE3CEE735C9AD5C8AD30064D2 PUSH1 0x0 SHL SWAP1 POP PUSH2 0x2EBE JUMP JUMPDEST PUSH1 0x13 DUP3 EQ ISZERO PUSH2 0x2BE0 JUMPI PUSH32 0x2F356057BC56F67DBF159A0E8935022ACD5E982DCE9F4071ADC43E4D57CE27E6 PUSH1 0x0 SHL SWAP1 POP PUSH2 0x2EBE JUMP JUMPDEST PUSH1 0x14 DUP3 EQ ISZERO PUSH2 0x2C14 JUMPI PUSH32 0x273DB68F52F12A9D8022AE524050064E42D4D1661C9BCCE958ACF89B5E8B127B PUSH1 0x0 SHL SWAP1 POP PUSH2 0x2EBE JUMP JUMPDEST PUSH1 0x15 DUP3 EQ ISZERO PUSH2 0x2C48 JUMPI PUSH32 0x496A18AD4CCA81B7C98CEB197439AD925E0F7F62D69DFA42CF9574BE77FE30F PUSH1 0x0 SHL SWAP1 POP PUSH2 0x2EBE JUMP JUMPDEST PUSH1 0x16 DUP3 EQ ISZERO PUSH2 0x2C7C JUMPI PUSH32 0x24F89A3F943D421B2F3A554B65459F42B820AC09D6FD9D693DF5F8BA732AB596 PUSH1 0x0 SHL SWAP1 POP PUSH2 0x2EBE JUMP JUMPDEST PUSH1 0x17 DUP3 EQ ISZERO PUSH2 0x2CB0 JUMPI PUSH32 0x1B55BFD751C6807DF36876CDCE68034AB43210BE2BC8AFA8043C7F428604E7A7 PUSH1 0x0 SHL SWAP1 POP PUSH2 0x2EBE JUMP JUMPDEST PUSH1 0x18 DUP3 EQ ISZERO PUSH2 0x2CE4 JUMPI PUSH32 0x16D6595A398CF20F2489B90E958166F1E19C537C0C46E9B8EA5462391EE8F143 PUSH1 0x0 SHL SWAP1 POP PUSH2 0x2EBE JUMP JUMPDEST PUSH1 0x19 DUP3 EQ ISZERO PUSH2 0x2D18 JUMPI PUSH32 0xF01447EF8F621592474B678ED2FC404EBAF22A6FCE15364BB4152A88C113613 PUSH1 0x0 SHL SWAP1 POP PUSH2 0x2EBE JUMP JUMPDEST PUSH1 0x1A DUP3 EQ ISZERO PUSH2 0x2D4C JUMPI PUSH32 0x26C2DFFEE48BACBC9D21CF90AA7C6E525AB01DB6966A9E7E53B3D3F4D1F5A4D PUSH1 0x0 SHL SWAP1 POP PUSH2 0x2EBE JUMP JUMPDEST PUSH1 0x1B DUP3 EQ ISZERO PUSH2 0x2D80 JUMPI PUSH32 0x234FE90732795745B2C504C791242A2BB193BAA1CBEAB57DB9324B6BB9134817 PUSH1 0x0 SHL SWAP1 POP PUSH2 0x2EBE JUMP JUMPDEST PUSH1 0x1C DUP3 EQ ISZERO PUSH2 0x2DB4 JUMPI PUSH32 0x23A8E0A7E60981C52EBB498C260D5BEF4D7C65145D17128996A77C33A3262A7E PUSH1 0x0 SHL SWAP1 POP PUSH2 0x2EBE JUMP JUMPDEST PUSH1 0x1D DUP3 EQ ISZERO PUSH2 0x2DE8 JUMPI PUSH32 0x24EE69D2565210C7027FF6FC2657ED029278BC79F41077FE3281EA5D5D8E80F9 PUSH1 0x0 SHL SWAP1 POP PUSH2 0x2EBE JUMP JUMPDEST PUSH1 0x1E DUP3 EQ ISZERO PUSH2 0x2E1C JUMPI PUSH32 0x1DE402FA32463BB2917B733AEEF0197A49CACACD1FE860C3ACC8CD3B65A30A68 PUSH1 0x0 SHL SWAP1 POP PUSH2 0x2EBE JUMP JUMPDEST PUSH1 0x1F DUP3 EQ ISZERO PUSH2 0x2E50 JUMPI PUSH32 0x1D3015A0F6A7B3F754171D0540628107E50E25DEBCEB16E0E33AE4205501896D PUSH1 0x0 SHL SWAP1 POP PUSH2 0x2EBE JUMP JUMPDEST PUSH1 0x40 MLOAD PUSH32 0x8C379A000000000000000000000000000000000000000000000000000000000 DUP2 MSTORE PUSH1 0x4 ADD DUP1 DUP1 PUSH1 0x20 ADD DUP3 DUP2 SUB DUP3 MSTORE PUSH1 0x13 DUP2 MSTORE PUSH1 0x20 ADD DUP1 PUSH32 0x496E646578206F7574206F6620626F756E647300000000000000000000000000 DUP2 MSTORE POP PUSH1 0x20 ADD SWAP2 POP POP PUSH1 0x40 MLOAD DUP1 SWAP2 SUB SWAP1 REVERT JUMPDEST SWAP2 SWAP1 POP JUMP JUMPDEST PUSH32 0x0 DUP2 JUMP JUMPDEST PUSH1 0xB PUSH1 0x14 SWAP1 SLOAD SWAP1 PUSH2 0x100 EXP SWAP1 DIV PUSH1 0xFF AND DUP2 JUMP JUMPDEST PUSH1 0x1 PUSH1 0x20 MSTORE DUP1 PUSH1 0x0 MSTORE PUSH1 0x40 PUSH1 0x0 KECCAK256 PUSH1 0x0 SWAP2 POP SWAP1 POP SLOAD DUP2 JUMP JUMPDEST PUSH1 0x3 PUSH1 0x4 SWAP1 SLOAD SWAP1 PUSH2 0x100 EXP SWAP1 DIV PUSH4 0xFFFFFFFF AND DUP2 JUMP JUMPDEST PUSH2 0x2F75 DUP3 DUP3 PUSH1 0xC PUSH1 0x0 SWAP1 SLOAD SWAP1 PUSH2 0x100 EXP SWAP1 DIV PUSH20 0xFFFFFFFFFFFFFFFFFFFFFFFFFFFFFFFFFFFFFFFF AND PUSH20 0xFFFFFFFFFFFFFFFFFFFFFFFFFFFFFFFFFFFFFFFF AND PUSH2 0x309F SWAP1 SWAP3 SWAP2 SWAP1 PUSH4 0xFFFFFFFF AND JUMP JUMPDEST POP POP JUMP JUMPDEST PUSH1 0x0 CALLVALUE EQ PUSH2 0x2FEF JUMPI PUSH1 0x40 MLOAD PUSH32 0x8C379A000000000000000000000000000000000000000000000000000000000 DUP2 MSTORE PUSH1 0x4 ADD DUP1 DUP1 PUSH1 0x20 ADD DUP3 DUP2 SUB DUP3 MSTORE PUSH1 0x18 DUP2 MSTORE PUSH1 0x20 ADD DUP1 PUSH32 0x6E6F206D61696E6E657420746F6B656E20616C6C6F7765640000000000000000 DUP2 MSTORE POP PUSH1 0x20 ADD SWAP2 POP POP PUSH1 0x40 MLOAD DUP1 SWAP2 SUB SWAP1 REVERT JUMPDEST PUSH2 0x303E CALLER ADDRESS DUP4 PUSH1 0xC PUSH1 0x0 SWAP1 SLOAD SWAP1 PUSH2 0x100 EXP SWAP1 DIV PUSH20 0xFFFFFFFFFFFFFFFFFFFFFFFFFFFFFFFFFFFFFFFF AND PUSH20 0xFFFFFFFFFFFFFFFFFFFFFFFFFFFFFFFFFFFFFFFF AND PUSH2 0x3157 SWAP1 SWAP4 SWAP3 SWAP2 SWAP1 PUSH4 0xFFFFFFFF AND JUMP JUMPDEST POP JUMP JUMPDEST PUSH1 0x0 PUSH2 0x304C DUP3 PUSH2 0x3244 JUMP JUMPDEST SWAP1 POP DUP2 PUSH32 0xCADB6698453D5F5E042459C94D05683072821CA73D684F6C1C0AF896EB3F4051 DUP3 DUP6 PUSH1 0x40 MLOAD DUP1 DUP4 PUSH4 0xFFFFFFFF AND PUSH4 0xFFFFFFFF AND DUP2 MSTORE PUSH1 0x20 ADD DUP3 DUP2 MSTORE PUSH1 0x20 ADD SWAP3 POP POP POP PUSH1 0x40 MLOAD DUP1 SWAP2 SUB SWAP1 LOG2 POP POP POP JUMP JUMPDEST PUSH2 0x3152 DUP4 PUSH4 0xA9059CBB PUSH1 0xE0 SHL DUP5 DUP5 PUSH1 0x40 MLOAD PUSH1 0x24 ADD DUP1 DUP4 PUSH20 0xFFFFFFFFFFFFFFFFFFFFFFFFFFFFFFFFFFFFFFFF AND PUSH20 0xFFFFFFFFFFFFFFFFFFFFFFFFFFFFFFFFFFFFFFFF AND DUP2 MSTORE PUSH1 0x20 ADD DUP3 DUP2 MSTORE PUSH1 0x20 ADD SWAP3 POP POP POP PUSH1 0x40 MLOAD PUSH1 0x20 DUP2 DUP4 SUB SUB DUP2 MSTORE SWAP1 PUSH1 0x40 MSTORE SWAP1 PUSH28 0xFFFFFFFFFFFFFFFFFFFFFFFFFFFFFFFFFFFFFFFFFFFFFFFFFFFFFFFF NOT AND PUSH1 0x20 DUP3 ADD DUP1 MLOAD PUSH28 0xFFFFFFFFFFFFFFFFFFFFFFFFFFFFFFFFFFFFFFFFFFFFFFFFFFFFFFFF DUP4 DUP2 DUP4 AND OR DUP4 MSTORE POP POP POP POP PUSH2 0x347E JUMP JUMPDEST POP POP POP JUMP JUMPDEST PUSH2 0x323E DUP5 PUSH4 0x23B872DD PUSH1 0xE0 SHL DUP6 DUP6 DUP6 PUSH1 0x40 MLOAD PUSH1 0x24 ADD DUP1 DUP5 PUSH20 0xFFFFFFFFFFFFFFFFFFFFFFFFFFFFFFFFFFFFFFFF AND PUSH20 0xFFFFFFFFFFFFFFFFFFFFFFFFFFFFFFFFFFFFFFFF AND DUP2 MSTORE PUSH1 0x20 ADD DUP4 PUSH20 0xFFFFFFFFFFFFFFFFFFFFFFFFFFFFFFFFFFFFFFFF AND PUSH20 0xFFFFFFFFFFFFFFFFFFFFFFFFFFFFFFFFFFFFFFFF AND DUP2 MSTORE PUSH1 0x20 ADD DUP3 DUP2 MSTORE PUSH1 0x20 ADD SWAP4 POP POP POP POP PUSH1 0x40 MLOAD PUSH1 0x20 DUP2 DUP4 SUB SUB DUP2 MSTORE SWAP1 PUSH1 0x40 MSTORE SWAP1 PUSH28 0xFFFFFFFFFFFFFFFFFFFFFFFFFFFFFFFFFFFFFFFFFFFFFFFFFFFFFFFF NOT AND PUSH1 0x20 DUP3 ADD DUP1 MLOAD PUSH28 0xFFFFFFFFFFFFFFFFFFFFFFFFFFFFFFFFFFFFFFFFFFFFFFFFFFFFFFFF DUP4 DUP2 DUP4 AND OR DUP4 MSTORE POP POP POP POP PUSH2 0x347E JUMP JUMPDEST POP POP POP POP JUMP JUMPDEST PUSH1 0x0 DUP1 PUSH1 0x3 PUSH1 0x4 SWAP1 SLOAD SWAP1 PUSH2 0x100 EXP SWAP1 DIV PUSH4 0xFFFFFFFF AND SWAP1 POP PUSH1 0x0 DUP1 SWAP1 SLOAD SWAP1 PUSH2 0x100 EXP SWAP1 DIV PUSH4 0xFFFFFFFF AND PUSH4 0xFFFFFFFF AND PUSH1 0x2 PUSH4 0xFFFFFFFF AND EXP PUSH4 0xFFFFFFFF AND DUP2 PUSH4 0xFFFFFFFF AND EQ ISZERO PUSH2 0x32E1 JUMPI PUSH1 0x40 MLOAD PUSH32 0x8C379A000000000000000000000000000000000000000000000000000000000 DUP2 MSTORE PUSH1 0x4 ADD DUP1 DUP1 PUSH1 0x20 ADD DUP3 DUP2 SUB DUP3 MSTORE PUSH1 0x30 DUP2 MSTORE PUSH1 0x20 ADD DUP1 PUSH2 0x38C4 PUSH1 0x30 SWAP2 CODECOPY PUSH1 0x40 ADD SWAP2 POP POP PUSH1 0x40 MLOAD DUP1 SWAP2 SUB SWAP1 REVERT JUMPDEST PUSH1 0x0 DUP2 SWAP1 POP PUSH1 0x0 DUP5 SWAP1 POP PUSH1 0x0 DUP1 PUSH1 0x0 DUP1 SWAP1 POP JUMPDEST PUSH1 0x0 DUP1 SWAP1 SLOAD SWAP1 PUSH2 0x100 EXP SWAP1 DIV PUSH4 0xFFFFFFFF AND PUSH4 0xFFFFFFFF AND DUP2 PUSH4 0xFFFFFFFF AND LT ISZERO PUSH2 0x33DC JUMPI PUSH1 0x0 PUSH1 0x2 DUP7 PUSH4 0xFFFFFFFF AND DUP2 PUSH2 0x332B JUMPI INVALID JUMPDEST MOD PUSH4 0xFFFFFFFF AND EQ ISZERO PUSH2 0x336F JUMPI DUP4 SWAP3 POP PUSH2 0x334A DUP2 PUSH4 0xFFFFFFFF AND PUSH2 0x27D1 JUMP JUMPDEST SWAP2 POP DUP4 PUSH1 0x1 PUSH1 0x0 DUP4 PUSH4 0xFFFFFFFF AND DUP2 MSTORE PUSH1 0x20 ADD SWAP1 DUP2 MSTORE PUSH1 0x20 ADD PUSH1 0x0 KECCAK256 DUP2 SWAP1 SSTORE POP PUSH2 0x338F JUMP JUMPDEST PUSH1 0x1 PUSH1 0x0 DUP3 PUSH4 0xFFFFFFFF AND DUP2 MSTORE PUSH1 0x20 ADD SWAP1 DUP2 MSTORE PUSH1 0x20 ADD PUSH1 0x0 KECCAK256 SLOAD SWAP3 POP DUP4 SWAP2 POP JUMPDEST PUSH2 0x33BA PUSH32 0x0 DUP5 DUP5 PUSH2 0x1BCF JUMP JUMPDEST SWAP4 POP PUSH1 0x2 DUP6 PUSH4 0xFFFFFFFF AND DUP2 PUSH2 0x33CC JUMPI INVALID JUMPDEST DIV SWAP5 POP DUP1 DUP1 PUSH1 0x1 ADD SWAP2 POP POP PUSH2 0x32F4 JUMP JUMPDEST POP PUSH1 0x0 PUSH1 0x1E PUSH4 0xFFFFFFFF AND PUSH1 0x1 PUSH1 0x3 PUSH1 0x0 SWAP1 SLOAD SWAP1 PUSH2 0x100 EXP SWAP1 DIV PUSH4 0xFFFFFFFF AND ADD PUSH4 0xFFFFFFFF AND DUP2 PUSH2 0x340A JUMPI INVALID JUMPDEST MOD SWAP1 POP DUP1 PUSH1 0x3 PUSH1 0x0 PUSH2 0x100 EXP DUP2 SLOAD DUP2 PUSH4 0xFFFFFFFF MUL NOT AND SWAP1 DUP4 PUSH4 0xFFFFFFFF AND MUL OR SWAP1 SSTORE POP DUP4 PUSH1 0x2 PUSH1 0x0 DUP4 PUSH4 0xFFFFFFFF AND DUP2 MSTORE PUSH1 0x20 ADD SWAP1 DUP2 MSTORE PUSH1 0x20 ADD PUSH1 0x0 KECCAK256 DUP2 SWAP1 SSTORE POP PUSH1 0x1 DUP7 ADD PUSH1 0x3 PUSH1 0x4 PUSH2 0x100 EXP DUP2 SLOAD DUP2 PUSH4 0xFFFFFFFF MUL NOT AND SWAP1 DUP4 PUSH4 0xFFFFFFFF AND MUL OR SWAP1 SSTORE POP DUP6 SWAP7 POP POP POP POP POP POP POP SWAP2 SWAP1 POP JUMP JUMPDEST PUSH1 0x60 PUSH2 0x34E0 DUP3 PUSH1 0x40 MLOAD DUP1 PUSH1 0x40 ADD PUSH1 0x40 MSTORE DUP1 PUSH1 0x20 DUP2 MSTORE PUSH1 0x20 ADD PUSH32 0x5361666545524332303A206C6F772D6C6576656C2063616C6C206661696C6564 DUP2 MSTORE POP DUP6 PUSH20 0xFFFFFFFFFFFFFFFFFFFFFFFFFFFFFFFFFFFFFFFF AND PUSH2 0x356D SWAP1 SWAP3 SWAP2 SWAP1 PUSH4 0xFFFFFFFF AND JUMP JUMPDEST SWAP1 POP PUSH1 0x0 DUP2 MLOAD GT ISZERO PUSH2 0x3568 JUMPI DUP1 DUP1 PUSH1 0x20 ADD SWAP1 MLOAD PUSH1 0x20 DUP2 LT ISZERO PUSH2 0x3501 JUMPI PUSH1 0x0 DUP1 REVERT JUMPDEST DUP2 ADD SWAP1 DUP1 DUP1 MLOAD SWAP1 PUSH1 0x20 ADD SWAP1 SWAP3 SWAP2 SWAP1 POP POP POP PUSH2 0x3567 JUMPI PUSH1 0x40 MLOAD PUSH32 0x8C379A000000000000000000000000000000000000000000000000000000000 DUP2 MSTORE PUSH1 0x4 ADD DUP1 DUP1 PUSH1 0x20 ADD DUP3 DUP2 SUB DUP3 MSTORE PUSH1 0x2A DUP2 MSTORE PUSH1 0x20 ADD DUP1 PUSH2 0x389A PUSH1 0x2A SWAP2 CODECOPY PUSH1 0x40 ADD SWAP2 POP POP PUSH1 0x40 MLOAD DUP1 SWAP2 SUB SWAP1 REVERT JUMPDEST JUMPDEST POP POP POP JUMP JUMPDEST PUSH1 0x60 PUSH2 0x357C DUP5 DUP5 PUSH1 0x0 DUP6 PUSH2 0x3585 JUMP JUMPDEST SWAP1 POP SWAP4 SWAP3 POP POP POP JUMP JUMPDEST PUSH1 0x60 DUP3 SELFBALANCE LT ISZERO PUSH2 0x35E0 JUMPI PUSH1 0x40 MLOAD PUSH32 0x8C379A000000000000000000000000000000000000000000000000000000000 DUP2 MSTORE PUSH1 0x4 ADD DUP1 DUP1 PUSH1 0x20 ADD DUP3 DUP2 SUB DUP3 MSTORE PUSH1 0x26 DUP2 MSTORE PUSH1 0x20 ADD DUP1 PUSH2 0x3832 PUSH1 0x26 SWAP2 CODECOPY PUSH1 0x40 ADD SWAP2 POP POP PUSH1 0x40 MLOAD DUP1 SWAP2 SUB SWAP1 REVERT JUMPDEST PUSH2 0x35E9 DUP6 PUSH2 0x372E JUMP JUMPDEST PUSH2 0x365B JUMPI PUSH1 0x40 MLOAD PUSH32 0x8C379A000000000000000000000000000000000000000000000000000000000 DUP2 MSTORE PUSH1 0x4 ADD DUP1 DUP1 PUSH1 0x20 ADD DUP3 DUP2 SUB DUP3 MSTORE PUSH1 0x1D DUP2 MSTORE PUSH1 0x20 ADD DUP1 PUSH32 0x416464726573733A2063616C6C20746F206E6F6E2D636F6E7472616374000000 DUP2 MSTORE POP PUSH1 0x20 ADD SWAP2 POP POP PUSH1 0x40 MLOAD DUP1 SWAP2 SUB SWAP1 REVERT JUMPDEST PUSH1 0x0 PUSH1 0x60 DUP7 PUSH20 0xFFFFFFFFFFFFFFFFFFFFFFFFFFFFFFFFFFFFFFFF AND DUP6 DUP8 PUSH1 0x40 MLOAD DUP1 DUP3 DUP1 MLOAD SWAP1 PUSH1 0x20 ADD SWAP1 DUP1 DUP4 DUP4 JUMPDEST PUSH1 0x20 DUP4 LT PUSH2 0x36AB JUMPI DUP1 MLOAD DUP3 MSTORE PUSH1 0x20 DUP3 ADD SWAP2 POP PUSH1 0x20 DUP2 ADD SWAP1 POP PUSH1 0x20 DUP4 SUB SWAP3 POP PUSH2 0x3688 JUMP JUMPDEST PUSH1 0x1 DUP4 PUSH1 0x20 SUB PUSH2 0x100 EXP SUB DUP1 NOT DUP3 MLOAD AND DUP2 DUP5 MLOAD AND DUP1 DUP3 OR DUP6 MSTORE POP POP POP POP POP POP SWAP1 POP ADD SWAP2 POP POP PUSH1 0x0 PUSH1 0x40 MLOAD DUP1 DUP4 SUB DUP2 DUP6 DUP8 GAS CALL SWAP3 POP POP POP RETURNDATASIZE DUP1 PUSH1 0x0 DUP2 EQ PUSH2 0x370D JUMPI PUSH1 0x40 MLOAD SWAP2 POP PUSH1 0x1F NOT PUSH1 0x3F RETURNDATASIZE ADD AND DUP3 ADD PUSH1 0x40 MSTORE RETURNDATASIZE DUP3 MSTORE RETURNDATASIZE PUSH1 0x0 PUSH1 0x20 DUP5 ADD RETURNDATACOPY PUSH2 0x3712 JUMP JUMPDEST PUSH1 0x60 SWAP2 POP JUMPDEST POP SWAP2 POP SWAP2 POP PUSH2 0x3722 DUP3 DUP3 DUP7 PUSH2 0x3741 JUMP JUMPDEST SWAP3 POP POP POP SWAP5 SWAP4 POP POP POP POP JUMP JUMPDEST PUSH1 0x0 DUP1 DUP3 EXTCODESIZE SWAP1 POP PUSH1 0x0 DUP2 GT SWAP2 POP POP SWAP2 SWAP1 POP JUMP JUMPDEST PUSH1 0x60 DUP4 ISZERO PUSH2 0x3751 JUMPI DUP3 SWAP1 POP PUSH2 0x3806 JUMP JUMPDEST PUSH1 0x0 DUP4 MLOAD GT ISZERO PUSH2 0x3764 JUMPI DUP3 MLOAD DUP1 DUP5 PUSH1 0x20 ADD REVERT JUMPDEST DUP2 PUSH1 0x40 MLOAD PUSH32 0x8C379A000000000000000000000000000000000000000000000000000000000 DUP2 MSTORE PUSH1 0x4 ADD DUP1 DUP1 PUSH1 0x20 ADD DUP3 DUP2 SUB DUP3 MSTORE DUP4 DUP2 DUP2 MLOAD DUP2 MSTORE PUSH1 0x20 ADD SWAP2 POP DUP1 MLOAD SWAP1 PUSH1 0x20 ADD SWAP1 DUP1 DUP4 DUP4 PUSH1 0x0 JUMPDEST DUP4 DUP2 LT ISZERO PUSH2 0x37CB JUMPI DUP1 DUP3 ADD MLOAD DUP2 DUP5 ADD MSTORE PUSH1 0x20 DUP2 ADD SWAP1 POP PUSH2 0x37B0 JUMP JUMPDEST POP POP POP POP SWAP1 POP SWAP1 DUP2 ADD SWAP1 PUSH1 0x1F AND DUP1 ISZERO PUSH2 0x37F8 JUMPI DUP1 DUP3 SUB DUP1 MLOAD PUSH1 0x1 DUP4 PUSH1 0x20 SUB PUSH2 0x100 EXP SUB NOT AND DUP2 MSTORE PUSH1 0x20 ADD SWAP2 POP JUMPDEST POP SWAP3 POP POP POP PUSH1 0x40 MLOAD DUP1 SWAP2 SUB SWAP1 REVERT JUMPDEST SWAP4 SWAP3 POP POP POP JUMP INVALID JUMP PUSH6 0x726966696572 KECCAK256 PUSH22 0x7064617465732068617665206265656E206469736162 PUSH13 0x65642E416464726573733A2069 PUSH15 0x73756666696369656E742062616C61 PUSH15 0x636520666F722063616C6C5F726967 PUSH9 0x742073686F756C6420 PUSH3 0x652069 PUSH15 0x7369646520746865206669656C6454 PUSH9 0x6520636F6D6D69746D PUSH6 0x6E7420686173 KECCAK256 PUSH3 0x65656E KECCAK256 PUSH20 0x75626D69747465645361666545524332303A2045 MSTORE NUMBER ORIGIN ADDRESS KECCAK256 PUSH16 0x7065726174696F6E20646964206E6F74 KECCAK256 PUSH20 0x7563636565644D65726B6C652074726565206973 KECCAK256 PUSH7 0x756C6C2E204E6F KECCAK256 PUSH14 0x6F7265206C65617665732063616E KECCAK256 PUSH3 0x652061 PUSH5 0x6465644F6E PUSH13 0x79206F70657261746F72206361 PUSH15 0x2063616C6C20746869732066756E63 PUSH21 0x696F6E2EA264697066735822122057A3018542D059 PUSH31 0x61677616FDFAC1294E71F52A0607A861486CEBA273501D3F64736F6C634300 MOD SIGNEXTEND STOP CALLER 0x5F PUSH13 0x6576656C732073686F756C6420 PUSH3 0x652067 PUSH19 0x6561746572207468616E207A65726F00000000 "
		},
		"gasEstimates": {
			"creation": {
				"codeDepositCost": "2934000",
				"executionCost": "infinite",
				"totalCost": "infinite"
			},
			"external": {
				"FIELD_SIZE()": "273",
				"ROOT_HISTORY_SIZE()": "350",
				"asset()": "1187",
				"assetDecimals()": "infinite",
				"assetName()": "infinite",
				"assetSymbol()": "infinite",
				"assetType()": "infinite",
				"bridgeType()": "infinite",
				"changeOperator(address)": "infinite",
				"currentRootIndex()": "1143",
				"deposit(uint256,bytes32,bytes32,bytes16,bytes)": "infinite",
				"depositedCommitments(bytes32)": "1290",
				"disableVerifierUpdate()": "infinite",
				"filledSubtrees(uint256)": "1295",
				"getHasherAddress()": "infinite",
				"getIsDepositsDisabled()": "1223",
				"getLastRoot()": "2022",
				"getLevels()": "1130",
				"getVerifierAddress()": "1106",
				"hashLeftRight(address,bytes32,bytes32)": "infinite",
				"hasher()": "infinite",
				"isDepositsDisabled()": "1213",
				"isKnownRoot(bytes32)": "infinite",
				"isSpent(uint256)": "1315",
				"isVerifierUpdateDisabled()": "1215",
				"levels()": "1187",
				"nextIndex()": "1257",
				"operator()": "1120",
				"peerChainId()": "1147",
				"peerContractAddress()": "1098",
				"relayCommitments(bytes32)": "1313",
				"relayProxyAddress()": "1099",
				"roots(uint256)": "1274",
				"setPeerContractAddress(address)": "infinite",
				"setRelayProxyAddress(address)": "infinite",
				"toggleDeposits(bool)": "infinite",
				"updateVerifier(address)": "infinite",
				"verifier()": "1143",
				"withdraw(uint256[2],uint256[2][2],uint256[2],uint256,uint256,uint256,address)": "infinite",
				"withdrewSerialNumbers(uint256)": "1267",
				"zeros(uint256)": "1241"
			}
		},
		"methodIdentifiers": {
			"FIELD_SIZE()": "414a37ba",
			"ROOT_HISTORY_SIZE()": "cd87a3b4",
			"asset()": "38d52e0f",
			"assetDecimals()": "c2d41601",
			"assetName()": "c9230c5d",
			"assetSymbol()": "176de7a8",
			"assetType()": "3fe3347a",
			"bridgeType()": "2421e155",
			"changeOperator(address)": "06394c9b",
			"currentRootIndex()": "90eeb02b",
			"deposit(uint256,bytes32,bytes32,bytes16,bytes)": "c5707c86",
			"depositedCommitments(bytes32)": "4752f3c2",
			"disableVerifierUpdate()": "20a7d092",
			"filledSubtrees(uint256)": "f178e47c",
			"getHasherAddress()": "ca49c6f8",
			"getIsDepositsDisabled()": "3505c6c1",
			"getLastRoot()": "ba70f757",
			"getLevels()": "0c394a60",
			"getVerifierAddress()": "53ae8717",
			"hashLeftRight(address,bytes32,bytes32)": "8ea3099e",
			"hasher()": "ed33639f",
			"isDepositsDisabled()": "ed6ea33a",
			"isKnownRoot(bytes32)": "6d9833e3",
			"isSpent(uint256)": "5a129efe",
			"isVerifierUpdateDisabled()": "4eb069f7",
			"levels()": "4ecf518b",
			"nextIndex()": "fc7e9c6f",
			"operator()": "570ca735",
			"peerChainId()": "cdfceeba",
			"peerContractAddress()": "9bce0920",
			"relayCommitments(bytes32)": "1eb00e69",
			"relayProxyAddress()": "8981d4c6",
			"roots(uint256)": "c2b40ae4",
			"setPeerContractAddress(address)": "c6bbbeba",
			"setRelayProxyAddress(address)": "68733d51",
			"toggleDeposits(bool)": "99383f78",
			"updateVerifier(address)": "97fc007c",
			"verifier()": "2b7ac3f3",
			"withdraw(uint256[2],uint256[2][2],uint256[2],uint256,uint256,uint256,address)": "261e55cc",
			"withdrewSerialNumbers(uint256)": "a4401dcb",
			"zeros(uint256)": "e8295588"
		}
	},
	"abi": [
		{
			"inputs": [
				{
					"internalType": "address",
					"name": "_verifier",
					"type": "address"
				},
				{
					"internalType": "address",
					"name": "_token",
					"type": "address"
				},
				{
					"internalType": "address",
					"name": "_hasher2",
					"type": "address"
				},
				{
					"internalType": "uint32",
					"name": "_merkleTreeHeight",
					"type": "uint32"
				}
			],
			"stateMutability": "nonpayable",
			"type": "constructor"
		},
		{
			"anonymous": false,
			"inputs": [
				{
					"indexed": false,
					"internalType": "uint256",
					"name": "amount",
					"type": "uint256"
				},
				{
					"indexed": true,
					"internalType": "bytes32",
					"name": "commitmentHash",
					"type": "bytes32"
				},
				{
					"indexed": false,
					"internalType": "bytes",
					"name": "encryptedNote",
					"type": "bytes"
				}
			],
			"name": "Deposit",
			"type": "event"
		},
		{
			"anonymous": false,
			"inputs": [
				{
					"indexed": true,
					"internalType": "bytes32",
					"name": "leaf",
					"type": "bytes32"
				},
				{
					"indexed": false,
					"internalType": "uint32",
					"name": "leafIndex",
					"type": "uint32"
				},
				{
					"indexed": false,
					"internalType": "uint256",
					"name": "amount",
					"type": "uint256"
				}
			],
			"name": "MerkleTreeInsert",
			"type": "event"
		},
		{
			"anonymous": false,
			"inputs": [
				{
					"indexed": false,
					"internalType": "address",
					"name": "recipient",
					"type": "address"
				},
				{
					"indexed": true,
					"internalType": "uint256",
					"name": "rootHash",
					"type": "uint256"
				},
				{
					"indexed": true,
					"internalType": "uint256",
					"name": "serialNumber",
					"type": "uint256"
				}
			],
			"name": "Withdraw",
			"type": "event"
		},
		{
			"inputs": [],
			"name": "FIELD_SIZE",
			"outputs": [
				{
					"internalType": "uint256",
					"name": "",
					"type": "uint256"
				}
			],
			"stateMutability": "view",
			"type": "function"
		},
		{
			"inputs": [],
			"name": "ROOT_HISTORY_SIZE",
			"outputs": [
				{
					"internalType": "uint32",
					"name": "",
					"type": "uint32"
				}
			],
			"stateMutability": "view",
			"type": "function"
		},
		{
			"inputs": [],
			"name": "asset",
			"outputs": [
				{
					"internalType": "contract IERC20Metadata",
					"name": "",
					"type": "address"
				}
			],
			"stateMutability": "view",
			"type": "function"
		},
		{
			"inputs": [],
			"name": "assetDecimals",
			"outputs": [
				{
					"internalType": "uint8",
					"name": "",
					"type": "uint8"
				}
			],
			"stateMutability": "view",
			"type": "function"
		},
		{
			"inputs": [],
			"name": "assetName",
			"outputs": [
				{
					"internalType": "string",
					"name": "",
					"type": "string"
				}
			],
			"stateMutability": "view",
			"type": "function"
		},
		{
			"inputs": [],
			"name": "assetSymbol",
			"outputs": [
				{
					"internalType": "string",
					"name": "",
					"type": "string"
				}
			],
			"stateMutability": "view",
			"type": "function"
		},
		{
			"inputs": [],
			"name": "assetType",
			"outputs": [
				{
					"internalType": "string",
					"name": "",
					"type": "string"
				}
			],
			"stateMutability": "view",
			"type": "function"
		},
		{
			"inputs": [],
			"name": "bridgeType",
			"outputs": [
				{
					"internalType": "string",
					"name": "",
					"type": "string"
				}
			],
			"stateMutability": "view",
			"type": "function"
		},
		{
			"inputs": [
				{
					"internalType": "address",
					"name": "_newOperator",
					"type": "address"
				}
			],
			"name": "changeOperator",
			"outputs": [],
			"stateMutability": "nonpayable",
			"type": "function"
		},
		{
			"inputs": [],
			"name": "currentRootIndex",
			"outputs": [
				{
					"internalType": "uint32",
					"name": "",
					"type": "uint32"
				}
			],
			"stateMutability": "view",
			"type": "function"
		},
		{
			"inputs": [
				{
					"internalType": "uint256",
					"name": "amount",
					"type": "uint256"
				},
				{
					"internalType": "bytes32",
					"name": "commitmentHash",
					"type": "bytes32"
				},
				{
					"internalType": "bytes32",
					"name": "hashK",
					"type": "bytes32"
				},
				{
					"internalType": "bytes16",
					"name": "randomS",
					"type": "bytes16"
				},
				{
					"internalType": "bytes",
					"name": "encryptedNote",
					"type": "bytes"
				}
			],
			"name": "deposit",
			"outputs": [],
			"stateMutability": "payable",
			"type": "function"
		},
		{
			"inputs": [
				{
					"internalType": "bytes32",
					"name": "",
					"type": "bytes32"
				}
			],
			"name": "depositedCommitments",
			"outputs": [
				{
					"internalType": "bool",
					"name": "",
					"type": "bool"
				}
			],
			"stateMutability": "view",
			"type": "function"
		},
		{
			"inputs": [],
			"name": "disableVerifierUpdate",
			"outputs": [],
			"stateMutability": "nonpayable",
			"type": "function"
		},
		{
			"inputs": [
				{
					"internalType": "uint256",
					"name": "",
					"type": "uint256"
				}
			],
			"name": "filledSubtrees",
			"outputs": [
				{
					"internalType": "bytes32",
					"name": "",
					"type": "bytes32"
				}
			],
			"stateMutability": "view",
			"type": "function"
		},
		{
			"inputs": [],
			"name": "getHasherAddress",
			"outputs": [
				{
					"internalType": "address",
					"name": "",
					"type": "address"
				}
			],
			"stateMutability": "view",
			"type": "function"
		},
		{
			"inputs": [],
			"name": "getIsDepositsDisabled",
			"outputs": [
				{
					"internalType": "bool",
					"name": "",
					"type": "bool"
				}
			],
			"stateMutability": "view",
			"type": "function"
		},
		{
			"inputs": [],
			"name": "getLastRoot",
			"outputs": [
				{
					"internalType": "bytes32",
					"name": "",
					"type": "bytes32"
				}
			],
			"stateMutability": "view",
			"type": "function"
		},
		{
			"inputs": [],
			"name": "getLevels",
			"outputs": [
				{
					"internalType": "uint32",
					"name": "",
					"type": "uint32"
				}
			],
			"stateMutability": "view",
			"type": "function"
		},
		{
			"inputs": [],
			"name": "getVerifierAddress",
			"outputs": [
				{
					"internalType": "address",
					"name": "",
					"type": "address"
				}
			],
			"stateMutability": "view",
			"type": "function"
		},
		{
			"inputs": [
				{
					"internalType": "contract IHasher",
					"name": "_hasher",
					"type": "address"
				},
				{
					"internalType": "bytes32",
					"name": "_left",
					"type": "bytes32"
				},
				{
					"internalType": "bytes32",
					"name": "_right",
					"type": "bytes32"
				}
			],
			"name": "hashLeftRight",
			"outputs": [
				{
					"internalType": "bytes32",
					"name": "",
					"type": "bytes32"
				}
			],
			"stateMutability": "pure",
			"type": "function"
		},
		{
			"inputs": [],
			"name": "hasher",
			"outputs": [
				{
					"internalType": "contract IHasher",
					"name": "",
					"type": "address"
				}
			],
			"stateMutability": "view",
			"type": "function"
		},
		{
			"inputs": [],
			"name": "isDepositsDisabled",
			"outputs": [
				{
					"internalType": "bool",
					"name": "",
					"type": "bool"
				}
			],
			"stateMutability": "view",
			"type": "function"
		},
		{
			"inputs": [
				{
					"internalType": "bytes32",
					"name": "_root",
					"type": "bytes32"
				}
			],
			"name": "isKnownRoot",
			"outputs": [
				{
					"internalType": "bool",
					"name": "",
					"type": "bool"
				}
			],
			"stateMutability": "view",
			"type": "function"
		},
		{
			"inputs": [
				{
					"internalType": "uint256",
					"name": "serialNumber",
					"type": "uint256"
				}
			],
			"name": "isSpent",
			"outputs": [
				{
					"internalType": "bool",
					"name": "",
					"type": "bool"
				}
			],
			"stateMutability": "view",
			"type": "function"
		},
		{
			"inputs": [],
			"name": "isVerifierUpdateDisabled",
			"outputs": [
				{
					"internalType": "bool",
					"name": "",
					"type": "bool"
				}
			],
			"stateMutability": "view",
			"type": "function"
		},
		{
			"inputs": [],
			"name": "levels",
			"outputs": [
				{
					"internalType": "uint32",
					"name": "",
					"type": "uint32"
				}
			],
			"stateMutability": "view",
			"type": "function"
		},
		{
			"inputs": [],
			"name": "nextIndex",
			"outputs": [
				{
					"internalType": "uint32",
					"name": "",
					"type": "uint32"
				}
			],
			"stateMutability": "view",
			"type": "function"
		},
		{
			"inputs": [],
			"name": "operator",
			"outputs": [
				{
					"internalType": "address",
					"name": "",
					"type": "address"
				}
			],
			"stateMutability": "view",
			"type": "function"
		},
		{
			"inputs": [],
			"name": "peerChainId",
			"outputs": [
				{
					"internalType": "uint64",
					"name": "",
					"type": "uint64"
				}
			],
			"stateMutability": "view",
			"type": "function"
		},
		{
			"inputs": [],
			"name": "peerContractAddress",
			"outputs": [
				{
					"internalType": "address",
					"name": "",
					"type": "address"
				}
			],
			"stateMutability": "view",
			"type": "function"
		},
		{
			"inputs": [
				{
					"internalType": "bytes32",
					"name": "",
					"type": "bytes32"
				}
			],
			"name": "relayCommitments",
			"outputs": [
				{
					"internalType": "bool",
					"name": "",
					"type": "bool"
				}
			],
			"stateMutability": "view",
			"type": "function"
		},
		{
			"inputs": [],
			"name": "relayProxyAddress",
			"outputs": [
				{
					"internalType": "address",
					"name": "",
					"type": "address"
				}
			],
			"stateMutability": "view",
			"type": "function"
		},
		{
			"inputs": [
				{
					"internalType": "uint256",
					"name": "",
					"type": "uint256"
				}
			],
			"name": "roots",
			"outputs": [
				{
					"internalType": "bytes32",
					"name": "",
					"type": "bytes32"
				}
			],
			"stateMutability": "view",
			"type": "function"
		},
		{
			"inputs": [
				{
					"internalType": "address",
					"name": "_peerContractAddress",
					"type": "address"
				}
			],
			"name": "setPeerContractAddress",
			"outputs": [],
			"stateMutability": "nonpayable",
			"type": "function"
		},
		{
			"inputs": [
				{
					"internalType": "address",
					"name": "_relayProxyAddress",
					"type": "address"
				}
			],
			"name": "setRelayProxyAddress",
			"outputs": [],
			"stateMutability": "nonpayable",
			"type": "function"
		},
		{
			"inputs": [
				{
					"internalType": "bool",
					"name": "_state",
					"type": "bool"
				}
			],
			"name": "toggleDeposits",
			"outputs": [],
			"stateMutability": "nonpayable",
			"type": "function"
		},
		{
			"inputs": [
				{
					"internalType": "address",
					"name": "_newVerifier",
					"type": "address"
				}
			],
			"name": "updateVerifier",
			"outputs": [],
			"stateMutability": "nonpayable",
			"type": "function"
		},
		{
			"inputs": [],
			"name": "verifier",
			"outputs": [
				{
					"internalType": "contract IVerifier",
					"name": "",
					"type": "address"
				}
			],
			"stateMutability": "view",
			"type": "function"
		},
		{
			"inputs": [
				{
					"internalType": "uint256[2]",
					"name": "a",
					"type": "uint256[2]"
				},
				{
					"internalType": "uint256[2][2]",
					"name": "b",
					"type": "uint256[2][2]"
				},
				{
					"internalType": "uint256[2]",
					"name": "c",
					"type": "uint256[2]"
				},
				{
					"internalType": "uint256",
					"name": "rootHash",
					"type": "uint256"
				},
				{
					"internalType": "uint256",
					"name": "serialNumber",
					"type": "uint256"
				},
				{
					"internalType": "uint256",
					"name": "amount",
					"type": "uint256"
				},
				{
					"internalType": "address",
					"name": "recipient",
					"type": "address"
				}
			],
			"name": "withdraw",
			"outputs": [],
			"stateMutability": "payable",
			"type": "function"
		},
		{
			"inputs": [
				{
					"internalType": "uint256",
					"name": "",
					"type": "uint256"
				}
			],
			"name": "withdrewSerialNumbers",
			"outputs": [
				{
					"internalType": "bool",
					"name": "",
					"type": "bool"
				}
			],
			"stateMutability": "view",
			"type": "function"
		},
		{
			"inputs": [
				{
					"internalType": "uint256",
					"name": "i",
					"type": "uint256"
				}
			],
			"name": "zeros",
			"outputs": [
				{
					"internalType": "bytes32",
					"name": "",
					"type": "bytes32"
				}
			],
			"stateMutability": "pure",
			"type": "function"
		}
	]
}