{
	"data": {
		"bytecode": {
			"linkReferences": {},
			"object": "60a06040526000600360006101000a81548163ffffffff021916908363ffffffff1602179055506000600360046101000a81548163ffffffff021916908363ffffffff1602179055503480156200005557600080fd5b506040516200559f3803806200559f833981810160405260a08110156200007b57600080fd5b81019080805190602001909291908051906020019092919080519060200190929190805190602001909291908051906020019092919050505084848484848484848484808260008263ffffffff161162000121576040517f08c379a00000000000000000000000000000000000000000000000000000000081526004018080602001828103825260238152602001806200557c6023913960400191505060405180910390fd5b60208263ffffffff16106200019e576040517f08c379a000000000000000000000000000000000000000000000000000000000815260040180806020018281038252601e8152602001807f5f6c6576656c732073686f756c64206265206c657373207468616e203332000081525060200191505060405180910390fd5b816000806101000a81548163ffffffff021916908363ffffffff1602179055508073ffffffffffffffffffffffffffffffffffffffff1660808173ffffffffffffffffffffffffffffffffffffffff1660601b8152505060008090505b8263ffffffff168163ffffffff1610156200025257620002278163ffffffff16620003d160201b60201c565b600160008363ffffffff168152602001908152602001600020819055508080600101915050620001fb565b506200026d6001830363ffffffff16620003d160201b60201c565b60026000808152602001908152602001600020819055505050600160048190555084600a60006101000a81548173ffffffffffffffffffffffffffffffffffffffff021916908373ffffffffffffffffffffffffffffffffffffffff16021790555083600a60146101000a81548167ffffffffffffffff021916908367ffffffffffffffff16021790555082600560006101000a81548173ffffffffffffffffffffffffffffffffffffffff021916908373ffffffffffffffffffffffffffffffffffffffff16021790555033600960006101000a81548173ffffffffffffffffffffffffffffffffffffffff021916908373ffffffffffffffffffffffffffffffffffffffff1602179055506000600b60006101000a81548173ffffffffffffffffffffffffffffffffffffffff021916908373ffffffffffffffffffffffffffffffffffffffff16021790555050505050505050505050505050505062000b03565b60008082141562000408577f09f658457775074ff4c842032a5ec2f1134c32784cca59d594caac8c503b792360001b905062000afe565b60018214156200043e577f1a77569b79cb7c2eaf9368de9e3b1efc0a606561e5ab299c2337340f3cdd576a60001b905062000afe565b600282141562000474577f111bd0002b1e3b8f1978c932b5ccb2fab87fdb0acab2ddb266f9a346dcb11ee160001b905062000afe565b6003821415620004aa577f040868ea2a363e05d7ae44280f69b49e429ab096ca2844efe91f8d6b3dad57dd60001b905062000afe565b6004821415620004df577ef8f605c92c8502c8fe83be1b83b24e3f67312a388f30cbadb5dee8974137c360001b905062000afe565b600582141562000515577f1adc043c99adbc0c86a60a36db0f661e2dd96f36ede322f954386d8935a0c5d960001b905062000afe565b60068214156200054b577f2a1fedfa71da723ac3e9b35cef752fa1b647b2b737a23e91241cb7bdc419e3f460001b905062000afe565b600782141562000581577f17fe1974543c4c4b228e1292f7e3200d31435fc910ee5a8c5cafd329cc4b256b60001b905062000afe565b6008821415620005b7577f0e84a586eb63a0eec0f1fe5785022441f0e29e4ae859c7ce1f5fc88a42ad2e6b60001b905062000afe565b6009821415620005ed577f193deb901f6eeb032e02e093280db17e373d4ff52bafda9215b46bb9b0a86f3e60001b905062000afe565b600a82141562000623577f1d10ca7b985697cb519565a5006c3f44b020b2edab9b7422ed15dc34532f940660001b905062000afe565b600b82141562000659577f1dc200763555467a4e583e00badfdc1fb4d3d3f8f1cc81f31fd2f8b38777608160001b905062000afe565b600c8214156200068f577f203dd11fdba0ed13b20ca2d6952f3feb7461836a03512e0cccce8467b320b2f660001b905062000afe565b600d821415620006c5577f0591af64e64a3e69caf23eee2bdea90885343a49f547ee9464e95d8d6267e4f760001b905062000afe565b600e821415620006fb577f2af572f1077a32f46dc8e307d43c0fa6753b400b2107325976b8df7380545ff660001b905062000afe565b600f82141562000731577f043227ae4b70b1aacd04e35e6aaed7b56d91220c31e97aaf52e12a6a56984e5260001b905062000afe565b601082141562000767577f2976f1f6a91d83d4c528dad69ece6d3d91934b0e5657e915b360c8c4c2fb54e660001b905062000afe565b60118214156200079c577ee5c251c9e093658be0cd1b0df55b6f70f3d09146c1c8b4212a4ddcde700dbc60001b905062000afe565b6012821415620007d2577f0267cbbc1bc2f1c3e3073d2ee60df8cc0bfef39fe3cee735c9ad5c8ad30064d260001b905062000afe565b601382141562000808577f2f356057bc56f67dbf159a0e8935022acd5e982dce9f4071adc43e4d57ce27e660001b905062000afe565b60148214156200083e577f273db68f52f12a9d8022ae524050064e42d4d1661c9bcce958acf89b5e8b127b60001b905062000afe565b601582141562000874577f0496a18ad4cca81b7c98ceb197439ad925e0f7f62d69dfa42cf9574be77fe30f60001b905062000afe565b6016821415620008aa577f24f89a3f943d421b2f3a554b65459f42b820ac09d6fd9d693df5f8ba732ab59660001b905062000afe565b6017821415620008e0577f1b55bfd751c6807df36876cdce68034ab43210be2bc8afa8043c7f428604e7a760001b905062000afe565b601882141562000916577f16d6595a398cf20f2489b90e958166f1e19c537c0c46e9b8ea5462391ee8f14360001b905062000afe565b60198214156200094c577f0f01447ef8f621592474b678ed2fc404ebaf22a6fce15364bb4152a88c11361360001b905062000afe565b601a82141562000982577f026c2dffee48bacbc9d21cf90aa7c6e525ab01db6966a9e7e53b3d3f4d1f5a4d60001b905062000afe565b601b821415620009b8577f234fe90732795745b2c504c791242a2bb193baa1cbeab57db9324b6bb913481760001b905062000afe565b601c821415620009ee577f23a8e0a7e60981c52ebb498c260d5bef4d7c65145d17128996a77c33a3262a7e60001b905062000afe565b601d82141562000a24577f24ee69d2565210c7027ff6fc2657ed029278bc79f41077fe3281ea5d5d8e80f960001b905062000afe565b601e82141562000a5a577f1de402fa32463bb2917b733aeef0197a49cacacd1fe860c3acc8cd3b65a30a6860001b905062000afe565b601f82141562000a90577f1d3015a0f6a7b3f754171d0540628107e50e25debceb16e0e33ae4205501896d60001b905062000afe565b6040517f08c379a00000000000000000000000000000000000000000000000000000000081526004018080602001828103825260138152602001807f496e646578206f7574206f6620626f756e64730000000000000000000000000081525060200191505060405180910390fd5b919050565b60805160601c614a5162000b2b600039806124265280612ff952806137875250614a516000f3fe6080604052600436106102295760003560e01c80638ea3099e11610123578063c6bbbeba116100ab578063e82955881161006f578063e829558814610f77578063ed33639f14610fc6578063ed6ea33a1461101d578063f178e47c1461104c578063fc7e9c6f1461109b5761029b565b8063c6bbbeba14610cce578063ca49c6f814610d1f578063cd87a3b414610d76578063cdfceeba14610dad578063df81d82814610dec5761029b565b80639bce0920116100f25780639bce092014610ab4578063a4401dcb14610b0b578063ba70f75714610b5e578063c2b40ae414610b89578063c5707c8614610bd85761029b565b80638ea3099e1461097657806390eeb02b146109ef57806397fc007c14610a2657806399383f7814610a775761029b565b8063414a37ba116101b1578063570ca73511610175578063570ca735146107d15780635a129efe1461082857806368733d511461087b5780636d9833e3146108cc5780638981d4c61461091f5761029b565b8063414a37ba146106965780634752f3c2146106c15780634eb069f7146107145780634ecf518b1461074357806353ae87171461077a5761029b565b80632421e155116101f85780632421e15514610392578063261e55cc146104225780632b7ac3f3146105805780633505c6c1146105d75780633fe3347a146106065761029b565b806306394c9b146102a05780630c394a60146102f15780631eb00e691461032857806320a7d0921461037b5761029b565b3661029b577f88a5966d370b9919b20f3e2c13ff65706f196a4e32cc2c12bf57088f885258743334604051808373ffffffffffffffffffffffffffffffffffffffff1673ffffffffffffffffffffffffffffffffffffffff1681526020018281526020019250505060405180910390a1005b600080fd5b3480156102ac57600080fd5b506102ef600480360360208110156102c357600080fd5b81019080803573ffffffffffffffffffffffffffffffffffffffff1690602001909291905050506110d2565b005b3480156102fd57600080fd5b506103066111bc565b604051808263ffffffff1663ffffffff16815260200191505060405180910390f35b34801561033457600080fd5b506103616004803603602081101561034b57600080fd5b81019080803590602001909291905050506111d5565b604051808215151515815260200191505060405180910390f35b34801561038757600080fd5b506103906111f5565b005b34801561039e57600080fd5b506103a76112b8565b6040518080602001828103825283818151815260200191508051906020019080838360005b838110156103e75780820151818401526020810190506103cc565b50505050905090810190601f1680156104145780820380516001836020036101000a031916815260200191505b509250505060405180910390f35b61057e600480360361018081101561043957600080fd5b8101908080604001906002806020026040519081016040528092919082600260200280828437600081840152601f19601f82011690508083019250505050505091929192908060800190600280602002604051908101604052809291906000905b828210156104ee578382604002016002806020026040519081016040528092919082600260200280828437600081840152601f19601f8201169050808301925050505050508152602001906001019061049a565b50505050919291929080604001906002806020026040519081016040528092919082600260200280828437600081840152601f19601f8201169050808301925050505050509192919290803590602001909291908035906020019092919080359060200190929190803573ffffffffffffffffffffffffffffffffffffffff1690602001909291905050506112f5565b005b34801561058c57600080fd5b5061059561176d565b604051808273ffffffffffffffffffffffffffffffffffffffff1673ffffffffffffffffffffffffffffffffffffffff16815260200191505060405180910390f35b3480156105e357600080fd5b506105ec611793565b604051808215151515815260200191505060405180910390f35b34801561061257600080fd5b5061061b6117aa565b6040518080602001828103825283818151815260200191508051906020019080838360005b8381101561065b578082015181840152602081019050610640565b50505050905090810190601f1680156106885780820380516001836020036101000a031916815260200191505b509250505060405180910390f35b3480156106a257600080fd5b506106ab6117e7565b6040518082815260200191505060405180910390f35b3480156106cd57600080fd5b506106fa600480360360208110156106e457600080fd5b810190808035906020019092919050505061180b565b604051808215151515815260200191505060405180910390f35b34801561072057600080fd5b5061072961182b565b604051808215151515815260200191505060405180910390f35b34801561074f57600080fd5b5061075861183e565b604051808263ffffffff1663ffffffff16815260200191505060405180910390f35b34801561078657600080fd5b5061078f611853565b604051808273ffffffffffffffffffffffffffffffffffffffff1673ffffffffffffffffffffffffffffffffffffffff16815260200191505060405180910390f35b3480156107dd57600080fd5b506107e661187d565b604051808273ffffffffffffffffffffffffffffffffffffffff1673ffffffffffffffffffffffffffffffffffffffff16815260200191505060405180910390f35b34801561083457600080fd5b506108616004803603602081101561084b57600080fd5b81019080803590602001909291905050506118a3565b604051808215151515815260200191505060405180910390f35b34801561088757600080fd5b506108ca6004803603602081101561089e57600080fd5b81019080803573ffffffffffffffffffffffffffffffffffffffff1690602001909291905050506118cd565b005b3480156108d857600080fd5b50610905600480360360208110156108ef57600080fd5b81019080803590602001909291905050506119b7565b604051808215151515815260200191505060405180910390f35b34801561092b57600080fd5b50610934611a53565b604051808273ffffffffffffffffffffffffffffffffffffffff1673ffffffffffffffffffffffffffffffffffffffff16815260200191505060405180910390f35b34801561098257600080fd5b506109d96004803603606081101561099957600080fd5b81019080803573ffffffffffffffffffffffffffffffffffffffff1690602001909291908035906020019092919080359060200190929190505050611a79565b6040518082815260200191505060405180910390f35b3480156109fb57600080fd5b50610a04611cfd565b604051808263ffffffff1663ffffffff16815260200191505060405180910390f35b348015610a3257600080fd5b50610a7560048036036020811015610a4957600080fd5b81019080803573ffffffffffffffffffffffffffffffffffffffff169060200190929190505050611d13565b005b348015610a8357600080fd5b50610ab260048036036020811015610a9a57600080fd5b81019080803515159060200190929190505050611e63565b005b348015610ac057600080fd5b50610ac9611f26565b604051808273ffffffffffffffffffffffffffffffffffffffff1673ffffffffffffffffffffffffffffffffffffffff16815260200191505060405180910390f35b348015610b1757600080fd5b50610b4460048036036020811015610b2e57600080fd5b8101908080359060200190929190505050611f4c565b604051808215151515815260200191505060405180910390f35b348015610b6a57600080fd5b50610b73611f6c565b6040518082815260200191505060405180910390f35b348015610b9557600080fd5b50610bc260048036036020811015610bac57600080fd5b8101908080359060200190929190505050611f9f565b6040518082815260200191505060405180910390f35b610ccc600480360360a0811015610bee57600080fd5b8101908080359060200190929190803590602001909291908035906020019092919080356fffffffffffffffffffffffffffffffff1916906020019092919080359060200190640100000000811115610c4657600080fd5b820183602082011115610c5857600080fd5b80359060200191846001830284011164010000000083111715610c7a57600080fd5b91908080601f016020809104026020016040519081016040528093929190818152602001838380828437600081840152601f19601f820116905080830192505050505050509192919290505050611fb7565b005b348015610cda57600080fd5b50610d1d60048036036020811015610cf157600080fd5b81019080803573ffffffffffffffffffffffffffffffffffffffff169060200190929190505050612338565b005b348015610d2b57600080fd5b50610d34612422565b604051808273ffffffffffffffffffffffffffffffffffffffff1673ffffffffffffffffffffffffffffffffffffffff16815260200191505060405180910390f35b348015610d8257600080fd5b50610d8b61244a565b604051808263ffffffff1663ffffffff16815260200191505060405180910390f35b348015610db957600080fd5b50610dc261244f565b604051808267ffffffffffffffff1667ffffffffffffffff16815260200191505060405180910390f35b348015610df857600080fd5b50610f5d60048036036060811015610e0f57600080fd5b8101908080359060200190640100000000811115610e2c57600080fd5b820183602082011115610e3e57600080fd5b80359060200191846001830284011164010000000083111715610e6057600080fd5b91908080601f016020809104026020016040519081016040528093929190818152602001838380828437600081840152601f19601f82011690508083019250505050505050919291929080359060200190640100000000811115610ec357600080fd5b820183602082011115610ed557600080fd5b80359060200191846001830284011164010000000083111715610ef757600080fd5b91908080601f016020809104026020016040519081016040528093929190818152602001838380828437600081840152601f19601f820116905080830192505050505050509192919290803567ffffffffffffffff169060200190929190505050612469565b604051808215151515815260200191505060405180910390f35b348015610f8357600080fd5b50610fb060048036036020811015610f9a57600080fd5b8101908080359060200190929190505050612905565b6040518082815260200191505060405180910390f35b348015610fd257600080fd5b50610fdb612ff7565b604051808273ffffffffffffffffffffffffffffffffffffffff1673ffffffffffffffffffffffffffffffffffffffff16815260200191505060405180910390f35b34801561102957600080fd5b5061103261301b565b604051808215151515815260200191505060405180910390f35b34801561105857600080fd5b506110856004803603602081101561106f57600080fd5b810190808035906020019092919050505061302e565b6040518082815260200191505060405180910390f35b3480156110a757600080fd5b506110b0613046565b604051808263ffffffff1663ffffffff16815260200191505060405180910390f35b600960009054906101000a900473ffffffffffffffffffffffffffffffffffffffff1673ffffffffffffffffffffffffffffffffffffffff163373ffffffffffffffffffffffffffffffffffffffff1614611178576040517f08c379a00000000000000000000000000000000000000000000000000000000081526004018080602001828103825260258152602001806149d36025913960400191505060405180910390fd5b80600960006101000a81548173ffffffffffffffffffffffffffffffffffffffff021916908373ffffffffffffffffffffffffffffffffffffffff16021790555050565b60008060009054906101000a900463ffffffff16905090565b60076020528060005260406000206000915054906101000a900460ff1681565b600960009054906101000a900473ffffffffffffffffffffffffffffffffffffffff1673ffffffffffffffffffffffffffffffffffffffff163373ffffffffffffffffffffffffffffffffffffffff161461129b576040517f08c379a00000000000000000000000000000000000000000000000000000000081526004018080602001828103825260258152602001806149d36025913960400191505060405180910390fd5b6001600b60156101000a81548160ff021916908315150217905550565b60606040518060400160405280600781526020017f7462726964676500000000000000000000000000000000000000000000000000815250905090565b6002600454141561136e576040517f08c379a000000000000000000000000000000000000000000000000000000000815260040180806020018281038252601f8152602001807f5265656e7472616e637947756172643a207265656e7472616e742063616c6c0081525060200191505060405180910390fd5b60026004819055506008600084815260200190815260200160002060009054906101000a900460ff161561140a576040517f08c379a000000000000000000000000000000000000000000000000000000000815260040180806020018281038252601f8152602001807f546865206e6f746520686173206265656e20616c7265616479207370656e740081525060200191505060405180910390fd5b6114168460001b6119b7565b611488576040517f08c379a000000000000000000000000000000000000000000000000000000000815260040180806020018281038252601c8152602001807f43616e6e6f742066696e6420796f7572206d65726b6c6520726f6f740000000081525060200191505060405180910390fd5b60008173ffffffffffffffffffffffffffffffffffffffff169050600560009054906101000a900473ffffffffffffffffffffffffffffffffffffffff1673ffffffffffffffffffffffffffffffffffffffff16635fe8c13b89898960405180608001604052808b81526020018a8152602001898152602001878152506040518563ffffffff1660e01b81526004018085600260200280838360005b8381101561153f578082015181840152602081019050611524565b505050509050018460026000925b818410156115935782846020020151600260200280838360005b83811015611582578082015181840152602081019050611567565b50505050905001926001019261154d565b9250505083600260200280838360005b838110156115be5780820151818401526020810190506115a3565b5050505090500182600460200280838360005b838110156115ec5780820151818401526020810190506115d1565b50505050905001945050505050602060405180830381600087803b15801561161357600080fd5b505af1158015611627573d6000803e3d6000fd5b505050506040513d602081101561163d57600080fd5b81019080805190602001909291905050506116c0576040517f08c379a00000000000000000000000000000000000000000000000000000000081526004018080602001828103825260168152602001807f496e76616c69642077697468647261772070726f6f660000000000000000000081525060200191505060405180910390fd5b60016008600086815260200190815260200160002060006101000a81548160ff0219169083151502179055506116f6828461305c565b83857ff279e6a1f5e320cca91135676d9cb6e44ca8a08c0b88342bcdb1144f6511b56884604051808273ffffffffffffffffffffffffffffffffffffffff1673ffffffffffffffffffffffffffffffffffffffff16815260200191505060405180910390a350600160048190555050505050505050565b600560009054906101000a900473ffffffffffffffffffffffffffffffffffffffff1681565b6000600b60149054906101000a900460ff16905090565b60606040518060400160405280600481526020017f6d61696e00000000000000000000000000000000000000000000000000000000815250905090565b7f30644e72e131a029b85045b68181585d2833e84879b9709143e1f593f000000181565b60066020528060005260406000206000915054906101000a900460ff1681565b600b60159054906101000a900460ff1681565b6000809054906101000a900463ffffffff1681565b6000600560009054906101000a900473ffffffffffffffffffffffffffffffffffffffff16905090565b600960009054906101000a900473ffffffffffffffffffffffffffffffffffffffff1681565b60006008600083815260200190815260200160002060009054906101000a900460ff169050919050565b600960009054906101000a900473ffffffffffffffffffffffffffffffffffffffff1673ffffffffffffffffffffffffffffffffffffffff163373ffffffffffffffffffffffffffffffffffffffff1614611973576040517f08c379a00000000000000000000000000000000000000000000000000000000081526004018080602001828103825260258152602001806149d36025913960400191505060405180910390fd5b80600a60006101000a81548173ffffffffffffffffffffffffffffffffffffffff021916908373ffffffffffffffffffffffffffffffffffffffff16021790555050565b60008060001b8214156119cd5760009050611a4e565b6000600360009054906101000a900463ffffffff16905060008190505b600260008263ffffffff16815260200190815260200160002054841415611a1657600192505050611a4e565b60008163ffffffff161415611a2a57601e90505b8080600190039150508163ffffffff168163ffffffff1614156119ea576000925050505b919050565b600a60009054906101000a900473ffffffffffffffffffffffffffffffffffffffff1681565b60007f30644e72e131a029b85045b68181585d2833e84879b9709143e1f593f00000018360001c10611b13576040517f08c379a00000000000000000000000000000000000000000000000000000000081526004018080602001828103825260208152602001807f5f6c6566742073686f756c6420626520696e7369646520746865206669656c6481525060200191505060405180910390fd5b7f30644e72e131a029b85045b68181585d2833e84879b9709143e1f593f00000018260001c10611b8e576040517f08c379a00000000000000000000000000000000000000000000000000000000081526004018080602001828103825260218152602001806148ac6021913960400191505060405180910390fd5b60008473ffffffffffffffffffffffffffffffffffffffff1663299e56606040518060400160405280878152602001868152506040518263ffffffff1660e01b81526004018082600260200280838360005b83811015611bfb578082015181840152602081019050611be0565b5050505090500191505060206040518083038186803b158015611c1d57600080fd5b505afa158015611c31573d6000803e3d6000fd5b505050506040513d6020811015611c4757600080fd5b810190808051906020019092919050505090507f30644e72e131a029b85045b68181585d2833e84879b9709143e1f593f00000018160001c10611cf2576040517f08c379a000000000000000000000000000000000000000000000000000000000815260040180806020018281038252601f8152602001807f686173682073686f756c6420626520696e7369646520746865206669656c640081525060200191505060405180910390fd5b809150509392505050565b600360009054906101000a900463ffffffff1681565b600960009054906101000a900473ffffffffffffffffffffffffffffffffffffffff1673ffffffffffffffffffffffffffffffffffffffff163373ffffffffffffffffffffffffffffffffffffffff1614611db9576040517f08c379a00000000000000000000000000000000000000000000000000000000081526004018080602001828103825260258152602001806149d36025913960400191505060405180910390fd5b600b60159054906101000a900460ff1615611e1f576040517f08c379a00000000000000000000000000000000000000000000000000000000081526004018080602001828103825260248152602001806148886024913960400191505060405180910390fd5b80600560006101000a81548173ffffffffffffffffffffffffffffffffffffffff021916908373ffffffffffffffffffffffffffffffffffffffff16021790555050565b600960009054906101000a900473ffffffffffffffffffffffffffffffffffffffff1673ffffffffffffffffffffffffffffffffffffffff163373ffffffffffffffffffffffffffffffffffffffff1614611f09576040517f08c379a00000000000000000000000000000000000000000000000000000000081526004018080602001828103825260258152602001806149d36025913960400191505060405180910390fd5b80600b60146101000a81548160ff02191690831515021790555050565b600b60009054906101000a900473ffffffffffffffffffffffffffffffffffffffff1681565b60086020528060005260406000206000915054906101000a900460ff1681565b600060026000600360009054906101000a900463ffffffff1663ffffffff16815260200190815260200160002054905090565b60026020528060005260406000206000915090505481565b600b60149054906101000a900460ff161561203a576040517f08c379a00000000000000000000000000000000000000000000000000000000081526004018080602001828103825260158152602001807f6465706f73697473206172652064697361626c6564000000000000000000000081525060200191505060405180910390fd5b6006600085815260200190815260200160002060009054906101000a900460ff16156120b1576040517f08c379a000000000000000000000000000000000000000000000000000000000815260040180806020018281038252602181526020018061491c6021913960400191505060405180910390fd5b60007f30644e72e131a029b85045b68181585d2833e84879b9709143e1f593f0000001600285888660405160200180848152602001838152602001826fffffffffffffffffffffffffffffffff19166fffffffffffffffffffffffffffffffff1916815260100193505050506040516020818303038152906040526040518082805190602001908083835b6020831061215f578051825260208201915060208101905060208303925061213c565b6001836020036101000a038019825116818451168082178552505050505050905001915050602060405180830381855afa1580156121a1573d6000803e3d6000fd5b5050506040513d60208110156121b657600080fd5b810190808051906020019092919050505060001c816121d157fe5b069050848160001b1461224c576040517f08c379a00000000000000000000000000000000000000000000000000000000081526004018080602001828103825260198152602001807f636f6d6d69746d656e74206861736820696e636f72726563740000000000000081525060200191505060405180910390fd5b612255866131b3565b60016006600087815260200190815260200160002060006101000a81548160ff02191690831515021790555061228b868661322b565b847f8be9fb2d2379ca5ff2892836f8f65e1258c42e93faec42dada72226dd0ab63fa87846040518083815260200180602001828103825283818151815260200191508051906020019080838360005b838110156122f55780820151818401526020810190506122da565b50505050905090810190601f1680156123225780820380516001836020036101000a031916815260200191505b50935050505060405180910390a2505050505050565b600960009054906101000a900473ffffffffffffffffffffffffffffffffffffffff1673ffffffffffffffffffffffffffffffffffffffff163373ffffffffffffffffffffffffffffffffffffffff16146123de576040517f08c379a00000000000000000000000000000000000000000000000000000000081526004018080602001828103825260258152602001806149d36025913960400191505060405180910390fd5b80600b60006101000a81548173ffffffffffffffffffffffffffffffffffffffff021916908373ffffffffffffffffffffffffffffffffffffffff16021790555050565b60007f0000000000000000000000000000000000000000000000000000000000000000905090565b601e81565b600a60149054906101000a900467ffffffffffffffff1681565b600080600a60009054906101000a900473ffffffffffffffffffffffffffffffffffffffff1690508073ffffffffffffffffffffffffffffffffffffffff166387939a7f6040518163ffffffff1660e01b815260040160206040518083038186803b1580156124d757600080fd5b505afa1580156124eb573d6000803e3d6000fd5b505050506040513d602081101561250157600080fd5b810190808051906020019092919050505073ffffffffffffffffffffffffffffffffffffffff163373ffffffffffffffffffffffffffffffffffffffff1614612595576040517f08c379a00000000000000000000000000000000000000000000000000000000081526004018080602001828103825260248152602001806148cd6024913960400191505060405180910390fd5b61259d614824565b6125a686613572565b9050600085511415612603576040517f08c379a000000000000000000000000000000000000000000000000000000000815260040180806020018281038252602b8152602001806148f1602b913960400191505060405180910390fd5b600b60009054906101000a900473ffffffffffffffffffffffffffffffffffffffff1673ffffffffffffffffffffffffffffffffffffffff16612645866135cf565b73ffffffffffffffffffffffffffffffffffffffff16146126ce576040517f08c379a000000000000000000000000000000000000000000000000000000000815260040180806020018281038252601e8152602001807f66726f6d2070726f78792061646472657373206e6f74206d617463686564000081525060200191505060405180910390fd5b600a60149054906101000a900467ffffffffffffffff1667ffffffffffffffff168467ffffffffffffffff161461276d576040517f08c379a00000000000000000000000000000000000000000000000000000000081526004018080602001828103825260198152602001807f66726f6d20636861696e206964206e6f74206d6174636865640000000000000081525060200191505060405180910390fd5b60008160000151116127e7576040517f08c379a00000000000000000000000000000000000000000000000000000000081526004018080602001828103825260208152602001807f616d6f756e742073686f75756c642062652067726561746572207468616e203081525060200191505060405180910390fd5b600760008260200151815260200190815260200160002060009054906101000a900460ff1615612862576040517f08c379a000000000000000000000000000000000000000000000000000000000815260040180806020018281038252602181526020018061491c6021913960400191505060405180910390fd5b6001600760008360200151815260200190815260200160002060006101000a81548160ff02191690831515021790555060006128a18260200151613637565b905081602001517fcadb6698453d5f5e042459c94d05683072821ca73d684f6c1c0af896eb3f4051828460000151604051808363ffffffff1663ffffffff1681526020018281526020019250505060405180910390a2600193505050509392505050565b60008082141561293a577f09f658457775074ff4c842032a5ec2f1134c32784cca59d594caac8c503b792360001b9050612ff2565b600182141561296e577f1a77569b79cb7c2eaf9368de9e3b1efc0a606561e5ab299c2337340f3cdd576a60001b9050612ff2565b60028214156129a2577f111bd0002b1e3b8f1978c932b5ccb2fab87fdb0acab2ddb266f9a346dcb11ee160001b9050612ff2565b60038214156129d6577f040868ea2a363e05d7ae44280f69b49e429ab096ca2844efe91f8d6b3dad57dd60001b9050612ff2565b6004821415612a09577ef8f605c92c8502c8fe83be1b83b24e3f67312a388f30cbadb5dee8974137c360001b9050612ff2565b6005821415612a3d577f1adc043c99adbc0c86a60a36db0f661e2dd96f36ede322f954386d8935a0c5d960001b9050612ff2565b6006821415612a71577f2a1fedfa71da723ac3e9b35cef752fa1b647b2b737a23e91241cb7bdc419e3f460001b9050612ff2565b6007821415612aa5577f17fe1974543c4c4b228e1292f7e3200d31435fc910ee5a8c5cafd329cc4b256b60001b9050612ff2565b6008821415612ad9577f0e84a586eb63a0eec0f1fe5785022441f0e29e4ae859c7ce1f5fc88a42ad2e6b60001b9050612ff2565b6009821415612b0d577f193deb901f6eeb032e02e093280db17e373d4ff52bafda9215b46bb9b0a86f3e60001b9050612ff2565b600a821415612b41577f1d10ca7b985697cb519565a5006c3f44b020b2edab9b7422ed15dc34532f940660001b9050612ff2565b600b821415612b75577f1dc200763555467a4e583e00badfdc1fb4d3d3f8f1cc81f31fd2f8b38777608160001b9050612ff2565b600c821415612ba9577f203dd11fdba0ed13b20ca2d6952f3feb7461836a03512e0cccce8467b320b2f660001b9050612ff2565b600d821415612bdd577f0591af64e64a3e69caf23eee2bdea90885343a49f547ee9464e95d8d6267e4f760001b9050612ff2565b600e821415612c11577f2af572f1077a32f46dc8e307d43c0fa6753b400b2107325976b8df7380545ff660001b9050612ff2565b600f821415612c45577f043227ae4b70b1aacd04e35e6aaed7b56d91220c31e97aaf52e12a6a56984e5260001b9050612ff2565b6010821415612c79577f2976f1f6a91d83d4c528dad69ece6d3d91934b0e5657e915b360c8c4c2fb54e660001b9050612ff2565b6011821415612cac577ee5c251c9e093658be0cd1b0df55b6f70f3d09146c1c8b4212a4ddcde700dbc60001b9050612ff2565b6012821415612ce0577f0267cbbc1bc2f1c3e3073d2ee60df8cc0bfef39fe3cee735c9ad5c8ad30064d260001b9050612ff2565b6013821415612d14577f2f356057bc56f67dbf159a0e8935022acd5e982dce9f4071adc43e4d57ce27e660001b9050612ff2565b6014821415612d48577f273db68f52f12a9d8022ae524050064e42d4d1661c9bcce958acf89b5e8b127b60001b9050612ff2565b6015821415612d7c577f0496a18ad4cca81b7c98ceb197439ad925e0f7f62d69dfa42cf9574be77fe30f60001b9050612ff2565b6016821415612db0577f24f89a3f943d421b2f3a554b65459f42b820ac09d6fd9d693df5f8ba732ab59660001b9050612ff2565b6017821415612de4577f1b55bfd751c6807df36876cdce68034ab43210be2bc8afa8043c7f428604e7a760001b9050612ff2565b6018821415612e18577f16d6595a398cf20f2489b90e958166f1e19c537c0c46e9b8ea5462391ee8f14360001b9050612ff2565b6019821415612e4c577f0f01447ef8f621592474b678ed2fc404ebaf22a6fce15364bb4152a88c11361360001b9050612ff2565b601a821415612e80577f026c2dffee48bacbc9d21cf90aa7c6e525ab01db6966a9e7e53b3d3f4d1f5a4d60001b9050612ff2565b601b821415612eb4577f234fe90732795745b2c504c791242a2bb193baa1cbeab57db9324b6bb913481760001b9050612ff2565b601c821415612ee8577f23a8e0a7e60981c52ebb498c260d5bef4d7c65145d17128996a77c33a3262a7e60001b9050612ff2565b601d821415612f1c577f24ee69d2565210c7027ff6fc2657ed029278bc79f41077fe3281ea5d5d8e80f960001b9050612ff2565b601e821415612f50577f1de402fa32463bb2917b733aeef0197a49cacacd1fe860c3acc8cd3b65a30a6860001b9050612ff2565b601f821415612f84577f1d3015a0f6a7b3f754171d0540628107e50e25debceb16e0e33ae4205501896d60001b9050612ff2565b6040517f08c379a00000000000000000000000000000000000000000000000000000000081526004018080602001828103825260138152602001807f496e646578206f7574206f6620626f756e64730000000000000000000000000081525060200191505060405180910390fd5b919050565b7f000000000000000000000000000000000000000000000000000000000000000081565b600b60149054906101000a900460ff1681565b60016020528060005260406000206000915090505481565b600360049054906101000a900463ffffffff1681565b600034146130d2576040517f08c379a00000000000000000000000000000000000000000000000000000000081526004018080602001828103825260188152602001807f6e6f206d61696e6e657420746f6b656e20616c6c6f776564000000000000000081525060200191505060405180910390fd5b60008273ffffffffffffffffffffffffffffffffffffffff168260405180600001905060006040518083038185875af1925050503d8060008114613132576040519150601f19603f3d011682016040523d82523d6000602084013e613137565b606091505b50509050806131ae576040517f08c379a000000000000000000000000000000000000000000000000000000000815260040180806020018281038252600f8152602001807f7769746864726177206661696c6564000000000000000000000000000000000081525060200191505060405180910390fd5b505050565b803414613228576040517f08c379a00000000000000000000000000000000000000000000000000000000081526004018080602001828103825260128152602001807f696e73756666696369656e7420746f6b656e000000000000000000000000000081525060200191505060405180910390fd5b50565b613233614824565b6040518060400160405280848152602001838152509050606061325582613871565b90506000600a60009054906101000a900473ffffffffffffffffffffffffffffffffffffffff16905060008173ffffffffffffffffffffffffffffffffffffffff166387939a7f6040518163ffffffff1660e01b815260040160206040518083038186803b1580156132c657600080fd5b505afa1580156132da573d6000803e3d6000fd5b505050506040513d60208110156132f057600080fd5b810190808051906020019092919050505090508073ffffffffffffffffffffffffffffffffffffffff1663bd5cf625600a60149054906101000a900467ffffffffffffffff16613361600b60009054906101000a900473ffffffffffffffffffffffffffffffffffffffff16613974565b866040518463ffffffff1660e01b8152600401808467ffffffffffffffff1667ffffffffffffffff168152602001806020018060200180602001848103845286818151815260200191508051906020019080838360005b838110156133d35780820151818401526020810190506133b8565b50505050905090810190601f1680156134005780820380516001836020036101000a031916815260200191505b50848103835260068152602001807f73796e6354780000000000000000000000000000000000000000000000000000815250602001848103825285818151815260200191508051906020019080838360005b8381101561346d578082015181840152602081019050613452565b50505050905090810190601f16801561349a5780820380516001836020036101000a031916815260200191505b509650505050505050602060405180830381600087803b1580156134bd57600080fd5b505af11580156134d1573d6000803e3d6000fd5b505050506040513d60208110156134e757600080fd5b810190808051906020019092919050505061356a576040517f08c379a00000000000000000000000000000000000000000000000000000000081526004018080602001828103825260128152602001807f6563636d2072657475726e73206572726f72000000000000000000000000000081525060200191505060405180910390fd5b505050505050565b61357a614824565b613582614824565b60008090506135918482613994565b8360000181935082815250505060606135aa8583613aed565b80935081925050506135bb81613bed565b836020018181525050829350505050919050565b6000601482511461362b576040517f08c379a00000000000000000000000000000000000000000000000000000000081526004018080602001828103825260238152602001806148656023913960400191505060405180910390fd5b60148201519050919050565b600080600360049054906101000a900463ffffffff1690506000809054906101000a900463ffffffff1663ffffffff16600263ffffffff160a63ffffffff168163ffffffff1614156136d4576040517f08c379a00000000000000000000000000000000000000000000000000000000081526004018080602001828103825260308152602001806149816030913960400191505060405180910390fd5b6000819050600084905060008060008090505b6000809054906101000a900463ffffffff1663ffffffff168163ffffffff1610156137cf57600060028663ffffffff168161371e57fe5b0663ffffffff1614156137625783925061373d8163ffffffff16612905565b915083600160008363ffffffff16815260200190815260200160002081905550613782565b600160008263ffffffff1681526020019081526020016000205492508391505b6137ad7f00000000000000000000000000000000000000000000000000000000000000008484611a79565b935060028563ffffffff16816137bf57fe5b04945080806001019150506136e7565b506000601e63ffffffff166001600360009054906101000a900463ffffffff160163ffffffff16816137fd57fe5b06905080600360006101000a81548163ffffffff021916908363ffffffff16021790555083600260008363ffffffff1681526020019081526020016000208190555060018601600360046101000a81548163ffffffff021916908363ffffffff160217905550859650505050505050919050565b6060806138818360000151613c72565b6138ad846020015160405160200180828152602001915050604051602081830303815290604052613d51565b6040516020018083805190602001908083835b602083106138e357805182526020820191506020810190506020830392506138c0565b6001836020036101000a03801982511681845116808217855250505050505090500182805190602001908083835b602083106139345780518252602082019150602081019050602083039250613911565b6001836020036101000a03801982511681845116808217855250505050505090500192505050604051602081830303815290604052905080915050919050565b60606040519050601481528160601b602082015260408101604052919050565b600080835160208401111580156139ad57506020830183105b613a02576040517f08c379a00000000000000000000000000000000000000000000000000000000081526004018080602001828103825260238152602001806148426023913960400191505060405180910390fd5b600060405160206000600182038760208a0101515b83831015613a375780821a83860153600183019250600182039150613a17565b5050508082016040528151925050507f7fffffffffffffffffffffffffffffffffffffffffffffffffffffffffffffff811115613adc576040517f08c379a00000000000000000000000000000000000000000000000000000000081526004018080602001828103825260178152602001807f56616c75652065786365656473207468652072616e676500000000000000000081525060200191505060405180910390fd5b806020850192509250509250929050565b6060600080613afc8585613e27565b8095508192505050845181850111158015613b18575080840184105b613b6d576040517f08c379a00000000000000000000000000000000000000000000000000000000081526004018080602001828103825260248152602001806149f86024913960400191505060405180910390fd5b6060811560008114613b8a57604051915060208201604052613bdb565b6040519150601f8316801560200281840101848101888315602002848c0101015b81831015613bc85780518352602083019250602081019050613bab565b50858552601f19601f8301166040525050505b50808286019350935050509250929050565b60006020825114613c66576040517f08c379a00000000000000000000000000000000000000000000000000000000081526004018080602001828103825260178152602001807f6279746573206c656e677468206973206e6f742033322e00000000000000000081525060200191505060405180910390fd5b60208201519050919050565b60607f7fffffffffffffffffffffffffffffffffffffffffffffffffffffffffffffff821115613d0a576040517f08c379a000000000000000000000000000000000000000000000000000000000815260040180806020018281038252601b8152602001807f56616c756520657863656564732075696e743235352072616e6765000000000081525060200191505060405180910390fd5b6060604051905060208082526000601f5b82821015613d3e5785811a82602086010153600182019150600181039050613d1b565b5050604082016040525080915050919050565b6060600082519050613d6281614158565b836040516020018083805190602001908083835b60208310613d995780518252602082019150602081019050602083039250613d76565b6001836020036101000a03801982511681845116808217855250505050505090500182805190602001908083835b60208310613dea5780518252602082019150602081019050602083039250613dc7565b6001836020036101000a03801982511681845116808217855250505050505090500192505050604051602081830303815290604052915050919050565b6000806000613e368585614431565b8095508192505050600060fd60f81b827effffffffffffffffffffffffffffffffffffffffffffffffffffffffffffff19161415613f1957613e7886866144d8565b8161ffff169150809650819250505060fd8110158015613e9a575061ffff8111155b613f0c576040517f08c379a000000000000000000000000000000000000000000000000000000000815260040180806020018281038252601f8152602001807f4e65787455696e7431362c2076616c7565206f7574736964652072616e67650081525060200191505060405180910390fd5b8085935093505050614151565b60fe60f81b827effffffffffffffffffffffffffffffffffffffffffffffffffffffffffffff19161415613ff657613f518686614582565b8163ffffffff169150809650819250505061ffff81118015613f77575063ffffffff8111155b613fe9576040517f08c379a00000000000000000000000000000000000000000000000000000000081526004018080602001828103825260208152602001807f4e65787456617255696e742c2076616c7565206f7574736964652072616e676581525060200191505060405180910390fd5b8085935093505050614151565b60ff60f81b827effffffffffffffffffffffffffffffffffffffffffffffffffffffffffffff191614156140c95761402e868661464a565b8167ffffffffffffffff169150809650819250505063ffffffff81116140bc576040517f08c379a00000000000000000000000000000000000000000000000000000000081526004018080602001828103825260208152602001807f4e65787456617255696e742c2076616c7565206f7574736964652072616e676581525060200191505060405180910390fd5b8085935093505050614151565b8160f81c60ff16905060fd8110614148576040517f08c379a00000000000000000000000000000000000000000000000000000000081526004018080602001828103825260208152602001807f4e65787456617255696e742c2076616c7565206f7574736964652072616e676581525060200191505060405180910390fd5b80859350935050505b9250929050565b606060fd8267ffffffffffffffff16101561417d5761417682614712565b905061442c565b61ffff8267ffffffffffffffff16116142695761419d60fd60f81b614737565b6141a68361474c565b6040516020018083805190602001908083835b602083106141dc57805182526020820191506020810190506020830392506141b9565b6001836020036101000a03801982511681845116808217855250505050505090500182805190602001908083835b6020831061422d578051825260208201915060208101905060208303925061420a565b6001836020036101000a03801982511681845116808217855250505050505090500192505050604051602081830303815290604052905061442c565b63ffffffff8267ffffffffffffffff16116143575761428b60fe60f81b614737565b61429483614794565b6040516020018083805190602001908083835b602083106142ca57805182526020820191506020810190506020830392506142a7565b6001836020036101000a03801982511681845116808217855250505050505090500182805190602001908083835b6020831061431b57805182526020820191506020810190506020830392506142f8565b6001836020036101000a03801982511681845116808217855250505050505090500192505050604051602081830303815290604052905061442c565b61436460ff60f81b614737565b61436d836147dc565b6040516020018083805190602001908083835b602083106143a35780518252602082019150602081019050602083039250614380565b6001836020036101000a03801982511681845116808217855250505050505090500182805190602001908083835b602083106143f457805182526020820191506020810190506020830392506143d1565b6001836020036101000a0380198251168184511680821785525050505050509050019250505060405160208183030381529060405290505b919050565b6000808351600184011115801561444a57506001830183105b6144bc576040517f08c379a00000000000000000000000000000000000000000000000000000000081526004018080602001828103825260208152602001807f4e657874427974652c204f66667365742065786365656473206d6178696d756d81525060200191505060405180910390fd5b6000836020860101519050806001850192509250509250929050565b600080835160028401111580156144f157506002830183105b614546576040517f08c379a000000000000000000000000000000000000000000000000000000000815260040180806020018281038252602281526020018061493d6022913960400191505060405180910390fd5b6000604051846020870101518060011a82538060001a600183015360028201604052601e82035192505050806002850192509250509250929050565b6000808351600484011115801561459b57506004830183105b6145f0576040517f08c379a00000000000000000000000000000000000000000000000000000000081526004018080602001828103825260228152602001806149b16022913960400191505060405180910390fd5b600060405160046000600182038760208a0101515b838310156146255780821a83860153600183019250600182039150614605565b5050508082016040528060200382035192505050806004850192509250509250929050565b6000808351600884011115801561466357506008830183105b6146b8576040517f08c379a000000000000000000000000000000000000000000000000000000000815260040180806020018281038252602281526020018061495f6022913960400191505060405180910390fd5b600060405160086000600182038760208a0101515b838310156146ed5780821a838601536001830192506001820391506146cd565b5050508082016040528060200382035192505050806008850192509250509250929050565b6060806040519050600181528260f81b60208201526021810160405280915050919050565b60606147458260f81c614712565b9050919050565b606080604051905060028082526000601f5b828210156147815785811a8260208601015360018201915060018103905061475e565b5050602282016040525080915050919050565b606080604051905060048082526000601f5b828210156147c95785811a826020860101536001820191506001810390506147a6565b5050602482016040525080915050919050565b606080604051905060088082526000601f5b828210156148115785811a826020860101536001820191506001810390506147ee565b5050602882016040525080915050919050565b60405180604001604052806000815260200160008019168152509056fe4e65787455696e743235352c206f66667365742065786365656473206d6178696d756d6279746573206c656e67746820646f6573206e6f74206d617463682061646472657373566572696669657220757064617465732068617665206265656e2064697361626c65642e5f72696768742073686f756c6420626520696e7369646520746865206669656c646d736753656e646572206973206e6f742072656c61792070726f7879206d616e6167657266726f6d2070726f787920636f6e747261637420616464726573732063616e6e6f7420626520656d70747954686520636f6d6d69746d656e7420686173206265656e207375626d69747465644e65787455696e7431362c206f66667365742065786365656473206d6178696d756d4e65787455696e7436342c206f66667365742065786365656473206d6178696d756d4d65726b6c6520747265652069732066756c6c2e204e6f206d6f7265206c65617665732063616e2062652061646465644e65787455696e7433322c206f66667365742065786365656473206d6178696d756d4f6e6c79206f70657261746f722063616e2063616c6c20746869732066756e6374696f6e2e4e65787456617242797465732c206f66667365742065786365656473206d6178696d756da2646970667358221220801f6186d791168cce856dc979b038f0d48638ae3c6473b6b48bef7b39f4cce464736f6c634300060b00335f6c6576656c732073686f756c642062652067726561746572207468616e207a65726f",
			"opcodes": "PUSH1 0xA0 PUSH1 0x40 MSTORE PUSH1 0x0 PUSH1 0x3 PUSH1 0x0 PUSH2 0x100 EXP DUP2 SLOAD DUP2 PUSH4 0xFFFFFFFF MUL NOT AND SWAP1 DUP4 PUSH4 0xFFFFFFFF AND MUL OR SWAP1 SSTORE POP PUSH1 0x0 PUSH1 0x3 PUSH1 0x4 PUSH2 0x100 EXP DUP2 SLOAD DUP2 PUSH4 0xFFFFFFFF MUL NOT AND SWAP1 DUP4 PUSH4 0xFFFFFFFF AND MUL OR SWAP1 SSTORE POP CALLVALUE DUP1 ISZERO PUSH3 0x55 JUMPI PUSH1 0x0 DUP1 REVERT JUMPDEST POP PUSH1 0x40 MLOAD PUSH3 0x559F CODESIZE SUB DUP1 PUSH3 0x559F DUP4 CODECOPY DUP2 DUP2 ADD PUSH1 0x40 MSTORE PUSH1 0xA0 DUP2 LT ISZERO PUSH3 0x7B JUMPI PUSH1 0x0 DUP1 REVERT JUMPDEST DUP2 ADD SWAP1 DUP1 DUP1 MLOAD SWAP1 PUSH1 0x20 ADD SWAP1 SWAP3 SWAP2 SWAP1 DUP1 MLOAD SWAP1 PUSH1 0x20 ADD SWAP1 SWAP3 SWAP2 SWAP1 DUP1 MLOAD SWAP1 PUSH1 0x20 ADD SWAP1 SWAP3 SWAP2 SWAP1 DUP1 MLOAD SWAP1 PUSH1 0x20 ADD SWAP1 SWAP3 SWAP2 SWAP1 DUP1 MLOAD SWAP1 PUSH1 0x20 ADD SWAP1 SWAP3 SWAP2 SWAP1 POP POP POP DUP5 DUP5 DUP5 DUP5 DUP5 DUP5 DUP5 DUP5 DUP5 DUP5 DUP1 DUP3 PUSH1 0x0 DUP3 PUSH4 0xFFFFFFFF AND GT PUSH3 0x121 JUMPI PUSH1 0x40 MLOAD PUSH32 0x8C379A000000000000000000000000000000000000000000000000000000000 DUP2 MSTORE PUSH1 0x4 ADD DUP1 DUP1 PUSH1 0x20 ADD DUP3 DUP2 SUB DUP3 MSTORE PUSH1 0x23 DUP2 MSTORE PUSH1 0x20 ADD DUP1 PUSH3 0x557C PUSH1 0x23 SWAP2 CODECOPY PUSH1 0x40 ADD SWAP2 POP POP PUSH1 0x40 MLOAD DUP1 SWAP2 SUB SWAP1 REVERT JUMPDEST PUSH1 0x20 DUP3 PUSH4 0xFFFFFFFF AND LT PUSH3 0x19E JUMPI PUSH1 0x40 MLOAD PUSH32 0x8C379A000000000000000000000000000000000000000000000000000000000 DUP2 MSTORE PUSH1 0x4 ADD DUP1 DUP1 PUSH1 0x20 ADD DUP3 DUP2 SUB DUP3 MSTORE PUSH1 0x1E DUP2 MSTORE PUSH1 0x20 ADD DUP1 PUSH32 0x5F6C6576656C732073686F756C64206265206C657373207468616E2033320000 DUP2 MSTORE POP PUSH1 0x20 ADD SWAP2 POP POP PUSH1 0x40 MLOAD DUP1 SWAP2 SUB SWAP1 REVERT JUMPDEST DUP2 PUSH1 0x0 DUP1 PUSH2 0x100 EXP DUP2 SLOAD DUP2 PUSH4 0xFFFFFFFF MUL NOT AND SWAP1 DUP4 PUSH4 0xFFFFFFFF AND MUL OR SWAP1 SSTORE POP DUP1 PUSH20 0xFFFFFFFFFFFFFFFFFFFFFFFFFFFFFFFFFFFFFFFF AND PUSH1 0x80 DUP2 PUSH20 0xFFFFFFFFFFFFFFFFFFFFFFFFFFFFFFFFFFFFFFFF AND PUSH1 0x60 SHL DUP2 MSTORE POP POP PUSH1 0x0 DUP1 SWAP1 POP JUMPDEST DUP3 PUSH4 0xFFFFFFFF AND DUP2 PUSH4 0xFFFFFFFF AND LT ISZERO PUSH3 0x252 JUMPI PUSH3 0x227 DUP2 PUSH4 0xFFFFFFFF AND PUSH3 0x3D1 PUSH1 0x20 SHL PUSH1 0x20 SHR JUMP JUMPDEST PUSH1 0x1 PUSH1 0x0 DUP4 PUSH4 0xFFFFFFFF AND DUP2 MSTORE PUSH1 0x20 ADD SWAP1 DUP2 MSTORE PUSH1 0x20 ADD PUSH1 0x0 KECCAK256 DUP2 SWAP1 SSTORE POP DUP1 DUP1 PUSH1 0x1 ADD SWAP2 POP POP PUSH3 0x1FB JUMP JUMPDEST POP PUSH3 0x26D PUSH1 0x1 DUP4 SUB PUSH4 0xFFFFFFFF AND PUSH3 0x3D1 PUSH1 0x20 SHL PUSH1 0x20 SHR JUMP JUMPDEST PUSH1 0x2 PUSH1 0x0 DUP1 DUP2 MSTORE PUSH1 0x20 ADD SWAP1 DUP2 MSTORE PUSH1 0x20 ADD PUSH1 0x0 KECCAK256 DUP2 SWAP1 SSTORE POP POP POP PUSH1 0x1 PUSH1 0x4 DUP2 SWAP1 SSTORE POP DUP5 PUSH1 0xA PUSH1 0x0 PUSH2 0x100 EXP DUP2 SLOAD DUP2 PUSH20 0xFFFFFFFFFFFFFFFFFFFFFFFFFFFFFFFFFFFFFFFF MUL NOT AND SWAP1 DUP4 PUSH20 0xFFFFFFFFFFFFFFFFFFFFFFFFFFFFFFFFFFFFFFFF AND MUL OR SWAP1 SSTORE POP DUP4 PUSH1 0xA PUSH1 0x14 PUSH2 0x100 EXP DUP2 SLOAD DUP2 PUSH8 0xFFFFFFFFFFFFFFFF MUL NOT AND SWAP1 DUP4 PUSH8 0xFFFFFFFFFFFFFFFF AND MUL OR SWAP1 SSTORE POP DUP3 PUSH1 0x5 PUSH1 0x0 PUSH2 0x100 EXP DUP2 SLOAD DUP2 PUSH20 0xFFFFFFFFFFFFFFFFFFFFFFFFFFFFFFFFFFFFFFFF MUL NOT AND SWAP1 DUP4 PUSH20 0xFFFFFFFFFFFFFFFFFFFFFFFFFFFFFFFFFFFFFFFF AND MUL OR SWAP1 SSTORE POP CALLER PUSH1 0x9 PUSH1 0x0 PUSH2 0x100 EXP DUP2 SLOAD DUP2 PUSH20 0xFFFFFFFFFFFFFFFFFFFFFFFFFFFFFFFFFFFFFFFF MUL NOT AND SWAP1 DUP4 PUSH20 0xFFFFFFFFFFFFFFFFFFFFFFFFFFFFFFFFFFFFFFFF AND MUL OR SWAP1 SSTORE POP PUSH1 0x0 PUSH1 0xB PUSH1 0x0 PUSH2 0x100 EXP DUP2 SLOAD DUP2 PUSH20 0xFFFFFFFFFFFFFFFFFFFFFFFFFFFFFFFFFFFFFFFF MUL NOT AND SWAP1 DUP4 PUSH20 0xFFFFFFFFFFFFFFFFFFFFFFFFFFFFFFFFFFFFFFFF AND MUL OR SWAP1 SSTORE POP POP POP POP POP POP POP POP POP POP POP POP POP POP POP POP PUSH3 0xB03 JUMP JUMPDEST PUSH1 0x0 DUP1 DUP3 EQ ISZERO PUSH3 0x408 JUMPI PUSH32 0x9F658457775074FF4C842032A5EC2F1134C32784CCA59D594CAAC8C503B7923 PUSH1 0x0 SHL SWAP1 POP PUSH3 0xAFE JUMP JUMPDEST PUSH1 0x1 DUP3 EQ ISZERO PUSH3 0x43E JUMPI PUSH32 0x1A77569B79CB7C2EAF9368DE9E3B1EFC0A606561E5AB299C2337340F3CDD576A PUSH1 0x0 SHL SWAP1 POP PUSH3 0xAFE JUMP JUMPDEST PUSH1 0x2 DUP3 EQ ISZERO PUSH3 0x474 JUMPI PUSH32 0x111BD0002B1E3B8F1978C932B5CCB2FAB87FDB0ACAB2DDB266F9A346DCB11EE1 PUSH1 0x0 SHL SWAP1 POP PUSH3 0xAFE JUMP JUMPDEST PUSH1 0x3 DUP3 EQ ISZERO PUSH3 0x4AA JUMPI PUSH32 0x40868EA2A363E05D7AE44280F69B49E429AB096CA2844EFE91F8D6B3DAD57DD PUSH1 0x0 SHL SWAP1 POP PUSH3 0xAFE JUMP JUMPDEST PUSH1 0x4 DUP3 EQ ISZERO PUSH3 0x4DF JUMPI PUSH31 0xF8F605C92C8502C8FE83BE1B83B24E3F67312A388F30CBADB5DEE8974137C3 PUSH1 0x0 SHL SWAP1 POP PUSH3 0xAFE JUMP JUMPDEST PUSH1 0x5 DUP3 EQ ISZERO PUSH3 0x515 JUMPI PUSH32 0x1ADC043C99ADBC0C86A60A36DB0F661E2DD96F36EDE322F954386D8935A0C5D9 PUSH1 0x0 SHL SWAP1 POP PUSH3 0xAFE JUMP JUMPDEST PUSH1 0x6 DUP3 EQ ISZERO PUSH3 0x54B JUMPI PUSH32 0x2A1FEDFA71DA723AC3E9B35CEF752FA1B647B2B737A23E91241CB7BDC419E3F4 PUSH1 0x0 SHL SWAP1 POP PUSH3 0xAFE JUMP JUMPDEST PUSH1 0x7 DUP3 EQ ISZERO PUSH3 0x581 JUMPI PUSH32 0x17FE1974543C4C4B228E1292F7E3200D31435FC910EE5A8C5CAFD329CC4B256B PUSH1 0x0 SHL SWAP1 POP PUSH3 0xAFE JUMP JUMPDEST PUSH1 0x8 DUP3 EQ ISZERO PUSH3 0x5B7 JUMPI PUSH32 0xE84A586EB63A0EEC0F1FE5785022441F0E29E4AE859C7CE1F5FC88A42AD2E6B PUSH1 0x0 SHL SWAP1 POP PUSH3 0xAFE JUMP JUMPDEST PUSH1 0x9 DUP3 EQ ISZERO PUSH3 0x5ED JUMPI PUSH32 0x193DEB901F6EEB032E02E093280DB17E373D4FF52BAFDA9215B46BB9B0A86F3E PUSH1 0x0 SHL SWAP1 POP PUSH3 0xAFE JUMP JUMPDEST PUSH1 0xA DUP3 EQ ISZERO PUSH3 0x623 JUMPI PUSH32 0x1D10CA7B985697CB519565A5006C3F44B020B2EDAB9B7422ED15DC34532F9406 PUSH1 0x0 SHL SWAP1 POP PUSH3 0xAFE JUMP JUMPDEST PUSH1 0xB DUP3 EQ ISZERO PUSH3 0x659 JUMPI PUSH32 0x1DC200763555467A4E583E00BADFDC1FB4D3D3F8F1CC81F31FD2F8B387776081 PUSH1 0x0 SHL SWAP1 POP PUSH3 0xAFE JUMP JUMPDEST PUSH1 0xC DUP3 EQ ISZERO PUSH3 0x68F JUMPI PUSH32 0x203DD11FDBA0ED13B20CA2D6952F3FEB7461836A03512E0CCCCE8467B320B2F6 PUSH1 0x0 SHL SWAP1 POP PUSH3 0xAFE JUMP JUMPDEST PUSH1 0xD DUP3 EQ ISZERO PUSH3 0x6C5 JUMPI PUSH32 0x591AF64E64A3E69CAF23EEE2BDEA90885343A49F547EE9464E95D8D6267E4F7 PUSH1 0x0 SHL SWAP1 POP PUSH3 0xAFE JUMP JUMPDEST PUSH1 0xE DUP3 EQ ISZERO PUSH3 0x6FB JUMPI PUSH32 0x2AF572F1077A32F46DC8E307D43C0FA6753B400B2107325976B8DF7380545FF6 PUSH1 0x0 SHL SWAP1 POP PUSH3 0xAFE JUMP JUMPDEST PUSH1 0xF DUP3 EQ ISZERO PUSH3 0x731 JUMPI PUSH32 0x43227AE4B70B1AACD04E35E6AAED7B56D91220C31E97AAF52E12A6A56984E52 PUSH1 0x0 SHL SWAP1 POP PUSH3 0xAFE JUMP JUMPDEST PUSH1 0x10 DUP3 EQ ISZERO PUSH3 0x767 JUMPI PUSH32 0x2976F1F6A91D83D4C528DAD69ECE6D3D91934B0E5657E915B360C8C4C2FB54E6 PUSH1 0x0 SHL SWAP1 POP PUSH3 0xAFE JUMP JUMPDEST PUSH1 0x11 DUP3 EQ ISZERO PUSH3 0x79C JUMPI PUSH31 0xE5C251C9E093658BE0CD1B0DF55B6F70F3D09146C1C8B4212A4DDCDE700DBC PUSH1 0x0 SHL SWAP1 POP PUSH3 0xAFE JUMP JUMPDEST PUSH1 0x12 DUP3 EQ ISZERO PUSH3 0x7D2 JUMPI PUSH32 0x267CBBC1BC2F1C3E3073D2EE60DF8CC0BFEF39FE3CEE735C9AD5C8AD30064D2 PUSH1 0x0 SHL SWAP1 POP PUSH3 0xAFE JUMP JUMPDEST PUSH1 0x13 DUP3 EQ ISZERO PUSH3 0x808 JUMPI PUSH32 0x2F356057BC56F67DBF159A0E8935022ACD5E982DCE9F4071ADC43E4D57CE27E6 PUSH1 0x0 SHL SWAP1 POP PUSH3 0xAFE JUMP JUMPDEST PUSH1 0x14 DUP3 EQ ISZERO PUSH3 0x83E JUMPI PUSH32 0x273DB68F52F12A9D8022AE524050064E42D4D1661C9BCCE958ACF89B5E8B127B PUSH1 0x0 SHL SWAP1 POP PUSH3 0xAFE JUMP JUMPDEST PUSH1 0x15 DUP3 EQ ISZERO PUSH3 0x874 JUMPI PUSH32 0x496A18AD4CCA81B7C98CEB197439AD925E0F7F62D69DFA42CF9574BE77FE30F PUSH1 0x0 SHL SWAP1 POP PUSH3 0xAFE JUMP JUMPDEST PUSH1 0x16 DUP3 EQ ISZERO PUSH3 0x8AA JUMPI PUSH32 0x24F89A3F943D421B2F3A554B65459F42B820AC09D6FD9D693DF5F8BA732AB596 PUSH1 0x0 SHL SWAP1 POP PUSH3 0xAFE JUMP JUMPDEST PUSH1 0x17 DUP3 EQ ISZERO PUSH3 0x8E0 JUMPI PUSH32 0x1B55BFD751C6807DF36876CDCE68034AB43210BE2BC8AFA8043C7F428604E7A7 PUSH1 0x0 SHL SWAP1 POP PUSH3 0xAFE JUMP JUMPDEST PUSH1 0x18 DUP3 EQ ISZERO PUSH3 0x916 JUMPI PUSH32 0x16D6595A398CF20F2489B90E958166F1E19C537C0C46E9B8EA5462391EE8F143 PUSH1 0x0 SHL SWAP1 POP PUSH3 0xAFE JUMP JUMPDEST PUSH1 0x19 DUP3 EQ ISZERO PUSH3 0x94C JUMPI PUSH32 0xF01447EF8F621592474B678ED2FC404EBAF22A6FCE15364BB4152A88C113613 PUSH1 0x0 SHL SWAP1 POP PUSH3 0xAFE JUMP JUMPDEST PUSH1 0x1A DUP3 EQ ISZERO PUSH3 0x982 JUMPI PUSH32 0x26C2DFFEE48BACBC9D21CF90AA7C6E525AB01DB6966A9E7E53B3D3F4D1F5A4D PUSH1 0x0 SHL SWAP1 POP PUSH3 0xAFE JUMP JUMPDEST PUSH1 0x1B DUP3 EQ ISZERO PUSH3 0x9B8 JUMPI PUSH32 0x234FE90732795745B2C504C791242A2BB193BAA1CBEAB57DB9324B6BB9134817 PUSH1 0x0 SHL SWAP1 POP PUSH3 0xAFE JUMP JUMPDEST PUSH1 0x1C DUP3 EQ ISZERO PUSH3 0x9EE JUMPI PUSH32 0x23A8E0A7E60981C52EBB498C260D5BEF4D7C65145D17128996A77C33A3262A7E PUSH1 0x0 SHL SWAP1 POP PUSH3 0xAFE JUMP JUMPDEST PUSH1 0x1D DUP3 EQ ISZERO PUSH3 0xA24 JUMPI PUSH32 0x24EE69D2565210C7027FF6FC2657ED029278BC79F41077FE3281EA5D5D8E80F9 PUSH1 0x0 SHL SWAP1 POP PUSH3 0xAFE JUMP JUMPDEST PUSH1 0x1E DUP3 EQ ISZERO PUSH3 0xA5A JUMPI PUSH32 0x1DE402FA32463BB2917B733AEEF0197A49CACACD1FE860C3ACC8CD3B65A30A68 PUSH1 0x0 SHL SWAP1 POP PUSH3 0xAFE JUMP JUMPDEST PUSH1 0x1F DUP3 EQ ISZERO PUSH3 0xA90 JUMPI PUSH32 0x1D3015A0F6A7B3F754171D0540628107E50E25DEBCEB16E0E33AE4205501896D PUSH1 0x0 SHL SWAP1 POP PUSH3 0xAFE JUMP JUMPDEST PUSH1 0x40 MLOAD PUSH32 0x8C379A000000000000000000000000000000000000000000000000000000000 DUP2 MSTORE PUSH1 0x4 ADD DUP1 DUP1 PUSH1 0x20 ADD DUP3 DUP2 SUB DUP3 MSTORE PUSH1 0x13 DUP2 MSTORE PUSH1 0x20 ADD DUP1 PUSH32 0x496E646578206F7574206F6620626F756E647300000000000000000000000000 DUP2 MSTORE POP PUSH1 0x20 ADD SWAP2 POP POP PUSH1 0x40 MLOAD DUP1 SWAP2 SUB SWAP1 REVERT JUMPDEST SWAP2 SWAP1 POP JUMP JUMPDEST PUSH1 0x80 MLOAD PUSH1 0x60 SHR PUSH2 0x4A51 PUSH3 0xB2B PUSH1 0x0 CODECOPY DUP1 PUSH2 0x2426 MSTORE DUP1 PUSH2 0x2FF9 MSTORE DUP1 PUSH2 0x3787 MSTORE POP PUSH2 0x4A51 PUSH1 0x0 RETURN INVALID PUSH1 0x80 PUSH1 0x40 MSTORE PUSH1 0x4 CALLDATASIZE LT PUSH2 0x229 JUMPI PUSH1 0x0 CALLDATALOAD PUSH1 0xE0 SHR DUP1 PUSH4 0x8EA3099E GT PUSH2 0x123 JUMPI DUP1 PUSH4 0xC6BBBEBA GT PUSH2 0xAB JUMPI DUP1 PUSH4 0xE8295588 GT PUSH2 0x6F JUMPI DUP1 PUSH4 0xE8295588 EQ PUSH2 0xF77 JUMPI DUP1 PUSH4 0xED33639F EQ PUSH2 0xFC6 JUMPI DUP1 PUSH4 0xED6EA33A EQ PUSH2 0x101D JUMPI DUP1 PUSH4 0xF178E47C EQ PUSH2 0x104C JUMPI DUP1 PUSH4 0xFC7E9C6F EQ PUSH2 0x109B JUMPI PUSH2 0x29B JUMP JUMPDEST DUP1 PUSH4 0xC6BBBEBA EQ PUSH2 0xCCE JUMPI DUP1 PUSH4 0xCA49C6F8 EQ PUSH2 0xD1F JUMPI DUP1 PUSH4 0xCD87A3B4 EQ PUSH2 0xD76 JUMPI DUP1 PUSH4 0xCDFCEEBA EQ PUSH2 0xDAD JUMPI DUP1 PUSH4 0xDF81D828 EQ PUSH2 0xDEC JUMPI PUSH2 0x29B JUMP JUMPDEST DUP1 PUSH4 0x9BCE0920 GT PUSH2 0xF2 JUMPI DUP1 PUSH4 0x9BCE0920 EQ PUSH2 0xAB4 JUMPI DUP1 PUSH4 0xA4401DCB EQ PUSH2 0xB0B JUMPI DUP1 PUSH4 0xBA70F757 EQ PUSH2 0xB5E JUMPI DUP1 PUSH4 0xC2B40AE4 EQ PUSH2 0xB89 JUMPI DUP1 PUSH4 0xC5707C86 EQ PUSH2 0xBD8 JUMPI PUSH2 0x29B JUMP JUMPDEST DUP1 PUSH4 0x8EA3099E EQ PUSH2 0x976 JUMPI DUP1 PUSH4 0x90EEB02B EQ PUSH2 0x9EF JUMPI DUP1 PUSH4 0x97FC007C EQ PUSH2 0xA26 JUMPI DUP1 PUSH4 0x99383F78 EQ PUSH2 0xA77 JUMPI PUSH2 0x29B JUMP JUMPDEST DUP1 PUSH4 0x414A37BA GT PUSH2 0x1B1 JUMPI DUP1 PUSH4 0x570CA735 GT PUSH2 0x175 JUMPI DUP1 PUSH4 0x570CA735 EQ PUSH2 0x7D1 JUMPI DUP1 PUSH4 0x5A129EFE EQ PUSH2 0x828 JUMPI DUP1 PUSH4 0x68733D51 EQ PUSH2 0x87B JUMPI DUP1 PUSH4 0x6D9833E3 EQ PUSH2 0x8CC JUMPI DUP1 PUSH4 0x8981D4C6 EQ PUSH2 0x91F JUMPI PUSH2 0x29B JUMP JUMPDEST DUP1 PUSH4 0x414A37BA EQ PUSH2 0x696 JUMPI DUP1 PUSH4 0x4752F3C2 EQ PUSH2 0x6C1 JUMPI DUP1 PUSH4 0x4EB069F7 EQ PUSH2 0x714 JUMPI DUP1 PUSH4 0x4ECF518B EQ PUSH2 0x743 JUMPI DUP1 PUSH4 0x53AE8717 EQ PUSH2 0x77A JUMPI PUSH2 0x29B JUMP JUMPDEST DUP1 PUSH4 0x2421E155 GT PUSH2 0x1F8 JUMPI DUP1 PUSH4 0x2421E155 EQ PUSH2 0x392 JUMPI DUP1 PUSH4 0x261E55CC EQ PUSH2 0x422 JUMPI DUP1 PUSH4 0x2B7AC3F3 EQ PUSH2 0x580 JUMPI DUP1 PUSH4 0x3505C6C1 EQ PUSH2 0x5D7 JUMPI DUP1 PUSH4 0x3FE3347A EQ PUSH2 0x606 JUMPI PUSH2 0x29B JUMP JUMPDEST DUP1 PUSH4 0x6394C9B EQ PUSH2 0x2A0 JUMPI DUP1 PUSH4 0xC394A60 EQ PUSH2 0x2F1 JUMPI DUP1 PUSH4 0x1EB00E69 EQ PUSH2 0x328 JUMPI DUP1 PUSH4 0x20A7D092 EQ PUSH2 0x37B JUMPI PUSH2 0x29B JUMP JUMPDEST CALLDATASIZE PUSH2 0x29B JUMPI PUSH32 0x88A5966D370B9919B20F3E2C13FF65706F196A4E32CC2C12BF57088F88525874 CALLER CALLVALUE PUSH1 0x40 MLOAD DUP1 DUP4 PUSH20 0xFFFFFFFFFFFFFFFFFFFFFFFFFFFFFFFFFFFFFFFF AND PUSH20 0xFFFFFFFFFFFFFFFFFFFFFFFFFFFFFFFFFFFFFFFF AND DUP2 MSTORE PUSH1 0x20 ADD DUP3 DUP2 MSTORE PUSH1 0x20 ADD SWAP3 POP POP POP PUSH1 0x40 MLOAD DUP1 SWAP2 SUB SWAP1 LOG1 STOP JUMPDEST PUSH1 0x0 DUP1 REVERT JUMPDEST CALLVALUE DUP1 ISZERO PUSH2 0x2AC JUMPI PUSH1 0x0 DUP1 REVERT JUMPDEST POP PUSH2 0x2EF PUSH1 0x4 DUP1 CALLDATASIZE SUB PUSH1 0x20 DUP2 LT ISZERO PUSH2 0x2C3 JUMPI PUSH1 0x0 DUP1 REVERT JUMPDEST DUP2 ADD SWAP1 DUP1 DUP1 CALLDATALOAD PUSH20 0xFFFFFFFFFFFFFFFFFFFFFFFFFFFFFFFFFFFFFFFF AND SWAP1 PUSH1 0x20 ADD SWAP1 SWAP3 SWAP2 SWAP1 POP POP POP PUSH2 0x10D2 JUMP JUMPDEST STOP JUMPDEST CALLVALUE DUP1 ISZERO PUSH2 0x2FD JUMPI PUSH1 0x0 DUP1 REVERT JUMPDEST POP PUSH2 0x306 PUSH2 0x11BC JUMP JUMPDEST PUSH1 0x40 MLOAD DUP1 DUP3 PUSH4 0xFFFFFFFF AND PUSH4 0xFFFFFFFF AND DUP2 MSTORE PUSH1 0x20 ADD SWAP2 POP POP PUSH1 0x40 MLOAD DUP1 SWAP2 SUB SWAP1 RETURN JUMPDEST CALLVALUE DUP1 ISZERO PUSH2 0x334 JUMPI PUSH1 0x0 DUP1 REVERT JUMPDEST POP PUSH2 0x361 PUSH1 0x4 DUP1 CALLDATASIZE SUB PUSH1 0x20 DUP2 LT ISZERO PUSH2 0x34B JUMPI PUSH1 0x0 DUP1 REVERT JUMPDEST DUP2 ADD SWAP1 DUP1 DUP1 CALLDATALOAD SWAP1 PUSH1 0x20 ADD SWAP1 SWAP3 SWAP2 SWAP1 POP POP POP PUSH2 0x11D5 JUMP JUMPDEST PUSH1 0x40 MLOAD DUP1 DUP3 ISZERO ISZERO ISZERO ISZERO DUP2 MSTORE PUSH1 0x20 ADD SWAP2 POP POP PUSH1 0x40 MLOAD DUP1 SWAP2 SUB SWAP1 RETURN JUMPDEST CALLVALUE DUP1 ISZERO PUSH2 0x387 JUMPI PUSH1 0x0 DUP1 REVERT JUMPDEST POP PUSH2 0x390 PUSH2 0x11F5 JUMP JUMPDEST STOP JUMPDEST CALLVALUE DUP1 ISZERO PUSH2 0x39E JUMPI PUSH1 0x0 DUP1 REVERT JUMPDEST POP PUSH2 0x3A7 PUSH2 0x12B8 JUMP JUMPDEST PUSH1 0x40 MLOAD DUP1 DUP1 PUSH1 0x20 ADD DUP3 DUP2 SUB DUP3 MSTORE DUP4 DUP2 DUP2 MLOAD DUP2 MSTORE PUSH1 0x20 ADD SWAP2 POP DUP1 MLOAD SWAP1 PUSH1 0x20 ADD SWAP1 DUP1 DUP4 DUP4 PUSH1 0x0 JUMPDEST DUP4 DUP2 LT ISZERO PUSH2 0x3E7 JUMPI DUP1 DUP3 ADD MLOAD DUP2 DUP5 ADD MSTORE PUSH1 0x20 DUP2 ADD SWAP1 POP PUSH2 0x3CC JUMP JUMPDEST POP POP POP POP SWAP1 POP SWAP1 DUP2 ADD SWAP1 PUSH1 0x1F AND DUP1 ISZERO PUSH2 0x414 JUMPI DUP1 DUP3 SUB DUP1 MLOAD PUSH1 0x1 DUP4 PUSH1 0x20 SUB PUSH2 0x100 EXP SUB NOT AND DUP2 MSTORE PUSH1 0x20 ADD SWAP2 POP JUMPDEST POP SWAP3 POP POP POP PUSH1 0x40 MLOAD DUP1 SWAP2 SUB SWAP1 RETURN JUMPDEST PUSH2 0x57E PUSH1 0x4 DUP1 CALLDATASIZE SUB PUSH2 0x180 DUP2 LT ISZERO PUSH2 0x439 JUMPI PUSH1 0x0 DUP1 REVERT JUMPDEST DUP2 ADD SWAP1 DUP1 DUP1 PUSH1 0x40 ADD SWAP1 PUSH1 0x2 DUP1 PUSH1 0x20 MUL PUSH1 0x40 MLOAD SWAP1 DUP2 ADD PUSH1 0x40 MSTORE DUP1 SWAP3 SWAP2 SWAP1 DUP3 PUSH1 0x2 PUSH1 0x20 MUL DUP1 DUP3 DUP5 CALLDATACOPY PUSH1 0x0 DUP2 DUP5 ADD MSTORE PUSH1 0x1F NOT PUSH1 0x1F DUP3 ADD AND SWAP1 POP DUP1 DUP4 ADD SWAP3 POP POP POP POP POP POP SWAP2 SWAP3 SWAP2 SWAP3 SWAP1 DUP1 PUSH1 0x80 ADD SWAP1 PUSH1 0x2 DUP1 PUSH1 0x20 MUL PUSH1 0x40 MLOAD SWAP1 DUP2 ADD PUSH1 0x40 MSTORE DUP1 SWAP3 SWAP2 SWAP1 PUSH1 0x0 SWAP1 JUMPDEST DUP3 DUP3 LT ISZERO PUSH2 0x4EE JUMPI DUP4 DUP3 PUSH1 0x40 MUL ADD PUSH1 0x2 DUP1 PUSH1 0x20 MUL PUSH1 0x40 MLOAD SWAP1 DUP2 ADD PUSH1 0x40 MSTORE DUP1 SWAP3 SWAP2 SWAP1 DUP3 PUSH1 0x2 PUSH1 0x20 MUL DUP1 DUP3 DUP5 CALLDATACOPY PUSH1 0x0 DUP2 DUP5 ADD MSTORE PUSH1 0x1F NOT PUSH1 0x1F DUP3 ADD AND SWAP1 POP DUP1 DUP4 ADD SWAP3 POP POP POP POP POP POP DUP2 MSTORE PUSH1 0x20 ADD SWAP1 PUSH1 0x1 ADD SWAP1 PUSH2 0x49A JUMP JUMPDEST POP POP POP POP SWAP2 SWAP3 SWAP2 SWAP3 SWAP1 DUP1 PUSH1 0x40 ADD SWAP1 PUSH1 0x2 DUP1 PUSH1 0x20 MUL PUSH1 0x40 MLOAD SWAP1 DUP2 ADD PUSH1 0x40 MSTORE DUP1 SWAP3 SWAP2 SWAP1 DUP3 PUSH1 0x2 PUSH1 0x20 MUL DUP1 DUP3 DUP5 CALLDATACOPY PUSH1 0x0 DUP2 DUP5 ADD MSTORE PUSH1 0x1F NOT PUSH1 0x1F DUP3 ADD AND SWAP1 POP DUP1 DUP4 ADD SWAP3 POP POP POP POP POP POP SWAP2 SWAP3 SWAP2 SWAP3 SWAP1 DUP1 CALLDATALOAD SWAP1 PUSH1 0x20 ADD SWAP1 SWAP3 SWAP2 SWAP1 DUP1 CALLDATALOAD SWAP1 PUSH1 0x20 ADD SWAP1 SWAP3 SWAP2 SWAP1 DUP1 CALLDATALOAD SWAP1 PUSH1 0x20 ADD SWAP1 SWAP3 SWAP2 SWAP1 DUP1 CALLDATALOAD PUSH20 0xFFFFFFFFFFFFFFFFFFFFFFFFFFFFFFFFFFFFFFFF AND SWAP1 PUSH1 0x20 ADD SWAP1 SWAP3 SWAP2 SWAP1 POP POP POP PUSH2 0x12F5 JUMP JUMPDEST STOP JUMPDEST CALLVALUE DUP1 ISZERO PUSH2 0x58C JUMPI PUSH1 0x0 DUP1 REVERT JUMPDEST POP PUSH2 0x595 PUSH2 0x176D JUMP JUMPDEST PUSH1 0x40 MLOAD DUP1 DUP3 PUSH20 0xFFFFFFFFFFFFFFFFFFFFFFFFFFFFFFFFFFFFFFFF AND PUSH20 0xFFFFFFFFFFFFFFFFFFFFFFFFFFFFFFFFFFFFFFFF AND DUP2 MSTORE PUSH1 0x20 ADD SWAP2 POP POP PUSH1 0x40 MLOAD DUP1 SWAP2 SUB SWAP1 RETURN JUMPDEST CALLVALUE DUP1 ISZERO PUSH2 0x5E3 JUMPI PUSH1 0x0 DUP1 REVERT JUMPDEST POP PUSH2 0x5EC PUSH2 0x1793 JUMP JUMPDEST PUSH1 0x40 MLOAD DUP1 DUP3 ISZERO ISZERO ISZERO ISZERO DUP2 MSTORE PUSH1 0x20 ADD SWAP2 POP POP PUSH1 0x40 MLOAD DUP1 SWAP2 SUB SWAP1 RETURN JUMPDEST CALLVALUE DUP1 ISZERO PUSH2 0x612 JUMPI PUSH1 0x0 DUP1 REVERT JUMPDEST POP PUSH2 0x61B PUSH2 0x17AA JUMP JUMPDEST PUSH1 0x40 MLOAD DUP1 DUP1 PUSH1 0x20 ADD DUP3 DUP2 SUB DUP3 MSTORE DUP4 DUP2 DUP2 MLOAD DUP2 MSTORE PUSH1 0x20 ADD SWAP2 POP DUP1 MLOAD SWAP1 PUSH1 0x20 ADD SWAP1 DUP1 DUP4 DUP4 PUSH1 0x0 JUMPDEST DUP4 DUP2 LT ISZERO PUSH2 0x65B JUMPI DUP1 DUP3 ADD MLOAD DUP2 DUP5 ADD MSTORE PUSH1 0x20 DUP2 ADD SWAP1 POP PUSH2 0x640 JUMP JUMPDEST POP POP POP POP SWAP1 POP SWAP1 DUP2 ADD SWAP1 PUSH1 0x1F AND DUP1 ISZERO PUSH2 0x688 JUMPI DUP1 DUP3 SUB DUP1 MLOAD PUSH1 0x1 DUP4 PUSH1 0x20 SUB PUSH2 0x100 EXP SUB NOT AND DUP2 MSTORE PUSH1 0x20 ADD SWAP2 POP JUMPDEST POP SWAP3 POP POP POP PUSH1 0x40 MLOAD DUP1 SWAP2 SUB SWAP1 RETURN JUMPDEST CALLVALUE DUP1 ISZERO PUSH2 0x6A2 JUMPI PUSH1 0x0 DUP1 REVERT JUMPDEST POP PUSH2 0x6AB PUSH2 0x17E7 JUMP JUMPDEST PUSH1 0x40 MLOAD DUP1 DUP3 DUP2 MSTORE PUSH1 0x20 ADD SWAP2 POP POP PUSH1 0x40 MLOAD DUP1 SWAP2 SUB SWAP1 RETURN JUMPDEST CALLVALUE DUP1 ISZERO PUSH2 0x6CD JUMPI PUSH1 0x0 DUP1 REVERT JUMPDEST POP PUSH2 0x6FA PUSH1 0x4 DUP1 CALLDATASIZE SUB PUSH1 0x20 DUP2 LT ISZERO PUSH2 0x6E4 JUMPI PUSH1 0x0 DUP1 REVERT JUMPDEST DUP2 ADD SWAP1 DUP1 DUP1 CALLDATALOAD SWAP1 PUSH1 0x20 ADD SWAP1 SWAP3 SWAP2 SWAP1 POP POP POP PUSH2 0x180B JUMP JUMPDEST PUSH1 0x40 MLOAD DUP1 DUP3 ISZERO ISZERO ISZERO ISZERO DUP2 MSTORE PUSH1 0x20 ADD SWAP2 POP POP PUSH1 0x40 MLOAD DUP1 SWAP2 SUB SWAP1 RETURN JUMPDEST CALLVALUE DUP1 ISZERO PUSH2 0x720 JUMPI PUSH1 0x0 DUP1 REVERT JUMPDEST POP PUSH2 0x729 PUSH2 0x182B JUMP JUMPDEST PUSH1 0x40 MLOAD DUP1 DUP3 ISZERO ISZERO ISZERO ISZERO DUP2 MSTORE PUSH1 0x20 ADD SWAP2 POP POP PUSH1 0x40 MLOAD DUP1 SWAP2 SUB SWAP1 RETURN JUMPDEST CALLVALUE DUP1 ISZERO PUSH2 0x74F JUMPI PUSH1 0x0 DUP1 REVERT JUMPDEST POP PUSH2 0x758 PUSH2 0x183E JUMP JUMPDEST PUSH1 0x40 MLOAD DUP1 DUP3 PUSH4 0xFFFFFFFF AND PUSH4 0xFFFFFFFF AND DUP2 MSTORE PUSH1 0x20 ADD SWAP2 POP POP PUSH1 0x40 MLOAD DUP1 SWAP2 SUB SWAP1 RETURN JUMPDEST CALLVALUE DUP1 ISZERO PUSH2 0x786 JUMPI PUSH1 0x0 DUP1 REVERT JUMPDEST POP PUSH2 0x78F PUSH2 0x1853 JUMP JUMPDEST PUSH1 0x40 MLOAD DUP1 DUP3 PUSH20 0xFFFFFFFFFFFFFFFFFFFFFFFFFFFFFFFFFFFFFFFF AND PUSH20 0xFFFFFFFFFFFFFFFFFFFFFFFFFFFFFFFFFFFFFFFF AND DUP2 MSTORE PUSH1 0x20 ADD SWAP2 POP POP PUSH1 0x40 MLOAD DUP1 SWAP2 SUB SWAP1 RETURN JUMPDEST CALLVALUE DUP1 ISZERO PUSH2 0x7DD JUMPI PUSH1 0x0 DUP1 REVERT JUMPDEST POP PUSH2 0x7E6 PUSH2 0x187D JUMP JUMPDEST PUSH1 0x40 MLOAD DUP1 DUP3 PUSH20 0xFFFFFFFFFFFFFFFFFFFFFFFFFFFFFFFFFFFFFFFF AND PUSH20 0xFFFFFFFFFFFFFFFFFFFFFFFFFFFFFFFFFFFFFFFF AND DUP2 MSTORE PUSH1 0x20 ADD SWAP2 POP POP PUSH1 0x40 MLOAD DUP1 SWAP2 SUB SWAP1 RETURN JUMPDEST CALLVALUE DUP1 ISZERO PUSH2 0x834 JUMPI PUSH1 0x0 DUP1 REVERT JUMPDEST POP PUSH2 0x861 PUSH1 0x4 DUP1 CALLDATASIZE SUB PUSH1 0x20 DUP2 LT ISZERO PUSH2 0x84B JUMPI PUSH1 0x0 DUP1 REVERT JUMPDEST DUP2 ADD SWAP1 DUP1 DUP1 CALLDATALOAD SWAP1 PUSH1 0x20 ADD SWAP1 SWAP3 SWAP2 SWAP1 POP POP POP PUSH2 0x18A3 JUMP JUMPDEST PUSH1 0x40 MLOAD DUP1 DUP3 ISZERO ISZERO ISZERO ISZERO DUP2 MSTORE PUSH1 0x20 ADD SWAP2 POP POP PUSH1 0x40 MLOAD DUP1 SWAP2 SUB SWAP1 RETURN JUMPDEST CALLVALUE DUP1 ISZERO PUSH2 0x887 JUMPI PUSH1 0x0 DUP1 REVERT JUMPDEST POP PUSH2 0x8CA PUSH1 0x4 DUP1 CALLDATASIZE SUB PUSH1 0x20 DUP2 LT ISZERO PUSH2 0x89E JUMPI PUSH1 0x0 DUP1 REVERT JUMPDEST DUP2 ADD SWAP1 DUP1 DUP1 CALLDATALOAD PUSH20 0xFFFFFFFFFFFFFFFFFFFFFFFFFFFFFFFFFFFFFFFF AND SWAP1 PUSH1 0x20 ADD SWAP1 SWAP3 SWAP2 SWAP1 POP POP POP PUSH2 0x18CD JUMP JUMPDEST STOP JUMPDEST CALLVALUE DUP1 ISZERO PUSH2 0x8D8 JUMPI PUSH1 0x0 DUP1 REVERT JUMPDEST POP PUSH2 0x905 PUSH1 0x4 DUP1 CALLDATASIZE SUB PUSH1 0x20 DUP2 LT ISZERO PUSH2 0x8EF JUMPI PUSH1 0x0 DUP1 REVERT JUMPDEST DUP2 ADD SWAP1 DUP1 DUP1 CALLDATALOAD SWAP1 PUSH1 0x20 ADD SWAP1 SWAP3 SWAP2 SWAP1 POP POP POP PUSH2 0x19B7 JUMP JUMPDEST PUSH1 0x40 MLOAD DUP1 DUP3 ISZERO ISZERO ISZERO ISZERO DUP2 MSTORE PUSH1 0x20 ADD SWAP2 POP POP PUSH1 0x40 MLOAD DUP1 SWAP2 SUB SWAP1 RETURN JUMPDEST CALLVALUE DUP1 ISZERO PUSH2 0x92B JUMPI PUSH1 0x0 DUP1 REVERT JUMPDEST POP PUSH2 0x934 PUSH2 0x1A53 JUMP JUMPDEST PUSH1 0x40 MLOAD DUP1 DUP3 PUSH20 0xFFFFFFFFFFFFFFFFFFFFFFFFFFFFFFFFFFFFFFFF AND PUSH20 0xFFFFFFFFFFFFFFFFFFFFFFFFFFFFFFFFFFFFFFFF AND DUP2 MSTORE PUSH1 0x20 ADD SWAP2 POP POP PUSH1 0x40 MLOAD DUP1 SWAP2 SUB SWAP1 RETURN JUMPDEST CALLVALUE DUP1 ISZERO PUSH2 0x982 JUMPI PUSH1 0x0 DUP1 REVERT JUMPDEST POP PUSH2 0x9D9 PUSH1 0x4 DUP1 CALLDATASIZE SUB PUSH1 0x60 DUP2 LT ISZERO PUSH2 0x999 JUMPI PUSH1 0x0 DUP1 REVERT JUMPDEST DUP2 ADD SWAP1 DUP1 DUP1 CALLDATALOAD PUSH20 0xFFFFFFFFFFFFFFFFFFFFFFFFFFFFFFFFFFFFFFFF AND SWAP1 PUSH1 0x20 ADD SWAP1 SWAP3 SWAP2 SWAP1 DUP1 CALLDATALOAD SWAP1 PUSH1 0x20 ADD SWAP1 SWAP3 SWAP2 SWAP1 DUP1 CALLDATALOAD SWAP1 PUSH1 0x20 ADD SWAP1 SWAP3 SWAP2 SWAP1 POP POP POP PUSH2 0x1A79 JUMP JUMPDEST PUSH1 0x40 MLOAD DUP1 DUP3 DUP2 MSTORE PUSH1 0x20 ADD SWAP2 POP POP PUSH1 0x40 MLOAD DUP1 SWAP2 SUB SWAP1 RETURN JUMPDEST CALLVALUE DUP1 ISZERO PUSH2 0x9FB JUMPI PUSH1 0x0 DUP1 REVERT JUMPDEST POP PUSH2 0xA04 PUSH2 0x1CFD JUMP JUMPDEST PUSH1 0x40 MLOAD DUP1 DUP3 PUSH4 0xFFFFFFFF AND PUSH4 0xFFFFFFFF AND DUP2 MSTORE PUSH1 0x20 ADD SWAP2 POP POP PUSH1 0x40 MLOAD DUP1 SWAP2 SUB SWAP1 RETURN JUMPDEST CALLVALUE DUP1 ISZERO PUSH2 0xA32 JUMPI PUSH1 0x0 DUP1 REVERT JUMPDEST POP PUSH2 0xA75 PUSH1 0x4 DUP1 CALLDATASIZE SUB PUSH1 0x20 DUP2 LT ISZERO PUSH2 0xA49 JUMPI PUSH1 0x0 DUP1 REVERT JUMPDEST DUP2 ADD SWAP1 DUP1 DUP1 CALLDATALOAD PUSH20 0xFFFFFFFFFFFFFFFFFFFFFFFFFFFFFFFFFFFFFFFF AND SWAP1 PUSH1 0x20 ADD SWAP1 SWAP3 SWAP2 SWAP1 POP POP POP PUSH2 0x1D13 JUMP JUMPDEST STOP JUMPDEST CALLVALUE DUP1 ISZERO PUSH2 0xA83 JUMPI PUSH1 0x0 DUP1 REVERT JUMPDEST POP PUSH2 0xAB2 PUSH1 0x4 DUP1 CALLDATASIZE SUB PUSH1 0x20 DUP2 LT ISZERO PUSH2 0xA9A JUMPI PUSH1 0x0 DUP1 REVERT JUMPDEST DUP2 ADD SWAP1 DUP1 DUP1 CALLDATALOAD ISZERO ISZERO SWAP1 PUSH1 0x20 ADD SWAP1 SWAP3 SWAP2 SWAP1 POP POP POP PUSH2 0x1E63 JUMP JUMPDEST STOP JUMPDEST CALLVALUE DUP1 ISZERO PUSH2 0xAC0 JUMPI PUSH1 0x0 DUP1 REVERT JUMPDEST POP PUSH2 0xAC9 PUSH2 0x1F26 JUMP JUMPDEST PUSH1 0x40 MLOAD DUP1 DUP3 PUSH20 0xFFFFFFFFFFFFFFFFFFFFFFFFFFFFFFFFFFFFFFFF AND PUSH20 0xFFFFFFFFFFFFFFFFFFFFFFFFFFFFFFFFFFFFFFFF AND DUP2 MSTORE PUSH1 0x20 ADD SWAP2 POP POP PUSH1 0x40 MLOAD DUP1 SWAP2 SUB SWAP1 RETURN JUMPDEST CALLVALUE DUP1 ISZERO PUSH2 0xB17 JUMPI PUSH1 0x0 DUP1 REVERT JUMPDEST POP PUSH2 0xB44 PUSH1 0x4 DUP1 CALLDATASIZE SUB PUSH1 0x20 DUP2 LT ISZERO PUSH2 0xB2E JUMPI PUSH1 0x0 DUP1 REVERT JUMPDEST DUP2 ADD SWAP1 DUP1 DUP1 CALLDATALOAD SWAP1 PUSH1 0x20 ADD SWAP1 SWAP3 SWAP2 SWAP1 POP POP POP PUSH2 0x1F4C JUMP JUMPDEST PUSH1 0x40 MLOAD DUP1 DUP3 ISZERO ISZERO ISZERO ISZERO DUP2 MSTORE PUSH1 0x20 ADD SWAP2 POP POP PUSH1 0x40 MLOAD DUP1 SWAP2 SUB SWAP1 RETURN JUMPDEST CALLVALUE DUP1 ISZERO PUSH2 0xB6A JUMPI PUSH1 0x0 DUP1 REVERT JUMPDEST POP PUSH2 0xB73 PUSH2 0x1F6C JUMP JUMPDEST PUSH1 0x40 MLOAD DUP1 DUP3 DUP2 MSTORE PUSH1 0x20 ADD SWAP2 POP POP PUSH1 0x40 MLOAD DUP1 SWAP2 SUB SWAP1 RETURN JUMPDEST CALLVALUE DUP1 ISZERO PUSH2 0xB95 JUMPI PUSH1 0x0 DUP1 REVERT JUMPDEST POP PUSH2 0xBC2 PUSH1 0x4 DUP1 CALLDATASIZE SUB PUSH1 0x20 DUP2 LT ISZERO PUSH2 0xBAC JUMPI PUSH1 0x0 DUP1 REVERT JUMPDEST DUP2 ADD SWAP1 DUP1 DUP1 CALLDATALOAD SWAP1 PUSH1 0x20 ADD SWAP1 SWAP3 SWAP2 SWAP1 POP POP POP PUSH2 0x1F9F JUMP JUMPDEST PUSH1 0x40 MLOAD DUP1 DUP3 DUP2 MSTORE PUSH1 0x20 ADD SWAP2 POP POP PUSH1 0x40 MLOAD DUP1 SWAP2 SUB SWAP1 RETURN JUMPDEST PUSH2 0xCCC PUSH1 0x4 DUP1 CALLDATASIZE SUB PUSH1 0xA0 DUP2 LT ISZERO PUSH2 0xBEE JUMPI PUSH1 0x0 DUP1 REVERT JUMPDEST DUP2 ADD SWAP1 DUP1 DUP1 CALLDATALOAD SWAP1 PUSH1 0x20 ADD SWAP1 SWAP3 SWAP2 SWAP1 DUP1 CALLDATALOAD SWAP1 PUSH1 0x20 ADD SWAP1 SWAP3 SWAP2 SWAP1 DUP1 CALLDATALOAD SWAP1 PUSH1 0x20 ADD SWAP1 SWAP3 SWAP2 SWAP1 DUP1 CALLDATALOAD PUSH16 0xFFFFFFFFFFFFFFFFFFFFFFFFFFFFFFFF NOT AND SWAP1 PUSH1 0x20 ADD SWAP1 SWAP3 SWAP2 SWAP1 DUP1 CALLDATALOAD SWAP1 PUSH1 0x20 ADD SWAP1 PUSH5 0x100000000 DUP2 GT ISZERO PUSH2 0xC46 JUMPI PUSH1 0x0 DUP1 REVERT JUMPDEST DUP3 ADD DUP4 PUSH1 0x20 DUP3 ADD GT ISZERO PUSH2 0xC58 JUMPI PUSH1 0x0 DUP1 REVERT JUMPDEST DUP1 CALLDATALOAD SWAP1 PUSH1 0x20 ADD SWAP2 DUP5 PUSH1 0x1 DUP4 MUL DUP5 ADD GT PUSH5 0x100000000 DUP4 GT OR ISZERO PUSH2 0xC7A JUMPI PUSH1 0x0 DUP1 REVERT JUMPDEST SWAP2 SWAP1 DUP1 DUP1 PUSH1 0x1F ADD PUSH1 0x20 DUP1 SWAP2 DIV MUL PUSH1 0x20 ADD PUSH1 0x40 MLOAD SWAP1 DUP2 ADD PUSH1 0x40 MSTORE DUP1 SWAP4 SWAP3 SWAP2 SWAP1 DUP2 DUP2 MSTORE PUSH1 0x20 ADD DUP4 DUP4 DUP1 DUP3 DUP5 CALLDATACOPY PUSH1 0x0 DUP2 DUP5 ADD MSTORE PUSH1 0x1F NOT PUSH1 0x1F DUP3 ADD AND SWAP1 POP DUP1 DUP4 ADD SWAP3 POP POP POP POP POP POP POP SWAP2 SWAP3 SWAP2 SWAP3 SWAP1 POP POP POP PUSH2 0x1FB7 JUMP JUMPDEST STOP JUMPDEST CALLVALUE DUP1 ISZERO PUSH2 0xCDA JUMPI PUSH1 0x0 DUP1 REVERT JUMPDEST POP PUSH2 0xD1D PUSH1 0x4 DUP1 CALLDATASIZE SUB PUSH1 0x20 DUP2 LT ISZERO PUSH2 0xCF1 JUMPI PUSH1 0x0 DUP1 REVERT JUMPDEST DUP2 ADD SWAP1 DUP1 DUP1 CALLDATALOAD PUSH20 0xFFFFFFFFFFFFFFFFFFFFFFFFFFFFFFFFFFFFFFFF AND SWAP1 PUSH1 0x20 ADD SWAP1 SWAP3 SWAP2 SWAP1 POP POP POP PUSH2 0x2338 JUMP JUMPDEST STOP JUMPDEST CALLVALUE DUP1 ISZERO PUSH2 0xD2B JUMPI PUSH1 0x0 DUP1 REVERT JUMPDEST POP PUSH2 0xD34 PUSH2 0x2422 JUMP JUMPDEST PUSH1 0x40 MLOAD DUP1 DUP3 PUSH20 0xFFFFFFFFFFFFFFFFFFFFFFFFFFFFFFFFFFFFFFFF AND PUSH20 0xFFFFFFFFFFFFFFFFFFFFFFFFFFFFFFFFFFFFFFFF AND DUP2 MSTORE PUSH1 0x20 ADD SWAP2 POP POP PUSH1 0x40 MLOAD DUP1 SWAP2 SUB SWAP1 RETURN JUMPDEST CALLVALUE DUP1 ISZERO PUSH2 0xD82 JUMPI PUSH1 0x0 DUP1 REVERT JUMPDEST POP PUSH2 0xD8B PUSH2 0x244A JUMP JUMPDEST PUSH1 0x40 MLOAD DUP1 DUP3 PUSH4 0xFFFFFFFF AND PUSH4 0xFFFFFFFF AND DUP2 MSTORE PUSH1 0x20 ADD SWAP2 POP POP PUSH1 0x40 MLOAD DUP1 SWAP2 SUB SWAP1 RETURN JUMPDEST CALLVALUE DUP1 ISZERO PUSH2 0xDB9 JUMPI PUSH1 0x0 DUP1 REVERT JUMPDEST POP PUSH2 0xDC2 PUSH2 0x244F JUMP JUMPDEST PUSH1 0x40 MLOAD DUP1 DUP3 PUSH8 0xFFFFFFFFFFFFFFFF AND PUSH8 0xFFFFFFFFFFFFFFFF AND DUP2 MSTORE PUSH1 0x20 ADD SWAP2 POP POP PUSH1 0x40 MLOAD DUP1 SWAP2 SUB SWAP1 RETURN JUMPDEST CALLVALUE DUP1 ISZERO PUSH2 0xDF8 JUMPI PUSH1 0x0 DUP1 REVERT JUMPDEST POP PUSH2 0xF5D PUSH1 0x4 DUP1 CALLDATASIZE SUB PUSH1 0x60 DUP2 LT ISZERO PUSH2 0xE0F JUMPI PUSH1 0x0 DUP1 REVERT JUMPDEST DUP2 ADD SWAP1 DUP1 DUP1 CALLDATALOAD SWAP1 PUSH1 0x20 ADD SWAP1 PUSH5 0x100000000 DUP2 GT ISZERO PUSH2 0xE2C JUMPI PUSH1 0x0 DUP1 REVERT JUMPDEST DUP3 ADD DUP4 PUSH1 0x20 DUP3 ADD GT ISZERO PUSH2 0xE3E JUMPI PUSH1 0x0 DUP1 REVERT JUMPDEST DUP1 CALLDATALOAD SWAP1 PUSH1 0x20 ADD SWAP2 DUP5 PUSH1 0x1 DUP4 MUL DUP5 ADD GT PUSH5 0x100000000 DUP4 GT OR ISZERO PUSH2 0xE60 JUMPI PUSH1 0x0 DUP1 REVERT JUMPDEST SWAP2 SWAP1 DUP1 DUP1 PUSH1 0x1F ADD PUSH1 0x20 DUP1 SWAP2 DIV MUL PUSH1 0x20 ADD PUSH1 0x40 MLOAD SWAP1 DUP2 ADD PUSH1 0x40 MSTORE DUP1 SWAP4 SWAP3 SWAP2 SWAP1 DUP2 DUP2 MSTORE PUSH1 0x20 ADD DUP4 DUP4 DUP1 DUP3 DUP5 CALLDATACOPY PUSH1 0x0 DUP2 DUP5 ADD MSTORE PUSH1 0x1F NOT PUSH1 0x1F DUP3 ADD AND SWAP1 POP DUP1 DUP4 ADD SWAP3 POP POP POP POP POP POP POP SWAP2 SWAP3 SWAP2 SWAP3 SWAP1 DUP1 CALLDATALOAD SWAP1 PUSH1 0x20 ADD SWAP1 PUSH5 0x100000000 DUP2 GT ISZERO PUSH2 0xEC3 JUMPI PUSH1 0x0 DUP1 REVERT JUMPDEST DUP3 ADD DUP4 PUSH1 0x20 DUP3 ADD GT ISZERO PUSH2 0xED5 JUMPI PUSH1 0x0 DUP1 REVERT JUMPDEST DUP1 CALLDATALOAD SWAP1 PUSH1 0x20 ADD SWAP2 DUP5 PUSH1 0x1 DUP4 MUL DUP5 ADD GT PUSH5 0x100000000 DUP4 GT OR ISZERO PUSH2 0xEF7 JUMPI PUSH1 0x0 DUP1 REVERT JUMPDEST SWAP2 SWAP1 DUP1 DUP1 PUSH1 0x1F ADD PUSH1 0x20 DUP1 SWAP2 DIV MUL PUSH1 0x20 ADD PUSH1 0x40 MLOAD SWAP1 DUP2 ADD PUSH1 0x40 MSTORE DUP1 SWAP4 SWAP3 SWAP2 SWAP1 DUP2 DUP2 MSTORE PUSH1 0x20 ADD DUP4 DUP4 DUP1 DUP3 DUP5 CALLDATACOPY PUSH1 0x0 DUP2 DUP5 ADD MSTORE PUSH1 0x1F NOT PUSH1 0x1F DUP3 ADD AND SWAP1 POP DUP1 DUP4 ADD SWAP3 POP POP POP POP POP POP POP SWAP2 SWAP3 SWAP2 SWAP3 SWAP1 DUP1 CALLDATALOAD PUSH8 0xFFFFFFFFFFFFFFFF AND SWAP1 PUSH1 0x20 ADD SWAP1 SWAP3 SWAP2 SWAP1 POP POP POP PUSH2 0x2469 JUMP JUMPDEST PUSH1 0x40 MLOAD DUP1 DUP3 ISZERO ISZERO ISZERO ISZERO DUP2 MSTORE PUSH1 0x20 ADD SWAP2 POP POP PUSH1 0x40 MLOAD DUP1 SWAP2 SUB SWAP1 RETURN JUMPDEST CALLVALUE DUP1 ISZERO PUSH2 0xF83 JUMPI PUSH1 0x0 DUP1 REVERT JUMPDEST POP PUSH2 0xFB0 PUSH1 0x4 DUP1 CALLDATASIZE SUB PUSH1 0x20 DUP2 LT ISZERO PUSH2 0xF9A JUMPI PUSH1 0x0 DUP1 REVERT JUMPDEST DUP2 ADD SWAP1 DUP1 DUP1 CALLDATALOAD SWAP1 PUSH1 0x20 ADD SWAP1 SWAP3 SWAP2 SWAP1 POP POP POP PUSH2 0x2905 JUMP JUMPDEST PUSH1 0x40 MLOAD DUP1 DUP3 DUP2 MSTORE PUSH1 0x20 ADD SWAP2 POP POP PUSH1 0x40 MLOAD DUP1 SWAP2 SUB SWAP1 RETURN JUMPDEST CALLVALUE DUP1 ISZERO PUSH2 0xFD2 JUMPI PUSH1 0x0 DUP1 REVERT JUMPDEST POP PUSH2 0xFDB PUSH2 0x2FF7 JUMP JUMPDEST PUSH1 0x40 MLOAD DUP1 DUP3 PUSH20 0xFFFFFFFFFFFFFFFFFFFFFFFFFFFFFFFFFFFFFFFF AND PUSH20 0xFFFFFFFFFFFFFFFFFFFFFFFFFFFFFFFFFFFFFFFF AND DUP2 MSTORE PUSH1 0x20 ADD SWAP2 POP POP PUSH1 0x40 MLOAD DUP1 SWAP2 SUB SWAP1 RETURN JUMPDEST CALLVALUE DUP1 ISZERO PUSH2 0x1029 JUMPI PUSH1 0x0 DUP1 REVERT JUMPDEST POP PUSH2 0x1032 PUSH2 0x301B JUMP JUMPDEST PUSH1 0x40 MLOAD DUP1 DUP3 ISZERO ISZERO ISZERO ISZERO DUP2 MSTORE PUSH1 0x20 ADD SWAP2 POP POP PUSH1 0x40 MLOAD DUP1 SWAP2 SUB SWAP1 RETURN JUMPDEST CALLVALUE DUP1 ISZERO PUSH2 0x1058 JUMPI PUSH1 0x0 DUP1 REVERT JUMPDEST POP PUSH2 0x1085 PUSH1 0x4 DUP1 CALLDATASIZE SUB PUSH1 0x20 DUP2 LT ISZERO PUSH2 0x106F JUMPI PUSH1 0x0 DUP1 REVERT JUMPDEST DUP2 ADD SWAP1 DUP1 DUP1 CALLDATALOAD SWAP1 PUSH1 0x20 ADD SWAP1 SWAP3 SWAP2 SWAP1 POP POP POP PUSH2 0x302E JUMP JUMPDEST PUSH1 0x40 MLOAD DUP1 DUP3 DUP2 MSTORE PUSH1 0x20 ADD SWAP2 POP POP PUSH1 0x40 MLOAD DUP1 SWAP2 SUB SWAP1 RETURN JUMPDEST CALLVALUE DUP1 ISZERO PUSH2 0x10A7 JUMPI PUSH1 0x0 DUP1 REVERT JUMPDEST POP PUSH2 0x10B0 PUSH2 0x3046 JUMP JUMPDEST PUSH1 0x40 MLOAD DUP1 DUP3 PUSH4 0xFFFFFFFF AND PUSH4 0xFFFFFFFF AND DUP2 MSTORE PUSH1 0x20 ADD SWAP2 POP POP PUSH1 0x40 MLOAD DUP1 SWAP2 SUB SWAP1 RETURN JUMPDEST PUSH1 0x9 PUSH1 0x0 SWAP1 SLOAD SWAP1 PUSH2 0x100 EXP SWAP1 DIV PUSH20 0xFFFFFFFFFFFFFFFFFFFFFFFFFFFFFFFFFFFFFFFF AND PUSH20 0xFFFFFFFFFFFFFFFFFFFFFFFFFFFFFFFFFFFFFFFF AND CALLER PUSH20 0xFFFFFFFFFFFFFFFFFFFFFFFFFFFFFFFFFFFFFFFF AND EQ PUSH2 0x1178 JUMPI PUSH1 0x40 MLOAD PUSH32 0x8C379A000000000000000000000000000000000000000000000000000000000 DUP2 MSTORE PUSH1 0x4 ADD DUP1 DUP1 PUSH1 0x20 ADD DUP3 DUP2 SUB DUP3 MSTORE PUSH1 0x25 DUP2 MSTORE PUSH1 0x20 ADD DUP1 PUSH2 0x49D3 PUSH1 0x25 SWAP2 CODECOPY PUSH1 0x40 ADD SWAP2 POP POP PUSH1 0x40 MLOAD DUP1 SWAP2 SUB SWAP1 REVERT JUMPDEST DUP1 PUSH1 0x9 PUSH1 0x0 PUSH2 0x100 EXP DUP2 SLOAD DUP2 PUSH20 0xFFFFFFFFFFFFFFFFFFFFFFFFFFFFFFFFFFFFFFFF MUL NOT AND SWAP1 DUP4 PUSH20 0xFFFFFFFFFFFFFFFFFFFFFFFFFFFFFFFFFFFFFFFF AND MUL OR SWAP1 SSTORE POP POP JUMP JUMPDEST PUSH1 0x0 DUP1 PUSH1 0x0 SWAP1 SLOAD SWAP1 PUSH2 0x100 EXP SWAP1 DIV PUSH4 0xFFFFFFFF AND SWAP1 POP SWAP1 JUMP JUMPDEST PUSH1 0x7 PUSH1 0x20 MSTORE DUP1 PUSH1 0x0 MSTORE PUSH1 0x40 PUSH1 0x0 KECCAK256 PUSH1 0x0 SWAP2 POP SLOAD SWAP1 PUSH2 0x100 EXP SWAP1 DIV PUSH1 0xFF AND DUP2 JUMP JUMPDEST PUSH1 0x9 PUSH1 0x0 SWAP1 SLOAD SWAP1 PUSH2 0x100 EXP SWAP1 DIV PUSH20 0xFFFFFFFFFFFFFFFFFFFFFFFFFFFFFFFFFFFFFFFF AND PUSH20 0xFFFFFFFFFFFFFFFFFFFFFFFFFFFFFFFFFFFFFFFF AND CALLER PUSH20 0xFFFFFFFFFFFFFFFFFFFFFFFFFFFFFFFFFFFFFFFF AND EQ PUSH2 0x129B JUMPI PUSH1 0x40 MLOAD PUSH32 0x8C379A000000000000000000000000000000000000000000000000000000000 DUP2 MSTORE PUSH1 0x4 ADD DUP1 DUP1 PUSH1 0x20 ADD DUP3 DUP2 SUB DUP3 MSTORE PUSH1 0x25 DUP2 MSTORE PUSH1 0x20 ADD DUP1 PUSH2 0x49D3 PUSH1 0x25 SWAP2 CODECOPY PUSH1 0x40 ADD SWAP2 POP POP PUSH1 0x40 MLOAD DUP1 SWAP2 SUB SWAP1 REVERT JUMPDEST PUSH1 0x1 PUSH1 0xB PUSH1 0x15 PUSH2 0x100 EXP DUP2 SLOAD DUP2 PUSH1 0xFF MUL NOT AND SWAP1 DUP4 ISZERO ISZERO MUL OR SWAP1 SSTORE POP JUMP JUMPDEST PUSH1 0x60 PUSH1 0x40 MLOAD DUP1 PUSH1 0x40 ADD PUSH1 0x40 MSTORE DUP1 PUSH1 0x7 DUP2 MSTORE PUSH1 0x20 ADD PUSH32 0x7462726964676500000000000000000000000000000000000000000000000000 DUP2 MSTORE POP SWAP1 POP SWAP1 JUMP JUMPDEST PUSH1 0x2 PUSH1 0x4 SLOAD EQ ISZERO PUSH2 0x136E JUMPI PUSH1 0x40 MLOAD PUSH32 0x8C379A000000000000000000000000000000000000000000000000000000000 DUP2 MSTORE PUSH1 0x4 ADD DUP1 DUP1 PUSH1 0x20 ADD DUP3 DUP2 SUB DUP3 MSTORE PUSH1 0x1F DUP2 MSTORE PUSH1 0x20 ADD DUP1 PUSH32 0x5265656E7472616E637947756172643A207265656E7472616E742063616C6C00 DUP2 MSTORE POP PUSH1 0x20 ADD SWAP2 POP POP PUSH1 0x40 MLOAD DUP1 SWAP2 SUB SWAP1 REVERT JUMPDEST PUSH1 0x2 PUSH1 0x4 DUP2 SWAP1 SSTORE POP PUSH1 0x8 PUSH1 0x0 DUP5 DUP2 MSTORE PUSH1 0x20 ADD SWAP1 DUP2 MSTORE PUSH1 0x20 ADD PUSH1 0x0 KECCAK256 PUSH1 0x0 SWAP1 SLOAD SWAP1 PUSH2 0x100 EXP SWAP1 DIV PUSH1 0xFF AND ISZERO PUSH2 0x140A JUMPI PUSH1 0x40 MLOAD PUSH32 0x8C379A000000000000000000000000000000000000000000000000000000000 DUP2 MSTORE PUSH1 0x4 ADD DUP1 DUP1 PUSH1 0x20 ADD DUP3 DUP2 SUB DUP3 MSTORE PUSH1 0x1F DUP2 MSTORE PUSH1 0x20 ADD DUP1 PUSH32 0x546865206E6F746520686173206265656E20616C7265616479207370656E7400 DUP2 MSTORE POP PUSH1 0x20 ADD SWAP2 POP POP PUSH1 0x40 MLOAD DUP1 SWAP2 SUB SWAP1 REVERT JUMPDEST PUSH2 0x1416 DUP5 PUSH1 0x0 SHL PUSH2 0x19B7 JUMP JUMPDEST PUSH2 0x1488 JUMPI PUSH1 0x40 MLOAD PUSH32 0x8C379A000000000000000000000000000000000000000000000000000000000 DUP2 MSTORE PUSH1 0x4 ADD DUP1 DUP1 PUSH1 0x20 ADD DUP3 DUP2 SUB DUP3 MSTORE PUSH1 0x1C DUP2 MSTORE PUSH1 0x20 ADD DUP1 PUSH32 0x43616E6E6F742066696E6420796F7572206D65726B6C6520726F6F7400000000 DUP2 MSTORE POP PUSH1 0x20 ADD SWAP2 POP POP PUSH1 0x40 MLOAD DUP1 SWAP2 SUB SWAP1 REVERT JUMPDEST PUSH1 0x0 DUP2 PUSH20 0xFFFFFFFFFFFFFFFFFFFFFFFFFFFFFFFFFFFFFFFF AND SWAP1 POP PUSH1 0x5 PUSH1 0x0 SWAP1 SLOAD SWAP1 PUSH2 0x100 EXP SWAP1 DIV PUSH20 0xFFFFFFFFFFFFFFFFFFFFFFFFFFFFFFFFFFFFFFFF AND PUSH20 0xFFFFFFFFFFFFFFFFFFFFFFFFFFFFFFFFFFFFFFFF AND PUSH4 0x5FE8C13B DUP10 DUP10 DUP10 PUSH1 0x40 MLOAD DUP1 PUSH1 0x80 ADD PUSH1 0x40 MSTORE DUP1 DUP12 DUP2 MSTORE PUSH1 0x20 ADD DUP11 DUP2 MSTORE PUSH1 0x20 ADD DUP10 DUP2 MSTORE PUSH1 0x20 ADD DUP8 DUP2 MSTORE POP PUSH1 0x40 MLOAD DUP6 PUSH4 0xFFFFFFFF AND PUSH1 0xE0 SHL DUP2 MSTORE PUSH1 0x4 ADD DUP1 DUP6 PUSH1 0x2 PUSH1 0x20 MUL DUP1 DUP4 DUP4 PUSH1 0x0 JUMPDEST DUP4 DUP2 LT ISZERO PUSH2 0x153F JUMPI DUP1 DUP3 ADD MLOAD DUP2 DUP5 ADD MSTORE PUSH1 0x20 DUP2 ADD SWAP1 POP PUSH2 0x1524 JUMP JUMPDEST POP POP POP POP SWAP1 POP ADD DUP5 PUSH1 0x2 PUSH1 0x0 SWAP3 JUMPDEST DUP2 DUP5 LT ISZERO PUSH2 0x1593 JUMPI DUP3 DUP5 PUSH1 0x20 MUL ADD MLOAD PUSH1 0x2 PUSH1 0x20 MUL DUP1 DUP4 DUP4 PUSH1 0x0 JUMPDEST DUP4 DUP2 LT ISZERO PUSH2 0x1582 JUMPI DUP1 DUP3 ADD MLOAD DUP2 DUP5 ADD MSTORE PUSH1 0x20 DUP2 ADD SWAP1 POP PUSH2 0x1567 JUMP JUMPDEST POP POP POP POP SWAP1 POP ADD SWAP3 PUSH1 0x1 ADD SWAP3 PUSH2 0x154D JUMP JUMPDEST SWAP3 POP POP POP DUP4 PUSH1 0x2 PUSH1 0x20 MUL DUP1 DUP4 DUP4 PUSH1 0x0 JUMPDEST DUP4 DUP2 LT ISZERO PUSH2 0x15BE JUMPI DUP1 DUP3 ADD MLOAD DUP2 DUP5 ADD MSTORE PUSH1 0x20 DUP2 ADD SWAP1 POP PUSH2 0x15A3 JUMP JUMPDEST POP POP POP POP SWAP1 POP ADD DUP3 PUSH1 0x4 PUSH1 0x20 MUL DUP1 DUP4 DUP4 PUSH1 0x0 JUMPDEST DUP4 DUP2 LT ISZERO PUSH2 0x15EC JUMPI DUP1 DUP3 ADD MLOAD DUP2 DUP5 ADD MSTORE PUSH1 0x20 DUP2 ADD SWAP1 POP PUSH2 0x15D1 JUMP JUMPDEST POP POP POP POP SWAP1 POP ADD SWAP5 POP POP POP POP POP PUSH1 0x20 PUSH1 0x40 MLOAD DUP1 DUP4 SUB DUP2 PUSH1 0x0 DUP8 DUP1 EXTCODESIZE ISZERO DUP1 ISZERO PUSH2 0x1613 JUMPI PUSH1 0x0 DUP1 REVERT JUMPDEST POP GAS CALL ISZERO DUP1 ISZERO PUSH2 0x1627 JUMPI RETURNDATASIZE PUSH1 0x0 DUP1 RETURNDATACOPY RETURNDATASIZE PUSH1 0x0 REVERT JUMPDEST POP POP POP POP PUSH1 0x40 MLOAD RETURNDATASIZE PUSH1 0x20 DUP2 LT ISZERO PUSH2 0x163D JUMPI PUSH1 0x0 DUP1 REVERT JUMPDEST DUP2 ADD SWAP1 DUP1 DUP1 MLOAD SWAP1 PUSH1 0x20 ADD SWAP1 SWAP3 SWAP2 SWAP1 POP POP POP PUSH2 0x16C0 JUMPI PUSH1 0x40 MLOAD PUSH32 0x8C379A000000000000000000000000000000000000000000000000000000000 DUP2 MSTORE PUSH1 0x4 ADD DUP1 DUP1 PUSH1 0x20 ADD DUP3 DUP2 SUB DUP3 MSTORE PUSH1 0x16 DUP2 MSTORE PUSH1 0x20 ADD DUP1 PUSH32 0x496E76616C69642077697468647261772070726F6F6600000000000000000000 DUP2 MSTORE POP PUSH1 0x20 ADD SWAP2 POP POP PUSH1 0x40 MLOAD DUP1 SWAP2 SUB SWAP1 REVERT JUMPDEST PUSH1 0x1 PUSH1 0x8 PUSH1 0x0 DUP7 DUP2 MSTORE PUSH1 0x20 ADD SWAP1 DUP2 MSTORE PUSH1 0x20 ADD PUSH1 0x0 KECCAK256 PUSH1 0x0 PUSH2 0x100 EXP DUP2 SLOAD DUP2 PUSH1 0xFF MUL NOT AND SWAP1 DUP4 ISZERO ISZERO MUL OR SWAP1 SSTORE POP PUSH2 0x16F6 DUP3 DUP5 PUSH2 0x305C JUMP JUMPDEST DUP4 DUP6 PUSH32 0xF279E6A1F5E320CCA91135676D9CB6E44CA8A08C0B88342BCDB1144F6511B568 DUP5 PUSH1 0x40 MLOAD DUP1 DUP3 PUSH20 0xFFFFFFFFFFFFFFFFFFFFFFFFFFFFFFFFFFFFFFFF AND PUSH20 0xFFFFFFFFFFFFFFFFFFFFFFFFFFFFFFFFFFFFFFFF AND DUP2 MSTORE PUSH1 0x20 ADD SWAP2 POP POP PUSH1 0x40 MLOAD DUP1 SWAP2 SUB SWAP1 LOG3 POP PUSH1 0x1 PUSH1 0x4 DUP2 SWAP1 SSTORE POP POP POP POP POP POP POP POP JUMP JUMPDEST PUSH1 0x5 PUSH1 0x0 SWAP1 SLOAD SWAP1 PUSH2 0x100 EXP SWAP1 DIV PUSH20 0xFFFFFFFFFFFFFFFFFFFFFFFFFFFFFFFFFFFFFFFF AND DUP2 JUMP JUMPDEST PUSH1 0x0 PUSH1 0xB PUSH1 0x14 SWAP1 SLOAD SWAP1 PUSH2 0x100 EXP SWAP1 DIV PUSH1 0xFF AND SWAP1 POP SWAP1 JUMP JUMPDEST PUSH1 0x60 PUSH1 0x40 MLOAD DUP1 PUSH1 0x40 ADD PUSH1 0x40 MSTORE DUP1 PUSH1 0x4 DUP2 MSTORE PUSH1 0x20 ADD PUSH32 0x6D61696E00000000000000000000000000000000000000000000000000000000 DUP2 MSTORE POP SWAP1 POP SWAP1 JUMP JUMPDEST PUSH32 0x30644E72E131A029B85045B68181585D2833E84879B9709143E1F593F0000001 DUP2 JUMP JUMPDEST PUSH1 0x6 PUSH1 0x20 MSTORE DUP1 PUSH1 0x0 MSTORE PUSH1 0x40 PUSH1 0x0 KECCAK256 PUSH1 0x0 SWAP2 POP SLOAD SWAP1 PUSH2 0x100 EXP SWAP1 DIV PUSH1 0xFF AND DUP2 JUMP JUMPDEST PUSH1 0xB PUSH1 0x15 SWAP1 SLOAD SWAP1 PUSH2 0x100 EXP SWAP1 DIV PUSH1 0xFF AND DUP2 JUMP JUMPDEST PUSH1 0x0 DUP1 SWAP1 SLOAD SWAP1 PUSH2 0x100 EXP SWAP1 DIV PUSH4 0xFFFFFFFF AND DUP2 JUMP JUMPDEST PUSH1 0x0 PUSH1 0x5 PUSH1 0x0 SWAP1 SLOAD SWAP1 PUSH2 0x100 EXP SWAP1 DIV PUSH20 0xFFFFFFFFFFFFFFFFFFFFFFFFFFFFFFFFFFFFFFFF AND SWAP1 POP SWAP1 JUMP JUMPDEST PUSH1 0x9 PUSH1 0x0 SWAP1 SLOAD SWAP1 PUSH2 0x100 EXP SWAP1 DIV PUSH20 0xFFFFFFFFFFFFFFFFFFFFFFFFFFFFFFFFFFFFFFFF AND DUP2 JUMP JUMPDEST PUSH1 0x0 PUSH1 0x8 PUSH1 0x0 DUP4 DUP2 MSTORE PUSH1 0x20 ADD SWAP1 DUP2 MSTORE PUSH1 0x20 ADD PUSH1 0x0 KECCAK256 PUSH1 0x0 SWAP1 SLOAD SWAP1 PUSH2 0x100 EXP SWAP1 DIV PUSH1 0xFF AND SWAP1 POP SWAP2 SWAP1 POP JUMP JUMPDEST PUSH1 0x9 PUSH1 0x0 SWAP1 SLOAD SWAP1 PUSH2 0x100 EXP SWAP1 DIV PUSH20 0xFFFFFFFFFFFFFFFFFFFFFFFFFFFFFFFFFFFFFFFF AND PUSH20 0xFFFFFFFFFFFFFFFFFFFFFFFFFFFFFFFFFFFFFFFF AND CALLER PUSH20 0xFFFFFFFFFFFFFFFFFFFFFFFFFFFFFFFFFFFFFFFF AND EQ PUSH2 0x1973 JUMPI PUSH1 0x40 MLOAD PUSH32 0x8C379A000000000000000000000000000000000000000000000000000000000 DUP2 MSTORE PUSH1 0x4 ADD DUP1 DUP1 PUSH1 0x20 ADD DUP3 DUP2 SUB DUP3 MSTORE PUSH1 0x25 DUP2 MSTORE PUSH1 0x20 ADD DUP1 PUSH2 0x49D3 PUSH1 0x25 SWAP2 CODECOPY PUSH1 0x40 ADD SWAP2 POP POP PUSH1 0x40 MLOAD DUP1 SWAP2 SUB SWAP1 REVERT JUMPDEST DUP1 PUSH1 0xA PUSH1 0x0 PUSH2 0x100 EXP DUP2 SLOAD DUP2 PUSH20 0xFFFFFFFFFFFFFFFFFFFFFFFFFFFFFFFFFFFFFFFF MUL NOT AND SWAP1 DUP4 PUSH20 0xFFFFFFFFFFFFFFFFFFFFFFFFFFFFFFFFFFFFFFFF AND MUL OR SWAP1 SSTORE POP POP JUMP JUMPDEST PUSH1 0x0 DUP1 PUSH1 0x0 SHL DUP3 EQ ISZERO PUSH2 0x19CD JUMPI PUSH1 0x0 SWAP1 POP PUSH2 0x1A4E JUMP JUMPDEST PUSH1 0x0 PUSH1 0x3 PUSH1 0x0 SWAP1 SLOAD SWAP1 PUSH2 0x100 EXP SWAP1 DIV PUSH4 0xFFFFFFFF AND SWAP1 POP PUSH1 0x0 DUP2 SWAP1 POP JUMPDEST PUSH1 0x2 PUSH1 0x0 DUP3 PUSH4 0xFFFFFFFF AND DUP2 MSTORE PUSH1 0x20 ADD SWAP1 DUP2 MSTORE PUSH1 0x20 ADD PUSH1 0x0 KECCAK256 SLOAD DUP5 EQ ISZERO PUSH2 0x1A16 JUMPI PUSH1 0x1 SWAP3 POP POP POP PUSH2 0x1A4E JUMP JUMPDEST PUSH1 0x0 DUP2 PUSH4 0xFFFFFFFF AND EQ ISZERO PUSH2 0x1A2A JUMPI PUSH1 0x1E SWAP1 POP JUMPDEST DUP1 DUP1 PUSH1 0x1 SWAP1 SUB SWAP2 POP POP DUP2 PUSH4 0xFFFFFFFF AND DUP2 PUSH4 0xFFFFFFFF AND EQ ISZERO PUSH2 0x19EA JUMPI PUSH1 0x0 SWAP3 POP POP POP JUMPDEST SWAP2 SWAP1 POP JUMP JUMPDEST PUSH1 0xA PUSH1 0x0 SWAP1 SLOAD SWAP1 PUSH2 0x100 EXP SWAP1 DIV PUSH20 0xFFFFFFFFFFFFFFFFFFFFFFFFFFFFFFFFFFFFFFFF AND DUP2 JUMP JUMPDEST PUSH1 0x0 PUSH32 0x30644E72E131A029B85045B68181585D2833E84879B9709143E1F593F0000001 DUP4 PUSH1 0x0 SHR LT PUSH2 0x1B13 JUMPI PUSH1 0x40 MLOAD PUSH32 0x8C379A000000000000000000000000000000000000000000000000000000000 DUP2 MSTORE PUSH1 0x4 ADD DUP1 DUP1 PUSH1 0x20 ADD DUP3 DUP2 SUB DUP3 MSTORE PUSH1 0x20 DUP2 MSTORE PUSH1 0x20 ADD DUP1 PUSH32 0x5F6C6566742073686F756C6420626520696E7369646520746865206669656C64 DUP2 MSTORE POP PUSH1 0x20 ADD SWAP2 POP POP PUSH1 0x40 MLOAD DUP1 SWAP2 SUB SWAP1 REVERT JUMPDEST PUSH32 0x30644E72E131A029B85045B68181585D2833E84879B9709143E1F593F0000001 DUP3 PUSH1 0x0 SHR LT PUSH2 0x1B8E JUMPI PUSH1 0x40 MLOAD PUSH32 0x8C379A000000000000000000000000000000000000000000000000000000000 DUP2 MSTORE PUSH1 0x4 ADD DUP1 DUP1 PUSH1 0x20 ADD DUP3 DUP2 SUB DUP3 MSTORE PUSH1 0x21 DUP2 MSTORE PUSH1 0x20 ADD DUP1 PUSH2 0x48AC PUSH1 0x21 SWAP2 CODECOPY PUSH1 0x40 ADD SWAP2 POP POP PUSH1 0x40 MLOAD DUP1 SWAP2 SUB SWAP1 REVERT JUMPDEST PUSH1 0x0 DUP5 PUSH20 0xFFFFFFFFFFFFFFFFFFFFFFFFFFFFFFFFFFFFFFFF AND PUSH4 0x299E5660 PUSH1 0x40 MLOAD DUP1 PUSH1 0x40 ADD PUSH1 0x40 MSTORE DUP1 DUP8 DUP2 MSTORE PUSH1 0x20 ADD DUP7 DUP2 MSTORE POP PUSH1 0x40 MLOAD DUP3 PUSH4 0xFFFFFFFF AND PUSH1 0xE0 SHL DUP2 MSTORE PUSH1 0x4 ADD DUP1 DUP3 PUSH1 0x2 PUSH1 0x20 MUL DUP1 DUP4 DUP4 PUSH1 0x0 JUMPDEST DUP4 DUP2 LT ISZERO PUSH2 0x1BFB JUMPI DUP1 DUP3 ADD MLOAD DUP2 DUP5 ADD MSTORE PUSH1 0x20 DUP2 ADD SWAP1 POP PUSH2 0x1BE0 JUMP JUMPDEST POP POP POP POP SWAP1 POP ADD SWAP2 POP POP PUSH1 0x20 PUSH1 0x40 MLOAD DUP1 DUP4 SUB DUP2 DUP7 DUP1 EXTCODESIZE ISZERO DUP1 ISZERO PUSH2 0x1C1D JUMPI PUSH1 0x0 DUP1 REVERT JUMPDEST POP GAS STATICCALL ISZERO DUP1 ISZERO PUSH2 0x1C31 JUMPI RETURNDATASIZE PUSH1 0x0 DUP1 RETURNDATACOPY RETURNDATASIZE PUSH1 0x0 REVERT JUMPDEST POP POP POP POP PUSH1 0x40 MLOAD RETURNDATASIZE PUSH1 0x20 DUP2 LT ISZERO PUSH2 0x1C47 JUMPI PUSH1 0x0 DUP1 REVERT JUMPDEST DUP2 ADD SWAP1 DUP1 DUP1 MLOAD SWAP1 PUSH1 0x20 ADD SWAP1 SWAP3 SWAP2 SWAP1 POP POP POP SWAP1 POP PUSH32 0x30644E72E131A029B85045B68181585D2833E84879B9709143E1F593F0000001 DUP2 PUSH1 0x0 SHR LT PUSH2 0x1CF2 JUMPI PUSH1 0x40 MLOAD PUSH32 0x8C379A000000000000000000000000000000000000000000000000000000000 DUP2 MSTORE PUSH1 0x4 ADD DUP1 DUP1 PUSH1 0x20 ADD DUP3 DUP2 SUB DUP3 MSTORE PUSH1 0x1F DUP2 MSTORE PUSH1 0x20 ADD DUP1 PUSH32 0x686173682073686F756C6420626520696E7369646520746865206669656C6400 DUP2 MSTORE POP PUSH1 0x20 ADD SWAP2 POP POP PUSH1 0x40 MLOAD DUP1 SWAP2 SUB SWAP1 REVERT JUMPDEST DUP1 SWAP2 POP POP SWAP4 SWAP3 POP POP POP JUMP JUMPDEST PUSH1 0x3 PUSH1 0x0 SWAP1 SLOAD SWAP1 PUSH2 0x100 EXP SWAP1 DIV PUSH4 0xFFFFFFFF AND DUP2 JUMP JUMPDEST PUSH1 0x9 PUSH1 0x0 SWAP1 SLOAD SWAP1 PUSH2 0x100 EXP SWAP1 DIV PUSH20 0xFFFFFFFFFFFFFFFFFFFFFFFFFFFFFFFFFFFFFFFF AND PUSH20 0xFFFFFFFFFFFFFFFFFFFFFFFFFFFFFFFFFFFFFFFF AND CALLER PUSH20 0xFFFFFFFFFFFFFFFFFFFFFFFFFFFFFFFFFFFFFFFF AND EQ PUSH2 0x1DB9 JUMPI PUSH1 0x40 MLOAD PUSH32 0x8C379A000000000000000000000000000000000000000000000000000000000 DUP2 MSTORE PUSH1 0x4 ADD DUP1 DUP1 PUSH1 0x20 ADD DUP3 DUP2 SUB DUP3 MSTORE PUSH1 0x25 DUP2 MSTORE PUSH1 0x20 ADD DUP1 PUSH2 0x49D3 PUSH1 0x25 SWAP2 CODECOPY PUSH1 0x40 ADD SWAP2 POP POP PUSH1 0x40 MLOAD DUP1 SWAP2 SUB SWAP1 REVERT JUMPDEST PUSH1 0xB PUSH1 0x15 SWAP1 SLOAD SWAP1 PUSH2 0x100 EXP SWAP1 DIV PUSH1 0xFF AND ISZERO PUSH2 0x1E1F JUMPI PUSH1 0x40 MLOAD PUSH32 0x8C379A000000000000000000000000000000000000000000000000000000000 DUP2 MSTORE PUSH1 0x4 ADD DUP1 DUP1 PUSH1 0x20 ADD DUP3 DUP2 SUB DUP3 MSTORE PUSH1 0x24 DUP2 MSTORE PUSH1 0x20 ADD DUP1 PUSH2 0x4888 PUSH1 0x24 SWAP2 CODECOPY PUSH1 0x40 ADD SWAP2 POP POP PUSH1 0x40 MLOAD DUP1 SWAP2 SUB SWAP1 REVERT JUMPDEST DUP1 PUSH1 0x5 PUSH1 0x0 PUSH2 0x100 EXP DUP2 SLOAD DUP2 PUSH20 0xFFFFFFFFFFFFFFFFFFFFFFFFFFFFFFFFFFFFFFFF MUL NOT AND SWAP1 DUP4 PUSH20 0xFFFFFFFFFFFFFFFFFFFFFFFFFFFFFFFFFFFFFFFF AND MUL OR SWAP1 SSTORE POP POP JUMP JUMPDEST PUSH1 0x9 PUSH1 0x0 SWAP1 SLOAD SWAP1 PUSH2 0x100 EXP SWAP1 DIV PUSH20 0xFFFFFFFFFFFFFFFFFFFFFFFFFFFFFFFFFFFFFFFF AND PUSH20 0xFFFFFFFFFFFFFFFFFFFFFFFFFFFFFFFFFFFFFFFF AND CALLER PUSH20 0xFFFFFFFFFFFFFFFFFFFFFFFFFFFFFFFFFFFFFFFF AND EQ PUSH2 0x1F09 JUMPI PUSH1 0x40 MLOAD PUSH32 0x8C379A000000000000000000000000000000000000000000000000000000000 DUP2 MSTORE PUSH1 0x4 ADD DUP1 DUP1 PUSH1 0x20 ADD DUP3 DUP2 SUB DUP3 MSTORE PUSH1 0x25 DUP2 MSTORE PUSH1 0x20 ADD DUP1 PUSH2 0x49D3 PUSH1 0x25 SWAP2 CODECOPY PUSH1 0x40 ADD SWAP2 POP POP PUSH1 0x40 MLOAD DUP1 SWAP2 SUB SWAP1 REVERT JUMPDEST DUP1 PUSH1 0xB PUSH1 0x14 PUSH2 0x100 EXP DUP2 SLOAD DUP2 PUSH1 0xFF MUL NOT AND SWAP1 DUP4 ISZERO ISZERO MUL OR SWAP1 SSTORE POP POP JUMP JUMPDEST PUSH1 0xB PUSH1 0x0 SWAP1 SLOAD SWAP1 PUSH2 0x100 EXP SWAP1 DIV PUSH20 0xFFFFFFFFFFFFFFFFFFFFFFFFFFFFFFFFFFFFFFFF AND DUP2 JUMP JUMPDEST PUSH1 0x8 PUSH1 0x20 MSTORE DUP1 PUSH1 0x0 MSTORE PUSH1 0x40 PUSH1 0x0 KECCAK256 PUSH1 0x0 SWAP2 POP SLOAD SWAP1 PUSH2 0x100 EXP SWAP1 DIV PUSH1 0xFF AND DUP2 JUMP JUMPDEST PUSH1 0x0 PUSH1 0x2 PUSH1 0x0 PUSH1 0x3 PUSH1 0x0 SWAP1 SLOAD SWAP1 PUSH2 0x100 EXP SWAP1 DIV PUSH4 0xFFFFFFFF AND PUSH4 0xFFFFFFFF AND DUP2 MSTORE PUSH1 0x20 ADD SWAP1 DUP2 MSTORE PUSH1 0x20 ADD PUSH1 0x0 KECCAK256 SLOAD SWAP1 POP SWAP1 JUMP JUMPDEST PUSH1 0x2 PUSH1 0x20 MSTORE DUP1 PUSH1 0x0 MSTORE PUSH1 0x40 PUSH1 0x0 KECCAK256 PUSH1 0x0 SWAP2 POP SWAP1 POP SLOAD DUP2 JUMP JUMPDEST PUSH1 0xB PUSH1 0x14 SWAP1 SLOAD SWAP1 PUSH2 0x100 EXP SWAP1 DIV PUSH1 0xFF AND ISZERO PUSH2 0x203A JUMPI PUSH1 0x40 MLOAD PUSH32 0x8C379A000000000000000000000000000000000000000000000000000000000 DUP2 MSTORE PUSH1 0x4 ADD DUP1 DUP1 PUSH1 0x20 ADD DUP3 DUP2 SUB DUP3 MSTORE PUSH1 0x15 DUP2 MSTORE PUSH1 0x20 ADD DUP1 PUSH32 0x6465706F73697473206172652064697361626C65640000000000000000000000 DUP2 MSTORE POP PUSH1 0x20 ADD SWAP2 POP POP PUSH1 0x40 MLOAD DUP1 SWAP2 SUB SWAP1 REVERT JUMPDEST PUSH1 0x6 PUSH1 0x0 DUP6 DUP2 MSTORE PUSH1 0x20 ADD SWAP1 DUP2 MSTORE PUSH1 0x20 ADD PUSH1 0x0 KECCAK256 PUSH1 0x0 SWAP1 SLOAD SWAP1 PUSH2 0x100 EXP SWAP1 DIV PUSH1 0xFF AND ISZERO PUSH2 0x20B1 JUMPI PUSH1 0x40 MLOAD PUSH32 0x8C379A000000000000000000000000000000000000000000000000000000000 DUP2 MSTORE PUSH1 0x4 ADD DUP1 DUP1 PUSH1 0x20 ADD DUP3 DUP2 SUB DUP3 MSTORE PUSH1 0x21 DUP2 MSTORE PUSH1 0x20 ADD DUP1 PUSH2 0x491C PUSH1 0x21 SWAP2 CODECOPY PUSH1 0x40 ADD SWAP2 POP POP PUSH1 0x40 MLOAD DUP1 SWAP2 SUB SWAP1 REVERT JUMPDEST PUSH1 0x0 PUSH32 0x30644E72E131A029B85045B68181585D2833E84879B9709143E1F593F0000001 PUSH1 0x2 DUP6 DUP9 DUP7 PUSH1 0x40 MLOAD PUSH1 0x20 ADD DUP1 DUP5 DUP2 MSTORE PUSH1 0x20 ADD DUP4 DUP2 MSTORE PUSH1 0x20 ADD DUP3 PUSH16 0xFFFFFFFFFFFFFFFFFFFFFFFFFFFFFFFF NOT AND PUSH16 0xFFFFFFFFFFFFFFFFFFFFFFFFFFFFFFFF NOT AND DUP2 MSTORE PUSH1 0x10 ADD SWAP4 POP POP POP POP PUSH1 0x40 MLOAD PUSH1 0x20 DUP2 DUP4 SUB SUB DUP2 MSTORE SWAP1 PUSH1 0x40 MSTORE PUSH1 0x40 MLOAD DUP1 DUP3 DUP1 MLOAD SWAP1 PUSH1 0x20 ADD SWAP1 DUP1 DUP4 DUP4 JUMPDEST PUSH1 0x20 DUP4 LT PUSH2 0x215F JUMPI DUP1 MLOAD DUP3 MSTORE PUSH1 0x20 DUP3 ADD SWAP2 POP PUSH1 0x20 DUP2 ADD SWAP1 POP PUSH1 0x20 DUP4 SUB SWAP3 POP PUSH2 0x213C JUMP JUMPDEST PUSH1 0x1 DUP4 PUSH1 0x20 SUB PUSH2 0x100 EXP SUB DUP1 NOT DUP3 MLOAD AND DUP2 DUP5 MLOAD AND DUP1 DUP3 OR DUP6 MSTORE POP POP POP POP POP POP SWAP1 POP ADD SWAP2 POP POP PUSH1 0x20 PUSH1 0x40 MLOAD DUP1 DUP4 SUB DUP2 DUP6 GAS STATICCALL ISZERO DUP1 ISZERO PUSH2 0x21A1 JUMPI RETURNDATASIZE PUSH1 0x0 DUP1 RETURNDATACOPY RETURNDATASIZE PUSH1 0x0 REVERT JUMPDEST POP POP POP PUSH1 0x40 MLOAD RETURNDATASIZE PUSH1 0x20 DUP2 LT ISZERO PUSH2 0x21B6 JUMPI PUSH1 0x0 DUP1 REVERT JUMPDEST DUP2 ADD SWAP1 DUP1 DUP1 MLOAD SWAP1 PUSH1 0x20 ADD SWAP1 SWAP3 SWAP2 SWAP1 POP POP POP PUSH1 0x0 SHR DUP2 PUSH2 0x21D1 JUMPI INVALID JUMPDEST MOD SWAP1 POP DUP5 DUP2 PUSH1 0x0 SHL EQ PUSH2 0x224C JUMPI PUSH1 0x40 MLOAD PUSH32 0x8C379A000000000000000000000000000000000000000000000000000000000 DUP2 MSTORE PUSH1 0x4 ADD DUP1 DUP1 PUSH1 0x20 ADD DUP3 DUP2 SUB DUP3 MSTORE PUSH1 0x19 DUP2 MSTORE PUSH1 0x20 ADD DUP1 PUSH32 0x636F6D6D69746D656E74206861736820696E636F727265637400000000000000 DUP2 MSTORE POP PUSH1 0x20 ADD SWAP2 POP POP PUSH1 0x40 MLOAD DUP1 SWAP2 SUB SWAP1 REVERT JUMPDEST PUSH2 0x2255 DUP7 PUSH2 0x31B3 JUMP JUMPDEST PUSH1 0x1 PUSH1 0x6 PUSH1 0x0 DUP8 DUP2 MSTORE PUSH1 0x20 ADD SWAP1 DUP2 MSTORE PUSH1 0x20 ADD PUSH1 0x0 KECCAK256 PUSH1 0x0 PUSH2 0x100 EXP DUP2 SLOAD DUP2 PUSH1 0xFF MUL NOT AND SWAP1 DUP4 ISZERO ISZERO MUL OR SWAP1 SSTORE POP PUSH2 0x228B DUP7 DUP7 PUSH2 0x322B JUMP JUMPDEST DUP5 PUSH32 0x8BE9FB2D2379CA5FF2892836F8F65E1258C42E93FAEC42DADA72226DD0AB63FA DUP8 DUP5 PUSH1 0x40 MLOAD DUP1 DUP4 DUP2 MSTORE PUSH1 0x20 ADD DUP1 PUSH1 0x20 ADD DUP3 DUP2 SUB DUP3 MSTORE DUP4 DUP2 DUP2 MLOAD DUP2 MSTORE PUSH1 0x20 ADD SWAP2 POP DUP1 MLOAD SWAP1 PUSH1 0x20 ADD SWAP1 DUP1 DUP4 DUP4 PUSH1 0x0 JUMPDEST DUP4 DUP2 LT ISZERO PUSH2 0x22F5 JUMPI DUP1 DUP3 ADD MLOAD DUP2 DUP5 ADD MSTORE PUSH1 0x20 DUP2 ADD SWAP1 POP PUSH2 0x22DA JUMP JUMPDEST POP POP POP POP SWAP1 POP SWAP1 DUP2 ADD SWAP1 PUSH1 0x1F AND DUP1 ISZERO PUSH2 0x2322 JUMPI DUP1 DUP3 SUB DUP1 MLOAD PUSH1 0x1 DUP4 PUSH1 0x20 SUB PUSH2 0x100 EXP SUB NOT AND DUP2 MSTORE PUSH1 0x20 ADD SWAP2 POP JUMPDEST POP SWAP4 POP POP POP POP PUSH1 0x40 MLOAD DUP1 SWAP2 SUB SWAP1 LOG2 POP POP POP POP POP POP JUMP JUMPDEST PUSH1 0x9 PUSH1 0x0 SWAP1 SLOAD SWAP1 PUSH2 0x100 EXP SWAP1 DIV PUSH20 0xFFFFFFFFFFFFFFFFFFFFFFFFFFFFFFFFFFFFFFFF AND PUSH20 0xFFFFFFFFFFFFFFFFFFFFFFFFFFFFFFFFFFFFFFFF AND CALLER PUSH20 0xFFFFFFFFFFFFFFFFFFFFFFFFFFFFFFFFFFFFFFFF AND EQ PUSH2 0x23DE JUMPI PUSH1 0x40 MLOAD PUSH32 0x8C379A000000000000000000000000000000000000000000000000000000000 DUP2 MSTORE PUSH1 0x4 ADD DUP1 DUP1 PUSH1 0x20 ADD DUP3 DUP2 SUB DUP3 MSTORE PUSH1 0x25 DUP2 MSTORE PUSH1 0x20 ADD DUP1 PUSH2 0x49D3 PUSH1 0x25 SWAP2 CODECOPY PUSH1 0x40 ADD SWAP2 POP POP PUSH1 0x40 MLOAD DUP1 SWAP2 SUB SWAP1 REVERT JUMPDEST DUP1 PUSH1 0xB PUSH1 0x0 PUSH2 0x100 EXP DUP2 SLOAD DUP2 PUSH20 0xFFFFFFFFFFFFFFFFFFFFFFFFFFFFFFFFFFFFFFFF MUL NOT AND SWAP1 DUP4 PUSH20 0xFFFFFFFFFFFFFFFFFFFFFFFFFFFFFFFFFFFFFFFF AND MUL OR SWAP1 SSTORE POP POP JUMP JUMPDEST PUSH1 0x0 PUSH32 0x0 SWAP1 POP SWAP1 JUMP JUMPDEST PUSH1 0x1E DUP2 JUMP JUMPDEST PUSH1 0xA PUSH1 0x14 SWAP1 SLOAD SWAP1 PUSH2 0x100 EXP SWAP1 DIV PUSH8 0xFFFFFFFFFFFFFFFF AND DUP2 JUMP JUMPDEST PUSH1 0x0 DUP1 PUSH1 0xA PUSH1 0x0 SWAP1 SLOAD SWAP1 PUSH2 0x100 EXP SWAP1 DIV PUSH20 0xFFFFFFFFFFFFFFFFFFFFFFFFFFFFFFFFFFFFFFFF AND SWAP1 POP DUP1 PUSH20 0xFFFFFFFFFFFFFFFFFFFFFFFFFFFFFFFFFFFFFFFF AND PUSH4 0x87939A7F PUSH1 0x40 MLOAD DUP2 PUSH4 0xFFFFFFFF AND PUSH1 0xE0 SHL DUP2 MSTORE PUSH1 0x4 ADD PUSH1 0x20 PUSH1 0x40 MLOAD DUP1 DUP4 SUB DUP2 DUP7 DUP1 EXTCODESIZE ISZERO DUP1 ISZERO PUSH2 0x24D7 JUMPI PUSH1 0x0 DUP1 REVERT JUMPDEST POP GAS STATICCALL ISZERO DUP1 ISZERO PUSH2 0x24EB JUMPI RETURNDATASIZE PUSH1 0x0 DUP1 RETURNDATACOPY RETURNDATASIZE PUSH1 0x0 REVERT JUMPDEST POP POP POP POP PUSH1 0x40 MLOAD RETURNDATASIZE PUSH1 0x20 DUP2 LT ISZERO PUSH2 0x2501 JUMPI PUSH1 0x0 DUP1 REVERT JUMPDEST DUP2 ADD SWAP1 DUP1 DUP1 MLOAD SWAP1 PUSH1 0x20 ADD SWAP1 SWAP3 SWAP2 SWAP1 POP POP POP PUSH20 0xFFFFFFFFFFFFFFFFFFFFFFFFFFFFFFFFFFFFFFFF AND CALLER PUSH20 0xFFFFFFFFFFFFFFFFFFFFFFFFFFFFFFFFFFFFFFFF AND EQ PUSH2 0x2595 JUMPI PUSH1 0x40 MLOAD PUSH32 0x8C379A000000000000000000000000000000000000000000000000000000000 DUP2 MSTORE PUSH1 0x4 ADD DUP1 DUP1 PUSH1 0x20 ADD DUP3 DUP2 SUB DUP3 MSTORE PUSH1 0x24 DUP2 MSTORE PUSH1 0x20 ADD DUP1 PUSH2 0x48CD PUSH1 0x24 SWAP2 CODECOPY PUSH1 0x40 ADD SWAP2 POP POP PUSH1 0x40 MLOAD DUP1 SWAP2 SUB SWAP1 REVERT JUMPDEST PUSH2 0x259D PUSH2 0x4824 JUMP JUMPDEST PUSH2 0x25A6 DUP7 PUSH2 0x3572 JUMP JUMPDEST SWAP1 POP PUSH1 0x0 DUP6 MLOAD EQ ISZERO PUSH2 0x2603 JUMPI PUSH1 0x40 MLOAD PUSH32 0x8C379A000000000000000000000000000000000000000000000000000000000 DUP2 MSTORE PUSH1 0x4 ADD DUP1 DUP1 PUSH1 0x20 ADD DUP3 DUP2 SUB DUP3 MSTORE PUSH1 0x2B DUP2 MSTORE PUSH1 0x20 ADD DUP1 PUSH2 0x48F1 PUSH1 0x2B SWAP2 CODECOPY PUSH1 0x40 ADD SWAP2 POP POP PUSH1 0x40 MLOAD DUP1 SWAP2 SUB SWAP1 REVERT JUMPDEST PUSH1 0xB PUSH1 0x0 SWAP1 SLOAD SWAP1 PUSH2 0x100 EXP SWAP1 DIV PUSH20 0xFFFFFFFFFFFFFFFFFFFFFFFFFFFFFFFFFFFFFFFF AND PUSH20 0xFFFFFFFFFFFFFFFFFFFFFFFFFFFFFFFFFFFFFFFF AND PUSH2 0x2645 DUP7 PUSH2 0x35CF JUMP JUMPDEST PUSH20 0xFFFFFFFFFFFFFFFFFFFFFFFFFFFFFFFFFFFFFFFF AND EQ PUSH2 0x26CE JUMPI PUSH1 0x40 MLOAD PUSH32 0x8C379A000000000000000000000000000000000000000000000000000000000 DUP2 MSTORE PUSH1 0x4 ADD DUP1 DUP1 PUSH1 0x20 ADD DUP3 DUP2 SUB DUP3 MSTORE PUSH1 0x1E DUP2 MSTORE PUSH1 0x20 ADD DUP1 PUSH32 0x66726F6D2070726F78792061646472657373206E6F74206D6174636865640000 DUP2 MSTORE POP PUSH1 0x20 ADD SWAP2 POP POP PUSH1 0x40 MLOAD DUP1 SWAP2 SUB SWAP1 REVERT JUMPDEST PUSH1 0xA PUSH1 0x14 SWAP1 SLOAD SWAP1 PUSH2 0x100 EXP SWAP1 DIV PUSH8 0xFFFFFFFFFFFFFFFF AND PUSH8 0xFFFFFFFFFFFFFFFF AND DUP5 PUSH8 0xFFFFFFFFFFFFFFFF AND EQ PUSH2 0x276D JUMPI PUSH1 0x40 MLOAD PUSH32 0x8C379A000000000000000000000000000000000000000000000000000000000 DUP2 MSTORE PUSH1 0x4 ADD DUP1 DUP1 PUSH1 0x20 ADD DUP3 DUP2 SUB DUP3 MSTORE PUSH1 0x19 DUP2 MSTORE PUSH1 0x20 ADD DUP1 PUSH32 0x66726F6D20636861696E206964206E6F74206D61746368656400000000000000 DUP2 MSTORE POP PUSH1 0x20 ADD SWAP2 POP POP PUSH1 0x40 MLOAD DUP1 SWAP2 SUB SWAP1 REVERT JUMPDEST PUSH1 0x0 DUP2 PUSH1 0x0 ADD MLOAD GT PUSH2 0x27E7 JUMPI PUSH1 0x40 MLOAD PUSH32 0x8C379A000000000000000000000000000000000000000000000000000000000 DUP2 MSTORE PUSH1 0x4 ADD DUP1 DUP1 PUSH1 0x20 ADD DUP3 DUP2 SUB DUP3 MSTORE PUSH1 0x20 DUP2 MSTORE PUSH1 0x20 ADD DUP1 PUSH32 0x616D6F756E742073686F75756C642062652067726561746572207468616E2030 DUP2 MSTORE POP PUSH1 0x20 ADD SWAP2 POP POP PUSH1 0x40 MLOAD DUP1 SWAP2 SUB SWAP1 REVERT JUMPDEST PUSH1 0x7 PUSH1 0x0 DUP3 PUSH1 0x20 ADD MLOAD DUP2 MSTORE PUSH1 0x20 ADD SWAP1 DUP2 MSTORE PUSH1 0x20 ADD PUSH1 0x0 KECCAK256 PUSH1 0x0 SWAP1 SLOAD SWAP1 PUSH2 0x100 EXP SWAP1 DIV PUSH1 0xFF AND ISZERO PUSH2 0x2862 JUMPI PUSH1 0x40 MLOAD PUSH32 0x8C379A000000000000000000000000000000000000000000000000000000000 DUP2 MSTORE PUSH1 0x4 ADD DUP1 DUP1 PUSH1 0x20 ADD DUP3 DUP2 SUB DUP3 MSTORE PUSH1 0x21 DUP2 MSTORE PUSH1 0x20 ADD DUP1 PUSH2 0x491C PUSH1 0x21 SWAP2 CODECOPY PUSH1 0x40 ADD SWAP2 POP POP PUSH1 0x40 MLOAD DUP1 SWAP2 SUB SWAP1 REVERT JUMPDEST PUSH1 0x1 PUSH1 0x7 PUSH1 0x0 DUP4 PUSH1 0x20 ADD MLOAD DUP2 MSTORE PUSH1 0x20 ADD SWAP1 DUP2 MSTORE PUSH1 0x20 ADD PUSH1 0x0 KECCAK256 PUSH1 0x0 PUSH2 0x100 EXP DUP2 SLOAD DUP2 PUSH1 0xFF MUL NOT AND SWAP1 DUP4 ISZERO ISZERO MUL OR SWAP1 SSTORE POP PUSH1 0x0 PUSH2 0x28A1 DUP3 PUSH1 0x20 ADD MLOAD PUSH2 0x3637 JUMP JUMPDEST SWAP1 POP DUP2 PUSH1 0x20 ADD MLOAD PUSH32 0xCADB6698453D5F5E042459C94D05683072821CA73D684F6C1C0AF896EB3F4051 DUP3 DUP5 PUSH1 0x0 ADD MLOAD PUSH1 0x40 MLOAD DUP1 DUP4 PUSH4 0xFFFFFFFF AND PUSH4 0xFFFFFFFF AND DUP2 MSTORE PUSH1 0x20 ADD DUP3 DUP2 MSTORE PUSH1 0x20 ADD SWAP3 POP POP POP PUSH1 0x40 MLOAD DUP1 SWAP2 SUB SWAP1 LOG2 PUSH1 0x1 SWAP4 POP POP POP POP SWAP4 SWAP3 POP POP POP JUMP JUMPDEST PUSH1 0x0 DUP1 DUP3 EQ ISZERO PUSH2 0x293A JUMPI PUSH32 0x9F658457775074FF4C842032A5EC2F1134C32784CCA59D594CAAC8C503B7923 PUSH1 0x0 SHL SWAP1 POP PUSH2 0x2FF2 JUMP JUMPDEST PUSH1 0x1 DUP3 EQ ISZERO PUSH2 0x296E JUMPI PUSH32 0x1A77569B79CB7C2EAF9368DE9E3B1EFC0A606561E5AB299C2337340F3CDD576A PUSH1 0x0 SHL SWAP1 POP PUSH2 0x2FF2 JUMP JUMPDEST PUSH1 0x2 DUP3 EQ ISZERO PUSH2 0x29A2 JUMPI PUSH32 0x111BD0002B1E3B8F1978C932B5CCB2FAB87FDB0ACAB2DDB266F9A346DCB11EE1 PUSH1 0x0 SHL SWAP1 POP PUSH2 0x2FF2 JUMP JUMPDEST PUSH1 0x3 DUP3 EQ ISZERO PUSH2 0x29D6 JUMPI PUSH32 0x40868EA2A363E05D7AE44280F69B49E429AB096CA2844EFE91F8D6B3DAD57DD PUSH1 0x0 SHL SWAP1 POP PUSH2 0x2FF2 JUMP JUMPDEST PUSH1 0x4 DUP3 EQ ISZERO PUSH2 0x2A09 JUMPI PUSH31 0xF8F605C92C8502C8FE83BE1B83B24E3F67312A388F30CBADB5DEE8974137C3 PUSH1 0x0 SHL SWAP1 POP PUSH2 0x2FF2 JUMP JUMPDEST PUSH1 0x5 DUP3 EQ ISZERO PUSH2 0x2A3D JUMPI PUSH32 0x1ADC043C99ADBC0C86A60A36DB0F661E2DD96F36EDE322F954386D8935A0C5D9 PUSH1 0x0 SHL SWAP1 POP PUSH2 0x2FF2 JUMP JUMPDEST PUSH1 0x6 DUP3 EQ ISZERO PUSH2 0x2A71 JUMPI PUSH32 0x2A1FEDFA71DA723AC3E9B35CEF752FA1B647B2B737A23E91241CB7BDC419E3F4 PUSH1 0x0 SHL SWAP1 POP PUSH2 0x2FF2 JUMP JUMPDEST PUSH1 0x7 DUP3 EQ ISZERO PUSH2 0x2AA5 JUMPI PUSH32 0x17FE1974543C4C4B228E1292F7E3200D31435FC910EE5A8C5CAFD329CC4B256B PUSH1 0x0 SHL SWAP1 POP PUSH2 0x2FF2 JUMP JUMPDEST PUSH1 0x8 DUP3 EQ ISZERO PUSH2 0x2AD9 JUMPI PUSH32 0xE84A586EB63A0EEC0F1FE5785022441F0E29E4AE859C7CE1F5FC88A42AD2E6B PUSH1 0x0 SHL SWAP1 POP PUSH2 0x2FF2 JUMP JUMPDEST PUSH1 0x9 DUP3 EQ ISZERO PUSH2 0x2B0D JUMPI PUSH32 0x193DEB901F6EEB032E02E093280DB17E373D4FF52BAFDA9215B46BB9B0A86F3E PUSH1 0x0 SHL SWAP1 POP PUSH2 0x2FF2 JUMP JUMPDEST PUSH1 0xA DUP3 EQ ISZERO PUSH2 0x2B41 JUMPI PUSH32 0x1D10CA7B985697CB519565A5006C3F44B020B2EDAB9B7422ED15DC34532F9406 PUSH1 0x0 SHL SWAP1 POP PUSH2 0x2FF2 JUMP JUMPDEST PUSH1 0xB DUP3 EQ ISZERO PUSH2 0x2B75 JUMPI PUSH32 0x1DC200763555467A4E583E00BADFDC1FB4D3D3F8F1CC81F31FD2F8B387776081 PUSH1 0x0 SHL SWAP1 POP PUSH2 0x2FF2 JUMP JUMPDEST PUSH1 0xC DUP3 EQ ISZERO PUSH2 0x2BA9 JUMPI PUSH32 0x203DD11FDBA0ED13B20CA2D6952F3FEB7461836A03512E0CCCCE8467B320B2F6 PUSH1 0x0 SHL SWAP1 POP PUSH2 0x2FF2 JUMP JUMPDEST PUSH1 0xD DUP3 EQ ISZERO PUSH2 0x2BDD JUMPI PUSH32 0x591AF64E64A3E69CAF23EEE2BDEA90885343A49F547EE9464E95D8D6267E4F7 PUSH1 0x0 SHL SWAP1 POP PUSH2 0x2FF2 JUMP JUMPDEST PUSH1 0xE DUP3 EQ ISZERO PUSH2 0x2C11 JUMPI PUSH32 0x2AF572F1077A32F46DC8E307D43C0FA6753B400B2107325976B8DF7380545FF6 PUSH1 0x0 SHL SWAP1 POP PUSH2 0x2FF2 JUMP JUMPDEST PUSH1 0xF DUP3 EQ ISZERO PUSH2 0x2C45 JUMPI PUSH32 0x43227AE4B70B1AACD04E35E6AAED7B56D91220C31E97AAF52E12A6A56984E52 PUSH1 0x0 SHL SWAP1 POP PUSH2 0x2FF2 JUMP JUMPDEST PUSH1 0x10 DUP3 EQ ISZERO PUSH2 0x2C79 JUMPI PUSH32 0x2976F1F6A91D83D4C528DAD69ECE6D3D91934B0E5657E915B360C8C4C2FB54E6 PUSH1 0x0 SHL SWAP1 POP PUSH2 0x2FF2 JUMP JUMPDEST PUSH1 0x11 DUP3 EQ ISZERO PUSH2 0x2CAC JUMPI PUSH31 0xE5C251C9E093658BE0CD1B0DF55B6F70F3D09146C1C8B4212A4DDCDE700DBC PUSH1 0x0 SHL SWAP1 POP PUSH2 0x2FF2 JUMP JUMPDEST PUSH1 0x12 DUP3 EQ ISZERO PUSH2 0x2CE0 JUMPI PUSH32 0x267CBBC1BC2F1C3E3073D2EE60DF8CC0BFEF39FE3CEE735C9AD5C8AD30064D2 PUSH1 0x0 SHL SWAP1 POP PUSH2 0x2FF2 JUMP JUMPDEST PUSH1 0x13 DUP3 EQ ISZERO PUSH2 0x2D14 JUMPI PUSH32 0x2F356057BC56F67DBF159A0E8935022ACD5E982DCE9F4071ADC43E4D57CE27E6 PUSH1 0x0 SHL SWAP1 POP PUSH2 0x2FF2 JUMP JUMPDEST PUSH1 0x14 DUP3 EQ ISZERO PUSH2 0x2D48 JUMPI PUSH32 0x273DB68F52F12A9D8022AE524050064E42D4D1661C9BCCE958ACF89B5E8B127B PUSH1 0x0 SHL SWAP1 POP PUSH2 0x2FF2 JUMP JUMPDEST PUSH1 0x15 DUP3 EQ ISZERO PUSH2 0x2D7C JUMPI PUSH32 0x496A18AD4CCA81B7C98CEB197439AD925E0F7F62D69DFA42CF9574BE77FE30F PUSH1 0x0 SHL SWAP1 POP PUSH2 0x2FF2 JUMP JUMPDEST PUSH1 0x16 DUP3 EQ ISZERO PUSH2 0x2DB0 JUMPI PUSH32 0x24F89A3F943D421B2F3A554B65459F42B820AC09D6FD9D693DF5F8BA732AB596 PUSH1 0x0 SHL SWAP1 POP PUSH2 0x2FF2 JUMP JUMPDEST PUSH1 0x17 DUP3 EQ ISZERO PUSH2 0x2DE4 JUMPI PUSH32 0x1B55BFD751C6807DF36876CDCE68034AB43210BE2BC8AFA8043C7F428604E7A7 PUSH1 0x0 SHL SWAP1 POP PUSH2 0x2FF2 JUMP JUMPDEST PUSH1 0x18 DUP3 EQ ISZERO PUSH2 0x2E18 JUMPI PUSH32 0x16D6595A398CF20F2489B90E958166F1E19C537C0C46E9B8EA5462391EE8F143 PUSH1 0x0 SHL SWAP1 POP PUSH2 0x2FF2 JUMP JUMPDEST PUSH1 0x19 DUP3 EQ ISZERO PUSH2 0x2E4C JUMPI PUSH32 0xF01447EF8F621592474B678ED2FC404EBAF22A6FCE15364BB4152A88C113613 PUSH1 0x0 SHL SWAP1 POP PUSH2 0x2FF2 JUMP JUMPDEST PUSH1 0x1A DUP3 EQ ISZERO PUSH2 0x2E80 JUMPI PUSH32 0x26C2DFFEE48BACBC9D21CF90AA7C6E525AB01DB6966A9E7E53B3D3F4D1F5A4D PUSH1 0x0 SHL SWAP1 POP PUSH2 0x2FF2 JUMP JUMPDEST PUSH1 0x1B DUP3 EQ ISZERO PUSH2 0x2EB4 JUMPI PUSH32 0x234FE90732795745B2C504C791242A2BB193BAA1CBEAB57DB9324B6BB9134817 PUSH1 0x0 SHL SWAP1 POP PUSH2 0x2FF2 JUMP JUMPDEST PUSH1 0x1C DUP3 EQ ISZERO PUSH2 0x2EE8 JUMPI PUSH32 0x23A8E0A7E60981C52EBB498C260D5BEF4D7C65145D17128996A77C33A3262A7E PUSH1 0x0 SHL SWAP1 POP PUSH2 0x2FF2 JUMP JUMPDEST PUSH1 0x1D DUP3 EQ ISZERO PUSH2 0x2F1C JUMPI PUSH32 0x24EE69D2565210C7027FF6FC2657ED029278BC79F41077FE3281EA5D5D8E80F9 PUSH1 0x0 SHL SWAP1 POP PUSH2 0x2FF2 JUMP JUMPDEST PUSH1 0x1E DUP3 EQ ISZERO PUSH2 0x2F50 JUMPI PUSH32 0x1DE402FA32463BB2917B733AEEF0197A49CACACD1FE860C3ACC8CD3B65A30A68 PUSH1 0x0 SHL SWAP1 POP PUSH2 0x2FF2 JUMP JUMPDEST PUSH1 0x1F DUP3 EQ ISZERO PUSH2 0x2F84 JUMPI PUSH32 0x1D3015A0F6A7B3F754171D0540628107E50E25DEBCEB16E0E33AE4205501896D PUSH1 0x0 SHL SWAP1 POP PUSH2 0x2FF2 JUMP JUMPDEST PUSH1 0x40 MLOAD PUSH32 0x8C379A000000000000000000000000000000000000000000000000000000000 DUP2 MSTORE PUSH1 0x4 ADD DUP1 DUP1 PUSH1 0x20 ADD DUP3 DUP2 SUB DUP3 MSTORE PUSH1 0x13 DUP2 MSTORE PUSH1 0x20 ADD DUP1 PUSH32 0x496E646578206F7574206F6620626F756E647300000000000000000000000000 DUP2 MSTORE POP PUSH1 0x20 ADD SWAP2 POP POP PUSH1 0x40 MLOAD DUP1 SWAP2 SUB SWAP1 REVERT JUMPDEST SWAP2 SWAP1 POP JUMP JUMPDEST PUSH32 0x0 DUP2 JUMP JUMPDEST PUSH1 0xB PUSH1 0x14 SWAP1 SLOAD SWAP1 PUSH2 0x100 EXP SWAP1 DIV PUSH1 0xFF AND DUP2 JUMP JUMPDEST PUSH1 0x1 PUSH1 0x20 MSTORE DUP1 PUSH1 0x0 MSTORE PUSH1 0x40 PUSH1 0x0 KECCAK256 PUSH1 0x0 SWAP2 POP SWAP1 POP SLOAD DUP2 JUMP JUMPDEST PUSH1 0x3 PUSH1 0x4 SWAP1 SLOAD SWAP1 PUSH2 0x100 EXP SWAP1 DIV PUSH4 0xFFFFFFFF AND DUP2 JUMP JUMPDEST PUSH1 0x0 CALLVALUE EQ PUSH2 0x30D2 JUMPI PUSH1 0x40 MLOAD PUSH32 0x8C379A000000000000000000000000000000000000000000000000000000000 DUP2 MSTORE PUSH1 0x4 ADD DUP1 DUP1 PUSH1 0x20 ADD DUP3 DUP2 SUB DUP3 MSTORE PUSH1 0x18 DUP2 MSTORE PUSH1 0x20 ADD DUP1 PUSH32 0x6E6F206D61696E6E657420746F6B656E20616C6C6F7765640000000000000000 DUP2 MSTORE POP PUSH1 0x20 ADD SWAP2 POP POP PUSH1 0x40 MLOAD DUP1 SWAP2 SUB SWAP1 REVERT JUMPDEST PUSH1 0x0 DUP3 PUSH20 0xFFFFFFFFFFFFFFFFFFFFFFFFFFFFFFFFFFFFFFFF AND DUP3 PUSH1 0x40 MLOAD DUP1 PUSH1 0x0 ADD SWAP1 POP PUSH1 0x0 PUSH1 0x40 MLOAD DUP1 DUP4 SUB DUP2 DUP6 DUP8 GAS CALL SWAP3 POP POP POP RETURNDATASIZE DUP1 PUSH1 0x0 DUP2 EQ PUSH2 0x3132 JUMPI PUSH1 0x40 MLOAD SWAP2 POP PUSH1 0x1F NOT PUSH1 0x3F RETURNDATASIZE ADD AND DUP3 ADD PUSH1 0x40 MSTORE RETURNDATASIZE DUP3 MSTORE RETURNDATASIZE PUSH1 0x0 PUSH1 0x20 DUP5 ADD RETURNDATACOPY PUSH2 0x3137 JUMP JUMPDEST PUSH1 0x60 SWAP2 POP JUMPDEST POP POP SWAP1 POP DUP1 PUSH2 0x31AE JUMPI PUSH1 0x40 MLOAD PUSH32 0x8C379A000000000000000000000000000000000000000000000000000000000 DUP2 MSTORE PUSH1 0x4 ADD DUP1 DUP1 PUSH1 0x20 ADD DUP3 DUP2 SUB DUP3 MSTORE PUSH1 0xF DUP2 MSTORE PUSH1 0x20 ADD DUP1 PUSH32 0x7769746864726177206661696C65640000000000000000000000000000000000 DUP2 MSTORE POP PUSH1 0x20 ADD SWAP2 POP POP PUSH1 0x40 MLOAD DUP1 SWAP2 SUB SWAP1 REVERT JUMPDEST POP POP POP JUMP JUMPDEST DUP1 CALLVALUE EQ PUSH2 0x3228 JUMPI PUSH1 0x40 MLOAD PUSH32 0x8C379A000000000000000000000000000000000000000000000000000000000 DUP2 MSTORE PUSH1 0x4 ADD DUP1 DUP1 PUSH1 0x20 ADD DUP3 DUP2 SUB DUP3 MSTORE PUSH1 0x12 DUP2 MSTORE PUSH1 0x20 ADD DUP1 PUSH32 0x696E73756666696369656E7420746F6B656E0000000000000000000000000000 DUP2 MSTORE POP PUSH1 0x20 ADD SWAP2 POP POP PUSH1 0x40 MLOAD DUP1 SWAP2 SUB SWAP1 REVERT JUMPDEST POP JUMP JUMPDEST PUSH2 0x3233 PUSH2 0x4824 JUMP JUMPDEST PUSH1 0x40 MLOAD DUP1 PUSH1 0x40 ADD PUSH1 0x40 MSTORE DUP1 DUP5 DUP2 MSTORE PUSH1 0x20 ADD DUP4 DUP2 MSTORE POP SWAP1 POP PUSH1 0x60 PUSH2 0x3255 DUP3 PUSH2 0x3871 JUMP JUMPDEST SWAP1 POP PUSH1 0x0 PUSH1 0xA PUSH1 0x0 SWAP1 SLOAD SWAP1 PUSH2 0x100 EXP SWAP1 DIV PUSH20 0xFFFFFFFFFFFFFFFFFFFFFFFFFFFFFFFFFFFFFFFF AND SWAP1 POP PUSH1 0x0 DUP2 PUSH20 0xFFFFFFFFFFFFFFFFFFFFFFFFFFFFFFFFFFFFFFFF AND PUSH4 0x87939A7F PUSH1 0x40 MLOAD DUP2 PUSH4 0xFFFFFFFF AND PUSH1 0xE0 SHL DUP2 MSTORE PUSH1 0x4 ADD PUSH1 0x20 PUSH1 0x40 MLOAD DUP1 DUP4 SUB DUP2 DUP7 DUP1 EXTCODESIZE ISZERO DUP1 ISZERO PUSH2 0x32C6 JUMPI PUSH1 0x0 DUP1 REVERT JUMPDEST POP GAS STATICCALL ISZERO DUP1 ISZERO PUSH2 0x32DA JUMPI RETURNDATASIZE PUSH1 0x0 DUP1 RETURNDATACOPY RETURNDATASIZE PUSH1 0x0 REVERT JUMPDEST POP POP POP POP PUSH1 0x40 MLOAD RETURNDATASIZE PUSH1 0x20 DUP2 LT ISZERO PUSH2 0x32F0 JUMPI PUSH1 0x0 DUP1 REVERT JUMPDEST DUP2 ADD SWAP1 DUP1 DUP1 MLOAD SWAP1 PUSH1 0x20 ADD SWAP1 SWAP3 SWAP2 SWAP1 POP POP POP SWAP1 POP DUP1 PUSH20 0xFFFFFFFFFFFFFFFFFFFFFFFFFFFFFFFFFFFFFFFF AND PUSH4 0xBD5CF625 PUSH1 0xA PUSH1 0x14 SWAP1 SLOAD SWAP1 PUSH2 0x100 EXP SWAP1 DIV PUSH8 0xFFFFFFFFFFFFFFFF AND PUSH2 0x3361 PUSH1 0xB PUSH1 0x0 SWAP1 SLOAD SWAP1 PUSH2 0x100 EXP SWAP1 DIV PUSH20 0xFFFFFFFFFFFFFFFFFFFFFFFFFFFFFFFFFFFFFFFF AND PUSH2 0x3974 JUMP JUMPDEST DUP7 PUSH1 0x40 MLOAD DUP5 PUSH4 0xFFFFFFFF AND PUSH1 0xE0 SHL DUP2 MSTORE PUSH1 0x4 ADD DUP1 DUP5 PUSH8 0xFFFFFFFFFFFFFFFF AND PUSH8 0xFFFFFFFFFFFFFFFF AND DUP2 MSTORE PUSH1 0x20 ADD DUP1 PUSH1 0x20 ADD DUP1 PUSH1 0x20 ADD DUP1 PUSH1 0x20 ADD DUP5 DUP2 SUB DUP5 MSTORE DUP7 DUP2 DUP2 MLOAD DUP2 MSTORE PUSH1 0x20 ADD SWAP2 POP DUP1 MLOAD SWAP1 PUSH1 0x20 ADD SWAP1 DUP1 DUP4 DUP4 PUSH1 0x0 JUMPDEST DUP4 DUP2 LT ISZERO PUSH2 0x33D3 JUMPI DUP1 DUP3 ADD MLOAD DUP2 DUP5 ADD MSTORE PUSH1 0x20 DUP2 ADD SWAP1 POP PUSH2 0x33B8 JUMP JUMPDEST POP POP POP POP SWAP1 POP SWAP1 DUP2 ADD SWAP1 PUSH1 0x1F AND DUP1 ISZERO PUSH2 0x3400 JUMPI DUP1 DUP3 SUB DUP1 MLOAD PUSH1 0x1 DUP4 PUSH1 0x20 SUB PUSH2 0x100 EXP SUB NOT AND DUP2 MSTORE PUSH1 0x20 ADD SWAP2 POP JUMPDEST POP DUP5 DUP2 SUB DUP4 MSTORE PUSH1 0x6 DUP2 MSTORE PUSH1 0x20 ADD DUP1 PUSH32 0x73796E6354780000000000000000000000000000000000000000000000000000 DUP2 MSTORE POP PUSH1 0x20 ADD DUP5 DUP2 SUB DUP3 MSTORE DUP6 DUP2 DUP2 MLOAD DUP2 MSTORE PUSH1 0x20 ADD SWAP2 POP DUP1 MLOAD SWAP1 PUSH1 0x20 ADD SWAP1 DUP1 DUP4 DUP4 PUSH1 0x0 JUMPDEST DUP4 DUP2 LT ISZERO PUSH2 0x346D JUMPI DUP1 DUP3 ADD MLOAD DUP2 DUP5 ADD MSTORE PUSH1 0x20 DUP2 ADD SWAP1 POP PUSH2 0x3452 JUMP JUMPDEST POP POP POP POP SWAP1 POP SWAP1 DUP2 ADD SWAP1 PUSH1 0x1F AND DUP1 ISZERO PUSH2 0x349A JUMPI DUP1 DUP3 SUB DUP1 MLOAD PUSH1 0x1 DUP4 PUSH1 0x20 SUB PUSH2 0x100 EXP SUB NOT AND DUP2 MSTORE PUSH1 0x20 ADD SWAP2 POP JUMPDEST POP SWAP7 POP POP POP POP POP POP POP PUSH1 0x20 PUSH1 0x40 MLOAD DUP1 DUP4 SUB DUP2 PUSH1 0x0 DUP8 DUP1 EXTCODESIZE ISZERO DUP1 ISZERO PUSH2 0x34BD JUMPI PUSH1 0x0 DUP1 REVERT JUMPDEST POP GAS CALL ISZERO DUP1 ISZERO PUSH2 0x34D1 JUMPI RETURNDATASIZE PUSH1 0x0 DUP1 RETURNDATACOPY RETURNDATASIZE PUSH1 0x0 REVERT JUMPDEST POP POP POP POP PUSH1 0x40 MLOAD RETURNDATASIZE PUSH1 0x20 DUP2 LT ISZERO PUSH2 0x34E7 JUMPI PUSH1 0x0 DUP1 REVERT JUMPDEST DUP2 ADD SWAP1 DUP1 DUP1 MLOAD SWAP1 PUSH1 0x20 ADD SWAP1 SWAP3 SWAP2 SWAP1 POP POP POP PUSH2 0x356A JUMPI PUSH1 0x40 MLOAD PUSH32 0x8C379A000000000000000000000000000000000000000000000000000000000 DUP2 MSTORE PUSH1 0x4 ADD DUP1 DUP1 PUSH1 0x20 ADD DUP3 DUP2 SUB DUP3 MSTORE PUSH1 0x12 DUP2 MSTORE PUSH1 0x20 ADD DUP1 PUSH32 0x6563636D2072657475726E73206572726F720000000000000000000000000000 DUP2 MSTORE POP PUSH1 0x20 ADD SWAP2 POP POP PUSH1 0x40 MLOAD DUP1 SWAP2 SUB SWAP1 REVERT JUMPDEST POP POP POP POP POP POP JUMP JUMPDEST PUSH2 0x357A PUSH2 0x4824 JUMP JUMPDEST PUSH2 0x3582 PUSH2 0x4824 JUMP JUMPDEST PUSH1 0x0 DUP1 SWAP1 POP PUSH2 0x3591 DUP5 DUP3 PUSH2 0x3994 JUMP JUMPDEST DUP4 PUSH1 0x0 ADD DUP2 SWAP4 POP DUP3 DUP2 MSTORE POP POP POP PUSH1 0x60 PUSH2 0x35AA DUP6 DUP4 PUSH2 0x3AED JUMP JUMPDEST DUP1 SWAP4 POP DUP2 SWAP3 POP POP POP PUSH2 0x35BB DUP2 PUSH2 0x3BED JUMP JUMPDEST DUP4 PUSH1 0x20 ADD DUP2 DUP2 MSTORE POP POP DUP3 SWAP4 POP POP POP POP SWAP2 SWAP1 POP JUMP JUMPDEST PUSH1 0x0 PUSH1 0x14 DUP3 MLOAD EQ PUSH2 0x362B JUMPI PUSH1 0x40 MLOAD PUSH32 0x8C379A000000000000000000000000000000000000000000000000000000000 DUP2 MSTORE PUSH1 0x4 ADD DUP1 DUP1 PUSH1 0x20 ADD DUP3 DUP2 SUB DUP3 MSTORE PUSH1 0x23 DUP2 MSTORE PUSH1 0x20 ADD DUP1 PUSH2 0x4865 PUSH1 0x23 SWAP2 CODECOPY PUSH1 0x40 ADD SWAP2 POP POP PUSH1 0x40 MLOAD DUP1 SWAP2 SUB SWAP1 REVERT JUMPDEST PUSH1 0x14 DUP3 ADD MLOAD SWAP1 POP SWAP2 SWAP1 POP JUMP JUMPDEST PUSH1 0x0 DUP1 PUSH1 0x3 PUSH1 0x4 SWAP1 SLOAD SWAP1 PUSH2 0x100 EXP SWAP1 DIV PUSH4 0xFFFFFFFF AND SWAP1 POP PUSH1 0x0 DUP1 SWAP1 SLOAD SWAP1 PUSH2 0x100 EXP SWAP1 DIV PUSH4 0xFFFFFFFF AND PUSH4 0xFFFFFFFF AND PUSH1 0x2 PUSH4 0xFFFFFFFF AND EXP PUSH4 0xFFFFFFFF AND DUP2 PUSH4 0xFFFFFFFF AND EQ ISZERO PUSH2 0x36D4 JUMPI PUSH1 0x40 MLOAD PUSH32 0x8C379A000000000000000000000000000000000000000000000000000000000 DUP2 MSTORE PUSH1 0x4 ADD DUP1 DUP1 PUSH1 0x20 ADD DUP3 DUP2 SUB DUP3 MSTORE PUSH1 0x30 DUP2 MSTORE PUSH1 0x20 ADD DUP1 PUSH2 0x4981 PUSH1 0x30 SWAP2 CODECOPY PUSH1 0x40 ADD SWAP2 POP POP PUSH1 0x40 MLOAD DUP1 SWAP2 SUB SWAP1 REVERT JUMPDEST PUSH1 0x0 DUP2 SWAP1 POP PUSH1 0x0 DUP5 SWAP1 POP PUSH1 0x0 DUP1 PUSH1 0x0 DUP1 SWAP1 POP JUMPDEST PUSH1 0x0 DUP1 SWAP1 SLOAD SWAP1 PUSH2 0x100 EXP SWAP1 DIV PUSH4 0xFFFFFFFF AND PUSH4 0xFFFFFFFF AND DUP2 PUSH4 0xFFFFFFFF AND LT ISZERO PUSH2 0x37CF JUMPI PUSH1 0x0 PUSH1 0x2 DUP7 PUSH4 0xFFFFFFFF AND DUP2 PUSH2 0x371E JUMPI INVALID JUMPDEST MOD PUSH4 0xFFFFFFFF AND EQ ISZERO PUSH2 0x3762 JUMPI DUP4 SWAP3 POP PUSH2 0x373D DUP2 PUSH4 0xFFFFFFFF AND PUSH2 0x2905 JUMP JUMPDEST SWAP2 POP DUP4 PUSH1 0x1 PUSH1 0x0 DUP4 PUSH4 0xFFFFFFFF AND DUP2 MSTORE PUSH1 0x20 ADD SWAP1 DUP2 MSTORE PUSH1 0x20 ADD PUSH1 0x0 KECCAK256 DUP2 SWAP1 SSTORE POP PUSH2 0x3782 JUMP JUMPDEST PUSH1 0x1 PUSH1 0x0 DUP3 PUSH4 0xFFFFFFFF AND DUP2 MSTORE PUSH1 0x20 ADD SWAP1 DUP2 MSTORE PUSH1 0x20 ADD PUSH1 0x0 KECCAK256 SLOAD SWAP3 POP DUP4 SWAP2 POP JUMPDEST PUSH2 0x37AD PUSH32 0x0 DUP5 DUP5 PUSH2 0x1A79 JUMP JUMPDEST SWAP4 POP PUSH1 0x2 DUP6 PUSH4 0xFFFFFFFF AND DUP2 PUSH2 0x37BF JUMPI INVALID JUMPDEST DIV SWAP5 POP DUP1 DUP1 PUSH1 0x1 ADD SWAP2 POP POP PUSH2 0x36E7 JUMP JUMPDEST POP PUSH1 0x0 PUSH1 0x1E PUSH4 0xFFFFFFFF AND PUSH1 0x1 PUSH1 0x3 PUSH1 0x0 SWAP1 SLOAD SWAP1 PUSH2 0x100 EXP SWAP1 DIV PUSH4 0xFFFFFFFF AND ADD PUSH4 0xFFFFFFFF AND DUP2 PUSH2 0x37FD JUMPI INVALID JUMPDEST MOD SWAP1 POP DUP1 PUSH1 0x3 PUSH1 0x0 PUSH2 0x100 EXP DUP2 SLOAD DUP2 PUSH4 0xFFFFFFFF MUL NOT AND SWAP1 DUP4 PUSH4 0xFFFFFFFF AND MUL OR SWAP1 SSTORE POP DUP4 PUSH1 0x2 PUSH1 0x0 DUP4 PUSH4 0xFFFFFFFF AND DUP2 MSTORE PUSH1 0x20 ADD SWAP1 DUP2 MSTORE PUSH1 0x20 ADD PUSH1 0x0 KECCAK256 DUP2 SWAP1 SSTORE POP PUSH1 0x1 DUP7 ADD PUSH1 0x3 PUSH1 0x4 PUSH2 0x100 EXP DUP2 SLOAD DUP2 PUSH4 0xFFFFFFFF MUL NOT AND SWAP1 DUP4 PUSH4 0xFFFFFFFF AND MUL OR SWAP1 SSTORE POP DUP6 SWAP7 POP POP POP POP POP POP POP SWAP2 SWAP1 POP JUMP JUMPDEST PUSH1 0x60 DUP1 PUSH2 0x3881 DUP4 PUSH1 0x0 ADD MLOAD PUSH2 0x3C72 JUMP JUMPDEST PUSH2 0x38AD DUP5 PUSH1 0x20 ADD MLOAD PUSH1 0x40 MLOAD PUSH1 0x20 ADD DUP1 DUP3 DUP2 MSTORE PUSH1 0x20 ADD SWAP2 POP POP PUSH1 0x40 MLOAD PUSH1 0x20 DUP2 DUP4 SUB SUB DUP2 MSTORE SWAP1 PUSH1 0x40 MSTORE PUSH2 0x3D51 JUMP JUMPDEST PUSH1 0x40 MLOAD PUSH1 0x20 ADD DUP1 DUP4 DUP1 MLOAD SWAP1 PUSH1 0x20 ADD SWAP1 DUP1 DUP4 DUP4 JUMPDEST PUSH1 0x20 DUP4 LT PUSH2 0x38E3 JUMPI DUP1 MLOAD DUP3 MSTORE PUSH1 0x20 DUP3 ADD SWAP2 POP PUSH1 0x20 DUP2 ADD SWAP1 POP PUSH1 0x20 DUP4 SUB SWAP3 POP PUSH2 0x38C0 JUMP JUMPDEST PUSH1 0x1 DUP4 PUSH1 0x20 SUB PUSH2 0x100 EXP SUB DUP1 NOT DUP3 MLOAD AND DUP2 DUP5 MLOAD AND DUP1 DUP3 OR DUP6 MSTORE POP POP POP POP POP POP SWAP1 POP ADD DUP3 DUP1 MLOAD SWAP1 PUSH1 0x20 ADD SWAP1 DUP1 DUP4 DUP4 JUMPDEST PUSH1 0x20 DUP4 LT PUSH2 0x3934 JUMPI DUP1 MLOAD DUP3 MSTORE PUSH1 0x20 DUP3 ADD SWAP2 POP PUSH1 0x20 DUP2 ADD SWAP1 POP PUSH1 0x20 DUP4 SUB SWAP3 POP PUSH2 0x3911 JUMP JUMPDEST PUSH1 0x1 DUP4 PUSH1 0x20 SUB PUSH2 0x100 EXP SUB DUP1 NOT DUP3 MLOAD AND DUP2 DUP5 MLOAD AND DUP1 DUP3 OR DUP6 MSTORE POP POP POP POP POP POP SWAP1 POP ADD SWAP3 POP POP POP PUSH1 0x40 MLOAD PUSH1 0x20 DUP2 DUP4 SUB SUB DUP2 MSTORE SWAP1 PUSH1 0x40 MSTORE SWAP1 POP DUP1 SWAP2 POP POP SWAP2 SWAP1 POP JUMP JUMPDEST PUSH1 0x60 PUSH1 0x40 MLOAD SWAP1 POP PUSH1 0x14 DUP2 MSTORE DUP2 PUSH1 0x60 SHL PUSH1 0x20 DUP3 ADD MSTORE PUSH1 0x40 DUP2 ADD PUSH1 0x40 MSTORE SWAP2 SWAP1 POP JUMP JUMPDEST PUSH1 0x0 DUP1 DUP4 MLOAD PUSH1 0x20 DUP5 ADD GT ISZERO DUP1 ISZERO PUSH2 0x39AD JUMPI POP PUSH1 0x20 DUP4 ADD DUP4 LT JUMPDEST PUSH2 0x3A02 JUMPI PUSH1 0x40 MLOAD PUSH32 0x8C379A000000000000000000000000000000000000000000000000000000000 DUP2 MSTORE PUSH1 0x4 ADD DUP1 DUP1 PUSH1 0x20 ADD DUP3 DUP2 SUB DUP3 MSTORE PUSH1 0x23 DUP2 MSTORE PUSH1 0x20 ADD DUP1 PUSH2 0x4842 PUSH1 0x23 SWAP2 CODECOPY PUSH1 0x40 ADD SWAP2 POP POP PUSH1 0x40 MLOAD DUP1 SWAP2 SUB SWAP1 REVERT JUMPDEST PUSH1 0x0 PUSH1 0x40 MLOAD PUSH1 0x20 PUSH1 0x0 PUSH1 0x1 DUP3 SUB DUP8 PUSH1 0x20 DUP11 ADD ADD MLOAD JUMPDEST DUP4 DUP4 LT ISZERO PUSH2 0x3A37 JUMPI DUP1 DUP3 BYTE DUP4 DUP7 ADD MSTORE8 PUSH1 0x1 DUP4 ADD SWAP3 POP PUSH1 0x1 DUP3 SUB SWAP2 POP PUSH2 0x3A17 JUMP JUMPDEST POP POP POP DUP1 DUP3 ADD PUSH1 0x40 MSTORE DUP2 MLOAD SWAP3 POP POP POP PUSH32 0x7FFFFFFFFFFFFFFFFFFFFFFFFFFFFFFFFFFFFFFFFFFFFFFFFFFFFFFFFFFFFFFF DUP2 GT ISZERO PUSH2 0x3ADC JUMPI PUSH1 0x40 MLOAD PUSH32 0x8C379A000000000000000000000000000000000000000000000000000000000 DUP2 MSTORE PUSH1 0x4 ADD DUP1 DUP1 PUSH1 0x20 ADD DUP3 DUP2 SUB DUP3 MSTORE PUSH1 0x17 DUP2 MSTORE PUSH1 0x20 ADD DUP1 PUSH32 0x56616C75652065786365656473207468652072616E6765000000000000000000 DUP2 MSTORE POP PUSH1 0x20 ADD SWAP2 POP POP PUSH1 0x40 MLOAD DUP1 SWAP2 SUB SWAP1 REVERT JUMPDEST DUP1 PUSH1 0x20 DUP6 ADD SWAP3 POP SWAP3 POP POP SWAP3 POP SWAP3 SWAP1 POP JUMP JUMPDEST PUSH1 0x60 PUSH1 0x0 DUP1 PUSH2 0x3AFC DUP6 DUP6 PUSH2 0x3E27 JUMP JUMPDEST DUP1 SWAP6 POP DUP2 SWAP3 POP POP POP DUP5 MLOAD DUP2 DUP6 ADD GT ISZERO DUP1 ISZERO PUSH2 0x3B18 JUMPI POP DUP1 DUP5 ADD DUP5 LT JUMPDEST PUSH2 0x3B6D JUMPI PUSH1 0x40 MLOAD PUSH32 0x8C379A000000000000000000000000000000000000000000000000000000000 DUP2 MSTORE PUSH1 0x4 ADD DUP1 DUP1 PUSH1 0x20 ADD DUP3 DUP2 SUB DUP3 MSTORE PUSH1 0x24 DUP2 MSTORE PUSH1 0x20 ADD DUP1 PUSH2 0x49F8 PUSH1 0x24 SWAP2 CODECOPY PUSH1 0x40 ADD SWAP2 POP POP PUSH1 0x40 MLOAD DUP1 SWAP2 SUB SWAP1 REVERT JUMPDEST PUSH1 0x60 DUP2 ISZERO PUSH1 0x0 DUP2 EQ PUSH2 0x3B8A JUMPI PUSH1 0x40 MLOAD SWAP2 POP PUSH1 0x20 DUP3 ADD PUSH1 0x40 MSTORE PUSH2 0x3BDB JUMP JUMPDEST PUSH1 0x40 MLOAD SWAP2 POP PUSH1 0x1F DUP4 AND DUP1 ISZERO PUSH1 0x20 MUL DUP2 DUP5 ADD ADD DUP5 DUP2 ADD DUP9 DUP4 ISZERO PUSH1 0x20 MUL DUP5 DUP13 ADD ADD ADD JUMPDEST DUP2 DUP4 LT ISZERO PUSH2 0x3BC8 JUMPI DUP1 MLOAD DUP4 MSTORE PUSH1 0x20 DUP4 ADD SWAP3 POP PUSH1 0x20 DUP2 ADD SWAP1 POP PUSH2 0x3BAB JUMP JUMPDEST POP DUP6 DUP6 MSTORE PUSH1 0x1F NOT PUSH1 0x1F DUP4 ADD AND PUSH1 0x40 MSTORE POP POP POP JUMPDEST POP DUP1 DUP3 DUP7 ADD SWAP4 POP SWAP4 POP POP POP SWAP3 POP SWAP3 SWAP1 POP JUMP JUMPDEST PUSH1 0x0 PUSH1 0x20 DUP3 MLOAD EQ PUSH2 0x3C66 JUMPI PUSH1 0x40 MLOAD PUSH32 0x8C379A000000000000000000000000000000000000000000000000000000000 DUP2 MSTORE PUSH1 0x4 ADD DUP1 DUP1 PUSH1 0x20 ADD DUP3 DUP2 SUB DUP3 MSTORE PUSH1 0x17 DUP2 MSTORE PUSH1 0x20 ADD DUP1 PUSH32 0x6279746573206C656E677468206973206E6F742033322E000000000000000000 DUP2 MSTORE POP PUSH1 0x20 ADD SWAP2 POP POP PUSH1 0x40 MLOAD DUP1 SWAP2 SUB SWAP1 REVERT JUMPDEST PUSH1 0x20 DUP3 ADD MLOAD SWAP1 POP SWAP2 SWAP1 POP JUMP JUMPDEST PUSH1 0x60 PUSH32 0x7FFFFFFFFFFFFFFFFFFFFFFFFFFFFFFFFFFFFFFFFFFFFFFFFFFFFFFFFFFFFFFF DUP3 GT ISZERO PUSH2 0x3D0A JUMPI PUSH1 0x40 MLOAD PUSH32 0x8C379A000000000000000000000000000000000000000000000000000000000 DUP2 MSTORE PUSH1 0x4 ADD DUP1 DUP1 PUSH1 0x20 ADD DUP3 DUP2 SUB DUP3 MSTORE PUSH1 0x1B DUP2 MSTORE PUSH1 0x20 ADD DUP1 PUSH32 0x56616C756520657863656564732075696E743235352072616E67650000000000 DUP2 MSTORE POP PUSH1 0x20 ADD SWAP2 POP POP PUSH1 0x40 MLOAD DUP1 SWAP2 SUB SWAP1 REVERT JUMPDEST PUSH1 0x60 PUSH1 0x40 MLOAD SWAP1 POP PUSH1 0x20 DUP1 DUP3 MSTORE PUSH1 0x0 PUSH1 0x1F JUMPDEST DUP3 DUP3 LT ISZERO PUSH2 0x3D3E JUMPI DUP6 DUP2 BYTE DUP3 PUSH1 0x20 DUP7 ADD ADD MSTORE8 PUSH1 0x1 DUP3 ADD SWAP2 POP PUSH1 0x1 DUP2 SUB SWAP1 POP PUSH2 0x3D1B JUMP JUMPDEST POP POP PUSH1 0x40 DUP3 ADD PUSH1 0x40 MSTORE POP DUP1 SWAP2 POP POP SWAP2 SWAP1 POP JUMP JUMPDEST PUSH1 0x60 PUSH1 0x0 DUP3 MLOAD SWAP1 POP PUSH2 0x3D62 DUP2 PUSH2 0x4158 JUMP JUMPDEST DUP4 PUSH1 0x40 MLOAD PUSH1 0x20 ADD DUP1 DUP4 DUP1 MLOAD SWAP1 PUSH1 0x20 ADD SWAP1 DUP1 DUP4 DUP4 JUMPDEST PUSH1 0x20 DUP4 LT PUSH2 0x3D99 JUMPI DUP1 MLOAD DUP3 MSTORE PUSH1 0x20 DUP3 ADD SWAP2 POP PUSH1 0x20 DUP2 ADD SWAP1 POP PUSH1 0x20 DUP4 SUB SWAP3 POP PUSH2 0x3D76 JUMP JUMPDEST PUSH1 0x1 DUP4 PUSH1 0x20 SUB PUSH2 0x100 EXP SUB DUP1 NOT DUP3 MLOAD AND DUP2 DUP5 MLOAD AND DUP1 DUP3 OR DUP6 MSTORE POP POP POP POP POP POP SWAP1 POP ADD DUP3 DUP1 MLOAD SWAP1 PUSH1 0x20 ADD SWAP1 DUP1 DUP4 DUP4 JUMPDEST PUSH1 0x20 DUP4 LT PUSH2 0x3DEA JUMPI DUP1 MLOAD DUP3 MSTORE PUSH1 0x20 DUP3 ADD SWAP2 POP PUSH1 0x20 DUP2 ADD SWAP1 POP PUSH1 0x20 DUP4 SUB SWAP3 POP PUSH2 0x3DC7 JUMP JUMPDEST PUSH1 0x1 DUP4 PUSH1 0x20 SUB PUSH2 0x100 EXP SUB DUP1 NOT DUP3 MLOAD AND DUP2 DUP5 MLOAD AND DUP1 DUP3 OR DUP6 MSTORE POP POP POP POP POP POP SWAP1 POP ADD SWAP3 POP POP POP PUSH1 0x40 MLOAD PUSH1 0x20 DUP2 DUP4 SUB SUB DUP2 MSTORE SWAP1 PUSH1 0x40 MSTORE SWAP2 POP POP SWAP2 SWAP1 POP JUMP JUMPDEST PUSH1 0x0 DUP1 PUSH1 0x0 PUSH2 0x3E36 DUP6 DUP6 PUSH2 0x4431 JUMP JUMPDEST DUP1 SWAP6 POP DUP2 SWAP3 POP POP POP PUSH1 0x0 PUSH1 0xFD PUSH1 0xF8 SHL DUP3 PUSH31 0xFFFFFFFFFFFFFFFFFFFFFFFFFFFFFFFFFFFFFFFFFFFFFFFFFFFFFFFFFFFFFF NOT AND EQ ISZERO PUSH2 0x3F19 JUMPI PUSH2 0x3E78 DUP7 DUP7 PUSH2 0x44D8 JUMP JUMPDEST DUP2 PUSH2 0xFFFF AND SWAP2 POP DUP1 SWAP7 POP DUP2 SWAP3 POP POP POP PUSH1 0xFD DUP2 LT ISZERO DUP1 ISZERO PUSH2 0x3E9A JUMPI POP PUSH2 0xFFFF DUP2 GT ISZERO JUMPDEST PUSH2 0x3F0C JUMPI PUSH1 0x40 MLOAD PUSH32 0x8C379A000000000000000000000000000000000000000000000000000000000 DUP2 MSTORE PUSH1 0x4 ADD DUP1 DUP1 PUSH1 0x20 ADD DUP3 DUP2 SUB DUP3 MSTORE PUSH1 0x1F DUP2 MSTORE PUSH1 0x20 ADD DUP1 PUSH32 0x4E65787455696E7431362C2076616C7565206F7574736964652072616E676500 DUP2 MSTORE POP PUSH1 0x20 ADD SWAP2 POP POP PUSH1 0x40 MLOAD DUP1 SWAP2 SUB SWAP1 REVERT JUMPDEST DUP1 DUP6 SWAP4 POP SWAP4 POP POP POP PUSH2 0x4151 JUMP JUMPDEST PUSH1 0xFE PUSH1 0xF8 SHL DUP3 PUSH31 0xFFFFFFFFFFFFFFFFFFFFFFFFFFFFFFFFFFFFFFFFFFFFFFFFFFFFFFFFFFFFFF NOT AND EQ ISZERO PUSH2 0x3FF6 JUMPI PUSH2 0x3F51 DUP7 DUP7 PUSH2 0x4582 JUMP JUMPDEST DUP2 PUSH4 0xFFFFFFFF AND SWAP2 POP DUP1 SWAP7 POP DUP2 SWAP3 POP POP POP PUSH2 0xFFFF DUP2 GT DUP1 ISZERO PUSH2 0x3F77 JUMPI POP PUSH4 0xFFFFFFFF DUP2 GT ISZERO JUMPDEST PUSH2 0x3FE9 JUMPI PUSH1 0x40 MLOAD PUSH32 0x8C379A000000000000000000000000000000000000000000000000000000000 DUP2 MSTORE PUSH1 0x4 ADD DUP1 DUP1 PUSH1 0x20 ADD DUP3 DUP2 SUB DUP3 MSTORE PUSH1 0x20 DUP2 MSTORE PUSH1 0x20 ADD DUP1 PUSH32 0x4E65787456617255696E742C2076616C7565206F7574736964652072616E6765 DUP2 MSTORE POP PUSH1 0x20 ADD SWAP2 POP POP PUSH1 0x40 MLOAD DUP1 SWAP2 SUB SWAP1 REVERT JUMPDEST DUP1 DUP6 SWAP4 POP SWAP4 POP POP POP PUSH2 0x4151 JUMP JUMPDEST PUSH1 0xFF PUSH1 0xF8 SHL DUP3 PUSH31 0xFFFFFFFFFFFFFFFFFFFFFFFFFFFFFFFFFFFFFFFFFFFFFFFFFFFFFFFFFFFFFF NOT AND EQ ISZERO PUSH2 0x40C9 JUMPI PUSH2 0x402E DUP7 DUP7 PUSH2 0x464A JUMP JUMPDEST DUP2 PUSH8 0xFFFFFFFFFFFFFFFF AND SWAP2 POP DUP1 SWAP7 POP DUP2 SWAP3 POP POP POP PUSH4 0xFFFFFFFF DUP2 GT PUSH2 0x40BC JUMPI PUSH1 0x40 MLOAD PUSH32 0x8C379A000000000000000000000000000000000000000000000000000000000 DUP2 MSTORE PUSH1 0x4 ADD DUP1 DUP1 PUSH1 0x20 ADD DUP3 DUP2 SUB DUP3 MSTORE PUSH1 0x20 DUP2 MSTORE PUSH1 0x20 ADD DUP1 PUSH32 0x4E65787456617255696E742C2076616C7565206F7574736964652072616E6765 DUP2 MSTORE POP PUSH1 0x20 ADD SWAP2 POP POP PUSH1 0x40 MLOAD DUP1 SWAP2 SUB SWAP1 REVERT JUMPDEST DUP1 DUP6 SWAP4 POP SWAP4 POP POP POP PUSH2 0x4151 JUMP JUMPDEST DUP2 PUSH1 0xF8 SHR PUSH1 0xFF AND SWAP1 POP PUSH1 0xFD DUP2 LT PUSH2 0x4148 JUMPI PUSH1 0x40 MLOAD PUSH32 0x8C379A000000000000000000000000000000000000000000000000000000000 DUP2 MSTORE PUSH1 0x4 ADD DUP1 DUP1 PUSH1 0x20 ADD DUP3 DUP2 SUB DUP3 MSTORE PUSH1 0x20 DUP2 MSTORE PUSH1 0x20 ADD DUP1 PUSH32 0x4E65787456617255696E742C2076616C7565206F7574736964652072616E6765 DUP2 MSTORE POP PUSH1 0x20 ADD SWAP2 POP POP PUSH1 0x40 MLOAD DUP1 SWAP2 SUB SWAP1 REVERT JUMPDEST DUP1 DUP6 SWAP4 POP SWAP4 POP POP POP JUMPDEST SWAP3 POP SWAP3 SWAP1 POP JUMP JUMPDEST PUSH1 0x60 PUSH1 0xFD DUP3 PUSH8 0xFFFFFFFFFFFFFFFF AND LT ISZERO PUSH2 0x417D JUMPI PUSH2 0x4176 DUP3 PUSH2 0x4712 JUMP JUMPDEST SWAP1 POP PUSH2 0x442C JUMP JUMPDEST PUSH2 0xFFFF DUP3 PUSH8 0xFFFFFFFFFFFFFFFF AND GT PUSH2 0x4269 JUMPI PUSH2 0x419D PUSH1 0xFD PUSH1 0xF8 SHL PUSH2 0x4737 JUMP JUMPDEST PUSH2 0x41A6 DUP4 PUSH2 0x474C JUMP JUMPDEST PUSH1 0x40 MLOAD PUSH1 0x20 ADD DUP1 DUP4 DUP1 MLOAD SWAP1 PUSH1 0x20 ADD SWAP1 DUP1 DUP4 DUP4 JUMPDEST PUSH1 0x20 DUP4 LT PUSH2 0x41DC JUMPI DUP1 MLOAD DUP3 MSTORE PUSH1 0x20 DUP3 ADD SWAP2 POP PUSH1 0x20 DUP2 ADD SWAP1 POP PUSH1 0x20 DUP4 SUB SWAP3 POP PUSH2 0x41B9 JUMP JUMPDEST PUSH1 0x1 DUP4 PUSH1 0x20 SUB PUSH2 0x100 EXP SUB DUP1 NOT DUP3 MLOAD AND DUP2 DUP5 MLOAD AND DUP1 DUP3 OR DUP6 MSTORE POP POP POP POP POP POP SWAP1 POP ADD DUP3 DUP1 MLOAD SWAP1 PUSH1 0x20 ADD SWAP1 DUP1 DUP4 DUP4 JUMPDEST PUSH1 0x20 DUP4 LT PUSH2 0x422D JUMPI DUP1 MLOAD DUP3 MSTORE PUSH1 0x20 DUP3 ADD SWAP2 POP PUSH1 0x20 DUP2 ADD SWAP1 POP PUSH1 0x20 DUP4 SUB SWAP3 POP PUSH2 0x420A JUMP JUMPDEST PUSH1 0x1 DUP4 PUSH1 0x20 SUB PUSH2 0x100 EXP SUB DUP1 NOT DUP3 MLOAD AND DUP2 DUP5 MLOAD AND DUP1 DUP3 OR DUP6 MSTORE POP POP POP POP POP POP SWAP1 POP ADD SWAP3 POP POP POP PUSH1 0x40 MLOAD PUSH1 0x20 DUP2 DUP4 SUB SUB DUP2 MSTORE SWAP1 PUSH1 0x40 MSTORE SWAP1 POP PUSH2 0x442C JUMP JUMPDEST PUSH4 0xFFFFFFFF DUP3 PUSH8 0xFFFFFFFFFFFFFFFF AND GT PUSH2 0x4357 JUMPI PUSH2 0x428B PUSH1 0xFE PUSH1 0xF8 SHL PUSH2 0x4737 JUMP JUMPDEST PUSH2 0x4294 DUP4 PUSH2 0x4794 JUMP JUMPDEST PUSH1 0x40 MLOAD PUSH1 0x20 ADD DUP1 DUP4 DUP1 MLOAD SWAP1 PUSH1 0x20 ADD SWAP1 DUP1 DUP4 DUP4 JUMPDEST PUSH1 0x20 DUP4 LT PUSH2 0x42CA JUMPI DUP1 MLOAD DUP3 MSTORE PUSH1 0x20 DUP3 ADD SWAP2 POP PUSH1 0x20 DUP2 ADD SWAP1 POP PUSH1 0x20 DUP4 SUB SWAP3 POP PUSH2 0x42A7 JUMP JUMPDEST PUSH1 0x1 DUP4 PUSH1 0x20 SUB PUSH2 0x100 EXP SUB DUP1 NOT DUP3 MLOAD AND DUP2 DUP5 MLOAD AND DUP1 DUP3 OR DUP6 MSTORE POP POP POP POP POP POP SWAP1 POP ADD DUP3 DUP1 MLOAD SWAP1 PUSH1 0x20 ADD SWAP1 DUP1 DUP4 DUP4 JUMPDEST PUSH1 0x20 DUP4 LT PUSH2 0x431B JUMPI DUP1 MLOAD DUP3 MSTORE PUSH1 0x20 DUP3 ADD SWAP2 POP PUSH1 0x20 DUP2 ADD SWAP1 POP PUSH1 0x20 DUP4 SUB SWAP3 POP PUSH2 0x42F8 JUMP JUMPDEST PUSH1 0x1 DUP4 PUSH1 0x20 SUB PUSH2 0x100 EXP SUB DUP1 NOT DUP3 MLOAD AND DUP2 DUP5 MLOAD AND DUP1 DUP3 OR DUP6 MSTORE POP POP POP POP POP POP SWAP1 POP ADD SWAP3 POP POP POP PUSH1 0x40 MLOAD PUSH1 0x20 DUP2 DUP4 SUB SUB DUP2 MSTORE SWAP1 PUSH1 0x40 MSTORE SWAP1 POP PUSH2 0x442C JUMP JUMPDEST PUSH2 0x4364 PUSH1 0xFF PUSH1 0xF8 SHL PUSH2 0x4737 JUMP JUMPDEST PUSH2 0x436D DUP4 PUSH2 0x47DC JUMP JUMPDEST PUSH1 0x40 MLOAD PUSH1 0x20 ADD DUP1 DUP4 DUP1 MLOAD SWAP1 PUSH1 0x20 ADD SWAP1 DUP1 DUP4 DUP4 JUMPDEST PUSH1 0x20 DUP4 LT PUSH2 0x43A3 JUMPI DUP1 MLOAD DUP3 MSTORE PUSH1 0x20 DUP3 ADD SWAP2 POP PUSH1 0x20 DUP2 ADD SWAP1 POP PUSH1 0x20 DUP4 SUB SWAP3 POP PUSH2 0x4380 JUMP JUMPDEST PUSH1 0x1 DUP4 PUSH1 0x20 SUB PUSH2 0x100 EXP SUB DUP1 NOT DUP3 MLOAD AND DUP2 DUP5 MLOAD AND DUP1 DUP3 OR DUP6 MSTORE POP POP POP POP POP POP SWAP1 POP ADD DUP3 DUP1 MLOAD SWAP1 PUSH1 0x20 ADD SWAP1 DUP1 DUP4 DUP4 JUMPDEST PUSH1 0x20 DUP4 LT PUSH2 0x43F4 JUMPI DUP1 MLOAD DUP3 MSTORE PUSH1 0x20 DUP3 ADD SWAP2 POP PUSH1 0x20 DUP2 ADD SWAP1 POP PUSH1 0x20 DUP4 SUB SWAP3 POP PUSH2 0x43D1 JUMP JUMPDEST PUSH1 0x1 DUP4 PUSH1 0x20 SUB PUSH2 0x100 EXP SUB DUP1 NOT DUP3 MLOAD AND DUP2 DUP5 MLOAD AND DUP1 DUP3 OR DUP6 MSTORE POP POP POP POP POP POP SWAP1 POP ADD SWAP3 POP POP POP PUSH1 0x40 MLOAD PUSH1 0x20 DUP2 DUP4 SUB SUB DUP2 MSTORE SWAP1 PUSH1 0x40 MSTORE SWAP1 POP JUMPDEST SWAP2 SWAP1 POP JUMP JUMPDEST PUSH1 0x0 DUP1 DUP4 MLOAD PUSH1 0x1 DUP5 ADD GT ISZERO DUP1 ISZERO PUSH2 0x444A JUMPI POP PUSH1 0x1 DUP4 ADD DUP4 LT JUMPDEST PUSH2 0x44BC JUMPI PUSH1 0x40 MLOAD PUSH32 0x8C379A000000000000000000000000000000000000000000000000000000000 DUP2 MSTORE PUSH1 0x4 ADD DUP1 DUP1 PUSH1 0x20 ADD DUP3 DUP2 SUB DUP3 MSTORE PUSH1 0x20 DUP2 MSTORE PUSH1 0x20 ADD DUP1 PUSH32 0x4E657874427974652C204F66667365742065786365656473206D6178696D756D DUP2 MSTORE POP PUSH1 0x20 ADD SWAP2 POP POP PUSH1 0x40 MLOAD DUP1 SWAP2 SUB SWAP1 REVERT JUMPDEST PUSH1 0x0 DUP4 PUSH1 0x20 DUP7 ADD ADD MLOAD SWAP1 POP DUP1 PUSH1 0x1 DUP6 ADD SWAP3 POP SWAP3 POP POP SWAP3 POP SWAP3 SWAP1 POP JUMP JUMPDEST PUSH1 0x0 DUP1 DUP4 MLOAD PUSH1 0x2 DUP5 ADD GT ISZERO DUP1 ISZERO PUSH2 0x44F1 JUMPI POP PUSH1 0x2 DUP4 ADD DUP4 LT JUMPDEST PUSH2 0x4546 JUMPI PUSH1 0x40 MLOAD PUSH32 0x8C379A000000000000000000000000000000000000000000000000000000000 DUP2 MSTORE PUSH1 0x4 ADD DUP1 DUP1 PUSH1 0x20 ADD DUP3 DUP2 SUB DUP3 MSTORE PUSH1 0x22 DUP2 MSTORE PUSH1 0x20 ADD DUP1 PUSH2 0x493D PUSH1 0x22 SWAP2 CODECOPY PUSH1 0x40 ADD SWAP2 POP POP PUSH1 0x40 MLOAD DUP1 SWAP2 SUB SWAP1 REVERT JUMPDEST PUSH1 0x0 PUSH1 0x40 MLOAD DUP5 PUSH1 0x20 DUP8 ADD ADD MLOAD DUP1 PUSH1 0x1 BYTE DUP3 MSTORE8 DUP1 PUSH1 0x0 BYTE PUSH1 0x1 DUP4 ADD MSTORE8 PUSH1 0x2 DUP3 ADD PUSH1 0x40 MSTORE PUSH1 0x1E DUP3 SUB MLOAD SWAP3 POP POP POP DUP1 PUSH1 0x2 DUP6 ADD SWAP3 POP SWAP3 POP POP SWAP3 POP SWAP3 SWAP1 POP JUMP JUMPDEST PUSH1 0x0 DUP1 DUP4 MLOAD PUSH1 0x4 DUP5 ADD GT ISZERO DUP1 ISZERO PUSH2 0x459B JUMPI POP PUSH1 0x4 DUP4 ADD DUP4 LT JUMPDEST PUSH2 0x45F0 JUMPI PUSH1 0x40 MLOAD PUSH32 0x8C379A000000000000000000000000000000000000000000000000000000000 DUP2 MSTORE PUSH1 0x4 ADD DUP1 DUP1 PUSH1 0x20 ADD DUP3 DUP2 SUB DUP3 MSTORE PUSH1 0x22 DUP2 MSTORE PUSH1 0x20 ADD DUP1 PUSH2 0x49B1 PUSH1 0x22 SWAP2 CODECOPY PUSH1 0x40 ADD SWAP2 POP POP PUSH1 0x40 MLOAD DUP1 SWAP2 SUB SWAP1 REVERT JUMPDEST PUSH1 0x0 PUSH1 0x40 MLOAD PUSH1 0x4 PUSH1 0x0 PUSH1 0x1 DUP3 SUB DUP8 PUSH1 0x20 DUP11 ADD ADD MLOAD JUMPDEST DUP4 DUP4 LT ISZERO PUSH2 0x4625 JUMPI DUP1 DUP3 BYTE DUP4 DUP7 ADD MSTORE8 PUSH1 0x1 DUP4 ADD SWAP3 POP PUSH1 0x1 DUP3 SUB SWAP2 POP PUSH2 0x4605 JUMP JUMPDEST POP POP POP DUP1 DUP3 ADD PUSH1 0x40 MSTORE DUP1 PUSH1 0x20 SUB DUP3 SUB MLOAD SWAP3 POP POP POP DUP1 PUSH1 0x4 DUP6 ADD SWAP3 POP SWAP3 POP POP SWAP3 POP SWAP3 SWAP1 POP JUMP JUMPDEST PUSH1 0x0 DUP1 DUP4 MLOAD PUSH1 0x8 DUP5 ADD GT ISZERO DUP1 ISZERO PUSH2 0x4663 JUMPI POP PUSH1 0x8 DUP4 ADD DUP4 LT JUMPDEST PUSH2 0x46B8 JUMPI PUSH1 0x40 MLOAD PUSH32 0x8C379A000000000000000000000000000000000000000000000000000000000 DUP2 MSTORE PUSH1 0x4 ADD DUP1 DUP1 PUSH1 0x20 ADD DUP3 DUP2 SUB DUP3 MSTORE PUSH1 0x22 DUP2 MSTORE PUSH1 0x20 ADD DUP1 PUSH2 0x495F PUSH1 0x22 SWAP2 CODECOPY PUSH1 0x40 ADD SWAP2 POP POP PUSH1 0x40 MLOAD DUP1 SWAP2 SUB SWAP1 REVERT JUMPDEST PUSH1 0x0 PUSH1 0x40 MLOAD PUSH1 0x8 PUSH1 0x0 PUSH1 0x1 DUP3 SUB DUP8 PUSH1 0x20 DUP11 ADD ADD MLOAD JUMPDEST DUP4 DUP4 LT ISZERO PUSH2 0x46ED JUMPI DUP1 DUP3 BYTE DUP4 DUP7 ADD MSTORE8 PUSH1 0x1 DUP4 ADD SWAP3 POP PUSH1 0x1 DUP3 SUB SWAP2 POP PUSH2 0x46CD JUMP JUMPDEST POP POP POP DUP1 DUP3 ADD PUSH1 0x40 MSTORE DUP1 PUSH1 0x20 SUB DUP3 SUB MLOAD SWAP3 POP POP POP DUP1 PUSH1 0x8 DUP6 ADD SWAP3 POP SWAP3 POP POP SWAP3 POP SWAP3 SWAP1 POP JUMP JUMPDEST PUSH1 0x60 DUP1 PUSH1 0x40 MLOAD SWAP1 POP PUSH1 0x1 DUP2 MSTORE DUP3 PUSH1 0xF8 SHL PUSH1 0x20 DUP3 ADD MSTORE PUSH1 0x21 DUP2 ADD PUSH1 0x40 MSTORE DUP1 SWAP2 POP POP SWAP2 SWAP1 POP JUMP JUMPDEST PUSH1 0x60 PUSH2 0x4745 DUP3 PUSH1 0xF8 SHR PUSH2 0x4712 JUMP JUMPDEST SWAP1 POP SWAP2 SWAP1 POP JUMP JUMPDEST PUSH1 0x60 DUP1 PUSH1 0x40 MLOAD SWAP1 POP PUSH1 0x2 DUP1 DUP3 MSTORE PUSH1 0x0 PUSH1 0x1F JUMPDEST DUP3 DUP3 LT ISZERO PUSH2 0x4781 JUMPI DUP6 DUP2 BYTE DUP3 PUSH1 0x20 DUP7 ADD ADD MSTORE8 PUSH1 0x1 DUP3 ADD SWAP2 POP PUSH1 0x1 DUP2 SUB SWAP1 POP PUSH2 0x475E JUMP JUMPDEST POP POP PUSH1 0x22 DUP3 ADD PUSH1 0x40 MSTORE POP DUP1 SWAP2 POP POP SWAP2 SWAP1 POP JUMP JUMPDEST PUSH1 0x60 DUP1 PUSH1 0x40 MLOAD SWAP1 POP PUSH1 0x4 DUP1 DUP3 MSTORE PUSH1 0x0 PUSH1 0x1F JUMPDEST DUP3 DUP3 LT ISZERO PUSH2 0x47C9 JUMPI DUP6 DUP2 BYTE DUP3 PUSH1 0x20 DUP7 ADD ADD MSTORE8 PUSH1 0x1 DUP3 ADD SWAP2 POP PUSH1 0x1 DUP2 SUB SWAP1 POP PUSH2 0x47A6 JUMP JUMPDEST POP POP PUSH1 0x24 DUP3 ADD PUSH1 0x40 MSTORE POP DUP1 SWAP2 POP POP SWAP2 SWAP1 POP JUMP JUMPDEST PUSH1 0x60 DUP1 PUSH1 0x40 MLOAD SWAP1 POP PUSH1 0x8 DUP1 DUP3 MSTORE PUSH1 0x0 PUSH1 0x1F JUMPDEST DUP3 DUP3 LT ISZERO PUSH2 0x4811 JUMPI DUP6 DUP2 BYTE DUP3 PUSH1 0x20 DUP7 ADD ADD MSTORE8 PUSH1 0x1 DUP3 ADD SWAP2 POP PUSH1 0x1 DUP2 SUB SWAP1 POP PUSH2 0x47EE JUMP JUMPDEST POP POP PUSH1 0x28 DUP3 ADD PUSH1 0x40 MSTORE POP DUP1 SWAP2 POP POP SWAP2 SWAP1 POP JUMP JUMPDEST PUSH1 0x40 MLOAD DUP1 PUSH1 0x40 ADD PUSH1 0x40 MSTORE DUP1 PUSH1 0x0 DUP2 MSTORE PUSH1 0x20 ADD PUSH1 0x0 DUP1 NOT AND DUP2 MSTORE POP SWAP1 JUMP INVALID 0x4E PUSH6 0x787455696E74 ORIGIN CALLDATALOAD CALLDATALOAD 0x2C KECCAK256 PUSH16 0x66667365742065786365656473206D61 PUSH25 0x696D756D6279746573206C656E67746820646F6573206E6F74 KECCAK256 PUSH14 0x6174636820616464726573735665 PUSH19 0x69666965722075706461746573206861766520 PUSH3 0x65656E KECCAK256 PUSH5 0x697361626C PUSH6 0x642E5F726967 PUSH9 0x742073686F756C6420 PUSH3 0x652069 PUSH15 0x7369646520746865206669656C646D PUSH20 0x6753656E646572206973206E6F742072656C6179 KECCAK256 PUSH17 0x726F7879206D616E6167657266726F6D20 PUSH17 0x726F787920636F6E747261637420616464 PUSH19 0x6573732063616E6E6F7420626520656D707479 SLOAD PUSH9 0x6520636F6D6D69746D PUSH6 0x6E7420686173 KECCAK256 PUSH3 0x65656E KECCAK256 PUSH20 0x75626D69747465644E65787455696E7431362C20 PUSH16 0x66667365742065786365656473206D61 PUSH25 0x696D756D4E65787455696E7436342C206F6666736574206578 PUSH4 0x65656473 KECCAK256 PUSH14 0x6178696D756D4D65726B6C652074 PUSH19 0x65652069732066756C6C2E204E6F206D6F7265 KECCAK256 PUSH13 0x65617665732063616E20626520 PUSH2 0x6464 PUSH6 0x644E65787455 PUSH10 0x6E7433322C206F666673 PUSH6 0x742065786365 PUSH6 0x6473206D6178 PUSH10 0x6D756D4F6E6C79206F70 PUSH6 0x7261746F7220 PUSH4 0x616E2063 PUSH2 0x6C6C KECCAK256 PUSH21 0x6869732066756E6374696F6E2E4E65787456617242 PUSH26 0x7465732C206F66667365742065786365656473206D6178696D75 PUSH14 0xA2646970667358221220801F6186 0xD7 SWAP2 AND DUP13 0xCE DUP6 PUSH14 0xC979B038F0D48638AE3C6473B6B4 DUP12 0xEF PUSH28 0x39F4CCE464736F6C634300060B00335F6C6576656C732073686F756C PUSH5 0x2062652067 PUSH19 0x6561746572207468616E207A65726F00000000 "
		},
		"gasEstimates": {
			"creation": {
				"codeDepositCost": "3805000",
				"executionCost": "infinite",
				"totalCost": "infinite"
			},
			"external": {
				"FIELD_SIZE()": "251",
				"ROOT_HISTORY_SIZE()": "306",
				"assetType()": "infinite",
				"bridgeType()": "infinite",
				"changeOperator(address)": "infinite",
				"currentRootIndex()": "1121",
				"deposit(uint256,bytes32,bytes32,bytes16,bytes)": "infinite",
				"depositedCommitments(bytes32)": "1268",
				"disableVerifierUpdate()": "infinite",
				"filledSubtrees(uint256)": "1273",
				"getHasherAddress()": "infinite",
				"getIsDepositsDisabled()": "1223",
				"getLastRoot()": "2022",
				"getLevels()": "1130",
				"getVerifierAddress()": "1195",
				"hashLeftRight(address,bytes32,bytes32)": "infinite",
				"hasher()": "infinite",
				"isDepositsDisabled()": "1191",
				"isKnownRoot(bytes32)": "infinite",
				"isSpent(uint256)": "1293",
				"isVerifierUpdateDisabled()": "1193",
				"levels()": "1165",
				"nextIndex()": "1235",
				"operator()": "1098",
				"peerChainId()": "1214",
				"peerContractAddress()": "1098",
				"relayCommitments(bytes32)": "1291",
				"relayProxyAddress()": "1186",
				"roots(uint256)": "1274",
				"setPeerContractAddress(address)": "infinite",
				"setRelayProxyAddress(address)": "infinite",
				"syncTx(bytes,bytes,uint64)": "infinite",
				"toggleDeposits(bool)": "infinite",
				"updateVerifier(address)": "infinite",
				"verifier()": "1143",
				"withdraw(uint256[2],uint256[2][2],uint256[2],uint256,uint256,uint256,address)": "infinite",
				"withdrewSerialNumbers(uint256)": "1267",
				"zeros(uint256)": "1219"
			}
		},
		"methodIdentifiers": {
			"FIELD_SIZE()": "414a37ba",
			"ROOT_HISTORY_SIZE()": "cd87a3b4",
			"assetType()": "3fe3347a",
			"bridgeType()": "2421e155",
			"changeOperator(address)": "06394c9b",
			"currentRootIndex()": "90eeb02b",
			"deposit(uint256,bytes32,bytes32,bytes16,bytes)": "c5707c86",
			"depositedCommitments(bytes32)": "4752f3c2",
			"disableVerifierUpdate()": "20a7d092",
			"filledSubtrees(uint256)": "f178e47c",
			"getHasherAddress()": "ca49c6f8",
			"getIsDepositsDisabled()": "3505c6c1",
			"getLastRoot()": "ba70f757",
			"getLevels()": "0c394a60",
			"getVerifierAddress()": "53ae8717",
			"hashLeftRight(address,bytes32,bytes32)": "8ea3099e",
			"hasher()": "ed33639f",
			"isDepositsDisabled()": "ed6ea33a",
			"isKnownRoot(bytes32)": "6d9833e3",
			"isSpent(uint256)": "5a129efe",
			"isVerifierUpdateDisabled()": "4eb069f7",
			"levels()": "4ecf518b",
			"nextIndex()": "fc7e9c6f",
			"operator()": "570ca735",
			"peerChainId()": "cdfceeba",
			"peerContractAddress()": "9bce0920",
			"relayCommitments(bytes32)": "1eb00e69",
			"relayProxyAddress()": "8981d4c6",
			"roots(uint256)": "c2b40ae4",
			"setPeerContractAddress(address)": "c6bbbeba",
			"setRelayProxyAddress(address)": "68733d51",
			"syncTx(bytes,bytes,uint64)": "df81d828",
			"toggleDeposits(bool)": "99383f78",
			"updateVerifier(address)": "97fc007c",
			"verifier()": "2b7ac3f3",
			"withdraw(uint256[2],uint256[2][2],uint256[2],uint256,uint256,uint256,address)": "261e55cc",
			"withdrewSerialNumbers(uint256)": "a4401dcb",
			"zeros(uint256)": "e8295588"
		}
	},
	"abi": [
		{
			"inputs": [
				{
					"internalType": "address",
					"name": "_relayProxyAddress",
					"type": "address"
				},
				{
					"internalType": "uint64",
					"name": "_peerChainId",
					"type": "uint64"
				},
				{
					"internalType": "address",
					"name": "_verifier",
					"type": "address"
				},
				{
					"internalType": "address",
					"name": "_hasher",
					"type": "address"
				},
				{
					"internalType": "uint32",
					"name": "_merkleTreeHeight",
					"type": "uint32"
				}
			],
			"stateMutability": "nonpayable",
			"type": "constructor"
		},
		{
			"anonymous": false,
			"inputs": [
				{
					"indexed": false,
					"internalType": "uint256",
					"name": "amount",
					"type": "uint256"
				},
				{
					"indexed": true,
					"internalType": "bytes32",
					"name": "commitmentHash",
					"type": "bytes32"
				},
				{
					"indexed": false,
					"internalType": "bytes",
					"name": "encryptedNote",
					"type": "bytes"
				}
			],
			"name": "Deposit",
			"type": "event"
		},
		{
			"anonymous": false,
			"inputs": [
				{
					"indexed": true,
					"internalType": "bytes32",
					"name": "leaf",
					"type": "bytes32"
				},
				{
					"indexed": false,
					"internalType": "uint32",
					"name": "leafIndex",
					"type": "uint32"
				},
				{
					"indexed": false,
					"internalType": "uint256",
					"name": "amount",
					"type": "uint256"
				}
			],
			"name": "MerkleTreeInsert",
			"type": "event"
		},
		{
			"anonymous": false,
			"inputs": [
				{
					"indexed": false,
					"internalType": "address",
					"name": "",
					"type": "address"
				},
				{
					"indexed": false,
					"internalType": "uint256",
					"name": "",
					"type": "uint256"
				}
			],
			"name": "Received",
			"type": "event"
		},
		{
			"anonymous": false,
			"inputs": [
				{
					"indexed": false,
					"internalType": "address",
					"name": "recipient",
					"type": "address"
				},
				{
					"indexed": true,
					"internalType": "uint256",
					"name": "rootHash",
					"type": "uint256"
				},
				{
					"indexed": true,
					"internalType": "uint256",
					"name": "serialNumber",
					"type": "uint256"
				}
			],
			"name": "Withdraw",
			"type": "event"
		},
		{
			"inputs": [],
			"name": "FIELD_SIZE",
			"outputs": [
				{
					"internalType": "uint256",
					"name": "",
					"type": "uint256"
				}
			],
			"stateMutability": "view",
			"type": "function"
		},
		{
			"inputs": [],
			"name": "ROOT_HISTORY_SIZE",
			"outputs": [
				{
					"internalType": "uint32",
					"name": "",
					"type": "uint32"
				}
			],
			"stateMutability": "view",
			"type": "function"
		},
		{
			"inputs": [],
			"name": "assetType",
			"outputs": [
				{
					"internalType": "string",
					"name": "",
					"type": "string"
				}
			],
			"stateMutability": "view",
			"type": "function"
		},
		{
			"inputs": [],
			"name": "bridgeType",
			"outputs": [
				{
					"internalType": "string",
					"name": "",
					"type": "string"
				}
			],
			"stateMutability": "view",
			"type": "function"
		},
		{
			"inputs": [
				{
					"internalType": "address",
					"name": "_newOperator",
					"type": "address"
				}
			],
			"name": "changeOperator",
			"outputs": [],
			"stateMutability": "nonpayable",
			"type": "function"
		},
		{
			"inputs": [],
			"name": "currentRootIndex",
			"outputs": [
				{
					"internalType": "uint32",
					"name": "",
					"type": "uint32"
				}
			],
			"stateMutability": "view",
			"type": "function"
		},
		{
			"inputs": [
				{
					"internalType": "uint256",
					"name": "amount",
					"type": "uint256"
				},
				{
					"internalType": "bytes32",
					"name": "commitmentHash",
					"type": "bytes32"
				},
				{
					"internalType": "bytes32",
					"name": "hashK",
					"type": "bytes32"
				},
				{
					"internalType": "bytes16",
					"name": "randomS",
					"type": "bytes16"
				},
				{
					"internalType": "bytes",
					"name": "encryptedNote",
					"type": "bytes"
				}
			],
			"name": "deposit",
			"outputs": [],
			"stateMutability": "payable",
			"type": "function"
		},
		{
			"inputs": [
				{
					"internalType": "bytes32",
					"name": "",
					"type": "bytes32"
				}
			],
			"name": "depositedCommitments",
			"outputs": [
				{
					"internalType": "bool",
					"name": "",
					"type": "bool"
				}
			],
			"stateMutability": "view",
			"type": "function"
		},
		{
			"inputs": [],
			"name": "disableVerifierUpdate",
			"outputs": [],
			"stateMutability": "nonpayable",
			"type": "function"
		},
		{
			"inputs": [
				{
					"internalType": "uint256",
					"name": "",
					"type": "uint256"
				}
			],
			"name": "filledSubtrees",
			"outputs": [
				{
					"internalType": "bytes32",
					"name": "",
					"type": "bytes32"
				}
			],
			"stateMutability": "view",
			"type": "function"
		},
		{
			"inputs": [],
			"name": "getHasherAddress",
			"outputs": [
				{
					"internalType": "address",
					"name": "",
					"type": "address"
				}
			],
			"stateMutability": "view",
			"type": "function"
		},
		{
			"inputs": [],
			"name": "getIsDepositsDisabled",
			"outputs": [
				{
					"internalType": "bool",
					"name": "",
					"type": "bool"
				}
			],
			"stateMutability": "view",
			"type": "function"
		},
		{
			"inputs": [],
			"name": "getLastRoot",
			"outputs": [
				{
					"internalType": "bytes32",
					"name": "",
					"type": "bytes32"
				}
			],
			"stateMutability": "view",
			"type": "function"
		},
		{
			"inputs": [],
			"name": "getLevels",
			"outputs": [
				{
					"internalType": "uint32",
					"name": "",
					"type": "uint32"
				}
			],
			"stateMutability": "view",
			"type": "function"
		},
		{
			"inputs": [],
			"name": "getVerifierAddress",
			"outputs": [
				{
					"internalType": "address",
					"name": "",
					"type": "address"
				}
			],
			"stateMutability": "view",
			"type": "function"
		},
		{
			"inputs": [
				{
					"internalType": "contract IHasher",
					"name": "_hasher",
					"type": "address"
				},
				{
					"internalType": "bytes32",
					"name": "_left",
					"type": "bytes32"
				},
				{
					"internalType": "bytes32",
					"name": "_right",
					"type": "bytes32"
				}
			],
			"name": "hashLeftRight",
			"outputs": [
				{
					"internalType": "bytes32",
					"name": "",
					"type": "bytes32"
				}
			],
			"stateMutability": "pure",
			"type": "function"
		},
		{
			"inputs": [],
			"name": "hasher",
			"outputs": [
				{
					"internalType": "contract IHasher",
					"name": "",
					"type": "address"
				}
			],
			"stateMutability": "view",
			"type": "function"
		},
		{
			"inputs": [],
			"name": "isDepositsDisabled",
			"outputs": [
				{
					"internalType": "bool",
					"name": "",
					"type": "bool"
				}
			],
			"stateMutability": "view",
			"type": "function"
		},
		{
			"inputs": [
				{
					"internalType": "bytes32",
					"name": "_root",
					"type": "bytes32"
				}
			],
			"name": "isKnownRoot",
			"outputs": [
				{
					"internalType": "bool",
					"name": "",
					"type": "bool"
				}
			],
			"stateMutability": "view",
			"type": "function"
		},
		{
			"inputs": [
				{
					"internalType": "uint256",
					"name": "serialNumber",
					"type": "uint256"
				}
			],
			"name": "isSpent",
			"outputs": [
				{
					"internalType": "bool",
					"name": "",
					"type": "bool"
				}
			],
			"stateMutability": "view",
			"type": "function"
		},
		{
			"inputs": [],
			"name": "isVerifierUpdateDisabled",
			"outputs": [
				{
					"internalType": "bool",
					"name": "",
					"type": "bool"
				}
			],
			"stateMutability": "view",
			"type": "function"
		},
		{
			"inputs": [],
			"name": "levels",
			"outputs": [
				{
					"internalType": "uint32",
					"name": "",
					"type": "uint32"
				}
			],
			"stateMutability": "view",
			"type": "function"
		},
		{
			"inputs": [],
			"name": "nextIndex",
			"outputs": [
				{
					"internalType": "uint32",
					"name": "",
					"type": "uint32"
				}
			],
			"stateMutability": "view",
			"type": "function"
		},
		{
			"inputs": [],
			"name": "operator",
			"outputs": [
				{
					"internalType": "address",
					"name": "",
					"type": "address"
				}
			],
			"stateMutability": "view",
			"type": "function"
		},
		{
			"inputs": [],
			"name": "peerChainId",
			"outputs": [
				{
					"internalType": "uint64",
					"name": "",
					"type": "uint64"
				}
			],
			"stateMutability": "view",
			"type": "function"
		},
		{
			"inputs": [],
			"name": "peerContractAddress",
			"outputs": [
				{
					"internalType": "address",
					"name": "",
					"type": "address"
				}
			],
			"stateMutability": "view",
			"type": "function"
		},
		{
			"inputs": [
				{
					"internalType": "bytes32",
					"name": "",
					"type": "bytes32"
				}
			],
			"name": "relayCommitments",
			"outputs": [
				{
					"internalType": "bool",
					"name": "",
					"type": "bool"
				}
			],
			"stateMutability": "view",
			"type": "function"
		},
		{
			"inputs": [],
			"name": "relayProxyAddress",
			"outputs": [
				{
					"internalType": "address",
					"name": "",
					"type": "address"
				}
			],
			"stateMutability": "view",
			"type": "function"
		},
		{
			"inputs": [
				{
					"internalType": "uint256",
					"name": "",
					"type": "uint256"
				}
			],
			"name": "roots",
			"outputs": [
				{
					"internalType": "bytes32",
					"name": "",
					"type": "bytes32"
				}
			],
			"stateMutability": "view",
			"type": "function"
		},
		{
			"inputs": [
				{
					"internalType": "address",
					"name": "_peerContractAddress",
					"type": "address"
				}
			],
			"name": "setPeerContractAddress",
			"outputs": [],
			"stateMutability": "nonpayable",
			"type": "function"
		},
		{
			"inputs": [
				{
					"internalType": "address",
					"name": "_relayProxyAddress",
					"type": "address"
				}
			],
			"name": "setRelayProxyAddress",
			"outputs": [],
			"stateMutability": "nonpayable",
			"type": "function"
		},
		{
			"inputs": [
				{
					"internalType": "bytes",
					"name": "txDataBytes",
					"type": "bytes"
				},
				{
					"internalType": "bytes",
					"name": "fromContractAddr",
					"type": "bytes"
				},
				{
					"internalType": "uint64",
					"name": "fromChainId",
					"type": "uint64"
				}
			],
			"name": "syncTx",
			"outputs": [
				{
					"internalType": "bool",
					"name": "",
					"type": "bool"
				}
			],
			"stateMutability": "nonpayable",
			"type": "function"
		},
		{
			"inputs": [
				{
					"internalType": "bool",
					"name": "_state",
					"type": "bool"
				}
			],
			"name": "toggleDeposits",
			"outputs": [],
			"stateMutability": "nonpayable",
			"type": "function"
		},
		{
			"inputs": [
				{
					"internalType": "address",
					"name": "_newVerifier",
					"type": "address"
				}
			],
			"name": "updateVerifier",
			"outputs": [],
			"stateMutability": "nonpayable",
			"type": "function"
		},
		{
			"inputs": [],
			"name": "verifier",
			"outputs": [
				{
					"internalType": "contract IVerifier",
					"name": "",
					"type": "address"
				}
			],
			"stateMutability": "view",
			"type": "function"
		},
		{
			"inputs": [
				{
					"internalType": "uint256[2]",
					"name": "a",
					"type": "uint256[2]"
				},
				{
					"internalType": "uint256[2][2]",
					"name": "b",
					"type": "uint256[2][2]"
				},
				{
					"internalType": "uint256[2]",
					"name": "c",
					"type": "uint256[2]"
				},
				{
					"internalType": "uint256",
					"name": "rootHash",
					"type": "uint256"
				},
				{
					"internalType": "uint256",
					"name": "serialNumber",
					"type": "uint256"
				},
				{
					"internalType": "uint256",
					"name": "amount",
					"type": "uint256"
				},
				{
					"internalType": "address",
					"name": "recipient",
					"type": "address"
				}
			],
			"name": "withdraw",
			"outputs": [],
			"stateMutability": "payable",
			"type": "function"
		},
		{
			"inputs": [
				{
					"internalType": "uint256",
					"name": "",
					"type": "uint256"
				}
			],
			"name": "withdrewSerialNumbers",
			"outputs": [
				{
					"internalType": "bool",
					"name": "",
					"type": "bool"
				}
			],
			"stateMutability": "view",
			"type": "function"
		},
		{
			"inputs": [
				{
					"internalType": "uint256",
					"name": "i",
					"type": "uint256"
				}
			],
			"name": "zeros",
			"outputs": [
				{
					"internalType": "bytes32",
					"name": "",
					"type": "bytes32"
				}
			],
			"stateMutability": "pure",
			"type": "function"
		},
		{
			"stateMutability": "payable",
			"type": "receive"
		}
	]
}